{
	"contracts/ico/PaymeTokenVesting.sol": {
		"PaymeTokenVesting": {
			"abi": [
				{
					"anonymous": false,
					"inputs": [
						{
							"indexed": false,
							"internalType": "uint8",
							"name": "version",
							"type": "uint8"
						}
					],
					"name": "Initialized",
					"type": "event"
				},
				{
					"anonymous": false,
					"inputs": [
						{
							"indexed": true,
							"internalType": "address",
							"name": "previousOwner",
							"type": "address"
						},
						{
							"indexed": true,
							"internalType": "address",
							"name": "newOwner",
							"type": "address"
						}
					],
					"name": "OwnershipTransferred",
					"type": "event"
				},
				{
					"anonymous": false,
					"inputs": [
						{
							"indexed": false,
							"internalType": "uint256",
							"name": "amount",
							"type": "uint256"
						}
					],
					"name": "Released",
					"type": "event"
				},
				{
					"anonymous": false,
					"inputs": [],
					"name": "Revoked",
					"type": "event"
				},
				{
					"anonymous": false,
					"inputs": [
						{
							"indexed": false,
							"internalType": "address",
							"name": "beneficiary",
							"type": "address"
						},
						{
							"indexed": false,
							"internalType": "uint256",
							"name": "amount",
							"type": "uint256"
						}
					],
					"name": "TokenReleasedAtTGE",
					"type": "event"
				},
				{
					"anonymous": false,
					"inputs": [
						{
							"indexed": false,
							"internalType": "bytes32",
							"name": "",
							"type": "bytes32"
						}
					],
					"name": "VestingScheduleCreated",
					"type": "event"
				},
				{
					"inputs": [
						{
							"internalType": "address",
							"name": "holder",
							"type": "address"
						}
					],
					"name": "computeNextVestingScheduleIdForHolder",
					"outputs": [
						{
							"internalType": "bytes32",
							"name": "",
							"type": "bytes32"
						}
					],
					"stateMutability": "view",
					"type": "function"
				},
				{
					"inputs": [
						{
							"internalType": "bytes32",
							"name": "vestingScheduleId",
							"type": "bytes32"
						}
					],
					"name": "computeReleasableAmount",
					"outputs": [
						{
							"internalType": "uint256",
							"name": "",
							"type": "uint256"
						}
					],
					"stateMutability": "view",
					"type": "function"
				},
				{
					"inputs": [
						{
							"internalType": "address",
							"name": "holder",
							"type": "address"
						},
						{
							"internalType": "uint256",
							"name": "index",
							"type": "uint256"
						}
					],
					"name": "computeVestingScheduleIdForAddressAndIndex",
					"outputs": [
						{
							"internalType": "bytes32",
							"name": "",
							"type": "bytes32"
						}
					],
					"stateMutability": "pure",
					"type": "function"
				},
				{
					"inputs": [
						{
							"internalType": "address",
							"name": "iBeneficiary",
							"type": "address"
						},
						{
							"internalType": "uint256",
							"name": "iStart",
							"type": "uint256"
						},
						{
							"internalType": "uint256",
							"name": "iCliff",
							"type": "uint256"
						},
						{
							"internalType": "uint256",
							"name": "iDuration",
							"type": "uint256"
						},
						{
							"internalType": "uint256",
							"name": "iSlicePeriodSeconds",
							"type": "uint256"
						},
						{
							"internalType": "bool",
							"name": "iRevocable",
							"type": "bool"
						},
						{
							"internalType": "uint256",
							"name": "iAmount",
							"type": "uint256"
						},
						{
							"internalType": "bool",
							"name": "iReleaseAtTGE",
							"type": "bool"
						}
					],
					"name": "createVestingSchedule",
					"outputs": [],
					"stateMutability": "nonpayable",
					"type": "function"
				},
				{
					"inputs": [],
					"name": "crowdsalesAddress",
					"outputs": [
						{
							"internalType": "address",
							"name": "",
							"type": "address"
						}
					],
					"stateMutability": "view",
					"type": "function"
				},
				{
					"inputs": [],
					"name": "getCurrentTime",
					"outputs": [
						{
							"internalType": "uint256",
							"name": "",
							"type": "uint256"
						}
					],
					"stateMutability": "view",
					"type": "function"
				},
				{
					"inputs": [
						{
							"internalType": "address",
							"name": "holder",
							"type": "address"
						}
					],
					"name": "getLastVestingScheduleForHolder",
					"outputs": [
						{
							"components": [
								{
									"internalType": "bool",
									"name": "initialized",
									"type": "bool"
								},
								{
									"internalType": "address",
									"name": "beneficiary",
									"type": "address"
								},
								{
									"internalType": "uint256",
									"name": "cliff",
									"type": "uint256"
								},
								{
									"internalType": "uint256",
									"name": "start",
									"type": "uint256"
								},
								{
									"internalType": "uint256",
									"name": "duration",
									"type": "uint256"
								},
								{
									"internalType": "uint256",
									"name": "slicePeriodSeconds",
									"type": "uint256"
								},
								{
									"internalType": "bool",
									"name": "revocable",
									"type": "bool"
								},
								{
									"internalType": "uint256",
									"name": "amountTotal",
									"type": "uint256"
								},
								{
									"internalType": "uint256",
									"name": "released",
									"type": "uint256"
								},
								{
									"internalType": "bool",
									"name": "revoked",
									"type": "bool"
								},
								{
									"internalType": "bool",
									"name": "releaseAtTGE",
									"type": "bool"
								}
							],
							"internalType": "struct PaymeTokenVesting.VestingSchedule",
							"name": "",
							"type": "tuple"
						}
					],
					"stateMutability": "view",
					"type": "function"
				},
				{
					"inputs": [],
					"name": "getTgeTotalAmount",
					"outputs": [
						{
							"internalType": "uint256",
							"name": "",
							"type": "uint256"
						}
					],
					"stateMutability": "view",
					"type": "function"
				},
				{
					"inputs": [],
					"name": "getToken",
					"outputs": [
						{
							"internalType": "address",
							"name": "",
							"type": "address"
						}
					],
					"stateMutability": "view",
					"type": "function"
				},
				{
					"inputs": [],
					"name": "getTotalInvestmentAmountBalance",
					"outputs": [
						{
							"internalType": "uint256",
							"name": "",
							"type": "uint256"
						}
					],
					"stateMutability": "view",
					"type": "function"
				},
				{
					"inputs": [
						{
							"internalType": "uint256",
							"name": "index",
							"type": "uint256"
						}
					],
					"name": "getVestingIdAtIndex",
					"outputs": [
						{
							"internalType": "bytes32",
							"name": "",
							"type": "bytes32"
						}
					],
					"stateMutability": "view",
					"type": "function"
				},
				{
					"inputs": [
						{
							"internalType": "bytes32",
							"name": "vestingScheduleId",
							"type": "bytes32"
						}
					],
					"name": "getVestingSchedule",
					"outputs": [
						{
							"components": [
								{
									"internalType": "bool",
									"name": "initialized",
									"type": "bool"
								},
								{
									"internalType": "address",
									"name": "beneficiary",
									"type": "address"
								},
								{
									"internalType": "uint256",
									"name": "cliff",
									"type": "uint256"
								},
								{
									"internalType": "uint256",
									"name": "start",
									"type": "uint256"
								},
								{
									"internalType": "uint256",
									"name": "duration",
									"type": "uint256"
								},
								{
									"internalType": "uint256",
									"name": "slicePeriodSeconds",
									"type": "uint256"
								},
								{
									"internalType": "bool",
									"name": "revocable",
									"type": "bool"
								},
								{
									"internalType": "uint256",
									"name": "amountTotal",
									"type": "uint256"
								},
								{
									"internalType": "uint256",
									"name": "released",
									"type": "uint256"
								},
								{
									"internalType": "bool",
									"name": "revoked",
									"type": "bool"
								},
								{
									"internalType": "bool",
									"name": "releaseAtTGE",
									"type": "bool"
								}
							],
							"internalType": "struct PaymeTokenVesting.VestingSchedule",
							"name": "",
							"type": "tuple"
						}
					],
					"stateMutability": "view",
					"type": "function"
				},
				{
					"inputs": [
						{
							"internalType": "address",
							"name": "holder",
							"type": "address"
						},
						{
							"internalType": "uint256",
							"name": "index",
							"type": "uint256"
						}
					],
					"name": "getVestingScheduleByAddressAndIndex",
					"outputs": [
						{
							"components": [
								{
									"internalType": "bool",
									"name": "initialized",
									"type": "bool"
								},
								{
									"internalType": "address",
									"name": "beneficiary",
									"type": "address"
								},
								{
									"internalType": "uint256",
									"name": "cliff",
									"type": "uint256"
								},
								{
									"internalType": "uint256",
									"name": "start",
									"type": "uint256"
								},
								{
									"internalType": "uint256",
									"name": "duration",
									"type": "uint256"
								},
								{
									"internalType": "uint256",
									"name": "slicePeriodSeconds",
									"type": "uint256"
								},
								{
									"internalType": "bool",
									"name": "revocable",
									"type": "bool"
								},
								{
									"internalType": "uint256",
									"name": "amountTotal",
									"type": "uint256"
								},
								{
									"internalType": "uint256",
									"name": "released",
									"type": "uint256"
								},
								{
									"internalType": "bool",
									"name": "revoked",
									"type": "bool"
								},
								{
									"internalType": "bool",
									"name": "releaseAtTGE",
									"type": "bool"
								}
							],
							"internalType": "struct PaymeTokenVesting.VestingSchedule",
							"name": "",
							"type": "tuple"
						}
					],
					"stateMutability": "view",
					"type": "function"
				},
				{
					"inputs": [],
					"name": "getVestingSchedulesCount",
					"outputs": [
						{
							"internalType": "uint256",
							"name": "",
							"type": "uint256"
						}
					],
					"stateMutability": "view",
					"type": "function"
				},
				{
					"inputs": [
						{
							"internalType": "address",
							"name": "iBeneficiary",
							"type": "address"
						}
					],
					"name": "getVestingSchedulesCountByBeneficiary",
					"outputs": [
						{
							"internalType": "uint256",
							"name": "",
							"type": "uint256"
						}
					],
					"stateMutability": "view",
					"type": "function"
				},
				{
					"inputs": [],
					"name": "getVestingSchedulesTotalAmount",
					"outputs": [
						{
							"internalType": "uint256",
							"name": "",
							"type": "uint256"
						}
					],
					"stateMutability": "view",
					"type": "function"
				},
				{
					"inputs": [],
					"name": "getWithdrawableAmount",
					"outputs": [
						{
							"internalType": "uint256",
							"name": "",
							"type": "uint256"
						}
					],
					"stateMutability": "view",
					"type": "function"
				},
				{
					"inputs": [
						{
							"internalType": "contract IERC20Upgradeable",
							"name": "iToken",
							"type": "address"
						},
						{
							"internalType": "uint256",
							"name": "iTGEPercent",
							"type": "uint256"
						},
						{
							"internalType": "uint256",
							"name": "iTGEOpeningTime",
							"type": "uint256"
						}
					],
					"name": "initialize",
					"outputs": [],
					"stateMutability": "nonpayable",
					"type": "function"
				},
				{
					"inputs": [],
					"name": "owner",
					"outputs": [
						{
							"internalType": "address",
							"name": "",
							"type": "address"
						}
					],
					"stateMutability": "view",
					"type": "function"
				},
				{
					"inputs": [
						{
							"internalType": "bytes32",
							"name": "vestingScheduleId",
							"type": "bytes32"
						},
						{
							"internalType": "uint256",
							"name": "amount",
							"type": "uint256"
						}
					],
					"name": "release",
					"outputs": [],
					"stateMutability": "nonpayable",
					"type": "function"
				},
				{
					"inputs": [
						{
							"internalType": "bytes32",
							"name": "vestingScheduleId",
							"type": "bytes32"
						}
					],
					"name": "releaseTokenForTGE",
					"outputs": [],
					"stateMutability": "nonpayable",
					"type": "function"
				},
				{
					"inputs": [],
					"name": "renounceOwnership",
					"outputs": [],
					"stateMutability": "nonpayable",
					"type": "function"
				},
				{
					"inputs": [
						{
							"internalType": "bytes32",
							"name": "vestingScheduleId",
							"type": "bytes32"
						}
					],
					"name": "revoke",
					"outputs": [],
					"stateMutability": "nonpayable",
					"type": "function"
				},
				{
					"inputs": [
						{
							"internalType": "address",
							"name": "icrowdsalesAddress",
							"type": "address"
						}
					],
					"name": "setCrowdsaleAddress",
					"outputs": [],
					"stateMutability": "nonpayable",
					"type": "function"
				},
				{
					"inputs": [],
					"name": "tgeOpeningTime",
					"outputs": [
						{
							"internalType": "uint256",
							"name": "",
							"type": "uint256"
						}
					],
					"stateMutability": "view",
					"type": "function"
				},
				{
					"inputs": [],
					"name": "tgePercent",
					"outputs": [
						{
							"internalType": "uint256",
							"name": "",
							"type": "uint256"
						}
					],
					"stateMutability": "view",
					"type": "function"
				},
				{
					"inputs": [
						{
							"internalType": "bytes32",
							"name": "",
							"type": "bytes32"
						}
					],
					"name": "tgeTokenParticipants",
					"outputs": [
						{
							"internalType": "uint256",
							"name": "",
							"type": "uint256"
						}
					],
					"stateMutability": "view",
					"type": "function"
				},
				{
					"inputs": [
						{
							"internalType": "address",
							"name": "newOwner",
							"type": "address"
						}
					],
					"name": "transferOwnership",
					"outputs": [],
					"stateMutability": "nonpayable",
					"type": "function"
				},
				{
					"inputs": [
						{
							"internalType": "uint256",
							"name": "amount",
							"type": "uint256"
						}
					],
					"name": "withdraw",
					"outputs": [],
					"stateMutability": "nonpayable",
					"type": "function"
				}
			],
			"devdoc": {
				"kind": "dev",
				"methods": {
					"computeNextVestingScheduleIdForHolder(address)": {
						"details": "Computes the next vesting schedule identifier for a given holder address."
					},
					"computeReleasableAmount(bytes32)": {
						"returns": {
							"_0": "the vested amount"
						}
					},
					"computeVestingScheduleIdForAddressAndIndex(address,uint256)": {
						"details": "Computes the vesting schedule identifier for an address and an index."
					},
					"createVestingSchedule(address,uint256,uint256,uint256,uint256,bool,uint256,bool)": {
						"params": {
							"iAmount": "total amount of tokens to be released at the end of the vesting",
							"iBeneficiary": "address of the beneficiary to whom vested tokens are transferred",
							"iCliff": "duration in seconds of the cliff in which tokens will begin to vest",
							"iDuration": "duration in seconds of the period in which the tokens will vest",
							"iRevocable": "whether the vesting is revocable or not",
							"iSlicePeriodSeconds": "duration of a slice period for the vesting in seconds",
							"iStart": "start time of the vesting period"
						}
					},
					"getLastVestingScheduleForHolder(address)": {
						"details": "Returns the last vesting schedule for a given holder address."
					},
					"getTgeTotalAmount()": {
						"returns": {
							"_0": "the total amount of TGE"
						}
					},
					"getToken()": {
						"details": "Returns the address of the ERC20 token managed by the vesting contract."
					},
					"getVestingIdAtIndex(uint256)": {
						"details": "Returns the vesting schedule id at the given index.",
						"returns": {
							"_0": "the vesting id"
						}
					},
					"getVestingSchedule(bytes32)": {
						"returns": {
							"_0": "the vesting schedule structure information"
						}
					},
					"getVestingScheduleByAddressAndIndex(address,uint256)": {
						"returns": {
							"_0": "the vesting schedule structure information"
						}
					},
					"getVestingSchedulesCount()": {
						"details": "Returns the number of vesting schedules managed by this contract.",
						"returns": {
							"_0": "the number of vesting schedules"
						}
					},
					"getVestingSchedulesCountByBeneficiary(address)": {
						"details": "Returns the number of vesting schedules associated to a beneficiary.",
						"returns": {
							"_0": "the number of vesting schedules"
						}
					},
					"getVestingSchedulesTotalAmount()": {
						"returns": {
							"_0": "the total amount of vesting schedules"
						}
					},
					"getWithdrawableAmount()": {
						"details": "Returns the amount of tokens that can be withdrawn by the owner.",
						"returns": {
							"_0": "the amount of tokens"
						}
					},
					"initialize(address,uint256,uint256)": {
						"details": "Creates a vesting contract.",
						"params": {
							"iTGEOpeningTime": "time when investor will be elible to claim their token",
							"iTGEPercent": "quota to be released to investors",
							"iToken": "address of the ERC20 token contract"
						}
					},
					"owner()": {
						"details": "Returns the address of the current owner."
					},
					"release(bytes32,uint256)": {
						"params": {
							"amount": "the amount to release",
							"vestingScheduleId": "the vesting schedule identifier"
						}
					},
					"renounceOwnership()": {
						"details": "Leaves the contract without owner. It will not be possible to call `onlyOwner` functions anymore. Can only be called by the current owner. NOTE: Renouncing ownership will leave the contract without an owner, thereby removing any functionality that is only available to the owner."
					},
					"revoke(bytes32)": {
						"params": {
							"vestingScheduleId": "the vesting schedule identifier"
						}
					},
					"transferOwnership(address)": {
						"details": "Transfers ownership of the contract to a new account (`newOwner`). Can only be called by the current owner."
					},
					"withdraw(uint256)": {
						"params": {
							"amount": "the amount to withdraw"
						}
					}
				},
				"version": 1
			},
			"evm": {
				"assembly": "    /* \"contracts/ico/PaymeTokenVesting.sol\":860:16613  contract PaymeTokenVesting is OwnableUpgradeable, ReentrancyGuardUpgradeable{... */\n  mstore(0x40, 0x80)\n  callvalue\n  dup1\n  iszero\n  tag_1\n  jumpi\n  0x00\n  dup1\n  revert\ntag_1:\n  pop\n  dataSize(sub_0)\n  dup1\n  dataOffset(sub_0)\n  0x00\n  codecopy\n  0x00\n  return\nstop\n\nsub_0: assembly {\n        /* \"contracts/ico/PaymeTokenVesting.sol\":860:16613  contract PaymeTokenVesting is OwnableUpgradeable, ReentrancyGuardUpgradeable{... */\n      mstore(0x40, 0x80)\n      callvalue\n      dup1\n      iszero\n      tag_1\n      jumpi\n      0x00\n      dup1\n      revert\n    tag_1:\n      pop\n      jumpi(tag_2, lt(calldatasize, 0x04))\n      shr(0xe0, calldataload(0x00))\n      dup1\n      0x8af104da\n      gt\n      tag_32\n      jumpi\n      dup1\n      0xc990c2f7\n      gt\n      tag_33\n      jumpi\n      dup1\n      0xf51321d7\n      gt\n      tag_34\n      jumpi\n      dup1\n      0xf51321d7\n      eq\n      tag_28\n      jumpi\n      dup1\n      0xf7c469f0\n      eq\n      tag_29\n      jumpi\n      dup1\n      0xf9079b37\n      eq\n      tag_30\n      jumpi\n      dup1\n      0xf9299dd9\n      eq\n      tag_31\n      jumpi\n      jump(tag_2)\n    tag_34:\n      dup1\n      0xc990c2f7\n      eq\n      tag_24\n      jumpi\n      dup1\n      0xe2f0f42d\n      eq\n      tag_25\n      jumpi\n      dup1\n      0xea1bb3d5\n      eq\n      tag_26\n      jumpi\n      dup1\n      0xf2fde38b\n      eq\n      tag_27\n      jumpi\n      jump(tag_2)\n    tag_33:\n      dup1\n      0x9ef346b4\n      gt\n      tag_35\n      jumpi\n      dup1\n      0x9ef346b4\n      eq\n      tag_20\n      jumpi\n      dup1\n      0xb75c7dc6\n      eq\n      tag_21\n      jumpi\n      dup1\n      0xc07aa656\n      eq\n      tag_22\n      jumpi\n      dup1\n      0xc8ac75d2\n      eq\n      tag_23\n      jumpi\n      jump(tag_2)\n    tag_35:\n      dup1\n      0x8af104da\n      eq\n      tag_17\n      jumpi\n      dup1\n      0x8da5cb5b\n      eq\n      tag_18\n      jumpi\n      dup1\n      0x90be10cc\n      eq\n      tag_19\n      jumpi\n      jump(tag_2)\n    tag_32:\n      dup1\n      0x48deb471\n      gt\n      tag_36\n      jumpi\n      dup1\n      0x715018a6\n      gt\n      tag_37\n      jumpi\n      dup1\n      0x715018a6\n      eq\n      tag_13\n      jumpi\n      dup1\n      0x7a1ac61e\n      eq\n      tag_14\n      jumpi\n      dup1\n      0x7df8df92\n      eq\n      tag_15\n      jumpi\n      dup1\n      0x7e913dc6\n      eq\n      tag_16\n      jumpi\n      jump(tag_2)\n    tag_37:\n      dup1\n      0x48deb471\n      eq\n      tag_10\n      jumpi\n      dup1\n      0x5a7bb69a\n      eq\n      tag_11\n      jumpi\n      dup1\n      0x66afd8ef\n      eq\n      tag_12\n      jumpi\n      jump(tag_2)\n    tag_36:\n      dup1\n      0x260a51e5\n      gt\n      tag_38\n      jumpi\n      dup1\n      0x260a51e5\n      eq\n      tag_6\n      jumpi\n      dup1\n      0x29cb924d\n      eq\n      tag_7\n      jumpi\n      dup1\n      0x2e1a7d4d\n      eq\n      tag_8\n      jumpi\n      dup1\n      0x40a9627f\n      eq\n      tag_9\n      jumpi\n      jump(tag_2)\n    tag_38:\n      dup1\n      0x13083617\n      eq\n      tag_3\n      jumpi\n      dup1\n      0x1f35bc40\n      eq\n      tag_4\n      jumpi\n      dup1\n      0x21df0da7\n      eq\n      tag_5\n      jumpi\n    tag_2:\n      0x00\n      dup1\n      revert\n        /* \"contracts/ico/PaymeTokenVesting.sol\":12674:12812  function getVestingSchedulesCount()... */\n    tag_3:\n      tag_39\n      tag_40\n      jump\t// in\n    tag_39:\n      mload(0x40)\n      tag_41\n      swap2\n      swap1\n      tag_42\n      jump\t// in\n    tag_41:\n      mload(0x40)\n      dup1\n      swap2\n      sub\n      swap1\n      return\n        /* \"contracts/ico/PaymeTokenVesting.sol\":6159:6279  function setCrowdsaleAddress(address icrowdsalesAddress) external{... */\n    tag_4:\n      tag_43\n      0x04\n      dup1\n      calldatasize\n      sub\n      dup2\n      add\n      swap1\n      tag_44\n      swap2\n      swap1\n      tag_45\n      jump\t// in\n    tag_44:\n      tag_46\n      jump\t// in\n    tag_43:\n      stop\n        /* \"contracts/ico/PaymeTokenVesting.sol\":6388:6489  function getToken()... */\n    tag_5:\n      tag_47\n      tag_48\n      jump\t// in\n    tag_47:\n      mload(0x40)\n      tag_49\n      swap2\n      swap1\n      tag_50\n      jump\t// in\n    tag_49:\n      mload(0x40)\n      dup1\n      swap2\n      sub\n      swap1\n      return\n        /* \"contracts/ico/PaymeTokenVesting.sol\":2308:2340  address public crowdsalesAddress */\n    tag_6:\n      tag_51\n      tag_52\n      jump\t// in\n    tag_51:\n      mload(0x40)\n      tag_53\n      swap2\n      swap1\n      tag_50\n      jump\t// in\n    tag_53:\n      mload(0x40)\n      dup1\n      swap2\n      sub\n      swap1\n      return\n        /* \"contracts/ico/PaymeTokenVesting.sol\":16477:16610  function getCurrentTime()... */\n    tag_7:\n      tag_54\n      tag_55\n      jump\t// in\n    tag_54:\n      mload(0x40)\n      tag_56\n      swap2\n      swap1\n      tag_42\n      jump\t// in\n    tag_56:\n      mload(0x40)\n      dup1\n      swap2\n      sub\n      swap1\n      return\n        /* \"contracts/ico/PaymeTokenVesting.sol\":9828:10072  function withdraw(uint256 amount)... */\n    tag_8:\n      tag_57\n      0x04\n      dup1\n      calldatasize\n      sub\n      dup2\n      add\n      swap1\n      tag_58\n      swap2\n      swap1\n      tag_59\n      jump\t// in\n    tag_58:\n      tag_60\n      jump\t// in\n    tag_57:\n      stop\n        /* \"contracts/ico/PaymeTokenVesting.sol\":1955:1984  uint256 public tgeOpeningTime */\n    tag_9:\n      tag_61\n      tag_62\n      jump\t// in\n    tag_61:\n      mload(0x40)\n      tag_63\n      swap2\n      swap1\n      tag_42\n      jump\t// in\n    tag_63:\n      mload(0x40)\n      dup1\n      swap2\n      sub\n      swap1\n      return\n        /* \"contracts/ico/PaymeTokenVesting.sol\":5631:5766  function getVestingSchedulesTotalAmount()... */\n    tag_10:\n      tag_64\n      tag_65\n      jump\t// in\n    tag_64:\n      mload(0x40)\n      tag_66\n      swap2\n      swap1\n      tag_42\n      jump\t// in\n    tag_66:\n      mload(0x40)\n      dup1\n      swap2\n      sub\n      swap1\n      return\n        /* \"contracts/ico/PaymeTokenVesting.sol\":4593:4761  function getVestingSchedulesCountByBeneficiary(address iBeneficiary)... */\n    tag_11:\n      tag_67\n      0x04\n      dup1\n      calldatasize\n      sub\n      dup2\n      add\n      swap1\n      tag_68\n      swap2\n      swap1\n      tag_45\n      jump\t// in\n    tag_68:\n      tag_69\n      jump\t// in\n    tag_67:\n      mload(0x40)\n      tag_70\n      swap2\n      swap1\n      tag_42\n      jump\t// in\n    tag_70:\n      mload(0x40)\n      dup1\n      swap2\n      sub\n      swap1\n      return\n        /* \"contracts/ico/PaymeTokenVesting.sol\":11521:12530  function release(... */\n    tag_12:\n      tag_71\n      0x04\n      dup1\n      calldatasize\n      sub\n      dup2\n      add\n      swap1\n      tag_72\n      swap2\n      swap1\n      tag_73\n      jump\t// in\n    tag_72:\n      tag_74\n      jump\t// in\n    tag_71:\n      stop\n        /* \"@openzeppelin/contracts-upgradeable/access/OwnableUpgradeable.sol\":2071:2172  function renounceOwnership() public virtual onlyOwner {... */\n    tag_13:\n      tag_75\n      tag_76\n      jump\t// in\n    tag_75:\n      stop\n        /* \"contracts/ico/PaymeTokenVesting.sol\":3786:4367  function initialize(IERC20Upgradeable iToken,uint256 iTGEPercent,uint256 iTGEOpeningTime) public initializer {... */\n    tag_14:\n      tag_77\n      0x04\n      dup1\n      calldatasize\n      sub\n      dup2\n      add\n      swap1\n      tag_78\n      swap2\n      swap1\n      tag_79\n      jump\t// in\n    tag_78:\n      tag_80\n      jump\t// in\n    tag_77:\n      stop\n        /* \"contracts/ico/PaymeTokenVesting.sol\":7129:8865  function createVestingSchedule(... */\n    tag_15:\n      tag_81\n      0x04\n      dup1\n      calldatasize\n      sub\n      dup2\n      add\n      swap1\n      tag_82\n      swap2\n      swap1\n      tag_83\n      jump\t// in\n    tag_82:\n      tag_84\n      jump\t// in\n    tag_81:\n      stop\n        /* \"contracts/ico/PaymeTokenVesting.sol\":14343:14592  function getLastVestingScheduleForHolder(address holder)... */\n    tag_16:\n      tag_85\n      0x04\n      dup1\n      calldatasize\n      sub\n      dup2\n      add\n      swap1\n      tag_86\n      swap2\n      swap1\n      tag_45\n      jump\t// in\n    tag_86:\n      tag_87\n      jump\t// in\n    tag_85:\n      mload(0x40)\n      tag_88\n      swap2\n      swap1\n      tag_89\n      jump\t// in\n    tag_88:\n      mload(0x40)\n      dup1\n      swap2\n      sub\n      swap1\n      return\n        /* \"contracts/ico/PaymeTokenVesting.sol\":14694:14895  function computeVestingScheduleIdForAddressAndIndex(address holder, uint256 index)... */\n    tag_17:\n      tag_90\n      0x04\n      dup1\n      calldatasize\n      sub\n      dup2\n      add\n      swap1\n      tag_91\n      swap2\n      swap1\n      tag_92\n      jump\t// in\n    tag_91:\n      tag_93\n      jump\t// in\n    tag_90:\n      mload(0x40)\n      tag_94\n      swap2\n      swap1\n      tag_95\n      jump\t// in\n    tag_94:\n      mload(0x40)\n      dup1\n      swap2\n      sub\n      swap1\n      return\n        /* \"@openzeppelin/contracts-upgradeable/access/OwnableUpgradeable.sol\":1441:1526  function owner() public view virtual returns (address) {... */\n    tag_18:\n      tag_96\n      tag_97\n      jump\t// in\n    tag_96:\n      mload(0x40)\n      tag_98\n      swap2\n      swap1\n      tag_50\n      jump\t// in\n    tag_98:\n      mload(0x40)\n      dup1\n      swap2\n      sub\n      swap1\n      return\n        /* \"contracts/ico/PaymeTokenVesting.sol\":13752:13925  function getWithdrawableAmount()... */\n    tag_19:\n      tag_99\n      tag_100\n      jump\t// in\n    tag_99:\n      mload(0x40)\n      tag_101\n      swap2\n      swap1\n      tag_42\n      jump\t// in\n    tag_101:\n      mload(0x40)\n      dup1\n      swap2\n      sub\n      swap1\n      return\n        /* \"contracts/ico/PaymeTokenVesting.sol\":13439:13620  function getVestingSchedule(bytes32 vestingScheduleId)... */\n    tag_20:\n      tag_102\n      0x04\n      dup1\n      calldatasize\n      sub\n      dup2\n      add\n      swap1\n      tag_103\n      swap2\n      swap1\n      tag_104\n      jump\t// in\n    tag_103:\n      tag_105\n      jump\t// in\n    tag_102:\n      mload(0x40)\n      tag_106\n      swap2\n      swap1\n      tag_89\n      jump\t// in\n    tag_106:\n      mload(0x40)\n      dup1\n      swap2\n      sub\n      swap1\n      return\n        /* \"contracts/ico/PaymeTokenVesting.sol\":9014:9707  function revoke(bytes32 vestingScheduleId)... */\n    tag_21:\n      tag_107\n      0x04\n      dup1\n      calldatasize\n      sub\n      dup2\n      add\n      swap1\n      tag_108\n      swap2\n      swap1\n      tag_104\n      jump\t// in\n    tag_108:\n      tag_109\n      jump\t// in\n    tag_107:\n      stop\n        /* \"contracts/ico/PaymeTokenVesting.sol\":5999:6153  function getTotalInvestmentAmountBalance()... */\n    tag_22:\n      tag_110\n      tag_111\n      jump\t// in\n    tag_110:\n      mload(0x40)\n      tag_112\n      swap2\n      swap1\n      tag_42\n      jump\t// in\n    tag_112:\n      mload(0x40)\n      dup1\n      swap2\n      sub\n      swap1\n      return\n        /* \"contracts/ico/PaymeTokenVesting.sol\":2246:2301  mapping(bytes32 => uint256) public tgeTokenParticipants */\n    tag_23:\n      tag_113\n      0x04\n      dup1\n      calldatasize\n      sub\n      dup2\n      add\n      swap1\n      tag_114\n      swap2\n      swap1\n      tag_104\n      jump\t// in\n    tag_114:\n      tag_115\n      jump\t// in\n    tag_113:\n      mload(0x40)\n      tag_116\n      swap2\n      swap1\n      tag_42\n      jump\t// in\n    tag_116:\n      mload(0x40)\n      dup1\n      swap2\n      sub\n      swap1\n      return\n        /* \"contracts/ico/PaymeTokenVesting.sol\":5883:5993  function getTgeTotalAmount()... */\n    tag_24:\n      tag_117\n      tag_118\n      jump\t// in\n    tag_117:\n      mload(0x40)\n      tag_119\n      swap2\n      swap1\n      tag_42\n      jump\t// in\n    tag_119:\n      mload(0x40)\n      dup1\n      swap2\n      sub\n      swap1\n      return\n        /* \"contracts/ico/PaymeTokenVesting.sol\":1924:1949  uint256 public tgePercent */\n    tag_25:\n      tag_120\n      tag_121\n      jump\t// in\n    tag_120:\n      mload(0x40)\n      tag_122\n      swap2\n      swap1\n      tag_42\n      jump\t// in\n    tag_122:\n      mload(0x40)\n      dup1\n      swap2\n      sub\n      swap1\n      return\n        /* \"contracts/ico/PaymeTokenVesting.sol\":12959:13282  function computeReleasableAmount(bytes32 vestingScheduleId)... */\n    tag_26:\n      tag_123\n      0x04\n      dup1\n      calldatasize\n      sub\n      dup2\n      add\n      swap1\n      tag_124\n      swap2\n      swap1\n      tag_104\n      jump\t// in\n    tag_124:\n      tag_125\n      jump\t// in\n    tag_123:\n      mload(0x40)\n      tag_126\n      swap2\n      swap1\n      tag_42\n      jump\t// in\n    tag_126:\n      mload(0x40)\n      dup1\n      swap2\n      sub\n      swap1\n      return\n        /* \"@openzeppelin/contracts-upgradeable/access/OwnableUpgradeable.sol\":2321:2519  function transferOwnership(address newOwner) public virtual onlyOwner {... */\n    tag_27:\n      tag_127\n      0x04\n      dup1\n      calldatasize\n      sub\n      dup2\n      add\n      swap1\n      tag_128\n      swap2\n      swap1\n      tag_45\n      jump\t// in\n    tag_128:\n      tag_129\n      jump\t// in\n    tag_127:\n      stop\n        /* \"contracts/ico/PaymeTokenVesting.sol\":5263:5497  function getVestingScheduleByAddressAndIndex(address holder, uint256 index)... */\n    tag_28:\n      tag_130\n      0x04\n      dup1\n      calldatasize\n      sub\n      dup2\n      add\n      swap1\n      tag_131\n      swap2\n      swap1\n      tag_92\n      jump\t// in\n    tag_131:\n      tag_132\n      jump\t// in\n    tag_130:\n      mload(0x40)\n      tag_133\n      swap2\n      swap1\n      tag_89\n      jump\t// in\n    tag_133:\n      mload(0x40)\n      dup1\n      swap2\n      sub\n      swap1\n      return\n        /* \"contracts/ico/PaymeTokenVesting.sol\":14031:14249  function computeNextVestingScheduleIdForHolder(address holder)... */\n    tag_29:\n      tag_134\n      0x04\n      dup1\n      calldatasize\n      sub\n      dup2\n      add\n      swap1\n      tag_135\n      swap2\n      swap1\n      tag_45\n      jump\t// in\n    tag_135:\n      tag_136\n      jump\t// in\n    tag_134:\n      mload(0x40)\n      tag_137\n      swap2\n      swap1\n      tag_95\n      jump\t// in\n    tag_137:\n      mload(0x40)\n      dup1\n      swap2\n      sub\n      swap1\n      return\n        /* \"contracts/ico/PaymeTokenVesting.sol\":4874:5100  function getVestingIdAtIndex(uint256 index)... */\n    tag_30:\n      tag_138\n      0x04\n      dup1\n      calldatasize\n      sub\n      dup2\n      add\n      swap1\n      tag_139\n      swap2\n      swap1\n      tag_59\n      jump\t// in\n    tag_139:\n      tag_140\n      jump\t// in\n    tag_138:\n      mload(0x40)\n      tag_141\n      swap2\n      swap1\n      tag_95\n      jump\t// in\n    tag_141:\n      mload(0x40)\n      dup1\n      swap2\n      sub\n      swap1\n      return\n        /* \"contracts/ico/PaymeTokenVesting.sol\":10078:11346  function releaseTokenForTGE(bytes32 vestingScheduleId)... */\n    tag_31:\n      tag_142\n      0x04\n      dup1\n      calldatasize\n      sub\n      dup2\n      add\n      swap1\n      tag_143\n      swap2\n      swap1\n      tag_104\n      jump\t// in\n    tag_143:\n      tag_144\n      jump\t// in\n    tag_142:\n      stop\n        /* \"contracts/ico/PaymeTokenVesting.sol\":12674:12812  function getVestingSchedulesCount()... */\n    tag_40:\n        /* \"contracts/ico/PaymeTokenVesting.sol\":12754:12761  uint256 */\n      0x00\n        /* \"contracts/ico/PaymeTokenVesting.sol\":12779:12798  vestingSchedulesIds */\n      0x9a\n        /* \"contracts/ico/PaymeTokenVesting.sol\":12779:12805  vestingSchedulesIds.length */\n      dup1\n      sload\n      swap1\n      pop\n        /* \"contracts/ico/PaymeTokenVesting.sol\":12772:12805  return vestingSchedulesIds.length */\n      swap1\n      pop\n        /* \"contracts/ico/PaymeTokenVesting.sol\":12674:12812  function getVestingSchedulesCount()... */\n      swap1\n      jump\t// out\n        /* \"contracts/ico/PaymeTokenVesting.sol\":6159:6279  function setCrowdsaleAddress(address icrowdsalesAddress) external{... */\n    tag_46:\n        /* \"contracts/ico/PaymeTokenVesting.sol\":6254:6272  icrowdsalesAddress */\n      dup1\n        /* \"contracts/ico/PaymeTokenVesting.sol\":6234:6251  crowdsalesAddress */\n      0xa0\n      0x00\n        /* \"contracts/ico/PaymeTokenVesting.sol\":6234:6272  crowdsalesAddress = icrowdsalesAddress */\n      0x0100\n      exp\n      dup2\n      sload\n      dup2\n      0xffffffffffffffffffffffffffffffffffffffff\n      mul\n      not\n      and\n      swap1\n      dup4\n      0xffffffffffffffffffffffffffffffffffffffff\n      and\n      mul\n      or\n      swap1\n      sstore\n      pop\n        /* \"contracts/ico/PaymeTokenVesting.sol\":6159:6279  function setCrowdsaleAddress(address icrowdsalesAddress) external{... */\n      pop\n      jump\t// out\n        /* \"contracts/ico/PaymeTokenVesting.sol\":6388:6489  function getToken()... */\n    tag_48:\n        /* \"contracts/ico/PaymeTokenVesting.sol\":6442:6449  address */\n      0x00\n        /* \"contracts/ico/PaymeTokenVesting.sol\":6475:6481  _token */\n      0x97\n      0x00\n      swap1\n      sload\n      swap1\n      0x0100\n      exp\n      swap1\n      div\n      0xffffffffffffffffffffffffffffffffffffffff\n      and\n        /* \"contracts/ico/PaymeTokenVesting.sol\":6460:6482  return address(_token) */\n      swap1\n      pop\n        /* \"contracts/ico/PaymeTokenVesting.sol\":6388:6489  function getToken()... */\n      swap1\n      jump\t// out\n        /* \"contracts/ico/PaymeTokenVesting.sol\":2308:2340  address public crowdsalesAddress */\n    tag_52:\n      0xa0\n      0x00\n      swap1\n      sload\n      swap1\n      0x0100\n      exp\n      swap1\n      div\n      0xffffffffffffffffffffffffffffffffffffffff\n      and\n      dup2\n      jump\t// out\n        /* \"contracts/ico/PaymeTokenVesting.sol\":16477:16610  function getCurrentTime()... */\n    tag_55:\n        /* \"contracts/ico/PaymeTokenVesting.sol\":16563:16570  uint256 */\n      0x00\n        /* \"contracts/ico/PaymeTokenVesting.sol\":16588:16603  block.timestamp */\n      timestamp\n        /* \"contracts/ico/PaymeTokenVesting.sol\":16581:16603  return block.timestamp */\n      swap1\n      pop\n        /* \"contracts/ico/PaymeTokenVesting.sol\":16477:16610  function getCurrentTime()... */\n      swap1\n      jump\t// out\n        /* \"contracts/ico/PaymeTokenVesting.sol\":9828:10072  function withdraw(uint256 amount)... */\n    tag_60:\n        /* \"@openzeppelin/contracts-upgradeable/security/ReentrancyGuardUpgradeable.sol\":1815:1816  2 */\n      0x02\n        /* \"@openzeppelin/contracts-upgradeable/security/ReentrancyGuardUpgradeable.sol\":2569:2576  _status */\n      sload(0x65)\n        /* \"@openzeppelin/contracts-upgradeable/security/ReentrancyGuardUpgradeable.sol\":2569:2588  _status != _ENTERED */\n      eq\n      iszero\n        /* \"@openzeppelin/contracts-upgradeable/security/ReentrancyGuardUpgradeable.sol\":2561:2624  require(_status != _ENTERED, \"ReentrancyGuard: reentrant call\") */\n      tag_150\n      jumpi\n      mload(0x40)\n      0x08c379a000000000000000000000000000000000000000000000000000000000\n      dup2\n      mstore\n      0x04\n      add\n      tag_151\n      swap1\n      tag_152\n      jump\t// in\n    tag_151:\n      mload(0x40)\n      dup1\n      swap2\n      sub\n      swap1\n      revert\n    tag_150:\n        /* \"@openzeppelin/contracts-upgradeable/security/ReentrancyGuardUpgradeable.sol\":1815:1816  2 */\n      0x02\n        /* \"@openzeppelin/contracts-upgradeable/security/ReentrancyGuardUpgradeable.sol\":2699:2706  _status */\n      0x65\n        /* \"@openzeppelin/contracts-upgradeable/security/ReentrancyGuardUpgradeable.sol\":2699:2717  _status = _ENTERED */\n      dup2\n      swap1\n      sstore\n      pop\n        /* \"@openzeppelin/contracts-upgradeable/access/OwnableUpgradeable.sol\":1334:1347  _checkOwner() */\n      tag_154\n        /* \"@openzeppelin/contracts-upgradeable/access/OwnableUpgradeable.sol\":1334:1345  _checkOwner */\n      tag_155\n        /* \"@openzeppelin/contracts-upgradeable/access/OwnableUpgradeable.sol\":1334:1347  _checkOwner() */\n      jump\t// in\n    tag_154:\n        /* \"contracts/ico/PaymeTokenVesting.sol\":9965:9971  amount */\n      dup1\n        /* \"contracts/ico/PaymeTokenVesting.sol\":9933:9937  this */\n      address\n        /* \"contracts/ico/PaymeTokenVesting.sol\":9933:9959  this.getWithdrawableAmount */\n      0xffffffffffffffffffffffffffffffffffffffff\n      and\n      0x90be10cc\n        /* \"contracts/ico/PaymeTokenVesting.sol\":9933:9961  this.getWithdrawableAmount() */\n      mload(0x40)\n      dup2\n      0xffffffff\n      and\n      0xe0\n      shl\n      dup2\n      mstore\n      0x04\n      add\n      0x20\n      mload(0x40)\n      dup1\n      dup4\n      sub\n      dup2\n      dup7\n      dup1\n      extcodesize\n      iszero\n      dup1\n      iszero\n      tag_157\n      jumpi\n      0x00\n      dup1\n      revert\n    tag_157:\n      pop\n      gas\n      staticcall\n      iszero\n      dup1\n      iszero\n      tag_159\n      jumpi\n      returndatasize\n      0x00\n      dup1\n      returndatacopy\n      revert(0x00, returndatasize)\n    tag_159:\n      pop\n      pop\n      pop\n      pop\n      mload(0x40)\n      returndatasize\n      not(0x1f)\n      0x1f\n      dup3\n      add\n      and\n      dup3\n      add\n      dup1\n      0x40\n      mstore\n      pop\n      dup2\n      add\n      swap1\n      tag_160\n      swap2\n      swap1\n      tag_161\n      jump\t// in\n    tag_160:\n        /* \"contracts/ico/PaymeTokenVesting.sol\":9933:9971  this.getWithdrawableAmount() >= amount */\n      lt\n      iszero\n        /* \"contracts/ico/PaymeTokenVesting.sol\":9925:10019  require(this.getWithdrawableAmount() >= amount, \"TokenVesting: not enough withdrawable funds\") */\n      tag_162\n      jumpi\n      mload(0x40)\n      0x08c379a000000000000000000000000000000000000000000000000000000000\n      dup2\n      mstore\n      0x04\n      add\n      tag_163\n      swap1\n      tag_164\n      jump\t// in\n    tag_163:\n      mload(0x40)\n      dup1\n      swap2\n      sub\n      swap1\n      revert\n    tag_162:\n        /* \"contracts/ico/PaymeTokenVesting.sol\":10029:10065  _token.safeTransfer(owner(), amount) */\n      tag_165\n        /* \"contracts/ico/PaymeTokenVesting.sol\":10049:10056  owner() */\n      tag_166\n        /* \"contracts/ico/PaymeTokenVesting.sol\":10049:10054  owner */\n      tag_97\n        /* \"contracts/ico/PaymeTokenVesting.sol\":10049:10056  owner() */\n      jump\t// in\n    tag_166:\n        /* \"contracts/ico/PaymeTokenVesting.sol\":10058:10064  amount */\n      dup3\n        /* \"contracts/ico/PaymeTokenVesting.sol\":10029:10035  _token */\n      0x97\n      0x00\n      swap1\n      sload\n      swap1\n      0x0100\n      exp\n      swap1\n      div\n      0xffffffffffffffffffffffffffffffffffffffff\n      and\n        /* \"contracts/ico/PaymeTokenVesting.sol\":10029:10048  _token.safeTransfer */\n      0xffffffffffffffffffffffffffffffffffffffff\n      and\n      tag_167\n      swap1\n        /* \"contracts/ico/PaymeTokenVesting.sol\":10029:10065  _token.safeTransfer(owner(), amount) */\n      swap3\n      swap2\n      swap1\n      0xffffffff\n      and\n      jump\t// in\n    tag_165:\n        /* \"@openzeppelin/contracts-upgradeable/security/ReentrancyGuardUpgradeable.sol\":1772:1773  1 */\n      0x01\n        /* \"@openzeppelin/contracts-upgradeable/security/ReentrancyGuardUpgradeable.sol\":2872:2879  _status */\n      0x65\n        /* \"@openzeppelin/contracts-upgradeable/security/ReentrancyGuardUpgradeable.sol\":2872:2894  _status = _NOT_ENTERED */\n      dup2\n      swap1\n      sstore\n      pop\n        /* \"contracts/ico/PaymeTokenVesting.sol\":9828:10072  function withdraw(uint256 amount)... */\n      pop\n      jump\t// out\n        /* \"contracts/ico/PaymeTokenVesting.sol\":1955:1984  uint256 public tgeOpeningTime */\n    tag_62:\n      sload(0x99)\n      dup2\n      jump\t// out\n        /* \"contracts/ico/PaymeTokenVesting.sol\":5631:5766  function getVestingSchedulesTotalAmount()... */\n    tag_65:\n        /* \"contracts/ico/PaymeTokenVesting.sol\":5707:5714  uint256 */\n      0x00\n        /* \"contracts/ico/PaymeTokenVesting.sol\":5732:5759  vestingSchedulesTotalAmount */\n      sload(0x9c)\n        /* \"contracts/ico/PaymeTokenVesting.sol\":5725:5759  return vestingSchedulesTotalAmount */\n      swap1\n      pop\n        /* \"contracts/ico/PaymeTokenVesting.sol\":5631:5766  function getVestingSchedulesTotalAmount()... */\n      swap1\n      jump\t// out\n        /* \"contracts/ico/PaymeTokenVesting.sol\":4593:4761  function getVestingSchedulesCountByBeneficiary(address iBeneficiary)... */\n    tag_69:\n        /* \"contracts/ico/PaymeTokenVesting.sol\":4696:4703  uint256 */\n      0x00\n        /* \"contracts/ico/PaymeTokenVesting.sol\":4721:4740  holdersVestingCount */\n      0x9e\n        /* \"contracts/ico/PaymeTokenVesting.sol\":4721:4754  holdersVestingCount[iBeneficiary] */\n      0x00\n        /* \"contracts/ico/PaymeTokenVesting.sol\":4741:4753  iBeneficiary */\n      dup4\n        /* \"contracts/ico/PaymeTokenVesting.sol\":4721:4754  holdersVestingCount[iBeneficiary] */\n      0xffffffffffffffffffffffffffffffffffffffff\n      and\n      0xffffffffffffffffffffffffffffffffffffffff\n      and\n      dup2\n      mstore\n      0x20\n      add\n      swap1\n      dup2\n      mstore\n      0x20\n      add\n      0x00\n      keccak256\n      sload\n        /* \"contracts/ico/PaymeTokenVesting.sol\":4714:4754  return holdersVestingCount[iBeneficiary] */\n      swap1\n      pop\n        /* \"contracts/ico/PaymeTokenVesting.sol\":4593:4761  function getVestingSchedulesCountByBeneficiary(address iBeneficiary)... */\n      swap2\n      swap1\n      pop\n      jump\t// out\n        /* \"contracts/ico/PaymeTokenVesting.sol\":11521:12530  function release(... */\n    tag_74:\n        /* \"@openzeppelin/contracts-upgradeable/security/ReentrancyGuardUpgradeable.sol\":1815:1816  2 */\n      0x02\n        /* \"@openzeppelin/contracts-upgradeable/security/ReentrancyGuardUpgradeable.sol\":2569:2576  _status */\n      sload(0x65)\n        /* \"@openzeppelin/contracts-upgradeable/security/ReentrancyGuardUpgradeable.sol\":2569:2588  _status != _ENTERED */\n      eq\n      iszero\n        /* \"@openzeppelin/contracts-upgradeable/security/ReentrancyGuardUpgradeable.sol\":2561:2624  require(_status != _ENTERED, \"ReentrancyGuard: reentrant call\") */\n      tag_171\n      jumpi\n      mload(0x40)\n      0x08c379a000000000000000000000000000000000000000000000000000000000\n      dup2\n      mstore\n      0x04\n      add\n      tag_172\n      swap1\n      tag_152\n      jump\t// in\n    tag_172:\n      mload(0x40)\n      dup1\n      swap2\n      sub\n      swap1\n      revert\n    tag_171:\n        /* \"@openzeppelin/contracts-upgradeable/security/ReentrancyGuardUpgradeable.sol\":1815:1816  2 */\n      0x02\n        /* \"@openzeppelin/contracts-upgradeable/security/ReentrancyGuardUpgradeable.sol\":2699:2706  _status */\n      0x65\n        /* \"@openzeppelin/contracts-upgradeable/security/ReentrancyGuardUpgradeable.sol\":2699:2717  _status = _ENTERED */\n      dup2\n      swap1\n      sstore\n      pop\n        /* \"contracts/ico/PaymeTokenVesting.sol\":11679:11696  vestingScheduleId */\n      dup2\n        /* \"contracts/ico/PaymeTokenVesting.sol\":2937:2953  vestingSchedules */\n      0x9b\n        /* \"contracts/ico/PaymeTokenVesting.sol\":2937:2972  vestingSchedules[vestingScheduleId] */\n      0x00\n        /* \"contracts/ico/PaymeTokenVesting.sol\":2954:2971  vestingScheduleId */\n      dup3\n        /* \"contracts/ico/PaymeTokenVesting.sol\":2937:2972  vestingSchedules[vestingScheduleId] */\n      dup2\n      mstore\n      0x20\n      add\n      swap1\n      dup2\n      mstore\n      0x20\n      add\n      0x00\n      keccak256\n        /* \"contracts/ico/PaymeTokenVesting.sol\":2937:2984  vestingSchedules[vestingScheduleId].initialized */\n      0x00\n      add\n      0x00\n      swap1\n      sload\n      swap1\n      0x0100\n      exp\n      swap1\n      div\n      0xff\n      and\n        /* \"contracts/ico/PaymeTokenVesting.sol\":2929:2985  require(vestingSchedules[vestingScheduleId].initialized) */\n      tag_174\n      jumpi\n      0x00\n      dup1\n      revert\n    tag_174:\n        /* \"contracts/ico/PaymeTokenVesting.sol\":3004:3020  vestingSchedules */\n      0x9b\n        /* \"contracts/ico/PaymeTokenVesting.sol\":3004:3039  vestingSchedules[vestingScheduleId] */\n      0x00\n        /* \"contracts/ico/PaymeTokenVesting.sol\":3021:3038  vestingScheduleId */\n      dup3\n        /* \"contracts/ico/PaymeTokenVesting.sol\":3004:3039  vestingSchedules[vestingScheduleId] */\n      dup2\n      mstore\n      0x20\n      add\n      swap1\n      dup2\n      mstore\n      0x20\n      add\n      0x00\n      keccak256\n        /* \"contracts/ico/PaymeTokenVesting.sol\":3004:3047  vestingSchedules[vestingScheduleId].revoked */\n      0x08\n      add\n      0x00\n      swap1\n      sload\n      swap1\n      0x0100\n      exp\n      swap1\n      div\n      0xff\n      and\n        /* \"contracts/ico/PaymeTokenVesting.sol\":3003:3047  !vestingSchedules[vestingScheduleId].revoked */\n      iszero\n        /* \"contracts/ico/PaymeTokenVesting.sol\":2995:3048  require(!vestingSchedules[vestingScheduleId].revoked) */\n      tag_175\n      jumpi\n      0x00\n      dup1\n      revert\n    tag_175:\n        /* \"contracts/ico/PaymeTokenVesting.sol\":11707:11746  VestingSchedule storage vestingSchedule */\n      0x00\n        /* \"contracts/ico/PaymeTokenVesting.sol\":11749:11765  vestingSchedules */\n      0x9b\n        /* \"contracts/ico/PaymeTokenVesting.sol\":11749:11784  vestingSchedules[vestingScheduleId] */\n      0x00\n        /* \"contracts/ico/PaymeTokenVesting.sol\":11766:11783  vestingScheduleId */\n      dup6\n        /* \"contracts/ico/PaymeTokenVesting.sol\":11749:11784  vestingSchedules[vestingScheduleId] */\n      dup2\n      mstore\n      0x20\n      add\n      swap1\n      dup2\n      mstore\n      0x20\n      add\n      0x00\n      keccak256\n        /* \"contracts/ico/PaymeTokenVesting.sol\":11707:11784  VestingSchedule storage vestingSchedule = vestingSchedules[vestingScheduleId] */\n      swap1\n      pop\n        /* \"contracts/ico/PaymeTokenVesting.sol\":11794:11812  bool isBeneficiary */\n      0x00\n        /* \"contracts/ico/PaymeTokenVesting.sol\":11829:11844  vestingSchedule */\n      dup2\n        /* \"contracts/ico/PaymeTokenVesting.sol\":11829:11856  vestingSchedule.beneficiary */\n      0x00\n      add\n      0x01\n      swap1\n      sload\n      swap1\n      0x0100\n      exp\n      swap1\n      div\n      0xffffffffffffffffffffffffffffffffffffffff\n      and\n        /* \"contracts/ico/PaymeTokenVesting.sol\":11815:11856  msg.sender == vestingSchedule.beneficiary */\n      0xffffffffffffffffffffffffffffffffffffffff\n      and\n        /* \"contracts/ico/PaymeTokenVesting.sol\":11815:11825  msg.sender */\n      caller\n        /* \"contracts/ico/PaymeTokenVesting.sol\":11815:11856  msg.sender == vestingSchedule.beneficiary */\n      0xffffffffffffffffffffffffffffffffffffffff\n      and\n      eq\n        /* \"contracts/ico/PaymeTokenVesting.sol\":11794:11856  bool isBeneficiary = msg.sender == vestingSchedule.beneficiary */\n      swap1\n      pop\n        /* \"contracts/ico/PaymeTokenVesting.sol\":11866:11878  bool isOwner */\n      0x00\n        /* \"contracts/ico/PaymeTokenVesting.sol\":11895:11902  owner() */\n      tag_177\n        /* \"contracts/ico/PaymeTokenVesting.sol\":11895:11900  owner */\n      tag_97\n        /* \"contracts/ico/PaymeTokenVesting.sol\":11895:11902  owner() */\n      jump\t// in\n    tag_177:\n        /* \"contracts/ico/PaymeTokenVesting.sol\":11881:11902  msg.sender == owner() */\n      0xffffffffffffffffffffffffffffffffffffffff\n      and\n        /* \"contracts/ico/PaymeTokenVesting.sol\":11881:11891  msg.sender */\n      caller\n        /* \"contracts/ico/PaymeTokenVesting.sol\":11881:11902  msg.sender == owner() */\n      0xffffffffffffffffffffffffffffffffffffffff\n      and\n      eq\n        /* \"contracts/ico/PaymeTokenVesting.sol\":11866:11902  bool isOwner = msg.sender == owner() */\n      swap1\n      pop\n        /* \"contracts/ico/PaymeTokenVesting.sol\":11933:11946  isBeneficiary */\n      dup2\n        /* \"contracts/ico/PaymeTokenVesting.sol\":11933:11957  isBeneficiary || isOwner */\n      dup1\n      tag_178\n      jumpi\n      pop\n        /* \"contracts/ico/PaymeTokenVesting.sol\":11950:11957  isOwner */\n      dup1\n        /* \"contracts/ico/PaymeTokenVesting.sol\":11933:11957  isBeneficiary || isOwner */\n    tag_178:\n        /* \"contracts/ico/PaymeTokenVesting.sol\":11912:12049  require(... */\n      tag_179\n      jumpi\n      mload(0x40)\n      0x08c379a000000000000000000000000000000000000000000000000000000000\n      dup2\n      mstore\n      0x04\n      add\n      tag_180\n      swap1\n      tag_181\n      jump\t// in\n    tag_180:\n      mload(0x40)\n      dup1\n      swap2\n      sub\n      swap1\n      revert\n    tag_179:\n        /* \"contracts/ico/PaymeTokenVesting.sol\":12061:12081  uint256 vestedAmount */\n      0x00\n        /* \"contracts/ico/PaymeTokenVesting.sol\":12084:12125  _computeReleasableAmount(vestingSchedule) */\n      tag_182\n        /* \"contracts/ico/PaymeTokenVesting.sol\":12109:12124  vestingSchedule */\n      dup5\n        /* \"contracts/ico/PaymeTokenVesting.sol\":12084:12125  _computeReleasableAmount(vestingSchedule) */\n      mload(0x40)\n      dup1\n      0x0160\n      add\n      0x40\n      mstore\n      swap1\n      dup2\n      0x00\n      dup3\n      add\n      0x00\n      swap1\n      sload\n      swap1\n      0x0100\n      exp\n      swap1\n      div\n      0xff\n      and\n      iszero\n      iszero\n      iszero\n      iszero\n      dup2\n      mstore\n      0x20\n      add\n      0x00\n      dup3\n      add\n      0x01\n      swap1\n      sload\n      swap1\n      0x0100\n      exp\n      swap1\n      div\n      0xffffffffffffffffffffffffffffffffffffffff\n      and\n      0xffffffffffffffffffffffffffffffffffffffff\n      and\n      0xffffffffffffffffffffffffffffffffffffffff\n      and\n      dup2\n      mstore\n      0x20\n      add\n      0x01\n      dup3\n      add\n      sload\n      dup2\n      mstore\n      0x20\n      add\n      0x02\n      dup3\n      add\n      sload\n      dup2\n      mstore\n      0x20\n      add\n      0x03\n      dup3\n      add\n      sload\n      dup2\n      mstore\n      0x20\n      add\n      0x04\n      dup3\n      add\n      sload\n      dup2\n      mstore\n      0x20\n      add\n      0x05\n      dup3\n      add\n      0x00\n      swap1\n      sload\n      swap1\n      0x0100\n      exp\n      swap1\n      div\n      0xff\n      and\n      iszero\n      iszero\n      iszero\n      iszero\n      dup2\n      mstore\n      0x20\n      add\n      0x06\n      dup3\n      add\n      sload\n      dup2\n      mstore\n      0x20\n      add\n      0x07\n      dup3\n      add\n      sload\n      dup2\n      mstore\n      0x20\n      add\n      0x08\n      dup3\n      add\n      0x00\n      swap1\n      sload\n      swap1\n      0x0100\n      exp\n      swap1\n      div\n      0xff\n      and\n      iszero\n      iszero\n      iszero\n      iszero\n      dup2\n      mstore\n      0x20\n      add\n      0x08\n      dup3\n      add\n      0x01\n      swap1\n      sload\n      swap1\n      0x0100\n      exp\n      swap1\n      div\n      0xff\n      and\n      iszero\n      iszero\n      iszero\n      iszero\n      dup2\n      mstore\n      pop\n      pop\n        /* \"contracts/ico/PaymeTokenVesting.sol\":12084:12108  _computeReleasableAmount */\n      tag_183\n        /* \"contracts/ico/PaymeTokenVesting.sol\":12084:12125  _computeReleasableAmount(vestingSchedule) */\n      jump\t// in\n    tag_182:\n        /* \"contracts/ico/PaymeTokenVesting.sol\":12061:12125  uint256 vestedAmount = _computeReleasableAmount(vestingSchedule) */\n      swap1\n      pop\n        /* \"contracts/ico/PaymeTokenVesting.sol\":12159:12165  amount */\n      dup6\n        /* \"contracts/ico/PaymeTokenVesting.sol\":12143:12155  vestedAmount */\n      dup2\n        /* \"contracts/ico/PaymeTokenVesting.sol\":12143:12165  vestedAmount >= amount */\n      lt\n      iszero\n        /* \"contracts/ico/PaymeTokenVesting.sol\":12135:12231  require(vestedAmount >= amount, \"TokenVesting: cannot release tokens, not enough vested tokens\") */\n      tag_184\n      jumpi\n      mload(0x40)\n      0x08c379a000000000000000000000000000000000000000000000000000000000\n      dup2\n      mstore\n      0x04\n      add\n      tag_185\n      swap1\n      tag_186\n      jump\t// in\n    tag_185:\n      mload(0x40)\n      dup1\n      swap2\n      sub\n      swap1\n      revert\n    tag_184:\n        /* \"contracts/ico/PaymeTokenVesting.sol\":12268:12304  vestingSchedule.released.add(amount) */\n      tag_187\n        /* \"contracts/ico/PaymeTokenVesting.sol\":12297:12303  amount */\n      dup7\n        /* \"contracts/ico/PaymeTokenVesting.sol\":12268:12283  vestingSchedule */\n      dup6\n        /* \"contracts/ico/PaymeTokenVesting.sol\":12268:12292  vestingSchedule.released */\n      0x07\n      add\n      sload\n        /* \"contracts/ico/PaymeTokenVesting.sol\":12268:12296  vestingSchedule.released.add */\n      tag_188\n      swap1\n        /* \"contracts/ico/PaymeTokenVesting.sol\":12268:12304  vestingSchedule.released.add(amount) */\n      swap2\n      swap1\n      0xffffffff\n      and\n      jump\t// in\n    tag_187:\n        /* \"contracts/ico/PaymeTokenVesting.sol\":12241:12256  vestingSchedule */\n      dup5\n        /* \"contracts/ico/PaymeTokenVesting.sol\":12241:12265  vestingSchedule.released */\n      0x07\n      add\n        /* \"contracts/ico/PaymeTokenVesting.sol\":12241:12304  vestingSchedule.released = vestingSchedule.released.add(amount) */\n      dup2\n      swap1\n      sstore\n      pop\n        /* \"contracts/ico/PaymeTokenVesting.sol\":12314:12348  address payable beneficiaryPayable */\n      0x00\n        /* \"contracts/ico/PaymeTokenVesting.sol\":12359:12374  vestingSchedule */\n      dup5\n        /* \"contracts/ico/PaymeTokenVesting.sol\":12359:12386  vestingSchedule.beneficiary */\n      0x00\n      add\n      0x01\n      swap1\n      sload\n      swap1\n      0x0100\n      exp\n      swap1\n      div\n      0xffffffffffffffffffffffffffffffffffffffff\n      and\n        /* \"contracts/ico/PaymeTokenVesting.sol\":12314:12387  address payable beneficiaryPayable = payable(vestingSchedule.beneficiary) */\n      swap1\n      pop\n        /* \"contracts/ico/PaymeTokenVesting.sol\":12427:12466  vestingSchedulesTotalAmount.sub(amount) */\n      tag_189\n        /* \"contracts/ico/PaymeTokenVesting.sol\":12459:12465  amount */\n      dup8\n        /* \"contracts/ico/PaymeTokenVesting.sol\":12427:12454  vestingSchedulesTotalAmount */\n      sload(0x9c)\n        /* \"contracts/ico/PaymeTokenVesting.sol\":12427:12458  vestingSchedulesTotalAmount.sub */\n      tag_190\n      swap1\n        /* \"contracts/ico/PaymeTokenVesting.sol\":12427:12466  vestingSchedulesTotalAmount.sub(amount) */\n      swap2\n      swap1\n      0xffffffff\n      and\n      jump\t// in\n    tag_189:\n        /* \"contracts/ico/PaymeTokenVesting.sol\":12397:12424  vestingSchedulesTotalAmount */\n      0x9c\n        /* \"contracts/ico/PaymeTokenVesting.sol\":12397:12466  vestingSchedulesTotalAmount = vestingSchedulesTotalAmount.sub(amount) */\n      dup2\n      swap1\n      sstore\n      pop\n        /* \"contracts/ico/PaymeTokenVesting.sol\":12476:12523  _token.safeTransfer(beneficiaryPayable, amount) */\n      tag_191\n        /* \"contracts/ico/PaymeTokenVesting.sol\":12496:12514  beneficiaryPayable */\n      dup2\n        /* \"contracts/ico/PaymeTokenVesting.sol\":12516:12522  amount */\n      dup9\n        /* \"contracts/ico/PaymeTokenVesting.sol\":12476:12482  _token */\n      0x97\n      0x00\n      swap1\n      sload\n      swap1\n      0x0100\n      exp\n      swap1\n      div\n      0xffffffffffffffffffffffffffffffffffffffff\n      and\n        /* \"contracts/ico/PaymeTokenVesting.sol\":12476:12495  _token.safeTransfer */\n      0xffffffffffffffffffffffffffffffffffffffff\n      and\n      tag_167\n      swap1\n        /* \"contracts/ico/PaymeTokenVesting.sol\":12476:12523  _token.safeTransfer(beneficiaryPayable, amount) */\n      swap3\n      swap2\n      swap1\n      0xffffffff\n      and\n      jump\t// in\n    tag_191:\n        /* \"contracts/ico/PaymeTokenVesting.sol\":11697:12530  {... */\n      pop\n      pop\n      pop\n      pop\n      pop\n        /* \"@openzeppelin/contracts-upgradeable/security/ReentrancyGuardUpgradeable.sol\":2728:2729  _ */\n      pop\n        /* \"@openzeppelin/contracts-upgradeable/security/ReentrancyGuardUpgradeable.sol\":1772:1773  1 */\n      0x01\n        /* \"@openzeppelin/contracts-upgradeable/security/ReentrancyGuardUpgradeable.sol\":2872:2879  _status */\n      0x65\n        /* \"@openzeppelin/contracts-upgradeable/security/ReentrancyGuardUpgradeable.sol\":2872:2894  _status = _NOT_ENTERED */\n      dup2\n      swap1\n      sstore\n      pop\n        /* \"contracts/ico/PaymeTokenVesting.sol\":11521:12530  function release(... */\n      pop\n      pop\n      jump\t// out\n        /* \"@openzeppelin/contracts-upgradeable/access/OwnableUpgradeable.sol\":2071:2172  function renounceOwnership() public virtual onlyOwner {... */\n    tag_76:\n        /* \"@openzeppelin/contracts-upgradeable/access/OwnableUpgradeable.sol\":1334:1347  _checkOwner() */\n      tag_193\n        /* \"@openzeppelin/contracts-upgradeable/access/OwnableUpgradeable.sol\":1334:1345  _checkOwner */\n      tag_155\n        /* \"@openzeppelin/contracts-upgradeable/access/OwnableUpgradeable.sol\":1334:1347  _checkOwner() */\n      jump\t// in\n    tag_193:\n        /* \"@openzeppelin/contracts-upgradeable/access/OwnableUpgradeable.sol\":2135:2165  _transferOwnership(address(0)) */\n      tag_195\n        /* \"@openzeppelin/contracts-upgradeable/access/OwnableUpgradeable.sol\":2162:2163  0 */\n      0x00\n        /* \"@openzeppelin/contracts-upgradeable/access/OwnableUpgradeable.sol\":2135:2153  _transferOwnership */\n      tag_196\n        /* \"@openzeppelin/contracts-upgradeable/access/OwnableUpgradeable.sol\":2135:2165  _transferOwnership(address(0)) */\n      jump\t// in\n    tag_195:\n        /* \"@openzeppelin/contracts-upgradeable/access/OwnableUpgradeable.sol\":2071:2172  function renounceOwnership() public virtual onlyOwner {... */\n      jump\t// out\n        /* \"contracts/ico/PaymeTokenVesting.sol\":3786:4367  function initialize(IERC20Upgradeable iToken,uint256 iTGEPercent,uint256 iTGEOpeningTime) public initializer {... */\n    tag_80:\n        /* \"@openzeppelin/contracts-upgradeable/proxy/utils/Initializable.sol\":3111:3130  bool isTopLevelCall */\n      0x00\n        /* \"@openzeppelin/contracts-upgradeable/proxy/utils/Initializable.sol\":3134:3147  _initializing */\n      dup1\n      0x01\n      swap1\n      sload\n      swap1\n      0x0100\n      exp\n      swap1\n      div\n      0xff\n      and\n        /* \"@openzeppelin/contracts-upgradeable/proxy/utils/Initializable.sol\":3133:3147  !_initializing */\n      iszero\n        /* \"@openzeppelin/contracts-upgradeable/proxy/utils/Initializable.sol\":3111:3147  bool isTopLevelCall = !_initializing */\n      swap1\n      pop\n        /* \"@openzeppelin/contracts-upgradeable/proxy/utils/Initializable.sol\":3179:3193  isTopLevelCall */\n      dup1\n        /* \"@openzeppelin/contracts-upgradeable/proxy/utils/Initializable.sol\":3179:3213  isTopLevelCall && _initialized < 1 */\n      dup1\n      iszero\n      tag_198\n      jumpi\n      pop\n        /* \"@openzeppelin/contracts-upgradeable/proxy/utils/Initializable.sol\":3212:3213  1 */\n      0x01\n        /* \"@openzeppelin/contracts-upgradeable/proxy/utils/Initializable.sol\":3197:3209  _initialized */\n      0x00\n      dup1\n      sload\n      swap1\n      0x0100\n      exp\n      swap1\n      div\n      0xff\n      and\n        /* \"@openzeppelin/contracts-upgradeable/proxy/utils/Initializable.sol\":3197:3213  _initialized < 1 */\n      0xff\n      and\n      lt\n        /* \"@openzeppelin/contracts-upgradeable/proxy/utils/Initializable.sol\":3179:3213  isTopLevelCall && _initialized < 1 */\n    tag_198:\n        /* \"@openzeppelin/contracts-upgradeable/proxy/utils/Initializable.sol\":3178:3286  (isTopLevelCall && _initialized < 1) || (!AddressUpgradeable.isContract(address(this)) && _initialized == 1) */\n      dup1\n      tag_199\n      jumpi\n      pop\n        /* \"@openzeppelin/contracts-upgradeable/proxy/utils/Initializable.sol\":3220:3264  AddressUpgradeable.isContract(address(this)) */\n      tag_200\n        /* \"@openzeppelin/contracts-upgradeable/proxy/utils/Initializable.sol\":3258:3262  this */\n      address\n        /* \"@openzeppelin/contracts-upgradeable/proxy/utils/Initializable.sol\":3220:3249  AddressUpgradeable.isContract */\n      tag_201\n        /* \"@openzeppelin/contracts-upgradeable/proxy/utils/Initializable.sol\":3220:3264  AddressUpgradeable.isContract(address(this)) */\n      jump\t// in\n    tag_200:\n        /* \"@openzeppelin/contracts-upgradeable/proxy/utils/Initializable.sol\":3219:3264  !AddressUpgradeable.isContract(address(this)) */\n      iszero\n        /* \"@openzeppelin/contracts-upgradeable/proxy/utils/Initializable.sol\":3219:3285  !AddressUpgradeable.isContract(address(this)) && _initialized == 1 */\n      dup1\n      iszero\n      tag_202\n      jumpi\n      pop\n        /* \"@openzeppelin/contracts-upgradeable/proxy/utils/Initializable.sol\":3284:3285  1 */\n      0x01\n        /* \"@openzeppelin/contracts-upgradeable/proxy/utils/Initializable.sol\":3268:3280  _initialized */\n      0x00\n      dup1\n      sload\n      swap1\n      0x0100\n      exp\n      swap1\n      div\n      0xff\n      and\n        /* \"@openzeppelin/contracts-upgradeable/proxy/utils/Initializable.sol\":3268:3285  _initialized == 1 */\n      0xff\n      and\n      eq\n        /* \"@openzeppelin/contracts-upgradeable/proxy/utils/Initializable.sol\":3219:3285  !AddressUpgradeable.isContract(address(this)) && _initialized == 1 */\n    tag_202:\n        /* \"@openzeppelin/contracts-upgradeable/proxy/utils/Initializable.sol\":3178:3286  (isTopLevelCall && _initialized < 1) || (!AddressUpgradeable.isContract(address(this)) && _initialized == 1) */\n    tag_199:\n        /* \"@openzeppelin/contracts-upgradeable/proxy/utils/Initializable.sol\":3157:3358  require(... */\n      tag_203\n      jumpi\n      mload(0x40)\n      0x08c379a000000000000000000000000000000000000000000000000000000000\n      dup2\n      mstore\n      0x04\n      add\n      tag_204\n      swap1\n      tag_205\n      jump\t// in\n    tag_204:\n      mload(0x40)\n      dup1\n      swap2\n      sub\n      swap1\n      revert\n    tag_203:\n        /* \"@openzeppelin/contracts-upgradeable/proxy/utils/Initializable.sol\":3383:3384  1 */\n      0x01\n        /* \"@openzeppelin/contracts-upgradeable/proxy/utils/Initializable.sol\":3368:3380  _initialized */\n      0x00\n      dup1\n        /* \"@openzeppelin/contracts-upgradeable/proxy/utils/Initializable.sol\":3368:3384  _initialized = 1 */\n      0x0100\n      exp\n      dup2\n      sload\n      dup2\n      0xff\n      mul\n      not\n      and\n      swap1\n      dup4\n      0xff\n      and\n      mul\n      or\n      swap1\n      sstore\n      pop\n        /* \"@openzeppelin/contracts-upgradeable/proxy/utils/Initializable.sol\":3398:3412  isTopLevelCall */\n      dup1\n        /* \"@openzeppelin/contracts-upgradeable/proxy/utils/Initializable.sol\":3394:3459  if (isTopLevelCall) {... */\n      iszero\n      tag_206\n      jumpi\n        /* \"@openzeppelin/contracts-upgradeable/proxy/utils/Initializable.sol\":3444:3448  true */\n      0x01\n        /* \"@openzeppelin/contracts-upgradeable/proxy/utils/Initializable.sol\":3428:3441  _initializing */\n      0x00\n      0x01\n        /* \"@openzeppelin/contracts-upgradeable/proxy/utils/Initializable.sol\":3428:3448  _initializing = true */\n      0x0100\n      exp\n      dup2\n      sload\n      dup2\n      0xff\n      mul\n      not\n      and\n      swap1\n      dup4\n      iszero\n      iszero\n      mul\n      or\n      swap1\n      sstore\n      pop\n        /* \"@openzeppelin/contracts-upgradeable/proxy/utils/Initializable.sol\":3394:3459  if (isTopLevelCall) {... */\n    tag_206:\n        /* \"contracts/ico/PaymeTokenVesting.sol\":3940:3941  0 */\n      0x00\n        /* \"contracts/ico/PaymeTokenVesting.sol\":3913:3942  address(iToken) != address(0) */\n      0xffffffffffffffffffffffffffffffffffffffff\n      and\n        /* \"contracts/ico/PaymeTokenVesting.sol\":3921:3927  iToken */\n      dup5\n        /* \"contracts/ico/PaymeTokenVesting.sol\":3913:3942  address(iToken) != address(0) */\n      0xffffffffffffffffffffffffffffffffffffffff\n      and\n      eq\n      iszero\n        /* \"contracts/ico/PaymeTokenVesting.sol\":3905:3943  require(address(iToken) != address(0)) */\n      tag_208\n      jumpi\n      0x00\n      dup1\n      revert\n    tag_208:\n        /* \"contracts/ico/PaymeTokenVesting.sol\":3975:3976  0 */\n      0x00\n        /* \"contracts/ico/PaymeTokenVesting.sol\":3961:3972  iTGEPercent */\n      dup4\n        /* \"contracts/ico/PaymeTokenVesting.sol\":3961:3976  iTGEPercent > 0 */\n      gt\n        /* \"contracts/ico/PaymeTokenVesting.sol\":3961:3997  iTGEPercent > 0 && iTGEPercent < 100 */\n      dup1\n      iszero\n      tag_209\n      jumpi\n      pop\n        /* \"contracts/ico/PaymeTokenVesting.sol\":3994:3997  100 */\n      0x64\n        /* \"contracts/ico/PaymeTokenVesting.sol\":3980:3991  iTGEPercent */\n      dup4\n        /* \"contracts/ico/PaymeTokenVesting.sol\":3980:3997  iTGEPercent < 100 */\n      lt\n        /* \"contracts/ico/PaymeTokenVesting.sol\":3961:3997  iTGEPercent > 0 && iTGEPercent < 100 */\n    tag_209:\n        /* \"contracts/ico/PaymeTokenVesting.sol\":3953:4054  require(iTGEPercent > 0 && iTGEPercent < 100, \"TGE Percent must be greater than 0 and Less than 100\") */\n      tag_210\n      jumpi\n      mload(0x40)\n      0x08c379a000000000000000000000000000000000000000000000000000000000\n      dup2\n      mstore\n      0x04\n      add\n      tag_211\n      swap1\n      tag_212\n      jump\t// in\n    tag_211:\n      mload(0x40)\n      dup1\n      swap2\n      sub\n      swap1\n      revert\n    tag_210:\n        /* \"contracts/ico/PaymeTokenVesting.sol\":4179:4205  __Ownable_init_unchained() */\n      tag_213\n        /* \"contracts/ico/PaymeTokenVesting.sol\":4179:4203  __Ownable_init_unchained */\n      tag_214\n        /* \"contracts/ico/PaymeTokenVesting.sol\":4179:4205  __Ownable_init_unchained() */\n      jump\t// in\n    tag_213:\n        /* \"contracts/ico/PaymeTokenVesting.sol\":4215:4249  __ReentrancyGuard_init_unchained() */\n      tag_215\n        /* \"contracts/ico/PaymeTokenVesting.sol\":4215:4247  __ReentrancyGuard_init_unchained */\n      tag_216\n        /* \"contracts/ico/PaymeTokenVesting.sol\":4215:4249  __ReentrancyGuard_init_unchained() */\n      jump\t// in\n    tag_215:\n        /* \"contracts/ico/PaymeTokenVesting.sol\":4277:4283  iToken */\n      dup4\n        /* \"contracts/ico/PaymeTokenVesting.sol\":4268:4274  _token */\n      0x97\n      0x00\n        /* \"contracts/ico/PaymeTokenVesting.sol\":4268:4283  _token = iToken */\n      0x0100\n      exp\n      dup2\n      sload\n      dup2\n      0xffffffffffffffffffffffffffffffffffffffff\n      mul\n      not\n      and\n      swap1\n      dup4\n      0xffffffffffffffffffffffffffffffffffffffff\n      and\n      mul\n      or\n      swap1\n      sstore\n      pop\n        /* \"contracts/ico/PaymeTokenVesting.sol\":4311:4326  iTGEOpeningTime */\n      dup2\n        /* \"contracts/ico/PaymeTokenVesting.sol\":4294:4308  tgeOpeningTime */\n      0x99\n        /* \"contracts/ico/PaymeTokenVesting.sol\":4294:4326  tgeOpeningTime = iTGEOpeningTime */\n      dup2\n      swap1\n      sstore\n      pop\n        /* \"contracts/ico/PaymeTokenVesting.sol\":4349:4360  iTGEPercent */\n      dup3\n        /* \"contracts/ico/PaymeTokenVesting.sol\":4336:4346  tgePercent */\n      0x98\n        /* \"contracts/ico/PaymeTokenVesting.sol\":4336:4360  tgePercent = iTGEPercent */\n      dup2\n      swap1\n      sstore\n      pop\n        /* \"@openzeppelin/contracts-upgradeable/proxy/utils/Initializable.sol\":3483:3497  isTopLevelCall */\n      dup1\n        /* \"@openzeppelin/contracts-upgradeable/proxy/utils/Initializable.sol\":3479:3578  if (isTopLevelCall) {... */\n      iszero\n      tag_217\n      jumpi\n        /* \"@openzeppelin/contracts-upgradeable/proxy/utils/Initializable.sol\":3529:3534  false */\n      0x00\n        /* \"@openzeppelin/contracts-upgradeable/proxy/utils/Initializable.sol\":3513:3526  _initializing */\n      dup1\n      0x01\n        /* \"@openzeppelin/contracts-upgradeable/proxy/utils/Initializable.sol\":3513:3534  _initializing = false */\n      0x0100\n      exp\n      dup2\n      sload\n      dup2\n      0xff\n      mul\n      not\n      and\n      swap1\n      dup4\n      iszero\n      iszero\n      mul\n      or\n      swap1\n      sstore\n      pop\n        /* \"@openzeppelin/contracts-upgradeable/proxy/utils/Initializable.sol\":3553:3567  Initialized(1) */\n      0x7f26b83ff96e1f2b6a682f133852f6798a09c465da95921460cefb3847402498\n        /* \"@openzeppelin/contracts-upgradeable/proxy/utils/Initializable.sol\":3565:3566  1 */\n      0x01\n        /* \"@openzeppelin/contracts-upgradeable/proxy/utils/Initializable.sol\":3553:3567  Initialized(1) */\n      mload(0x40)\n      tag_218\n      swap2\n      swap1\n      tag_219\n      jump\t// in\n    tag_218:\n      mload(0x40)\n      dup1\n      swap2\n      sub\n      swap1\n      log1\n        /* \"@openzeppelin/contracts-upgradeable/proxy/utils/Initializable.sol\":3479:3578  if (isTopLevelCall) {... */\n    tag_217:\n        /* \"@openzeppelin/contracts-upgradeable/proxy/utils/Initializable.sol\":3101:3584  {... */\n      pop\n        /* \"contracts/ico/PaymeTokenVesting.sol\":3786:4367  function initialize(IERC20Upgradeable iToken,uint256 iTGEPercent,uint256 iTGEOpeningTime) public initializer {... */\n      pop\n      pop\n      pop\n      jump\t// out\n        /* \"contracts/ico/PaymeTokenVesting.sol\":7129:8865  function createVestingSchedule(... */\n    tag_84:\n        /* \"contracts/ico/PaymeTokenVesting.sol\":3148:3165  crowdsalesAddress */\n      0xa0\n      0x00\n      swap1\n      sload\n      swap1\n      0x0100\n      exp\n      swap1\n      div\n      0xffffffffffffffffffffffffffffffffffffffff\n      and\n        /* \"contracts/ico/PaymeTokenVesting.sol\":3134:3165  msg.sender == crowdsalesAddress */\n      0xffffffffffffffffffffffffffffffffffffffff\n      and\n        /* \"contracts/ico/PaymeTokenVesting.sol\":3134:3144  msg.sender */\n      caller\n        /* \"contracts/ico/PaymeTokenVesting.sol\":3134:3165  msg.sender == crowdsalesAddress */\n      0xffffffffffffffffffffffffffffffffffffffff\n      and\n      eq\n        /* \"contracts/ico/PaymeTokenVesting.sol\":3134:3202  msg.sender == crowdsalesAddress ||... */\n      dup1\n      tag_221\n      jumpi\n      pop\n        /* \"contracts/ico/PaymeTokenVesting.sol\":3195:3202  owner() */\n      tag_222\n        /* \"contracts/ico/PaymeTokenVesting.sol\":3195:3200  owner */\n      tag_97\n        /* \"contracts/ico/PaymeTokenVesting.sol\":3195:3202  owner() */\n      jump\t// in\n    tag_222:\n        /* \"contracts/ico/PaymeTokenVesting.sol\":3181:3202  msg.sender == owner() */\n      0xffffffffffffffffffffffffffffffffffffffff\n      and\n        /* \"contracts/ico/PaymeTokenVesting.sol\":3181:3191  msg.sender */\n      caller\n        /* \"contracts/ico/PaymeTokenVesting.sol\":3181:3202  msg.sender == owner() */\n      0xffffffffffffffffffffffffffffffffffffffff\n      and\n      eq\n        /* \"contracts/ico/PaymeTokenVesting.sol\":3134:3202  msg.sender == crowdsalesAddress ||... */\n    tag_221:\n        /* \"contracts/ico/PaymeTokenVesting.sol\":3113:3215  require(... */\n      tag_223\n      jumpi\n      mload(0x40)\n      0x08c379a000000000000000000000000000000000000000000000000000000000\n      dup2\n      mstore\n      0x04\n      add\n      tag_224\n      swap1\n      tag_225\n      jump\t// in\n    tag_224:\n      mload(0x40)\n      dup1\n      swap2\n      sub\n      swap1\n      revert\n    tag_223:\n        /* \"contracts/ico/PaymeTokenVesting.sol\":7480:7487  iAmount */\n      dup2\n        /* \"contracts/ico/PaymeTokenVesting.sol\":7448:7452  this */\n      address\n        /* \"contracts/ico/PaymeTokenVesting.sol\":7448:7474  this.getWithdrawableAmount */\n      0xffffffffffffffffffffffffffffffffffffffff\n      and\n      0x90be10cc\n        /* \"contracts/ico/PaymeTokenVesting.sol\":7448:7476  this.getWithdrawableAmount() */\n      mload(0x40)\n      dup2\n      0xffffffff\n      and\n      0xe0\n      shl\n      dup2\n      mstore\n      0x04\n      add\n      0x20\n      mload(0x40)\n      dup1\n      dup4\n      sub\n      dup2\n      dup7\n      dup1\n      extcodesize\n      iszero\n      dup1\n      iszero\n      tag_227\n      jumpi\n      0x00\n      dup1\n      revert\n    tag_227:\n      pop\n      gas\n      staticcall\n      iszero\n      dup1\n      iszero\n      tag_229\n      jumpi\n      returndatasize\n      0x00\n      dup1\n      returndatacopy\n      revert(0x00, returndatasize)\n    tag_229:\n      pop\n      pop\n      pop\n      pop\n      mload(0x40)\n      returndatasize\n      not(0x1f)\n      0x1f\n      dup3\n      add\n      and\n      dup3\n      add\n      dup1\n      0x40\n      mstore\n      pop\n      dup2\n      add\n      swap1\n      tag_230\n      swap2\n      swap1\n      tag_161\n      jump\t// in\n    tag_230:\n        /* \"contracts/ico/PaymeTokenVesting.sol\":7448:7487  this.getWithdrawableAmount() >= iAmount */\n      lt\n      iszero\n        /* \"contracts/ico/PaymeTokenVesting.sol\":7427:7587  require(... */\n      tag_231\n      jumpi\n      mload(0x40)\n      0x08c379a000000000000000000000000000000000000000000000000000000000\n      dup2\n      mstore\n      0x04\n      add\n      tag_232\n      swap1\n      tag_233\n      jump\t// in\n    tag_232:\n      mload(0x40)\n      dup1\n      swap2\n      sub\n      swap1\n      revert\n    tag_231:\n        /* \"contracts/ico/PaymeTokenVesting.sol\":7617:7618  0 */\n      0x00\n        /* \"contracts/ico/PaymeTokenVesting.sol\":7605:7614  iDuration */\n      dup6\n        /* \"contracts/ico/PaymeTokenVesting.sol\":7605:7618  iDuration > 0 */\n      gt\n        /* \"contracts/ico/PaymeTokenVesting.sol\":7597:7657  require(iDuration > 0, \"TokenVesting: duration must be > 0\") */\n      tag_234\n      jumpi\n      mload(0x40)\n      0x08c379a000000000000000000000000000000000000000000000000000000000\n      dup2\n      mstore\n      0x04\n      add\n      tag_235\n      swap1\n      tag_236\n      jump\t// in\n    tag_235:\n      mload(0x40)\n      dup1\n      swap2\n      sub\n      swap1\n      revert\n    tag_234:\n        /* \"contracts/ico/PaymeTokenVesting.sol\":7685:7686  0 */\n      0x00\n        /* \"contracts/ico/PaymeTokenVesting.sol\":7675:7682  iAmount */\n      dup3\n        /* \"contracts/ico/PaymeTokenVesting.sol\":7675:7686  iAmount > 0 */\n      gt\n        /* \"contracts/ico/PaymeTokenVesting.sol\":7667:7723  require(iAmount > 0, \"TokenVesting: amount must be > 0\") */\n      tag_237\n      jumpi\n      mload(0x40)\n      0x08c379a000000000000000000000000000000000000000000000000000000000\n      dup2\n      mstore\n      0x04\n      add\n      tag_238\n      swap1\n      tag_239\n      jump\t// in\n    tag_238:\n      mload(0x40)\n      dup1\n      swap2\n      sub\n      swap1\n      revert\n    tag_237:\n        /* \"contracts/ico/PaymeTokenVesting.sol\":7764:7765  1 */\n      0x01\n        /* \"contracts/ico/PaymeTokenVesting.sol\":7741:7760  iSlicePeriodSeconds */\n      dup5\n        /* \"contracts/ico/PaymeTokenVesting.sol\":7741:7765  iSlicePeriodSeconds >= 1 */\n      lt\n      iszero\n        /* \"contracts/ico/PaymeTokenVesting.sol\":7733:7815  require(iSlicePeriodSeconds >= 1, \"TokenVesting: slicePeriodSeconds must be >= 1\") */\n      tag_240\n      jumpi\n      mload(0x40)\n      0x08c379a000000000000000000000000000000000000000000000000000000000\n      dup2\n      mstore\n      0x04\n      add\n      tag_241\n      swap1\n      tag_242\n      jump\t// in\n    tag_241:\n      mload(0x40)\n      dup1\n      swap2\n      sub\n      swap1\n      revert\n    tag_240:\n        /* \"contracts/ico/PaymeTokenVesting.sol\":7825:7850  bytes32 vestingScheduleId */\n      0x00\n        /* \"contracts/ico/PaymeTokenVesting.sol\":7853:7857  this */\n      address\n        /* \"contracts/ico/PaymeTokenVesting.sol\":7853:7895  this.computeNextVestingScheduleIdForHolder */\n      0xffffffffffffffffffffffffffffffffffffffff\n      and\n      0xf7c469f0\n        /* \"contracts/ico/PaymeTokenVesting.sol\":7896:7908  iBeneficiary */\n      dup11\n        /* \"contracts/ico/PaymeTokenVesting.sol\":7853:7909  this.computeNextVestingScheduleIdForHolder(iBeneficiary) */\n      mload(0x40)\n      dup3\n      0xffffffff\n      and\n      0xe0\n      shl\n      dup2\n      mstore\n      0x04\n      add\n      tag_243\n      swap2\n      swap1\n      tag_50\n      jump\t// in\n    tag_243:\n      0x20\n      mload(0x40)\n      dup1\n      dup4\n      sub\n      dup2\n      dup7\n      dup1\n      extcodesize\n      iszero\n      dup1\n      iszero\n      tag_244\n      jumpi\n      0x00\n      dup1\n      revert\n    tag_244:\n      pop\n      gas\n      staticcall\n      iszero\n      dup1\n      iszero\n      tag_246\n      jumpi\n      returndatasize\n      0x00\n      dup1\n      returndatacopy\n      revert(0x00, returndatasize)\n    tag_246:\n      pop\n      pop\n      pop\n      pop\n      mload(0x40)\n      returndatasize\n      not(0x1f)\n      0x1f\n      dup3\n      add\n      and\n      dup3\n      add\n      dup1\n      0x40\n      mstore\n      pop\n      dup2\n      add\n      swap1\n      tag_247\n      swap2\n      swap1\n      tag_248\n      jump\t// in\n    tag_247:\n        /* \"contracts/ico/PaymeTokenVesting.sol\":7825:7909  bytes32 vestingScheduleId = this.computeNextVestingScheduleIdForHolder(iBeneficiary) */\n      swap1\n      pop\n        /* \"contracts/ico/PaymeTokenVesting.sol\":7919:7932  uint256 cliff */\n      0x00\n        /* \"contracts/ico/PaymeTokenVesting.sol\":7935:7953  iStart.add(iCliff) */\n      tag_249\n        /* \"contracts/ico/PaymeTokenVesting.sol\":7946:7952  iCliff */\n      dup9\n        /* \"contracts/ico/PaymeTokenVesting.sol\":7935:7941  iStart */\n      dup11\n        /* \"contracts/ico/PaymeTokenVesting.sol\":7935:7945  iStart.add */\n      tag_188\n      swap1\n        /* \"contracts/ico/PaymeTokenVesting.sol\":7935:7953  iStart.add(iCliff) */\n      swap2\n      swap1\n      0xffffffff\n      and\n      jump\t// in\n    tag_249:\n        /* \"contracts/ico/PaymeTokenVesting.sol\":7919:7953  uint256 cliff = iStart.add(iCliff) */\n      swap1\n      pop\n        /* \"contracts/ico/PaymeTokenVesting.sol\":8002:8272  VestingSchedule(... */\n      mload(0x40)\n      dup1\n      0x0160\n      add\n      0x40\n      mstore\n      dup1\n        /* \"contracts/ico/PaymeTokenVesting.sol\":8031:8035  true */\n      0x01\n        /* \"contracts/ico/PaymeTokenVesting.sol\":8002:8272  VestingSchedule(... */\n      iszero\n      iszero\n      dup2\n      mstore\n      0x20\n      add\n        /* \"contracts/ico/PaymeTokenVesting.sol\":8049:8061  iBeneficiary */\n      dup12\n        /* \"contracts/ico/PaymeTokenVesting.sol\":8002:8272  VestingSchedule(... */\n      0xffffffffffffffffffffffffffffffffffffffff\n      and\n      dup2\n      mstore\n      0x20\n      add\n        /* \"contracts/ico/PaymeTokenVesting.sol\":8075:8080  cliff */\n      dup3\n        /* \"contracts/ico/PaymeTokenVesting.sol\":8002:8272  VestingSchedule(... */\n      dup2\n      mstore\n      0x20\n      add\n        /* \"contracts/ico/PaymeTokenVesting.sol\":8094:8100  iStart */\n      dup11\n        /* \"contracts/ico/PaymeTokenVesting.sol\":8002:8272  VestingSchedule(... */\n      dup2\n      mstore\n      0x20\n      add\n        /* \"contracts/ico/PaymeTokenVesting.sol\":8114:8123  iDuration */\n      dup9\n        /* \"contracts/ico/PaymeTokenVesting.sol\":8002:8272  VestingSchedule(... */\n      dup2\n      mstore\n      0x20\n      add\n        /* \"contracts/ico/PaymeTokenVesting.sol\":8137:8156  iSlicePeriodSeconds */\n      dup8\n        /* \"contracts/ico/PaymeTokenVesting.sol\":8002:8272  VestingSchedule(... */\n      dup2\n      mstore\n      0x20\n      add\n        /* \"contracts/ico/PaymeTokenVesting.sol\":8170:8180  iRevocable */\n      dup7\n        /* \"contracts/ico/PaymeTokenVesting.sol\":8002:8272  VestingSchedule(... */\n      iszero\n      iszero\n      dup2\n      mstore\n      0x20\n      add\n        /* \"contracts/ico/PaymeTokenVesting.sol\":8194:8201  iAmount */\n      dup6\n        /* \"contracts/ico/PaymeTokenVesting.sol\":8002:8272  VestingSchedule(... */\n      dup2\n      mstore\n      0x20\n      add\n        /* \"contracts/ico/PaymeTokenVesting.sol\":8215:8216  0 */\n      0x00\n        /* \"contracts/ico/PaymeTokenVesting.sol\":8002:8272  VestingSchedule(... */\n      dup2\n      mstore\n      0x20\n      add\n        /* \"contracts/ico/PaymeTokenVesting.sol\":8230:8235  false */\n      0x00\n        /* \"contracts/ico/PaymeTokenVesting.sol\":8002:8272  VestingSchedule(... */\n      iszero\n      iszero\n      dup2\n      mstore\n      0x20\n      add\n        /* \"contracts/ico/PaymeTokenVesting.sol\":8249:8262  iReleaseAtTGE */\n      dup5\n        /* \"contracts/ico/PaymeTokenVesting.sol\":8002:8272  VestingSchedule(... */\n      iszero\n      iszero\n      dup2\n      mstore\n      pop\n        /* \"contracts/ico/PaymeTokenVesting.sol\":7964:7980  vestingSchedules */\n      0x9b\n        /* \"contracts/ico/PaymeTokenVesting.sol\":7964:7999  vestingSchedules[vestingScheduleId] */\n      0x00\n        /* \"contracts/ico/PaymeTokenVesting.sol\":7981:7998  vestingScheduleId */\n      dup5\n        /* \"contracts/ico/PaymeTokenVesting.sol\":7964:7999  vestingSchedules[vestingScheduleId] */\n      dup2\n      mstore\n      0x20\n      add\n      swap1\n      dup2\n      mstore\n      0x20\n      add\n      0x00\n      keccak256\n        /* \"contracts/ico/PaymeTokenVesting.sol\":7964:8272  vestingSchedules[vestingScheduleId] = VestingSchedule(... */\n      0x00\n      dup3\n      add\n      mload\n      dup2\n      0x00\n      add\n      exp(0x0100, 0x00)\n      dup2\n      sload\n      dup2\n      0xff\n      mul\n      not\n      and\n      swap1\n      dup4\n      iszero\n      iszero\n      mul\n      or\n      swap1\n      sstore\n      pop\n      0x20\n      dup3\n      add\n      mload\n      dup2\n      0x00\n      add\n      exp(0x0100, 0x01)\n      dup2\n      sload\n      dup2\n      0xffffffffffffffffffffffffffffffffffffffff\n      mul\n      not\n      and\n      swap1\n      dup4\n      0xffffffffffffffffffffffffffffffffffffffff\n      and\n      mul\n      or\n      swap1\n      sstore\n      pop\n      0x40\n      dup3\n      add\n      mload\n      dup2\n      0x01\n      add\n      sstore\n      0x60\n      dup3\n      add\n      mload\n      dup2\n      0x02\n      add\n      sstore\n      0x80\n      dup3\n      add\n      mload\n      dup2\n      0x03\n      add\n      sstore\n      0xa0\n      dup3\n      add\n      mload\n      dup2\n      0x04\n      add\n      sstore\n      0xc0\n      dup3\n      add\n      mload\n      dup2\n      0x05\n      add\n      exp(0x0100, 0x00)\n      dup2\n      sload\n      dup2\n      0xff\n      mul\n      not\n      and\n      swap1\n      dup4\n      iszero\n      iszero\n      mul\n      or\n      swap1\n      sstore\n      pop\n      0xe0\n      dup3\n      add\n      mload\n      dup2\n      0x06\n      add\n      sstore\n      0x0100\n      dup3\n      add\n      mload\n      dup2\n      0x07\n      add\n      sstore\n      0x0120\n      dup3\n      add\n      mload\n      dup2\n      0x08\n      add\n      exp(0x0100, 0x00)\n      dup2\n      sload\n      dup2\n      0xff\n      mul\n      not\n      and\n      swap1\n      dup4\n      iszero\n      iszero\n      mul\n      or\n      swap1\n      sstore\n      pop\n      0x0140\n      dup3\n      add\n      mload\n      dup2\n      0x08\n      add\n      exp(0x0100, 0x01)\n      dup2\n      sload\n      dup2\n      0xff\n      mul\n      not\n      and\n      swap1\n      dup4\n      iszero\n      iszero\n      mul\n      or\n      swap1\n      sstore\n      pop\n      swap1\n      pop\n      pop\n        /* \"contracts/ico/PaymeTokenVesting.sol\":8313:8353  vestingSchedulesTotalAmount.add(iAmount) */\n      tag_250\n        /* \"contracts/ico/PaymeTokenVesting.sol\":8345:8352  iAmount */\n      dup5\n        /* \"contracts/ico/PaymeTokenVesting.sol\":8313:8340  vestingSchedulesTotalAmount */\n      sload(0x9c)\n        /* \"contracts/ico/PaymeTokenVesting.sol\":8313:8344  vestingSchedulesTotalAmount.add */\n      tag_188\n      swap1\n        /* \"contracts/ico/PaymeTokenVesting.sol\":8313:8353  vestingSchedulesTotalAmount.add(iAmount) */\n      swap2\n      swap1\n      0xffffffff\n      and\n      jump\t// in\n    tag_250:\n        /* \"contracts/ico/PaymeTokenVesting.sol\":8283:8310  vestingSchedulesTotalAmount */\n      0x9c\n        /* \"contracts/ico/PaymeTokenVesting.sol\":8283:8353  vestingSchedulesTotalAmount = vestingSchedulesTotalAmount.add(iAmount) */\n      dup2\n      swap1\n      sstore\n      pop\n        /* \"contracts/ico/PaymeTokenVesting.sol\":8375:8388  iReleaseAtTGE */\n      dup3\n        /* \"contracts/ico/PaymeTokenVesting.sol\":8372:8549  if(iReleaseAtTGE){... */\n      iszero\n      tag_251\n      jumpi\n        /* \"contracts/ico/PaymeTokenVesting.sol\":8426:8443  uint256 tgeAmount */\n      0x00\n        /* \"contracts/ico/PaymeTokenVesting.sol\":8446:8478  iAmount.mul(tgePercent).div(100) */\n      tag_252\n        /* \"contracts/ico/PaymeTokenVesting.sol\":8474:8477  100 */\n      0x64\n        /* \"contracts/ico/PaymeTokenVesting.sol\":8446:8469  iAmount.mul(tgePercent) */\n      tag_253\n        /* \"contracts/ico/PaymeTokenVesting.sol\":8458:8468  tgePercent */\n      sload(0x98)\n        /* \"contracts/ico/PaymeTokenVesting.sol\":8446:8453  iAmount */\n      dup9\n        /* \"contracts/ico/PaymeTokenVesting.sol\":8446:8457  iAmount.mul */\n      tag_254\n      swap1\n        /* \"contracts/ico/PaymeTokenVesting.sol\":8446:8469  iAmount.mul(tgePercent) */\n      swap2\n      swap1\n      0xffffffff\n      and\n      jump\t// in\n    tag_253:\n        /* \"contracts/ico/PaymeTokenVesting.sol\":8446:8473  iAmount.mul(tgePercent).div */\n      tag_255\n      swap1\n        /* \"contracts/ico/PaymeTokenVesting.sol\":8446:8478  iAmount.mul(tgePercent).div(100) */\n      swap2\n      swap1\n      0xffffffff\n      and\n      jump\t// in\n    tag_252:\n        /* \"contracts/ico/PaymeTokenVesting.sol\":8426:8478  uint256 tgeAmount = iAmount.mul(tgePercent).div(100) */\n      swap1\n      pop\n        /* \"contracts/ico/PaymeTokenVesting.sol\":8509:8538  tgeTotalAmount.add(tgeAmount) */\n      tag_256\n        /* \"contracts/ico/PaymeTokenVesting.sol\":8528:8537  tgeAmount */\n      dup2\n        /* \"contracts/ico/PaymeTokenVesting.sol\":8509:8523  tgeTotalAmount */\n      sload(0x9d)\n        /* \"contracts/ico/PaymeTokenVesting.sol\":8509:8527  tgeTotalAmount.add */\n      tag_188\n      swap1\n        /* \"contracts/ico/PaymeTokenVesting.sol\":8509:8538  tgeTotalAmount.add(tgeAmount) */\n      swap2\n      swap1\n      0xffffffff\n      and\n      jump\t// in\n    tag_256:\n        /* \"contracts/ico/PaymeTokenVesting.sol\":8492:8506  tgeTotalAmount */\n      0x9d\n        /* \"contracts/ico/PaymeTokenVesting.sol\":8492:8538  tgeTotalAmount = tgeTotalAmount.add(tgeAmount) */\n      dup2\n      swap1\n      sstore\n      pop\n        /* \"contracts/ico/PaymeTokenVesting.sol\":8389:8549  {... */\n      pop\n        /* \"contracts/ico/PaymeTokenVesting.sol\":8372:8549  if(iReleaseAtTGE){... */\n    tag_251:\n        /* \"contracts/ico/PaymeTokenVesting.sol\":8561:8580  vestingSchedulesIds */\n      0x9a\n        /* \"contracts/ico/PaymeTokenVesting.sol\":8586:8603  vestingScheduleId */\n      dup3\n        /* \"contracts/ico/PaymeTokenVesting.sol\":8561:8604  vestingSchedulesIds.push(vestingScheduleId) */\n      swap1\n      dup1\n      0x01\n      dup2\n      sload\n      add\n      dup1\n      dup3\n      sstore\n      dup1\n      swap2\n      pop\n      pop\n      0x01\n      swap1\n      sub\n      swap1\n      0x00\n      mstore\n      keccak256(0x00, 0x20)\n      add\n      0x00\n      swap1\n      swap2\n      swap1\n      swap2\n      swap1\n      swap2\n      pop\n      sstore\n        /* \"contracts/ico/PaymeTokenVesting.sol\":8614:8641  uint256 currentVestingCount */\n      0x00\n        /* \"contracts/ico/PaymeTokenVesting.sol\":8644:8663  holdersVestingCount */\n      0x9e\n        /* \"contracts/ico/PaymeTokenVesting.sol\":8644:8677  holdersVestingCount[iBeneficiary] */\n      0x00\n        /* \"contracts/ico/PaymeTokenVesting.sol\":8664:8676  iBeneficiary */\n      dup13\n        /* \"contracts/ico/PaymeTokenVesting.sol\":8644:8677  holdersVestingCount[iBeneficiary] */\n      0xffffffffffffffffffffffffffffffffffffffff\n      and\n      0xffffffffffffffffffffffffffffffffffffffff\n      and\n      dup2\n      mstore\n      0x20\n      add\n      swap1\n      dup2\n      mstore\n      0x20\n      add\n      0x00\n      keccak256\n      sload\n        /* \"contracts/ico/PaymeTokenVesting.sol\":8614:8677  uint256 currentVestingCount = holdersVestingCount[iBeneficiary] */\n      swap1\n      pop\n        /* \"contracts/ico/PaymeTokenVesting.sol\":8723:8749  currentVestingCount.add(1) */\n      tag_258\n        /* \"contracts/ico/PaymeTokenVesting.sol\":8747:8748  1 */\n      0x01\n        /* \"contracts/ico/PaymeTokenVesting.sol\":8723:8742  currentVestingCount */\n      dup3\n        /* \"contracts/ico/PaymeTokenVesting.sol\":8723:8746  currentVestingCount.add */\n      tag_188\n      swap1\n        /* \"contracts/ico/PaymeTokenVesting.sol\":8723:8749  currentVestingCount.add(1) */\n      swap2\n      swap1\n      0xffffffff\n      and\n      jump\t// in\n    tag_258:\n        /* \"contracts/ico/PaymeTokenVesting.sol\":8687:8706  holdersVestingCount */\n      0x9e\n        /* \"contracts/ico/PaymeTokenVesting.sol\":8687:8720  holdersVestingCount[iBeneficiary] */\n      0x00\n        /* \"contracts/ico/PaymeTokenVesting.sol\":8707:8719  iBeneficiary */\n      dup14\n        /* \"contracts/ico/PaymeTokenVesting.sol\":8687:8720  holdersVestingCount[iBeneficiary] */\n      0xffffffffffffffffffffffffffffffffffffffff\n      and\n      0xffffffffffffffffffffffffffffffffffffffff\n      and\n      dup2\n      mstore\n      0x20\n      add\n      swap1\n      dup2\n      mstore\n      0x20\n      add\n      0x00\n      keccak256\n        /* \"contracts/ico/PaymeTokenVesting.sol\":8687:8749  holdersVestingCount[iBeneficiary] = currentVestingCount.add(1) */\n      dup2\n      swap1\n      sstore\n      pop\n        /* \"contracts/ico/PaymeTokenVesting.sol\":8801:8802  0 */\n      0x00\n        /* \"contracts/ico/PaymeTokenVesting.sol\":8759:8779  tgeTokenParticipants */\n      0x9f\n        /* \"contracts/ico/PaymeTokenVesting.sol\":8759:8798  tgeTokenParticipants[vestingScheduleId] */\n      0x00\n        /* \"contracts/ico/PaymeTokenVesting.sol\":8780:8797  vestingScheduleId */\n      dup6\n        /* \"contracts/ico/PaymeTokenVesting.sol\":8759:8798  tgeTokenParticipants[vestingScheduleId] */\n      dup2\n      mstore\n      0x20\n      add\n      swap1\n      dup2\n      mstore\n      0x20\n      add\n      0x00\n      keccak256\n        /* \"contracts/ico/PaymeTokenVesting.sol\":8759:8802  tgeTokenParticipants[vestingScheduleId] = 0 */\n      dup2\n      swap1\n      sstore\n      pop\n        /* \"contracts/ico/PaymeTokenVesting.sol\":8817:8858  VestingScheduleCreated(vestingScheduleId) */\n      0x7deecc243dec36156ece079ae8e71cb3f5b8a86d4ee141e3733216e23614e0c3\n        /* \"contracts/ico/PaymeTokenVesting.sol\":8840:8857  vestingScheduleId */\n      dup4\n        /* \"contracts/ico/PaymeTokenVesting.sol\":8817:8858  VestingScheduleCreated(vestingScheduleId) */\n      mload(0x40)\n      tag_259\n      swap2\n      swap1\n      tag_95\n      jump\t// in\n    tag_259:\n      mload(0x40)\n      dup1\n      swap2\n      sub\n      swap1\n      log1\n        /* \"contracts/ico/PaymeTokenVesting.sol\":7417:8865  {... */\n      pop\n      pop\n      pop\n        /* \"contracts/ico/PaymeTokenVesting.sol\":7129:8865  function createVestingSchedule(... */\n      pop\n      pop\n      pop\n      pop\n      pop\n      pop\n      pop\n      pop\n      jump\t// out\n        /* \"contracts/ico/PaymeTokenVesting.sol\":14343:14592  function getLastVestingScheduleForHolder(address holder)... */\n    tag_87:\n        /* \"contracts/ico/PaymeTokenVesting.sol\":14444:14466  VestingSchedule memory */\n      tag_260\n      tag_261\n      jump\t// in\n    tag_260:\n        /* \"contracts/ico/PaymeTokenVesting.sol\":14484:14500  vestingSchedules */\n      0x9b\n        /* \"contracts/ico/PaymeTokenVesting.sol\":14484:14585  vestingSchedules[computeVestingScheduleIdForAddressAndIndex(holder, holdersVestingCount[holder] - 1)] */\n      0x00\n        /* \"contracts/ico/PaymeTokenVesting.sol\":14501:14584  computeVestingScheduleIdForAddressAndIndex(holder, holdersVestingCount[holder] - 1) */\n      tag_263\n        /* \"contracts/ico/PaymeTokenVesting.sol\":14544:14550  holder */\n      dup5\n        /* \"contracts/ico/PaymeTokenVesting.sol\":14582:14583  1 */\n      0x01\n        /* \"contracts/ico/PaymeTokenVesting.sol\":14552:14571  holdersVestingCount */\n      0x9e\n        /* \"contracts/ico/PaymeTokenVesting.sol\":14552:14579  holdersVestingCount[holder] */\n      0x00\n        /* \"contracts/ico/PaymeTokenVesting.sol\":14572:14578  holder */\n      dup9\n        /* \"contracts/ico/PaymeTokenVesting.sol\":14552:14579  holdersVestingCount[holder] */\n      0xffffffffffffffffffffffffffffffffffffffff\n      and\n      0xffffffffffffffffffffffffffffffffffffffff\n      and\n      dup2\n      mstore\n      0x20\n      add\n      swap1\n      dup2\n      mstore\n      0x20\n      add\n      0x00\n      keccak256\n      sload\n        /* \"contracts/ico/PaymeTokenVesting.sol\":14552:14583  holdersVestingCount[holder] - 1 */\n      tag_264\n      swap2\n      swap1\n      tag_265\n      jump\t// in\n    tag_264:\n        /* \"contracts/ico/PaymeTokenVesting.sol\":14501:14543  computeVestingScheduleIdForAddressAndIndex */\n      tag_93\n        /* \"contracts/ico/PaymeTokenVesting.sol\":14501:14584  computeVestingScheduleIdForAddressAndIndex(holder, holdersVestingCount[holder] - 1) */\n      jump\t// in\n    tag_263:\n        /* \"contracts/ico/PaymeTokenVesting.sol\":14484:14585  vestingSchedules[computeVestingScheduleIdForAddressAndIndex(holder, holdersVestingCount[holder] - 1)] */\n      dup2\n      mstore\n      0x20\n      add\n      swap1\n      dup2\n      mstore\n      0x20\n      add\n      0x00\n      keccak256\n        /* \"contracts/ico/PaymeTokenVesting.sol\":14477:14585  return vestingSchedules[computeVestingScheduleIdForAddressAndIndex(holder, holdersVestingCount[holder] - 1)] */\n      mload(0x40)\n      dup1\n      0x0160\n      add\n      0x40\n      mstore\n      swap1\n      dup2\n      0x00\n      dup3\n      add\n      0x00\n      swap1\n      sload\n      swap1\n      0x0100\n      exp\n      swap1\n      div\n      0xff\n      and\n      iszero\n      iszero\n      iszero\n      iszero\n      dup2\n      mstore\n      0x20\n      add\n      0x00\n      dup3\n      add\n      0x01\n      swap1\n      sload\n      swap1\n      0x0100\n      exp\n      swap1\n      div\n      0xffffffffffffffffffffffffffffffffffffffff\n      and\n      0xffffffffffffffffffffffffffffffffffffffff\n      and\n      0xffffffffffffffffffffffffffffffffffffffff\n      and\n      dup2\n      mstore\n      0x20\n      add\n      0x01\n      dup3\n      add\n      sload\n      dup2\n      mstore\n      0x20\n      add\n      0x02\n      dup3\n      add\n      sload\n      dup2\n      mstore\n      0x20\n      add\n      0x03\n      dup3\n      add\n      sload\n      dup2\n      mstore\n      0x20\n      add\n      0x04\n      dup3\n      add\n      sload\n      dup2\n      mstore\n      0x20\n      add\n      0x05\n      dup3\n      add\n      0x00\n      swap1\n      sload\n      swap1\n      0x0100\n      exp\n      swap1\n      div\n      0xff\n      and\n      iszero\n      iszero\n      iszero\n      iszero\n      dup2\n      mstore\n      0x20\n      add\n      0x06\n      dup3\n      add\n      sload\n      dup2\n      mstore\n      0x20\n      add\n      0x07\n      dup3\n      add\n      sload\n      dup2\n      mstore\n      0x20\n      add\n      0x08\n      dup3\n      add\n      0x00\n      swap1\n      sload\n      swap1\n      0x0100\n      exp\n      swap1\n      div\n      0xff\n      and\n      iszero\n      iszero\n      iszero\n      iszero\n      dup2\n      mstore\n      0x20\n      add\n      0x08\n      dup3\n      add\n      0x01\n      swap1\n      sload\n      swap1\n      0x0100\n      exp\n      swap1\n      div\n      0xff\n      and\n      iszero\n      iszero\n      iszero\n      iszero\n      dup2\n      mstore\n      pop\n      pop\n      swap1\n      pop\n        /* \"contracts/ico/PaymeTokenVesting.sol\":14343:14592  function getLastVestingScheduleForHolder(address holder)... */\n      swap2\n      swap1\n      pop\n      jump\t// out\n        /* \"contracts/ico/PaymeTokenVesting.sol\":14694:14895  function computeVestingScheduleIdForAddressAndIndex(address holder, uint256 index)... */\n    tag_93:\n        /* \"contracts/ico/PaymeTokenVesting.sol\":14821:14828  bytes32 */\n      0x00\n        /* \"contracts/ico/PaymeTokenVesting.sol\":14873:14879  holder */\n      dup3\n        /* \"contracts/ico/PaymeTokenVesting.sol\":14881:14886  index */\n      dup3\n        /* \"contracts/ico/PaymeTokenVesting.sol\":14856:14887  abi.encodePacked(holder, index) */\n      add(0x20, mload(0x40))\n      tag_267\n      swap3\n      swap2\n      swap1\n      tag_268\n      jump\t// in\n    tag_267:\n      mload(0x40)\n      0x20\n      dup2\n      dup4\n      sub\n      sub\n      dup2\n      mstore\n      swap1\n      0x40\n      mstore\n        /* \"contracts/ico/PaymeTokenVesting.sol\":14846:14888  keccak256(abi.encodePacked(holder, index)) */\n      dup1\n      mload\n      swap1\n      0x20\n      add\n      keccak256\n        /* \"contracts/ico/PaymeTokenVesting.sol\":14839:14888  return keccak256(abi.encodePacked(holder, index)) */\n      swap1\n      pop\n        /* \"contracts/ico/PaymeTokenVesting.sol\":14694:14895  function computeVestingScheduleIdForAddressAndIndex(address holder, uint256 index)... */\n      swap3\n      swap2\n      pop\n      pop\n      jump\t// out\n        /* \"@openzeppelin/contracts-upgradeable/access/OwnableUpgradeable.sol\":1441:1526  function owner() public view virtual returns (address) {... */\n    tag_97:\n        /* \"@openzeppelin/contracts-upgradeable/access/OwnableUpgradeable.sol\":1487:1494  address */\n      0x00\n        /* \"@openzeppelin/contracts-upgradeable/access/OwnableUpgradeable.sol\":1513:1519  _owner */\n      0x33\n      0x00\n      swap1\n      sload\n      swap1\n      0x0100\n      exp\n      swap1\n      div\n      0xffffffffffffffffffffffffffffffffffffffff\n      and\n        /* \"@openzeppelin/contracts-upgradeable/access/OwnableUpgradeable.sol\":1506:1519  return _owner */\n      swap1\n      pop\n        /* \"@openzeppelin/contracts-upgradeable/access/OwnableUpgradeable.sol\":1441:1526  function owner() public view virtual returns (address) {... */\n      swap1\n      jump\t// out\n        /* \"contracts/ico/PaymeTokenVesting.sol\":13752:13925  function getWithdrawableAmount()... */\n    tag_100:\n        /* \"contracts/ico/PaymeTokenVesting.sol\":13829:13836  uint256 */\n      0x00\n        /* \"contracts/ico/PaymeTokenVesting.sol\":13854:13918  _token.balanceOf(address(this)).sub(vestingSchedulesTotalAmount) */\n      tag_271\n        /* \"contracts/ico/PaymeTokenVesting.sol\":13890:13917  vestingSchedulesTotalAmount */\n      sload(0x9c)\n        /* \"contracts/ico/PaymeTokenVesting.sol\":13854:13860  _token */\n      0x97\n      0x00\n      swap1\n      sload\n      swap1\n      0x0100\n      exp\n      swap1\n      div\n      0xffffffffffffffffffffffffffffffffffffffff\n      and\n        /* \"contracts/ico/PaymeTokenVesting.sol\":13854:13870  _token.balanceOf */\n      0xffffffffffffffffffffffffffffffffffffffff\n      and\n      0x70a08231\n        /* \"contracts/ico/PaymeTokenVesting.sol\":13879:13883  this */\n      address\n        /* \"contracts/ico/PaymeTokenVesting.sol\":13854:13885  _token.balanceOf(address(this)) */\n      mload(0x40)\n      dup3\n      0xffffffff\n      and\n      0xe0\n      shl\n      dup2\n      mstore\n      0x04\n      add\n      tag_272\n      swap2\n      swap1\n      tag_50\n      jump\t// in\n    tag_272:\n      0x20\n      mload(0x40)\n      dup1\n      dup4\n      sub\n      dup2\n      dup7\n      dup1\n      extcodesize\n      iszero\n      dup1\n      iszero\n      tag_273\n      jumpi\n      0x00\n      dup1\n      revert\n    tag_273:\n      pop\n      gas\n      staticcall\n      iszero\n      dup1\n      iszero\n      tag_275\n      jumpi\n      returndatasize\n      0x00\n      dup1\n      returndatacopy\n      revert(0x00, returndatasize)\n    tag_275:\n      pop\n      pop\n      pop\n      pop\n      mload(0x40)\n      returndatasize\n      not(0x1f)\n      0x1f\n      dup3\n      add\n      and\n      dup3\n      add\n      dup1\n      0x40\n      mstore\n      pop\n      dup2\n      add\n      swap1\n      tag_276\n      swap2\n      swap1\n      tag_161\n      jump\t// in\n    tag_276:\n        /* \"contracts/ico/PaymeTokenVesting.sol\":13854:13889  _token.balanceOf(address(this)).sub */\n      tag_190\n      swap1\n        /* \"contracts/ico/PaymeTokenVesting.sol\":13854:13918  _token.balanceOf(address(this)).sub(vestingSchedulesTotalAmount) */\n      swap2\n      swap1\n      0xffffffff\n      and\n      jump\t// in\n    tag_271:\n        /* \"contracts/ico/PaymeTokenVesting.sol\":13847:13918  return _token.balanceOf(address(this)).sub(vestingSchedulesTotalAmount) */\n      swap1\n      pop\n        /* \"contracts/ico/PaymeTokenVesting.sol\":13752:13925  function getWithdrawableAmount()... */\n      swap1\n      jump\t// out\n        /* \"contracts/ico/PaymeTokenVesting.sol\":13439:13620  function getVestingSchedule(bytes32 vestingScheduleId)... */\n    tag_105:\n        /* \"contracts/ico/PaymeTokenVesting.sol\":13538:13560  VestingSchedule memory */\n      tag_277\n      tag_261\n      jump\t// in\n    tag_277:\n        /* \"contracts/ico/PaymeTokenVesting.sol\":13578:13594  vestingSchedules */\n      0x9b\n        /* \"contracts/ico/PaymeTokenVesting.sol\":13578:13613  vestingSchedules[vestingScheduleId] */\n      0x00\n        /* \"contracts/ico/PaymeTokenVesting.sol\":13595:13612  vestingScheduleId */\n      dup4\n        /* \"contracts/ico/PaymeTokenVesting.sol\":13578:13613  vestingSchedules[vestingScheduleId] */\n      dup2\n      mstore\n      0x20\n      add\n      swap1\n      dup2\n      mstore\n      0x20\n      add\n      0x00\n      keccak256\n        /* \"contracts/ico/PaymeTokenVesting.sol\":13571:13613  return vestingSchedules[vestingScheduleId] */\n      mload(0x40)\n      dup1\n      0x0160\n      add\n      0x40\n      mstore\n      swap1\n      dup2\n      0x00\n      dup3\n      add\n      0x00\n      swap1\n      sload\n      swap1\n      0x0100\n      exp\n      swap1\n      div\n      0xff\n      and\n      iszero\n      iszero\n      iszero\n      iszero\n      dup2\n      mstore\n      0x20\n      add\n      0x00\n      dup3\n      add\n      0x01\n      swap1\n      sload\n      swap1\n      0x0100\n      exp\n      swap1\n      div\n      0xffffffffffffffffffffffffffffffffffffffff\n      and\n      0xffffffffffffffffffffffffffffffffffffffff\n      and\n      0xffffffffffffffffffffffffffffffffffffffff\n      and\n      dup2\n      mstore\n      0x20\n      add\n      0x01\n      dup3\n      add\n      sload\n      dup2\n      mstore\n      0x20\n      add\n      0x02\n      dup3\n      add\n      sload\n      dup2\n      mstore\n      0x20\n      add\n      0x03\n      dup3\n      add\n      sload\n      dup2\n      mstore\n      0x20\n      add\n      0x04\n      dup3\n      add\n      sload\n      dup2\n      mstore\n      0x20\n      add\n      0x05\n      dup3\n      add\n      0x00\n      swap1\n      sload\n      swap1\n      0x0100\n      exp\n      swap1\n      div\n      0xff\n      and\n      iszero\n      iszero\n      iszero\n      iszero\n      dup2\n      mstore\n      0x20\n      add\n      0x06\n      dup3\n      add\n      sload\n      dup2\n      mstore\n      0x20\n      add\n      0x07\n      dup3\n      add\n      sload\n      dup2\n      mstore\n      0x20\n      add\n      0x08\n      dup3\n      add\n      0x00\n      swap1\n      sload\n      swap1\n      0x0100\n      exp\n      swap1\n      div\n      0xff\n      and\n      iszero\n      iszero\n      iszero\n      iszero\n      dup2\n      mstore\n      0x20\n      add\n      0x08\n      dup3\n      add\n      0x01\n      swap1\n      sload\n      swap1\n      0x0100\n      exp\n      swap1\n      div\n      0xff\n      and\n      iszero\n      iszero\n      iszero\n      iszero\n      dup2\n      mstore\n      pop\n      pop\n      swap1\n      pop\n        /* \"contracts/ico/PaymeTokenVesting.sol\":13439:13620  function getVestingSchedule(bytes32 vestingScheduleId)... */\n      swap2\n      swap1\n      pop\n      jump\t// out\n        /* \"contracts/ico/PaymeTokenVesting.sol\":9014:9707  function revoke(bytes32 vestingScheduleId)... */\n    tag_109:\n        /* \"@openzeppelin/contracts-upgradeable/access/OwnableUpgradeable.sol\":1334:1347  _checkOwner() */\n      tag_280\n        /* \"@openzeppelin/contracts-upgradeable/access/OwnableUpgradeable.sol\":1334:1345  _checkOwner */\n      tag_155\n        /* \"@openzeppelin/contracts-upgradeable/access/OwnableUpgradeable.sol\":1334:1347  _checkOwner() */\n      jump\t// in\n    tag_280:\n        /* \"contracts/ico/PaymeTokenVesting.sol\":9130:9147  vestingScheduleId */\n      dup1\n        /* \"contracts/ico/PaymeTokenVesting.sol\":2937:2953  vestingSchedules */\n      0x9b\n        /* \"contracts/ico/PaymeTokenVesting.sol\":2937:2972  vestingSchedules[vestingScheduleId] */\n      0x00\n        /* \"contracts/ico/PaymeTokenVesting.sol\":2954:2971  vestingScheduleId */\n      dup3\n        /* \"contracts/ico/PaymeTokenVesting.sol\":2937:2972  vestingSchedules[vestingScheduleId] */\n      dup2\n      mstore\n      0x20\n      add\n      swap1\n      dup2\n      mstore\n      0x20\n      add\n      0x00\n      keccak256\n        /* \"contracts/ico/PaymeTokenVesting.sol\":2937:2984  vestingSchedules[vestingScheduleId].initialized */\n      0x00\n      add\n      0x00\n      swap1\n      sload\n      swap1\n      0x0100\n      exp\n      swap1\n      div\n      0xff\n      and\n        /* \"contracts/ico/PaymeTokenVesting.sol\":2929:2985  require(vestingSchedules[vestingScheduleId].initialized) */\n      tag_282\n      jumpi\n      0x00\n      dup1\n      revert\n    tag_282:\n        /* \"contracts/ico/PaymeTokenVesting.sol\":3004:3020  vestingSchedules */\n      0x9b\n        /* \"contracts/ico/PaymeTokenVesting.sol\":3004:3039  vestingSchedules[vestingScheduleId] */\n      0x00\n        /* \"contracts/ico/PaymeTokenVesting.sol\":3021:3038  vestingScheduleId */\n      dup3\n        /* \"contracts/ico/PaymeTokenVesting.sol\":3004:3039  vestingSchedules[vestingScheduleId] */\n      dup2\n      mstore\n      0x20\n      add\n      swap1\n      dup2\n      mstore\n      0x20\n      add\n      0x00\n      keccak256\n        /* \"contracts/ico/PaymeTokenVesting.sol\":3004:3047  vestingSchedules[vestingScheduleId].revoked */\n      0x08\n      add\n      0x00\n      swap1\n      sload\n      swap1\n      0x0100\n      exp\n      swap1\n      div\n      0xff\n      and\n        /* \"contracts/ico/PaymeTokenVesting.sol\":3003:3047  !vestingSchedules[vestingScheduleId].revoked */\n      iszero\n        /* \"contracts/ico/PaymeTokenVesting.sol\":2995:3048  require(!vestingSchedules[vestingScheduleId].revoked) */\n      tag_283\n      jumpi\n      0x00\n      dup1\n      revert\n    tag_283:\n        /* \"contracts/ico/PaymeTokenVesting.sol\":9158:9197  VestingSchedule storage vestingSchedule */\n      0x00\n        /* \"contracts/ico/PaymeTokenVesting.sol\":9200:9216  vestingSchedules */\n      0x9b\n        /* \"contracts/ico/PaymeTokenVesting.sol\":9200:9235  vestingSchedules[vestingScheduleId] */\n      0x00\n        /* \"contracts/ico/PaymeTokenVesting.sol\":9217:9234  vestingScheduleId */\n      dup5\n        /* \"contracts/ico/PaymeTokenVesting.sol\":9200:9235  vestingSchedules[vestingScheduleId] */\n      dup2\n      mstore\n      0x20\n      add\n      swap1\n      dup2\n      mstore\n      0x20\n      add\n      0x00\n      keccak256\n        /* \"contracts/ico/PaymeTokenVesting.sol\":9158:9235  VestingSchedule storage vestingSchedule = vestingSchedules[vestingScheduleId] */\n      swap1\n      pop\n        /* \"contracts/ico/PaymeTokenVesting.sol\":9253:9268  vestingSchedule */\n      dup1\n        /* \"contracts/ico/PaymeTokenVesting.sol\":9253:9278  vestingSchedule.revocable */\n      0x05\n      add\n      0x00\n      swap1\n      sload\n      swap1\n      0x0100\n      exp\n      swap1\n      div\n      0xff\n      and\n        /* \"contracts/ico/PaymeTokenVesting.sol\":9245:9321  require(vestingSchedule.revocable, \"TokenVesting: vesting is not revocable\") */\n      tag_285\n      jumpi\n      mload(0x40)\n      0x08c379a000000000000000000000000000000000000000000000000000000000\n      dup2\n      mstore\n      0x04\n      add\n      tag_286\n      swap1\n      tag_287\n      jump\t// in\n    tag_286:\n      mload(0x40)\n      dup1\n      swap2\n      sub\n      swap1\n      revert\n    tag_285:\n        /* \"contracts/ico/PaymeTokenVesting.sol\":9331:9351  uint256 vestedAmount */\n      0x00\n        /* \"contracts/ico/PaymeTokenVesting.sol\":9354:9395  _computeReleasableAmount(vestingSchedule) */\n      tag_288\n        /* \"contracts/ico/PaymeTokenVesting.sol\":9379:9394  vestingSchedule */\n      dup3\n        /* \"contracts/ico/PaymeTokenVesting.sol\":9354:9395  _computeReleasableAmount(vestingSchedule) */\n      mload(0x40)\n      dup1\n      0x0160\n      add\n      0x40\n      mstore\n      swap1\n      dup2\n      0x00\n      dup3\n      add\n      0x00\n      swap1\n      sload\n      swap1\n      0x0100\n      exp\n      swap1\n      div\n      0xff\n      and\n      iszero\n      iszero\n      iszero\n      iszero\n      dup2\n      mstore\n      0x20\n      add\n      0x00\n      dup3\n      add\n      0x01\n      swap1\n      sload\n      swap1\n      0x0100\n      exp\n      swap1\n      div\n      0xffffffffffffffffffffffffffffffffffffffff\n      and\n      0xffffffffffffffffffffffffffffffffffffffff\n      and\n      0xffffffffffffffffffffffffffffffffffffffff\n      and\n      dup2\n      mstore\n      0x20\n      add\n      0x01\n      dup3\n      add\n      sload\n      dup2\n      mstore\n      0x20\n      add\n      0x02\n      dup3\n      add\n      sload\n      dup2\n      mstore\n      0x20\n      add\n      0x03\n      dup3\n      add\n      sload\n      dup2\n      mstore\n      0x20\n      add\n      0x04\n      dup3\n      add\n      sload\n      dup2\n      mstore\n      0x20\n      add\n      0x05\n      dup3\n      add\n      0x00\n      swap1\n      sload\n      swap1\n      0x0100\n      exp\n      swap1\n      div\n      0xff\n      and\n      iszero\n      iszero\n      iszero\n      iszero\n      dup2\n      mstore\n      0x20\n      add\n      0x06\n      dup3\n      add\n      sload\n      dup2\n      mstore\n      0x20\n      add\n      0x07\n      dup3\n      add\n      sload\n      dup2\n      mstore\n      0x20\n      add\n      0x08\n      dup3\n      add\n      0x00\n      swap1\n      sload\n      swap1\n      0x0100\n      exp\n      swap1\n      div\n      0xff\n      and\n      iszero\n      iszero\n      iszero\n      iszero\n      dup2\n      mstore\n      0x20\n      add\n      0x08\n      dup3\n      add\n      0x01\n      swap1\n      sload\n      swap1\n      0x0100\n      exp\n      swap1\n      div\n      0xff\n      and\n      iszero\n      iszero\n      iszero\n      iszero\n      dup2\n      mstore\n      pop\n      pop\n        /* \"contracts/ico/PaymeTokenVesting.sol\":9354:9378  _computeReleasableAmount */\n      tag_183\n        /* \"contracts/ico/PaymeTokenVesting.sol\":9354:9395  _computeReleasableAmount(vestingSchedule) */\n      jump\t// in\n    tag_288:\n        /* \"contracts/ico/PaymeTokenVesting.sol\":9331:9395  uint256 vestedAmount = _computeReleasableAmount(vestingSchedule) */\n      swap1\n      pop\n        /* \"contracts/ico/PaymeTokenVesting.sol\":9423:9424  0 */\n      0x00\n        /* \"contracts/ico/PaymeTokenVesting.sol\":9408:9420  vestedAmount */\n      dup2\n        /* \"contracts/ico/PaymeTokenVesting.sol\":9408:9424  vestedAmount > 0 */\n      gt\n        /* \"contracts/ico/PaymeTokenVesting.sol\":9405:9490  if(vestedAmount > 0){... */\n      iszero\n      tag_289\n      jumpi\n        /* \"contracts/ico/PaymeTokenVesting.sol\":9439:9479  release(vestingScheduleId, vestedAmount) */\n      tag_290\n        /* \"contracts/ico/PaymeTokenVesting.sol\":9447:9464  vestingScheduleId */\n      dup5\n        /* \"contracts/ico/PaymeTokenVesting.sol\":9466:9478  vestedAmount */\n      dup3\n        /* \"contracts/ico/PaymeTokenVesting.sol\":9439:9446  release */\n      tag_74\n        /* \"contracts/ico/PaymeTokenVesting.sol\":9439:9479  release(vestingScheduleId, vestedAmount) */\n      jump\t// in\n    tag_290:\n        /* \"contracts/ico/PaymeTokenVesting.sol\":9405:9490  if(vestedAmount > 0){... */\n    tag_289:\n        /* \"contracts/ico/PaymeTokenVesting.sol\":9499:9517  uint256 unreleased */\n      0x00\n        /* \"contracts/ico/PaymeTokenVesting.sol\":9520:9577  vestingSchedule.amountTotal.sub(vestingSchedule.released) */\n      tag_291\n        /* \"contracts/ico/PaymeTokenVesting.sol\":9552:9567  vestingSchedule */\n      dup4\n        /* \"contracts/ico/PaymeTokenVesting.sol\":9552:9576  vestingSchedule.released */\n      0x07\n      add\n      sload\n        /* \"contracts/ico/PaymeTokenVesting.sol\":9520:9535  vestingSchedule */\n      dup5\n        /* \"contracts/ico/PaymeTokenVesting.sol\":9520:9547  vestingSchedule.amountTotal */\n      0x06\n      add\n      sload\n        /* \"contracts/ico/PaymeTokenVesting.sol\":9520:9551  vestingSchedule.amountTotal.sub */\n      tag_190\n      swap1\n        /* \"contracts/ico/PaymeTokenVesting.sol\":9520:9577  vestingSchedule.amountTotal.sub(vestingSchedule.released) */\n      swap2\n      swap1\n      0xffffffff\n      and\n      jump\t// in\n    tag_291:\n        /* \"contracts/ico/PaymeTokenVesting.sol\":9499:9577  uint256 unreleased = vestingSchedule.amountTotal.sub(vestingSchedule.released) */\n      swap1\n      pop\n        /* \"contracts/ico/PaymeTokenVesting.sol\":9617:9660  vestingSchedulesTotalAmount.sub(unreleased) */\n      tag_292\n        /* \"contracts/ico/PaymeTokenVesting.sol\":9649:9659  unreleased */\n      dup2\n        /* \"contracts/ico/PaymeTokenVesting.sol\":9617:9644  vestingSchedulesTotalAmount */\n      sload(0x9c)\n        /* \"contracts/ico/PaymeTokenVesting.sol\":9617:9648  vestingSchedulesTotalAmount.sub */\n      tag_190\n      swap1\n        /* \"contracts/ico/PaymeTokenVesting.sol\":9617:9660  vestingSchedulesTotalAmount.sub(unreleased) */\n      swap2\n      swap1\n      0xffffffff\n      and\n      jump\t// in\n    tag_292:\n        /* \"contracts/ico/PaymeTokenVesting.sol\":9587:9614  vestingSchedulesTotalAmount */\n      0x9c\n        /* \"contracts/ico/PaymeTokenVesting.sol\":9587:9660  vestingSchedulesTotalAmount = vestingSchedulesTotalAmount.sub(unreleased) */\n      dup2\n      swap1\n      sstore\n      pop\n        /* \"contracts/ico/PaymeTokenVesting.sol\":9696:9700  true */\n      0x01\n        /* \"contracts/ico/PaymeTokenVesting.sol\":9670:9685  vestingSchedule */\n      dup4\n        /* \"contracts/ico/PaymeTokenVesting.sol\":9670:9693  vestingSchedule.revoked */\n      0x08\n      add\n      0x00\n        /* \"contracts/ico/PaymeTokenVesting.sol\":9670:9700  vestingSchedule.revoked = true */\n      0x0100\n      exp\n      dup2\n      sload\n      dup2\n      0xff\n      mul\n      not\n      and\n      swap1\n      dup4\n      iszero\n      iszero\n      mul\n      or\n      swap1\n      sstore\n      pop\n        /* \"contracts/ico/PaymeTokenVesting.sol\":9148:9707  {... */\n      pop\n      pop\n      pop\n        /* \"@openzeppelin/contracts-upgradeable/access/OwnableUpgradeable.sol\":1357:1358  _ */\n      pop\n        /* \"contracts/ico/PaymeTokenVesting.sol\":9014:9707  function revoke(bytes32 vestingScheduleId)... */\n      pop\n      jump\t// out\n        /* \"contracts/ico/PaymeTokenVesting.sol\":5999:6153  function getTotalInvestmentAmountBalance()... */\n    tag_111:\n        /* \"contracts/ico/PaymeTokenVesting.sol\":6077:6084  uint256 */\n      0x00\n        /* \"contracts/ico/PaymeTokenVesting.sol\":6119:6146  vestingSchedulesTotalAmount */\n      sload(0x9c)\n        /* \"contracts/ico/PaymeTokenVesting.sol\":6102:6116  tgeTotalAmount */\n      sload(0x9d)\n        /* \"contracts/ico/PaymeTokenVesting.sol\":6102:6146  tgeTotalAmount + vestingSchedulesTotalAmount */\n      tag_294\n      swap2\n      swap1\n      tag_295\n      jump\t// in\n    tag_294:\n        /* \"contracts/ico/PaymeTokenVesting.sol\":6095:6146  return tgeTotalAmount + vestingSchedulesTotalAmount */\n      swap1\n      pop\n        /* \"contracts/ico/PaymeTokenVesting.sol\":5999:6153  function getTotalInvestmentAmountBalance()... */\n      swap1\n      jump\t// out\n        /* \"contracts/ico/PaymeTokenVesting.sol\":2246:2301  mapping(bytes32 => uint256) public tgeTokenParticipants */\n    tag_115:\n      mstore(0x20, 0x9f)\n      dup1\n      0x00\n      mstore\n      keccak256(0x00, 0x40)\n      0x00\n      swap2\n      pop\n      swap1\n      pop\n      sload\n      dup2\n      jump\t// out\n        /* \"contracts/ico/PaymeTokenVesting.sol\":5883:5993  function getTgeTotalAmount()... */\n    tag_118:\n        /* \"contracts/ico/PaymeTokenVesting.sol\":5947:5954  uint256 */\n      0x00\n        /* \"contracts/ico/PaymeTokenVesting.sol\":5972:5986  tgeTotalAmount */\n      sload(0x9d)\n        /* \"contracts/ico/PaymeTokenVesting.sol\":5965:5986  return tgeTotalAmount */\n      swap1\n      pop\n        /* \"contracts/ico/PaymeTokenVesting.sol\":5883:5993  function getTgeTotalAmount()... */\n      swap1\n      jump\t// out\n        /* \"contracts/ico/PaymeTokenVesting.sol\":1924:1949  uint256 public tgePercent */\n    tag_121:\n      sload(0x98)\n      dup2\n      jump\t// out\n        /* \"contracts/ico/PaymeTokenVesting.sol\":12959:13282  function computeReleasableAmount(bytes32 vestingScheduleId)... */\n    tag_125:\n        /* \"contracts/ico/PaymeTokenVesting.sol\":13122:13129  uint256 */\n      0x00\n        /* \"contracts/ico/PaymeTokenVesting.sol\":13074:13091  vestingScheduleId */\n      dup2\n        /* \"contracts/ico/PaymeTokenVesting.sol\":2937:2953  vestingSchedules */\n      0x9b\n        /* \"contracts/ico/PaymeTokenVesting.sol\":2937:2972  vestingSchedules[vestingScheduleId] */\n      0x00\n        /* \"contracts/ico/PaymeTokenVesting.sol\":2954:2971  vestingScheduleId */\n      dup3\n        /* \"contracts/ico/PaymeTokenVesting.sol\":2937:2972  vestingSchedules[vestingScheduleId] */\n      dup2\n      mstore\n      0x20\n      add\n      swap1\n      dup2\n      mstore\n      0x20\n      add\n      0x00\n      keccak256\n        /* \"contracts/ico/PaymeTokenVesting.sol\":2937:2984  vestingSchedules[vestingScheduleId].initialized */\n      0x00\n      add\n      0x00\n      swap1\n      sload\n      swap1\n      0x0100\n      exp\n      swap1\n      div\n      0xff\n      and\n        /* \"contracts/ico/PaymeTokenVesting.sol\":2929:2985  require(vestingSchedules[vestingScheduleId].initialized) */\n      tag_298\n      jumpi\n      0x00\n      dup1\n      revert\n    tag_298:\n        /* \"contracts/ico/PaymeTokenVesting.sol\":3004:3020  vestingSchedules */\n      0x9b\n        /* \"contracts/ico/PaymeTokenVesting.sol\":3004:3039  vestingSchedules[vestingScheduleId] */\n      0x00\n        /* \"contracts/ico/PaymeTokenVesting.sol\":3021:3038  vestingScheduleId */\n      dup3\n        /* \"contracts/ico/PaymeTokenVesting.sol\":3004:3039  vestingSchedules[vestingScheduleId] */\n      dup2\n      mstore\n      0x20\n      add\n      swap1\n      dup2\n      mstore\n      0x20\n      add\n      0x00\n      keccak256\n        /* \"contracts/ico/PaymeTokenVesting.sol\":3004:3047  vestingSchedules[vestingScheduleId].revoked */\n      0x08\n      add\n      0x00\n      swap1\n      sload\n      swap1\n      0x0100\n      exp\n      swap1\n      div\n      0xff\n      and\n        /* \"contracts/ico/PaymeTokenVesting.sol\":3003:3047  !vestingSchedules[vestingScheduleId].revoked */\n      iszero\n        /* \"contracts/ico/PaymeTokenVesting.sol\":2995:3048  require(!vestingSchedules[vestingScheduleId].revoked) */\n      tag_299\n      jumpi\n      0x00\n      dup1\n      revert\n    tag_299:\n        /* \"contracts/ico/PaymeTokenVesting.sol\":13140:13179  VestingSchedule storage vestingSchedule */\n      0x00\n        /* \"contracts/ico/PaymeTokenVesting.sol\":13182:13198  vestingSchedules */\n      0x9b\n        /* \"contracts/ico/PaymeTokenVesting.sol\":13182:13217  vestingSchedules[vestingScheduleId] */\n      0x00\n        /* \"contracts/ico/PaymeTokenVesting.sol\":13199:13216  vestingScheduleId */\n      dup6\n        /* \"contracts/ico/PaymeTokenVesting.sol\":13182:13217  vestingSchedules[vestingScheduleId] */\n      dup2\n      mstore\n      0x20\n      add\n      swap1\n      dup2\n      mstore\n      0x20\n      add\n      0x00\n      keccak256\n        /* \"contracts/ico/PaymeTokenVesting.sol\":13140:13217  VestingSchedule storage vestingSchedule = vestingSchedules[vestingScheduleId] */\n      swap1\n      pop\n        /* \"contracts/ico/PaymeTokenVesting.sol\":13234:13275  _computeReleasableAmount(vestingSchedule) */\n      tag_301\n        /* \"contracts/ico/PaymeTokenVesting.sol\":13259:13274  vestingSchedule */\n      dup2\n        /* \"contracts/ico/PaymeTokenVesting.sol\":13234:13275  _computeReleasableAmount(vestingSchedule) */\n      mload(0x40)\n      dup1\n      0x0160\n      add\n      0x40\n      mstore\n      swap1\n      dup2\n      0x00\n      dup3\n      add\n      0x00\n      swap1\n      sload\n      swap1\n      0x0100\n      exp\n      swap1\n      div\n      0xff\n      and\n      iszero\n      iszero\n      iszero\n      iszero\n      dup2\n      mstore\n      0x20\n      add\n      0x00\n      dup3\n      add\n      0x01\n      swap1\n      sload\n      swap1\n      0x0100\n      exp\n      swap1\n      div\n      0xffffffffffffffffffffffffffffffffffffffff\n      and\n      0xffffffffffffffffffffffffffffffffffffffff\n      and\n      0xffffffffffffffffffffffffffffffffffffffff\n      and\n      dup2\n      mstore\n      0x20\n      add\n      0x01\n      dup3\n      add\n      sload\n      dup2\n      mstore\n      0x20\n      add\n      0x02\n      dup3\n      add\n      sload\n      dup2\n      mstore\n      0x20\n      add\n      0x03\n      dup3\n      add\n      sload\n      dup2\n      mstore\n      0x20\n      add\n      0x04\n      dup3\n      add\n      sload\n      dup2\n      mstore\n      0x20\n      add\n      0x05\n      dup3\n      add\n      0x00\n      swap1\n      sload\n      swap1\n      0x0100\n      exp\n      swap1\n      div\n      0xff\n      and\n      iszero\n      iszero\n      iszero\n      iszero\n      dup2\n      mstore\n      0x20\n      add\n      0x06\n      dup3\n      add\n      sload\n      dup2\n      mstore\n      0x20\n      add\n      0x07\n      dup3\n      add\n      sload\n      dup2\n      mstore\n      0x20\n      add\n      0x08\n      dup3\n      add\n      0x00\n      swap1\n      sload\n      swap1\n      0x0100\n      exp\n      swap1\n      div\n      0xff\n      and\n      iszero\n      iszero\n      iszero\n      iszero\n      dup2\n      mstore\n      0x20\n      add\n      0x08\n      dup3\n      add\n      0x01\n      swap1\n      sload\n      swap1\n      0x0100\n      exp\n      swap1\n      div\n      0xff\n      and\n      iszero\n      iszero\n      iszero\n      iszero\n      dup2\n      mstore\n      pop\n      pop\n        /* \"contracts/ico/PaymeTokenVesting.sol\":13234:13258  _computeReleasableAmount */\n      tag_183\n        /* \"contracts/ico/PaymeTokenVesting.sol\":13234:13275  _computeReleasableAmount(vestingSchedule) */\n      jump\t// in\n    tag_301:\n        /* \"contracts/ico/PaymeTokenVesting.sol\":13227:13275  return _computeReleasableAmount(vestingSchedule) */\n      swap3\n      pop\n      pop\n        /* \"contracts/ico/PaymeTokenVesting.sol\":12959:13282  function computeReleasableAmount(bytes32 vestingScheduleId)... */\n      pop\n      swap2\n      swap1\n      pop\n      jump\t// out\n        /* \"@openzeppelin/contracts-upgradeable/access/OwnableUpgradeable.sol\":2321:2519  function transferOwnership(address newOwner) public virtual onlyOwner {... */\n    tag_129:\n        /* \"@openzeppelin/contracts-upgradeable/access/OwnableUpgradeable.sol\":1334:1347  _checkOwner() */\n      tag_303\n        /* \"@openzeppelin/contracts-upgradeable/access/OwnableUpgradeable.sol\":1334:1345  _checkOwner */\n      tag_155\n        /* \"@openzeppelin/contracts-upgradeable/access/OwnableUpgradeable.sol\":1334:1347  _checkOwner() */\n      jump\t// in\n    tag_303:\n        /* \"@openzeppelin/contracts-upgradeable/access/OwnableUpgradeable.sol\":2429:2430  0 */\n      0x00\n        /* \"@openzeppelin/contracts-upgradeable/access/OwnableUpgradeable.sol\":2409:2431  newOwner != address(0) */\n      0xffffffffffffffffffffffffffffffffffffffff\n      and\n        /* \"@openzeppelin/contracts-upgradeable/access/OwnableUpgradeable.sol\":2409:2417  newOwner */\n      dup2\n        /* \"@openzeppelin/contracts-upgradeable/access/OwnableUpgradeable.sol\":2409:2431  newOwner != address(0) */\n      0xffffffffffffffffffffffffffffffffffffffff\n      and\n      eq\n      iszero\n        /* \"@openzeppelin/contracts-upgradeable/access/OwnableUpgradeable.sol\":2401:2474  require(newOwner != address(0), \"Ownable: new owner is the zero address\") */\n      tag_305\n      jumpi\n      mload(0x40)\n      0x08c379a000000000000000000000000000000000000000000000000000000000\n      dup2\n      mstore\n      0x04\n      add\n      tag_306\n      swap1\n      tag_307\n      jump\t// in\n    tag_306:\n      mload(0x40)\n      dup1\n      swap2\n      sub\n      swap1\n      revert\n    tag_305:\n        /* \"@openzeppelin/contracts-upgradeable/access/OwnableUpgradeable.sol\":2484:2512  _transferOwnership(newOwner) */\n      tag_308\n        /* \"@openzeppelin/contracts-upgradeable/access/OwnableUpgradeable.sol\":2503:2511  newOwner */\n      dup2\n        /* \"@openzeppelin/contracts-upgradeable/access/OwnableUpgradeable.sol\":2484:2502  _transferOwnership */\n      tag_196\n        /* \"@openzeppelin/contracts-upgradeable/access/OwnableUpgradeable.sol\":2484:2512  _transferOwnership(newOwner) */\n      jump\t// in\n    tag_308:\n        /* \"@openzeppelin/contracts-upgradeable/access/OwnableUpgradeable.sol\":2321:2519  function transferOwnership(address newOwner) public virtual onlyOwner {... */\n      pop\n      jump\t// out\n        /* \"contracts/ico/PaymeTokenVesting.sol\":5263:5497  function getVestingScheduleByAddressAndIndex(address holder, uint256 index)... */\n    tag_132:\n        /* \"contracts/ico/PaymeTokenVesting.sol\":5373:5395  VestingSchedule memory */\n      tag_309\n      tag_261\n      jump\t// in\n    tag_309:\n        /* \"contracts/ico/PaymeTokenVesting.sol\":5413:5490  getVestingSchedule(computeVestingScheduleIdForAddressAndIndex(holder, index)) */\n      tag_311\n        /* \"contracts/ico/PaymeTokenVesting.sol\":5432:5489  computeVestingScheduleIdForAddressAndIndex(holder, index) */\n      tag_312\n        /* \"contracts/ico/PaymeTokenVesting.sol\":5475:5481  holder */\n      dup5\n        /* \"contracts/ico/PaymeTokenVesting.sol\":5483:5488  index */\n      dup5\n        /* \"contracts/ico/PaymeTokenVesting.sol\":5432:5474  computeVestingScheduleIdForAddressAndIndex */\n      tag_93\n        /* \"contracts/ico/PaymeTokenVesting.sol\":5432:5489  computeVestingScheduleIdForAddressAndIndex(holder, index) */\n      jump\t// in\n    tag_312:\n        /* \"contracts/ico/PaymeTokenVesting.sol\":5413:5431  getVestingSchedule */\n      tag_105\n        /* \"contracts/ico/PaymeTokenVesting.sol\":5413:5490  getVestingSchedule(computeVestingScheduleIdForAddressAndIndex(holder, index)) */\n      jump\t// in\n    tag_311:\n        /* \"contracts/ico/PaymeTokenVesting.sol\":5406:5490  return getVestingSchedule(computeVestingScheduleIdForAddressAndIndex(holder, index)) */\n      swap1\n      pop\n        /* \"contracts/ico/PaymeTokenVesting.sol\":5263:5497  function getVestingScheduleByAddressAndIndex(address holder, uint256 index)... */\n      swap3\n      swap2\n      pop\n      pop\n      jump\t// out\n        /* \"contracts/ico/PaymeTokenVesting.sol\":14031:14249  function computeNextVestingScheduleIdForHolder(address holder)... */\n    tag_136:\n        /* \"contracts/ico/PaymeTokenVesting.sol\":14138:14145  bytes32 */\n      0x00\n        /* \"contracts/ico/PaymeTokenVesting.sol\":14163:14242  computeVestingScheduleIdForAddressAndIndex(holder, holdersVestingCount[holder]) */\n      tag_314\n        /* \"contracts/ico/PaymeTokenVesting.sol\":14206:14212  holder */\n      dup3\n        /* \"contracts/ico/PaymeTokenVesting.sol\":14214:14233  holdersVestingCount */\n      0x9e\n        /* \"contracts/ico/PaymeTokenVesting.sol\":14214:14241  holdersVestingCount[holder] */\n      0x00\n        /* \"contracts/ico/PaymeTokenVesting.sol\":14234:14240  holder */\n      dup6\n        /* \"contracts/ico/PaymeTokenVesting.sol\":14214:14241  holdersVestingCount[holder] */\n      0xffffffffffffffffffffffffffffffffffffffff\n      and\n      0xffffffffffffffffffffffffffffffffffffffff\n      and\n      dup2\n      mstore\n      0x20\n      add\n      swap1\n      dup2\n      mstore\n      0x20\n      add\n      0x00\n      keccak256\n      sload\n        /* \"contracts/ico/PaymeTokenVesting.sol\":14163:14205  computeVestingScheduleIdForAddressAndIndex */\n      tag_93\n        /* \"contracts/ico/PaymeTokenVesting.sol\":14163:14242  computeVestingScheduleIdForAddressAndIndex(holder, holdersVestingCount[holder]) */\n      jump\t// in\n    tag_314:\n        /* \"contracts/ico/PaymeTokenVesting.sol\":14156:14242  return computeVestingScheduleIdForAddressAndIndex(holder, holdersVestingCount[holder]) */\n      swap1\n      pop\n        /* \"contracts/ico/PaymeTokenVesting.sol\":14031:14249  function computeNextVestingScheduleIdForHolder(address holder)... */\n      swap2\n      swap1\n      pop\n      jump\t// out\n        /* \"contracts/ico/PaymeTokenVesting.sol\":4874:5100  function getVestingIdAtIndex(uint256 index)... */\n    tag_140:\n        /* \"contracts/ico/PaymeTokenVesting.sol\":4952:4959  bytes32 */\n      0x00\n        /* \"contracts/ico/PaymeTokenVesting.sol\":4986:5012  getVestingSchedulesCount() */\n      tag_316\n        /* \"contracts/ico/PaymeTokenVesting.sol\":4986:5010  getVestingSchedulesCount */\n      tag_40\n        /* \"contracts/ico/PaymeTokenVesting.sol\":4986:5012  getVestingSchedulesCount() */\n      jump\t// in\n    tag_316:\n        /* \"contracts/ico/PaymeTokenVesting.sol\":4978:4983  index */\n      dup3\n        /* \"contracts/ico/PaymeTokenVesting.sol\":4978:5012  index < getVestingSchedulesCount() */\n      lt\n        /* \"contracts/ico/PaymeTokenVesting.sol\":4970:5050  require(index < getVestingSchedulesCount(), \"TokenVesting: index out of bounds\") */\n      tag_317\n      jumpi\n      mload(0x40)\n      0x08c379a000000000000000000000000000000000000000000000000000000000\n      dup2\n      mstore\n      0x04\n      add\n      tag_318\n      swap1\n      tag_319\n      jump\t// in\n    tag_318:\n      mload(0x40)\n      dup1\n      swap2\n      sub\n      swap1\n      revert\n    tag_317:\n        /* \"contracts/ico/PaymeTokenVesting.sol\":5067:5086  vestingSchedulesIds */\n      0x9a\n        /* \"contracts/ico/PaymeTokenVesting.sol\":5087:5092  index */\n      dup3\n        /* \"contracts/ico/PaymeTokenVesting.sol\":5067:5093  vestingSchedulesIds[index] */\n      dup2\n      sload\n      dup2\n      lt\n      tag_320\n      jumpi\n      tag_321\n      tag_322\n      jump\t// in\n    tag_321:\n    tag_320:\n      swap1\n      0x00\n      mstore\n      keccak256(0x00, 0x20)\n      add\n      sload\n        /* \"contracts/ico/PaymeTokenVesting.sol\":5060:5093  return vestingSchedulesIds[index] */\n      swap1\n      pop\n        /* \"contracts/ico/PaymeTokenVesting.sol\":4874:5100  function getVestingIdAtIndex(uint256 index)... */\n      swap2\n      swap1\n      pop\n      jump\t// out\n        /* \"contracts/ico/PaymeTokenVesting.sol\":10078:11346  function releaseTokenForTGE(bytes32 vestingScheduleId)... */\n    tag_144:\n        /* \"@openzeppelin/contracts-upgradeable/security/ReentrancyGuardUpgradeable.sol\":1815:1816  2 */\n      0x02\n        /* \"@openzeppelin/contracts-upgradeable/security/ReentrancyGuardUpgradeable.sol\":2569:2576  _status */\n      sload(0x65)\n        /* \"@openzeppelin/contracts-upgradeable/security/ReentrancyGuardUpgradeable.sol\":2569:2588  _status != _ENTERED */\n      eq\n      iszero\n        /* \"@openzeppelin/contracts-upgradeable/security/ReentrancyGuardUpgradeable.sol\":2561:2624  require(_status != _ENTERED, \"ReentrancyGuard: reentrant call\") */\n      tag_325\n      jumpi\n      mload(0x40)\n      0x08c379a000000000000000000000000000000000000000000000000000000000\n      dup2\n      mstore\n      0x04\n      add\n      tag_326\n      swap1\n      tag_152\n      jump\t// in\n    tag_326:\n      mload(0x40)\n      dup1\n      swap2\n      sub\n      swap1\n      revert\n    tag_325:\n        /* \"@openzeppelin/contracts-upgradeable/security/ReentrancyGuardUpgradeable.sol\":1815:1816  2 */\n      0x02\n        /* \"@openzeppelin/contracts-upgradeable/security/ReentrancyGuardUpgradeable.sol\":2699:2706  _status */\n      0x65\n        /* \"@openzeppelin/contracts-upgradeable/security/ReentrancyGuardUpgradeable.sol\":2699:2717  _status = _ENTERED */\n      dup2\n      swap1\n      sstore\n      pop\n        /* \"contracts/ico/PaymeTokenVesting.sol\":10176:10215  VestingSchedule storage vestingSchedule */\n      0x00\n        /* \"contracts/ico/PaymeTokenVesting.sol\":10218:10234  vestingSchedules */\n      0x9b\n        /* \"contracts/ico/PaymeTokenVesting.sol\":10218:10253  vestingSchedules[vestingScheduleId] */\n      0x00\n        /* \"contracts/ico/PaymeTokenVesting.sol\":10235:10252  vestingScheduleId */\n      dup4\n        /* \"contracts/ico/PaymeTokenVesting.sol\":10218:10253  vestingSchedules[vestingScheduleId] */\n      dup2\n      mstore\n      0x20\n      add\n      swap1\n      dup2\n      mstore\n      0x20\n      add\n      0x00\n      keccak256\n        /* \"contracts/ico/PaymeTokenVesting.sol\":10176:10253  VestingSchedule storage vestingSchedule = vestingSchedules[vestingScheduleId] */\n      swap1\n      pop\n        /* \"contracts/ico/PaymeTokenVesting.sol\":10263:10281  bool isBeneficiary */\n      0x00\n        /* \"contracts/ico/PaymeTokenVesting.sol\":10298:10313  vestingSchedule */\n      dup2\n        /* \"contracts/ico/PaymeTokenVesting.sol\":10298:10325  vestingSchedule.beneficiary */\n      0x00\n      add\n      0x01\n      swap1\n      sload\n      swap1\n      0x0100\n      exp\n      swap1\n      div\n      0xffffffffffffffffffffffffffffffffffffffff\n      and\n        /* \"contracts/ico/PaymeTokenVesting.sol\":10284:10325  msg.sender == vestingSchedule.beneficiary */\n      0xffffffffffffffffffffffffffffffffffffffff\n      and\n        /* \"contracts/ico/PaymeTokenVesting.sol\":10284:10294  msg.sender */\n      caller\n        /* \"contracts/ico/PaymeTokenVesting.sol\":10284:10325  msg.sender == vestingSchedule.beneficiary */\n      0xffffffffffffffffffffffffffffffffffffffff\n      and\n      eq\n        /* \"contracts/ico/PaymeTokenVesting.sol\":10263:10325  bool isBeneficiary = msg.sender == vestingSchedule.beneficiary */\n      swap1\n      pop\n        /* \"contracts/ico/PaymeTokenVesting.sol\":10335:10347  bool isOwner */\n      0x00\n        /* \"contracts/ico/PaymeTokenVesting.sol\":10364:10371  owner() */\n      tag_328\n        /* \"contracts/ico/PaymeTokenVesting.sol\":10364:10369  owner */\n      tag_97\n        /* \"contracts/ico/PaymeTokenVesting.sol\":10364:10371  owner() */\n      jump\t// in\n    tag_328:\n        /* \"contracts/ico/PaymeTokenVesting.sol\":10350:10371  msg.sender == owner() */\n      0xffffffffffffffffffffffffffffffffffffffff\n      and\n        /* \"contracts/ico/PaymeTokenVesting.sol\":10350:10360  msg.sender */\n      caller\n        /* \"contracts/ico/PaymeTokenVesting.sol\":10350:10371  msg.sender == owner() */\n      0xffffffffffffffffffffffffffffffffffffffff\n      and\n      eq\n        /* \"contracts/ico/PaymeTokenVesting.sol\":10335:10371  bool isOwner = msg.sender == owner() */\n      swap1\n      pop\n        /* \"contracts/ico/PaymeTokenVesting.sol\":10402:10415  isBeneficiary */\n      dup2\n        /* \"contracts/ico/PaymeTokenVesting.sol\":10402:10426  isBeneficiary || isOwner */\n      dup1\n      tag_329\n      jumpi\n      pop\n        /* \"contracts/ico/PaymeTokenVesting.sol\":10419:10426  isOwner */\n      dup1\n        /* \"contracts/ico/PaymeTokenVesting.sol\":10402:10426  isBeneficiary || isOwner */\n    tag_329:\n        /* \"contracts/ico/PaymeTokenVesting.sol\":10381:10518  require(... */\n      tag_330\n      jumpi\n      mload(0x40)\n      0x08c379a000000000000000000000000000000000000000000000000000000000\n      dup2\n      mstore\n      0x04\n      add\n      tag_331\n      swap1\n      tag_181\n      jump\t// in\n    tag_331:\n      mload(0x40)\n      dup1\n      swap2\n      sub\n      swap1\n      revert\n    tag_330:\n        /* \"contracts/ico/PaymeTokenVesting.sol\":10550:10565  vestingSchedule */\n      dup3\n        /* \"contracts/ico/PaymeTokenVesting.sol\":10550:10578  vestingSchedule.releaseAtTGE */\n      0x08\n      add\n      0x01\n      swap1\n      sload\n      swap1\n      0x0100\n      exp\n      swap1\n      div\n      0xff\n      and\n        /* \"contracts/ico/PaymeTokenVesting.sol\":10529:10660  require(... */\n      tag_332\n      jumpi\n      mload(0x40)\n      0x08c379a000000000000000000000000000000000000000000000000000000000\n      dup2\n      mstore\n      0x04\n      add\n      tag_333\n      swap1\n      tag_334\n      jump\t// in\n    tag_333:\n      mload(0x40)\n      dup1\n      swap2\n      sub\n      swap1\n      revert\n    tag_332:\n        /* \"contracts/ico/PaymeTokenVesting.sol\":10671:10690  uint256 currentTime */\n      0x00\n        /* \"contracts/ico/PaymeTokenVesting.sol\":10693:10709  getCurrentTime() */\n      tag_335\n        /* \"contracts/ico/PaymeTokenVesting.sol\":10693:10707  getCurrentTime */\n      tag_55\n        /* \"contracts/ico/PaymeTokenVesting.sol\":10693:10709  getCurrentTime() */\n      jump\t// in\n    tag_335:\n        /* \"contracts/ico/PaymeTokenVesting.sol\":10671:10709  uint256 currentTime = getCurrentTime() */\n      swap1\n      pop\n        /* \"contracts/ico/PaymeTokenVesting.sol\":10743:10757  tgeOpeningTime */\n      sload(0x99)\n        /* \"contracts/ico/PaymeTokenVesting.sol\":10728:10739  currentTime */\n      dup2\n        /* \"contracts/ico/PaymeTokenVesting.sol\":10728:10757  currentTime >= tgeOpeningTime */\n      lt\n      iszero\n        /* \"contracts/ico/PaymeTokenVesting.sol\":10720:10784  require(currentTime >= tgeOpeningTime, \"TGE: time not reached!\") */\n      tag_336\n      jumpi\n      mload(0x40)\n      0x08c379a000000000000000000000000000000000000000000000000000000000\n      dup2\n      mstore\n      0x04\n      add\n      tag_337\n      swap1\n      tag_338\n      jump\t// in\n    tag_337:\n      mload(0x40)\n      dup1\n      swap2\n      sub\n      swap1\n      revert\n    tag_336:\n        /* \"contracts/ico/PaymeTokenVesting.sol\":10845:10846  0 */\n      0x00\n        /* \"contracts/ico/PaymeTokenVesting.sol\":10802:10822  tgeTokenParticipants */\n      0x9f\n        /* \"contracts/ico/PaymeTokenVesting.sol\":10802:10841  tgeTokenParticipants[vestingScheduleId] */\n      0x00\n        /* \"contracts/ico/PaymeTokenVesting.sol\":10823:10840  vestingScheduleId */\n      dup8\n        /* \"contracts/ico/PaymeTokenVesting.sol\":10802:10841  tgeTokenParticipants[vestingScheduleId] */\n      dup2\n      mstore\n      0x20\n      add\n      swap1\n      dup2\n      mstore\n      0x20\n      add\n      0x00\n      keccak256\n      sload\n        /* \"contracts/ico/PaymeTokenVesting.sol\":10802:10846  tgeTokenParticipants[vestingScheduleId] == 0 */\n      eq\n        /* \"contracts/ico/PaymeTokenVesting.sol\":10794:10877  require(tgeTokenParticipants[vestingScheduleId] == 0, \"TGE: Token Already claimed\") */\n      tag_339\n      jumpi\n      mload(0x40)\n      0x08c379a000000000000000000000000000000000000000000000000000000000\n      dup2\n      mstore\n      0x04\n      add\n      tag_340\n      swap1\n      tag_341\n      jump\t// in\n    tag_340:\n      mload(0x40)\n      dup1\n      swap2\n      sub\n      swap1\n      revert\n    tag_339:\n        /* \"contracts/ico/PaymeTokenVesting.sol\":10896:10920  uint256 TGEReleaseAmount */\n      0x00\n        /* \"contracts/ico/PaymeTokenVesting.sol\":10923:10975  vestingSchedule.amountTotal.mul(tgePercent).div(100) */\n      tag_342\n        /* \"contracts/ico/PaymeTokenVesting.sol\":10971:10974  100 */\n      0x64\n        /* \"contracts/ico/PaymeTokenVesting.sol\":10923:10966  vestingSchedule.amountTotal.mul(tgePercent) */\n      tag_343\n        /* \"contracts/ico/PaymeTokenVesting.sol\":10955:10965  tgePercent */\n      sload(0x98)\n        /* \"contracts/ico/PaymeTokenVesting.sol\":10923:10938  vestingSchedule */\n      dup9\n        /* \"contracts/ico/PaymeTokenVesting.sol\":10923:10950  vestingSchedule.amountTotal */\n      0x06\n      add\n      sload\n        /* \"contracts/ico/PaymeTokenVesting.sol\":10923:10954  vestingSchedule.amountTotal.mul */\n      tag_254\n      swap1\n        /* \"contracts/ico/PaymeTokenVesting.sol\":10923:10966  vestingSchedule.amountTotal.mul(tgePercent) */\n      swap2\n      swap1\n      0xffffffff\n      and\n      jump\t// in\n    tag_343:\n        /* \"contracts/ico/PaymeTokenVesting.sol\":10923:10970  vestingSchedule.amountTotal.mul(tgePercent).div */\n      tag_255\n      swap1\n        /* \"contracts/ico/PaymeTokenVesting.sol\":10923:10975  vestingSchedule.amountTotal.mul(tgePercent).div(100) */\n      swap2\n      swap1\n      0xffffffff\n      and\n      jump\t// in\n    tag_342:\n        /* \"contracts/ico/PaymeTokenVesting.sol\":10896:10975  uint256 TGEReleaseAmount = vestingSchedule.amountTotal.mul(tgePercent).div(100) */\n      swap1\n      pop\n        /* \"contracts/ico/PaymeTokenVesting.sol\":11028:11044  TGEReleaseAmount */\n      dup1\n        /* \"contracts/ico/PaymeTokenVesting.sol\":10986:11006  tgeTokenParticipants */\n      0x9f\n        /* \"contracts/ico/PaymeTokenVesting.sol\":10986:11025  tgeTokenParticipants[vestingScheduleId] */\n      0x00\n        /* \"contracts/ico/PaymeTokenVesting.sol\":11007:11024  vestingScheduleId */\n      dup9\n        /* \"contracts/ico/PaymeTokenVesting.sol\":10986:11025  tgeTokenParticipants[vestingScheduleId] */\n      dup2\n      mstore\n      0x20\n      add\n      swap1\n      dup2\n      mstore\n      0x20\n      add\n      0x00\n      keccak256\n        /* \"contracts/ico/PaymeTokenVesting.sol\":10986:11044  tgeTokenParticipants[vestingScheduleId] = TGEReleaseAmount */\n      dup2\n      swap1\n      sstore\n      pop\n        /* \"contracts/ico/PaymeTokenVesting.sol\":11055:11089  address payable beneficiaryPayable */\n      0x00\n        /* \"contracts/ico/PaymeTokenVesting.sol\":11100:11115  vestingSchedule */\n      dup6\n        /* \"contracts/ico/PaymeTokenVesting.sol\":11100:11127  vestingSchedule.beneficiary */\n      0x00\n      add\n      0x01\n      swap1\n      sload\n      swap1\n      0x0100\n      exp\n      swap1\n      div\n      0xffffffffffffffffffffffffffffffffffffffff\n      and\n        /* \"contracts/ico/PaymeTokenVesting.sol\":11055:11128  address payable beneficiaryPayable = payable(vestingSchedule.beneficiary) */\n      swap1\n      pop\n        /* \"contracts/ico/PaymeTokenVesting.sol\":11164:11200  tgeTotalAmount.sub(TGEReleaseAmount) */\n      tag_344\n        /* \"contracts/ico/PaymeTokenVesting.sol\":11183:11199  TGEReleaseAmount */\n      dup3\n        /* \"contracts/ico/PaymeTokenVesting.sol\":11164:11178  tgeTotalAmount */\n      sload(0x9d)\n        /* \"contracts/ico/PaymeTokenVesting.sol\":11164:11182  tgeTotalAmount.sub */\n      tag_190\n      swap1\n        /* \"contracts/ico/PaymeTokenVesting.sol\":11164:11200  tgeTotalAmount.sub(TGEReleaseAmount) */\n      swap2\n      swap1\n      0xffffffff\n      and\n      jump\t// in\n    tag_344:\n        /* \"contracts/ico/PaymeTokenVesting.sol\":11147:11161  tgeTotalAmount */\n      0x9d\n        /* \"contracts/ico/PaymeTokenVesting.sol\":11147:11200  tgeTotalAmount = tgeTotalAmount.sub(TGEReleaseAmount) */\n      dup2\n      swap1\n      sstore\n      pop\n        /* \"contracts/ico/PaymeTokenVesting.sol\":11211:11268  _token.safeTransfer(beneficiaryPayable, TGEReleaseAmount) */\n      tag_345\n        /* \"contracts/ico/PaymeTokenVesting.sol\":11231:11249  beneficiaryPayable */\n      dup2\n        /* \"contracts/ico/PaymeTokenVesting.sol\":11251:11267  TGEReleaseAmount */\n      dup4\n        /* \"contracts/ico/PaymeTokenVesting.sol\":11211:11217  _token */\n      0x97\n      0x00\n      swap1\n      sload\n      swap1\n      0x0100\n      exp\n      swap1\n      div\n      0xffffffffffffffffffffffffffffffffffffffff\n      and\n        /* \"contracts/ico/PaymeTokenVesting.sol\":11211:11230  _token.safeTransfer */\n      0xffffffffffffffffffffffffffffffffffffffff\n      and\n      tag_167\n      swap1\n        /* \"contracts/ico/PaymeTokenVesting.sol\":11211:11268  _token.safeTransfer(beneficiaryPayable, TGEReleaseAmount) */\n      swap3\n      swap2\n      swap1\n      0xffffffff\n      and\n      jump\t// in\n    tag_345:\n        /* \"contracts/ico/PaymeTokenVesting.sol\":11284:11339  TokenReleasedAtTGE(beneficiaryPayable,TGEReleaseAmount) */\n      0xd9215c0345f0d530c5101edea49413960423257c62dd4dcc18b5e6c0b63a0227\n        /* \"contracts/ico/PaymeTokenVesting.sol\":11303:11321  beneficiaryPayable */\n      dup2\n        /* \"contracts/ico/PaymeTokenVesting.sol\":11322:11338  TGEReleaseAmount */\n      dup4\n        /* \"contracts/ico/PaymeTokenVesting.sol\":11284:11339  TokenReleasedAtTGE(beneficiaryPayable,TGEReleaseAmount) */\n      mload(0x40)\n      tag_346\n      swap3\n      swap2\n      swap1\n      tag_347\n      jump\t// in\n    tag_346:\n      mload(0x40)\n      dup1\n      swap2\n      sub\n      swap1\n      log1\n        /* \"contracts/ico/PaymeTokenVesting.sol\":10165:11346  {... */\n      pop\n      pop\n      pop\n      pop\n      pop\n      pop\n        /* \"@openzeppelin/contracts-upgradeable/security/ReentrancyGuardUpgradeable.sol\":1772:1773  1 */\n      0x01\n        /* \"@openzeppelin/contracts-upgradeable/security/ReentrancyGuardUpgradeable.sol\":2872:2879  _status */\n      0x65\n        /* \"@openzeppelin/contracts-upgradeable/security/ReentrancyGuardUpgradeable.sol\":2872:2894  _status = _NOT_ENTERED */\n      dup2\n      swap1\n      sstore\n      pop\n        /* \"contracts/ico/PaymeTokenVesting.sol\":10078:11346  function releaseTokenForTGE(bytes32 vestingScheduleId)... */\n      pop\n      jump\t// out\n        /* \"@openzeppelin/contracts-upgradeable/access/OwnableUpgradeable.sol\":1599:1729  function _checkOwner() internal view virtual {... */\n    tag_155:\n        /* \"@openzeppelin/contracts-upgradeable/access/OwnableUpgradeable.sol\":1673:1685  _msgSender() */\n      tag_349\n        /* \"@openzeppelin/contracts-upgradeable/access/OwnableUpgradeable.sol\":1673:1683  _msgSender */\n      tag_350\n        /* \"@openzeppelin/contracts-upgradeable/access/OwnableUpgradeable.sol\":1673:1685  _msgSender() */\n      jump\t// in\n    tag_349:\n        /* \"@openzeppelin/contracts-upgradeable/access/OwnableUpgradeable.sol\":1662:1685  owner() == _msgSender() */\n      0xffffffffffffffffffffffffffffffffffffffff\n      and\n        /* \"@openzeppelin/contracts-upgradeable/access/OwnableUpgradeable.sol\":1662:1669  owner() */\n      tag_351\n        /* \"@openzeppelin/contracts-upgradeable/access/OwnableUpgradeable.sol\":1662:1667  owner */\n      tag_97\n        /* \"@openzeppelin/contracts-upgradeable/access/OwnableUpgradeable.sol\":1662:1669  owner() */\n      jump\t// in\n    tag_351:\n        /* \"@openzeppelin/contracts-upgradeable/access/OwnableUpgradeable.sol\":1662:1685  owner() == _msgSender() */\n      0xffffffffffffffffffffffffffffffffffffffff\n      and\n      eq\n        /* \"@openzeppelin/contracts-upgradeable/access/OwnableUpgradeable.sol\":1654:1722  require(owner() == _msgSender(), \"Ownable: caller is not the owner\") */\n      tag_352\n      jumpi\n      mload(0x40)\n      0x08c379a000000000000000000000000000000000000000000000000000000000\n      dup2\n      mstore\n      0x04\n      add\n      tag_353\n      swap1\n      tag_354\n      jump\t// in\n    tag_353:\n      mload(0x40)\n      dup1\n      swap2\n      sub\n      swap1\n      revert\n    tag_352:\n        /* \"@openzeppelin/contracts-upgradeable/access/OwnableUpgradeable.sol\":1599:1729  function _checkOwner() internal view virtual {... */\n      jump\t// out\n        /* \"@openzeppelin/contracts-upgradeable/token/ERC20/utils/SafeERC20Upgradeable.sol\":818:1034  function safeTransfer(... */\n    tag_167:\n        /* \"@openzeppelin/contracts-upgradeable/token/ERC20/utils/SafeERC20Upgradeable.sol\":941:1027  _callOptionalReturn(token, abi.encodeWithSelector(token.transfer.selector, to, value)) */\n      tag_356\n        /* \"@openzeppelin/contracts-upgradeable/token/ERC20/utils/SafeERC20Upgradeable.sol\":961:966  token */\n      dup4\n        /* \"@openzeppelin/contracts-upgradeable/token/ERC20/utils/SafeERC20Upgradeable.sol\":991:1014  token.transfer.selector */\n      shl(0xe0, 0xa9059cbb)\n        /* \"@openzeppelin/contracts-upgradeable/token/ERC20/utils/SafeERC20Upgradeable.sol\":1016:1018  to */\n      dup5\n        /* \"@openzeppelin/contracts-upgradeable/token/ERC20/utils/SafeERC20Upgradeable.sol\":1020:1025  value */\n      dup5\n        /* \"@openzeppelin/contracts-upgradeable/token/ERC20/utils/SafeERC20Upgradeable.sol\":968:1026  abi.encodeWithSelector(token.transfer.selector, to, value) */\n      add(0x24, mload(0x40))\n      tag_357\n      swap3\n      swap2\n      swap1\n      tag_358\n      jump\t// in\n    tag_357:\n      mload(0x40)\n      0x20\n      dup2\n      dup4\n      sub\n      sub\n      dup2\n      mstore\n      swap1\n      0x40\n      mstore\n      swap1\n      not(0xffffffffffffffffffffffffffffffffffffffffffffffffffffffff)\n      and\n      0x20\n      dup3\n      add\n      dup1\n      mload\n      0xffffffffffffffffffffffffffffffffffffffffffffffffffffffff\n      dup4\n      dup2\n      dup4\n      and\n      or\n      dup4\n      mstore\n      pop\n      pop\n      pop\n      pop\n        /* \"@openzeppelin/contracts-upgradeable/token/ERC20/utils/SafeERC20Upgradeable.sol\":941:960  _callOptionalReturn */\n      tag_359\n        /* \"@openzeppelin/contracts-upgradeable/token/ERC20/utils/SafeERC20Upgradeable.sol\":941:1027  _callOptionalReturn(token, abi.encodeWithSelector(token.transfer.selector, to, value)) */\n      jump\t// in\n    tag_356:\n        /* \"@openzeppelin/contracts-upgradeable/token/ERC20/utils/SafeERC20Upgradeable.sol\":818:1034  function safeTransfer(... */\n      pop\n      pop\n      pop\n      jump\t// out\n        /* \"contracts/ico/PaymeTokenVesting.sol\":15085:16471  function _computeReleasableAmount(VestingSchedule memory vestingSchedule)... */\n    tag_183:\n        /* \"contracts/ico/PaymeTokenVesting.sol\":15193:15200  uint256 */\n      0x00\n        /* \"contracts/ico/PaymeTokenVesting.sol\":15215:15234  uint256 currentTime */\n      dup1\n        /* \"contracts/ico/PaymeTokenVesting.sol\":15237:15253  getCurrentTime() */\n      tag_361\n        /* \"contracts/ico/PaymeTokenVesting.sol\":15237:15251  getCurrentTime */\n      tag_55\n        /* \"contracts/ico/PaymeTokenVesting.sol\":15237:15253  getCurrentTime() */\n      jump\t// in\n    tag_361:\n        /* \"contracts/ico/PaymeTokenVesting.sol\":15215:15253  uint256 currentTime = getCurrentTime() */\n      swap1\n      pop\n        /* \"contracts/ico/PaymeTokenVesting.sol\":15268:15289  uint256 vestingAmount */\n      0x00\n        /* \"contracts/ico/PaymeTokenVesting.sol\":15292:15307  vestingSchedule */\n      dup4\n        /* \"contracts/ico/PaymeTokenVesting.sol\":15292:15319  vestingSchedule.amountTotal */\n      0xe0\n      add\n      mload\n        /* \"contracts/ico/PaymeTokenVesting.sol\":15268:15319  uint256 vestingAmount = vestingSchedule.amountTotal */\n      swap1\n      pop\n        /* \"contracts/ico/PaymeTokenVesting.sol\":15417:15432  vestingSchedule */\n      dup4\n        /* \"contracts/ico/PaymeTokenVesting.sol\":15417:15445  vestingSchedule.releaseAtTGE */\n      0x0140\n      add\n      mload\n        /* \"contracts/ico/PaymeTokenVesting.sol\":15414:15649  if(vestingSchedule.releaseAtTGE){... */\n      iszero\n      tag_362\n      jumpi\n        /* \"contracts/ico/PaymeTokenVesting.sol\":15489:15506  uint256 tgeAmount */\n      0x00\n        /* \"contracts/ico/PaymeTokenVesting.sol\":15509:15561  vestingSchedule.amountTotal.mul(tgePercent).div(100) */\n      tag_363\n        /* \"contracts/ico/PaymeTokenVesting.sol\":15557:15560  100 */\n      0x64\n        /* \"contracts/ico/PaymeTokenVesting.sol\":15509:15552  vestingSchedule.amountTotal.mul(tgePercent) */\n      tag_364\n        /* \"contracts/ico/PaymeTokenVesting.sol\":15541:15551  tgePercent */\n      sload(0x98)\n        /* \"contracts/ico/PaymeTokenVesting.sol\":15509:15524  vestingSchedule */\n      dup9\n        /* \"contracts/ico/PaymeTokenVesting.sol\":15509:15536  vestingSchedule.amountTotal */\n      0xe0\n      add\n      mload\n        /* \"contracts/ico/PaymeTokenVesting.sol\":15509:15540  vestingSchedule.amountTotal.mul */\n      tag_254\n      swap1\n        /* \"contracts/ico/PaymeTokenVesting.sol\":15509:15552  vestingSchedule.amountTotal.mul(tgePercent) */\n      swap2\n      swap1\n      0xffffffff\n      and\n      jump\t// in\n    tag_364:\n        /* \"contracts/ico/PaymeTokenVesting.sol\":15509:15556  vestingSchedule.amountTotal.mul(tgePercent).div */\n      tag_255\n      swap1\n        /* \"contracts/ico/PaymeTokenVesting.sol\":15509:15561  vestingSchedule.amountTotal.mul(tgePercent).div(100) */\n      swap2\n      swap1\n      0xffffffff\n      and\n      jump\t// in\n    tag_363:\n        /* \"contracts/ico/PaymeTokenVesting.sol\":15489:15561  uint256 tgeAmount = vestingSchedule.amountTotal.mul(tgePercent).div(100) */\n      swap1\n      pop\n        /* \"contracts/ico/PaymeTokenVesting.sol\":15592:15634  vestingSchedule.amountTotal.sub(tgeAmount) */\n      tag_365\n        /* \"contracts/ico/PaymeTokenVesting.sol\":15624:15633  tgeAmount */\n      dup2\n        /* \"contracts/ico/PaymeTokenVesting.sol\":15592:15607  vestingSchedule */\n      dup7\n        /* \"contracts/ico/PaymeTokenVesting.sol\":15592:15619  vestingSchedule.amountTotal */\n      0xe0\n      add\n      mload\n        /* \"contracts/ico/PaymeTokenVesting.sol\":15592:15623  vestingSchedule.amountTotal.sub */\n      tag_190\n      swap1\n        /* \"contracts/ico/PaymeTokenVesting.sol\":15592:15634  vestingSchedule.amountTotal.sub(tgeAmount) */\n      swap2\n      swap1\n      0xffffffff\n      and\n      jump\t// in\n    tag_365:\n        /* \"contracts/ico/PaymeTokenVesting.sol\":15578:15634  vestingAmount=vestingSchedule.amountTotal.sub(tgeAmount) */\n      swap2\n      pop\n        /* \"contracts/ico/PaymeTokenVesting.sol\":15446:15649  {... */\n      pop\n        /* \"contracts/ico/PaymeTokenVesting.sol\":15414:15649  if(vestingSchedule.releaseAtTGE){... */\n    tag_362:\n        /* \"contracts/ico/PaymeTokenVesting.sol\":15682:15697  vestingSchedule */\n      dup4\n        /* \"contracts/ico/PaymeTokenVesting.sol\":15682:15703  vestingSchedule.cliff */\n      0x40\n      add\n      mload\n        /* \"contracts/ico/PaymeTokenVesting.sol\":15668:15679  currentTime */\n      dup3\n        /* \"contracts/ico/PaymeTokenVesting.sol\":15668:15703  currentTime < vestingSchedule.cliff */\n      lt\n        /* \"contracts/ico/PaymeTokenVesting.sol\":15667:15739  (currentTime < vestingSchedule.cliff) || vestingSchedule.revoked == true */\n      dup1\n      tag_366\n      jumpi\n      pop\n        /* \"contracts/ico/PaymeTokenVesting.sol\":15735:15739  true */\n      0x01\n        /* \"contracts/ico/PaymeTokenVesting.sol\":15708:15739  vestingSchedule.revoked == true */\n      iszero\n      iszero\n        /* \"contracts/ico/PaymeTokenVesting.sol\":15708:15723  vestingSchedule */\n      dup5\n        /* \"contracts/ico/PaymeTokenVesting.sol\":15708:15731  vestingSchedule.revoked */\n      0x0120\n      add\n      mload\n        /* \"contracts/ico/PaymeTokenVesting.sol\":15708:15739  vestingSchedule.revoked == true */\n      iszero\n      iszero\n      eq\n        /* \"contracts/ico/PaymeTokenVesting.sol\":15667:15739  (currentTime < vestingSchedule.cliff) || vestingSchedule.revoked == true */\n    tag_366:\n        /* \"contracts/ico/PaymeTokenVesting.sol\":15663:16453  if ((currentTime < vestingSchedule.cliff) || vestingSchedule.revoked == true) {... */\n      iszero\n      tag_367\n      jumpi\n        /* \"contracts/ico/PaymeTokenVesting.sol\":15764:15765  0 */\n      0x00\n        /* \"contracts/ico/PaymeTokenVesting.sol\":15757:15765  return 0 */\n      swap3\n      pop\n      pop\n      pop\n      jump(tag_360)\n        /* \"contracts/ico/PaymeTokenVesting.sol\":15663:16453  if ((currentTime < vestingSchedule.cliff) || vestingSchedule.revoked == true) {... */\n    tag_367:\n        /* \"contracts/ico/PaymeTokenVesting.sol\":15804:15855  vestingSchedule.start.add(vestingSchedule.duration) */\n      tag_369\n        /* \"contracts/ico/PaymeTokenVesting.sol\":15830:15845  vestingSchedule */\n      dup5\n        /* \"contracts/ico/PaymeTokenVesting.sol\":15830:15854  vestingSchedule.duration */\n      0x80\n      add\n      mload\n        /* \"contracts/ico/PaymeTokenVesting.sol\":15804:15819  vestingSchedule */\n      dup6\n        /* \"contracts/ico/PaymeTokenVesting.sol\":15804:15825  vestingSchedule.start */\n      0x60\n      add\n      mload\n        /* \"contracts/ico/PaymeTokenVesting.sol\":15804:15829  vestingSchedule.start.add */\n      tag_188\n      swap1\n        /* \"contracts/ico/PaymeTokenVesting.sol\":15804:15855  vestingSchedule.start.add(vestingSchedule.duration) */\n      swap2\n      swap1\n      0xffffffff\n      and\n      jump\t// in\n    tag_369:\n        /* \"contracts/ico/PaymeTokenVesting.sol\":15789:15800  currentTime */\n      dup3\n        /* \"contracts/ico/PaymeTokenVesting.sol\":15789:15855  currentTime >= vestingSchedule.start.add(vestingSchedule.duration) */\n      lt\n        /* \"contracts/ico/PaymeTokenVesting.sol\":15785:16453  if (currentTime >= vestingSchedule.start.add(vestingSchedule.duration)) { ... */\n      tag_370\n      jumpi\n        /* \"contracts/ico/PaymeTokenVesting.sol\":15932:15975  vestingAmount.sub(vestingSchedule.released) */\n      tag_371\n        /* \"contracts/ico/PaymeTokenVesting.sol\":15950:15965  vestingSchedule */\n      dup5\n        /* \"contracts/ico/PaymeTokenVesting.sol\":15950:15974  vestingSchedule.released */\n      0x0100\n      add\n      mload\n        /* \"contracts/ico/PaymeTokenVesting.sol\":15932:15945  vestingAmount */\n      dup3\n        /* \"contracts/ico/PaymeTokenVesting.sol\":15932:15949  vestingAmount.sub */\n      tag_190\n      swap1\n        /* \"contracts/ico/PaymeTokenVesting.sol\":15932:15975  vestingAmount.sub(vestingSchedule.released) */\n      swap2\n      swap1\n      0xffffffff\n      and\n      jump\t// in\n    tag_371:\n        /* \"contracts/ico/PaymeTokenVesting.sol\":15925:15975  return vestingAmount.sub(vestingSchedule.released) */\n      swap3\n      pop\n      pop\n      pop\n      jump(tag_360)\n        /* \"contracts/ico/PaymeTokenVesting.sol\":15785:16453  if (currentTime >= vestingSchedule.start.add(vestingSchedule.duration)) { ... */\n    tag_370:\n        /* \"contracts/ico/PaymeTokenVesting.sol\":16144:16165  uint256 timeFromStart */\n      0x00\n        /* \"contracts/ico/PaymeTokenVesting.sol\":16168:16206  currentTime.sub(vestingSchedule.start) */\n      tag_373\n        /* \"contracts/ico/PaymeTokenVesting.sol\":16184:16199  vestingSchedule */\n      dup6\n        /* \"contracts/ico/PaymeTokenVesting.sol\":16184:16205  vestingSchedule.start */\n      0x60\n      add\n      mload\n        /* \"contracts/ico/PaymeTokenVesting.sol\":16168:16179  currentTime */\n      dup5\n        /* \"contracts/ico/PaymeTokenVesting.sol\":16168:16183  currentTime.sub */\n      tag_190\n      swap1\n        /* \"contracts/ico/PaymeTokenVesting.sol\":16168:16206  currentTime.sub(vestingSchedule.start) */\n      swap2\n      swap1\n      0xffffffff\n      and\n      jump\t// in\n    tag_373:\n        /* \"contracts/ico/PaymeTokenVesting.sol\":16144:16206  uint256 timeFromStart = currentTime.sub(vestingSchedule.start) */\n      swap1\n      pop\n        /* \"contracts/ico/PaymeTokenVesting.sol\":16224:16244  uint256 vestedAmount */\n      0x00\n        /* \"contracts/ico/PaymeTokenVesting.sol\":16247:16309  vestingAmount.mul(timeFromStart).div(vestingSchedule.duration) */\n      tag_374\n        /* \"contracts/ico/PaymeTokenVesting.sol\":16284:16299  vestingSchedule */\n      dup7\n        /* \"contracts/ico/PaymeTokenVesting.sol\":16284:16308  vestingSchedule.duration */\n      0x80\n      add\n      mload\n        /* \"contracts/ico/PaymeTokenVesting.sol\":16247:16279  vestingAmount.mul(timeFromStart) */\n      tag_375\n        /* \"contracts/ico/PaymeTokenVesting.sol\":16265:16278  timeFromStart */\n      dup5\n        /* \"contracts/ico/PaymeTokenVesting.sol\":16247:16260  vestingAmount */\n      dup7\n        /* \"contracts/ico/PaymeTokenVesting.sol\":16247:16264  vestingAmount.mul */\n      tag_254\n      swap1\n        /* \"contracts/ico/PaymeTokenVesting.sol\":16247:16279  vestingAmount.mul(timeFromStart) */\n      swap2\n      swap1\n      0xffffffff\n      and\n      jump\t// in\n    tag_375:\n        /* \"contracts/ico/PaymeTokenVesting.sol\":16247:16283  vestingAmount.mul(timeFromStart).div */\n      tag_255\n      swap1\n        /* \"contracts/ico/PaymeTokenVesting.sol\":16247:16309  vestingAmount.mul(timeFromStart).div(vestingSchedule.duration) */\n      swap2\n      swap1\n      0xffffffff\n      and\n      jump\t// in\n    tag_374:\n        /* \"contracts/ico/PaymeTokenVesting.sol\":16224:16309  uint256 vestedAmount = vestingAmount.mul(timeFromStart).div(vestingSchedule.duration) */\n      swap1\n      pop\n        /* \"contracts/ico/PaymeTokenVesting.sol\":16342:16384  vestedAmount.sub(vestingSchedule.released) */\n      tag_376\n        /* \"contracts/ico/PaymeTokenVesting.sol\":16359:16374  vestingSchedule */\n      dup7\n        /* \"contracts/ico/PaymeTokenVesting.sol\":16359:16383  vestingSchedule.released */\n      0x0100\n      add\n      mload\n        /* \"contracts/ico/PaymeTokenVesting.sol\":16342:16354  vestedAmount */\n      dup3\n        /* \"contracts/ico/PaymeTokenVesting.sol\":16342:16358  vestedAmount.sub */\n      tag_190\n      swap1\n        /* \"contracts/ico/PaymeTokenVesting.sol\":16342:16384  vestedAmount.sub(vestingSchedule.released) */\n      swap2\n      swap1\n      0xffffffff\n      and\n      jump\t// in\n    tag_376:\n        /* \"contracts/ico/PaymeTokenVesting.sol\":16327:16384  vestedAmount = vestedAmount.sub(vestingSchedule.released) */\n      swap1\n      pop\n        /* \"contracts/ico/PaymeTokenVesting.sol\":16426:16438  vestedAmount */\n      dup1\n        /* \"contracts/ico/PaymeTokenVesting.sol\":16419:16438  return vestedAmount */\n      swap5\n      pop\n      pop\n      pop\n      pop\n      pop\n        /* \"contracts/ico/PaymeTokenVesting.sol\":15085:16471  function _computeReleasableAmount(VestingSchedule memory vestingSchedule)... */\n    tag_360:\n      swap2\n      swap1\n      pop\n      jump\t// out\n        /* \"@openzeppelin/contracts-upgradeable/utils/math/SafeMathUpgradeable.sol\":2766:2862  function add(uint256 a, uint256 b) internal pure returns (uint256) {... */\n    tag_188:\n        /* \"@openzeppelin/contracts-upgradeable/utils/math/SafeMathUpgradeable.sol\":2824:2831  uint256 */\n      0x00\n        /* \"@openzeppelin/contracts-upgradeable/utils/math/SafeMathUpgradeable.sol\":2854:2855  b */\n      dup2\n        /* \"@openzeppelin/contracts-upgradeable/utils/math/SafeMathUpgradeable.sol\":2850:2851  a */\n      dup4\n        /* \"@openzeppelin/contracts-upgradeable/utils/math/SafeMathUpgradeable.sol\":2850:2855  a + b */\n      tag_378\n      swap2\n      swap1\n      tag_295\n      jump\t// in\n    tag_378:\n        /* \"@openzeppelin/contracts-upgradeable/utils/math/SafeMathUpgradeable.sol\":2843:2855  return a + b */\n      swap1\n      pop\n        /* \"@openzeppelin/contracts-upgradeable/utils/math/SafeMathUpgradeable.sol\":2766:2862  function add(uint256 a, uint256 b) internal pure returns (uint256) {... */\n      swap3\n      swap2\n      pop\n      pop\n      jump\t// out\n        /* \"@openzeppelin/contracts-upgradeable/utils/math/SafeMathUpgradeable.sol\":3133:3229  function sub(uint256 a, uint256 b) internal pure returns (uint256) {... */\n    tag_190:\n        /* \"@openzeppelin/contracts-upgradeable/utils/math/SafeMathUpgradeable.sol\":3191:3198  uint256 */\n      0x00\n        /* \"@openzeppelin/contracts-upgradeable/utils/math/SafeMathUpgradeable.sol\":3221:3222  b */\n      dup2\n        /* \"@openzeppelin/contracts-upgradeable/utils/math/SafeMathUpgradeable.sol\":3217:3218  a */\n      dup4\n        /* \"@openzeppelin/contracts-upgradeable/utils/math/SafeMathUpgradeable.sol\":3217:3222  a - b */\n      tag_380\n      swap2\n      swap1\n      tag_265\n      jump\t// in\n    tag_380:\n        /* \"@openzeppelin/contracts-upgradeable/utils/math/SafeMathUpgradeable.sol\":3210:3222  return a - b */\n      swap1\n      pop\n        /* \"@openzeppelin/contracts-upgradeable/utils/math/SafeMathUpgradeable.sol\":3133:3229  function sub(uint256 a, uint256 b) internal pure returns (uint256) {... */\n      swap3\n      swap2\n      pop\n      pop\n      jump\t// out\n        /* \"@openzeppelin/contracts-upgradeable/access/OwnableUpgradeable.sol\":2673:2860  function _transferOwnership(address newOwner) internal virtual {... */\n    tag_196:\n        /* \"@openzeppelin/contracts-upgradeable/access/OwnableUpgradeable.sol\":2746:2762  address oldOwner */\n      0x00\n        /* \"@openzeppelin/contracts-upgradeable/access/OwnableUpgradeable.sol\":2765:2771  _owner */\n      0x33\n      0x00\n      swap1\n      sload\n      swap1\n      0x0100\n      exp\n      swap1\n      div\n      0xffffffffffffffffffffffffffffffffffffffff\n      and\n        /* \"@openzeppelin/contracts-upgradeable/access/OwnableUpgradeable.sol\":2746:2771  address oldOwner = _owner */\n      swap1\n      pop\n        /* \"@openzeppelin/contracts-upgradeable/access/OwnableUpgradeable.sol\":2790:2798  newOwner */\n      dup2\n        /* \"@openzeppelin/contracts-upgradeable/access/OwnableUpgradeable.sol\":2781:2787  _owner */\n      0x33\n      0x00\n        /* \"@openzeppelin/contracts-upgradeable/access/OwnableUpgradeable.sol\":2781:2798  _owner = newOwner */\n      0x0100\n      exp\n      dup2\n      sload\n      dup2\n      0xffffffffffffffffffffffffffffffffffffffff\n      mul\n      not\n      and\n      swap1\n      dup4\n      0xffffffffffffffffffffffffffffffffffffffff\n      and\n      mul\n      or\n      swap1\n      sstore\n      pop\n        /* \"@openzeppelin/contracts-upgradeable/access/OwnableUpgradeable.sol\":2844:2852  newOwner */\n      dup2\n        /* \"@openzeppelin/contracts-upgradeable/access/OwnableUpgradeable.sol\":2813:2853  OwnershipTransferred(oldOwner, newOwner) */\n      0xffffffffffffffffffffffffffffffffffffffff\n      and\n        /* \"@openzeppelin/contracts-upgradeable/access/OwnableUpgradeable.sol\":2834:2842  oldOwner */\n      dup2\n        /* \"@openzeppelin/contracts-upgradeable/access/OwnableUpgradeable.sol\":2813:2853  OwnershipTransferred(oldOwner, newOwner) */\n      0xffffffffffffffffffffffffffffffffffffffff\n      and\n      0x8be0079c531659141344cd1fd0a4f28419497f9722a3daafe3b4186f6b6457e0\n      mload(0x40)\n      mload(0x40)\n      dup1\n      swap2\n      sub\n      swap1\n      log3\n        /* \"@openzeppelin/contracts-upgradeable/access/OwnableUpgradeable.sol\":2736:2860  {... */\n      pop\n        /* \"@openzeppelin/contracts-upgradeable/access/OwnableUpgradeable.sol\":2673:2860  function _transferOwnership(address newOwner) internal virtual {... */\n      pop\n      jump\t// out\n        /* \"@openzeppelin/contracts-upgradeable/utils/AddressUpgradeable.sol\":1186:1506  function isContract(address account) internal view returns (bool) {... */\n    tag_201:\n        /* \"@openzeppelin/contracts-upgradeable/utils/AddressUpgradeable.sol\":1246:1250  bool */\n      0x00\n        /* \"@openzeppelin/contracts-upgradeable/utils/AddressUpgradeable.sol\":1498:1499  0 */\n      dup1\n        /* \"@openzeppelin/contracts-upgradeable/utils/AddressUpgradeable.sol\":1476:1483  account */\n      dup3\n        /* \"@openzeppelin/contracts-upgradeable/utils/AddressUpgradeable.sol\":1476:1495  account.code.length */\n      0xffffffffffffffffffffffffffffffffffffffff\n      and\n      extcodesize\n        /* \"@openzeppelin/contracts-upgradeable/utils/AddressUpgradeable.sol\":1476:1499  account.code.length > 0 */\n      gt\n        /* \"@openzeppelin/contracts-upgradeable/utils/AddressUpgradeable.sol\":1469:1499  return account.code.length > 0 */\n      swap1\n      pop\n        /* \"@openzeppelin/contracts-upgradeable/utils/AddressUpgradeable.sol\":1186:1506  function isContract(address account) internal view returns (bool) {... */\n      swap2\n      swap1\n      pop\n      jump\t// out\n        /* \"@openzeppelin/contracts-upgradeable/access/OwnableUpgradeable.sol\":1104:1215  function __Ownable_init_unchained() internal onlyInitializing {... */\n    tag_214:\n        /* \"@openzeppelin/contracts-upgradeable/proxy/utils/Initializable.sol\":4910:4923  _initializing */\n      0x00\n      0x01\n      swap1\n      sload\n      swap1\n      0x0100\n      exp\n      swap1\n      div\n      0xff\n      and\n        /* \"@openzeppelin/contracts-upgradeable/proxy/utils/Initializable.sol\":4902:4971  require(_initializing, \"Initializable: contract is not initializing\") */\n      tag_384\n      jumpi\n      mload(0x40)\n      0x08c379a000000000000000000000000000000000000000000000000000000000\n      dup2\n      mstore\n      0x04\n      add\n      tag_385\n      swap1\n      tag_386\n      jump\t// in\n    tag_385:\n      mload(0x40)\n      dup1\n      swap2\n      sub\n      swap1\n      revert\n    tag_384:\n        /* \"@openzeppelin/contracts-upgradeable/access/OwnableUpgradeable.sol\":1176:1208  _transferOwnership(_msgSender()) */\n      tag_388\n        /* \"@openzeppelin/contracts-upgradeable/access/OwnableUpgradeable.sol\":1195:1207  _msgSender() */\n      tag_389\n        /* \"@openzeppelin/contracts-upgradeable/access/OwnableUpgradeable.sol\":1195:1205  _msgSender */\n      tag_350\n        /* \"@openzeppelin/contracts-upgradeable/access/OwnableUpgradeable.sol\":1195:1207  _msgSender() */\n      jump\t// in\n    tag_389:\n        /* \"@openzeppelin/contracts-upgradeable/access/OwnableUpgradeable.sol\":1176:1194  _transferOwnership */\n      tag_196\n        /* \"@openzeppelin/contracts-upgradeable/access/OwnableUpgradeable.sol\":1176:1208  _transferOwnership(_msgSender()) */\n      jump\t// in\n    tag_388:\n        /* \"@openzeppelin/contracts-upgradeable/access/OwnableUpgradeable.sol\":1104:1215  function __Ownable_init_unchained() internal onlyInitializing {... */\n      jump\t// out\n        /* \"@openzeppelin/contracts-upgradeable/security/ReentrancyGuardUpgradeable.sol\":1970:2079  function __ReentrancyGuard_init_unchained() internal onlyInitializing {... */\n    tag_216:\n        /* \"@openzeppelin/contracts-upgradeable/proxy/utils/Initializable.sol\":4910:4923  _initializing */\n      0x00\n      0x01\n      swap1\n      sload\n      swap1\n      0x0100\n      exp\n      swap1\n      div\n      0xff\n      and\n        /* \"@openzeppelin/contracts-upgradeable/proxy/utils/Initializable.sol\":4902:4971  require(_initializing, \"Initializable: contract is not initializing\") */\n      tag_391\n      jumpi\n      mload(0x40)\n      0x08c379a000000000000000000000000000000000000000000000000000000000\n      dup2\n      mstore\n      0x04\n      add\n      tag_392\n      swap1\n      tag_386\n      jump\t// in\n    tag_392:\n      mload(0x40)\n      dup1\n      swap2\n      sub\n      swap1\n      revert\n    tag_391:\n        /* \"@openzeppelin/contracts-upgradeable/security/ReentrancyGuardUpgradeable.sol\":1772:1773  1 */\n      0x01\n        /* \"@openzeppelin/contracts-upgradeable/security/ReentrancyGuardUpgradeable.sol\":2050:2057  _status */\n      0x65\n        /* \"@openzeppelin/contracts-upgradeable/security/ReentrancyGuardUpgradeable.sol\":2050:2072  _status = _NOT_ENTERED */\n      dup2\n      swap1\n      sstore\n      pop\n        /* \"@openzeppelin/contracts-upgradeable/security/ReentrancyGuardUpgradeable.sol\":1970:2079  function __ReentrancyGuard_init_unchained() internal onlyInitializing {... */\n      jump\t// out\n        /* \"@openzeppelin/contracts-upgradeable/utils/math/SafeMathUpgradeable.sol\":3476:3572  function mul(uint256 a, uint256 b) internal pure returns (uint256) {... */\n    tag_254:\n        /* \"@openzeppelin/contracts-upgradeable/utils/math/SafeMathUpgradeable.sol\":3534:3541  uint256 */\n      0x00\n        /* \"@openzeppelin/contracts-upgradeable/utils/math/SafeMathUpgradeable.sol\":3564:3565  b */\n      dup2\n        /* \"@openzeppelin/contracts-upgradeable/utils/math/SafeMathUpgradeable.sol\":3560:3561  a */\n      dup4\n        /* \"@openzeppelin/contracts-upgradeable/utils/math/SafeMathUpgradeable.sol\":3560:3565  a * b */\n      tag_395\n      swap2\n      swap1\n      tag_396\n      jump\t// in\n    tag_395:\n        /* \"@openzeppelin/contracts-upgradeable/utils/math/SafeMathUpgradeable.sol\":3553:3565  return a * b */\n      swap1\n      pop\n        /* \"@openzeppelin/contracts-upgradeable/utils/math/SafeMathUpgradeable.sol\":3476:3572  function mul(uint256 a, uint256 b) internal pure returns (uint256) {... */\n      swap3\n      swap2\n      pop\n      pop\n      jump\t// out\n        /* \"@openzeppelin/contracts-upgradeable/utils/math/SafeMathUpgradeable.sol\":3861:3957  function div(uint256 a, uint256 b) internal pure returns (uint256) {... */\n    tag_255:\n        /* \"@openzeppelin/contracts-upgradeable/utils/math/SafeMathUpgradeable.sol\":3919:3926  uint256 */\n      0x00\n        /* \"@openzeppelin/contracts-upgradeable/utils/math/SafeMathUpgradeable.sol\":3949:3950  b */\n      dup2\n        /* \"@openzeppelin/contracts-upgradeable/utils/math/SafeMathUpgradeable.sol\":3945:3946  a */\n      dup4\n        /* \"@openzeppelin/contracts-upgradeable/utils/math/SafeMathUpgradeable.sol\":3945:3950  a / b */\n      tag_398\n      swap2\n      swap1\n      tag_399\n      jump\t// in\n    tag_398:\n        /* \"@openzeppelin/contracts-upgradeable/utils/math/SafeMathUpgradeable.sol\":3938:3950  return a / b */\n      swap1\n      pop\n        /* \"@openzeppelin/contracts-upgradeable/utils/math/SafeMathUpgradeable.sol\":3861:3957  function div(uint256 a, uint256 b) internal pure returns (uint256) {... */\n      swap3\n      swap2\n      pop\n      pop\n      jump\t// out\n        /* \"@openzeppelin/contracts-upgradeable/utils/ContextUpgradeable.sol\":850:946  function _msgSender() internal view virtual returns (address) {... */\n    tag_350:\n        /* \"@openzeppelin/contracts-upgradeable/utils/ContextUpgradeable.sol\":903:910  address */\n      0x00\n        /* \"@openzeppelin/contracts-upgradeable/utils/ContextUpgradeable.sol\":929:939  msg.sender */\n      caller\n        /* \"@openzeppelin/contracts-upgradeable/utils/ContextUpgradeable.sol\":922:939  return msg.sender */\n      swap1\n      pop\n        /* \"@openzeppelin/contracts-upgradeable/utils/ContextUpgradeable.sol\":850:946  function _msgSender() internal view virtual returns (address) {... */\n      swap1\n      jump\t// out\n        /* \"@openzeppelin/contracts-upgradeable/token/ERC20/utils/SafeERC20Upgradeable.sol\":3868:4585  function _callOptionalReturn(IERC20Upgradeable token, bytes memory data) private {... */\n    tag_359:\n        /* \"@openzeppelin/contracts-upgradeable/token/ERC20/utils/SafeERC20Upgradeable.sol\":4298:4321  bytes memory returndata */\n      0x00\n        /* \"@openzeppelin/contracts-upgradeable/token/ERC20/utils/SafeERC20Upgradeable.sol\":4324:4393  address(token).functionCall(data, \"SafeERC20: low-level call failed\") */\n      tag_402\n        /* \"@openzeppelin/contracts-upgradeable/token/ERC20/utils/SafeERC20Upgradeable.sol\":4352:4356  data */\n      dup3\n        /* \"@openzeppelin/contracts-upgradeable/token/ERC20/utils/SafeERC20Upgradeable.sol\":4324:4393  address(token).functionCall(data, \"SafeERC20: low-level call failed\") */\n      mload(0x40)\n      dup1\n      0x40\n      add\n      0x40\n      mstore\n      dup1\n      0x20\n      dup2\n      mstore\n      0x20\n      add\n      0x5361666545524332303a206c6f772d6c6576656c2063616c6c206661696c6564\n      dup2\n      mstore\n      pop\n        /* \"@openzeppelin/contracts-upgradeable/token/ERC20/utils/SafeERC20Upgradeable.sol\":4332:4337  token */\n      dup6\n        /* \"@openzeppelin/contracts-upgradeable/token/ERC20/utils/SafeERC20Upgradeable.sol\":4324:4351  address(token).functionCall */\n      0xffffffffffffffffffffffffffffffffffffffff\n      and\n      tag_403\n      swap1\n        /* \"@openzeppelin/contracts-upgradeable/token/ERC20/utils/SafeERC20Upgradeable.sol\":4324:4393  address(token).functionCall(data, \"SafeERC20: low-level call failed\") */\n      swap3\n      swap2\n      swap1\n      0xffffffff\n      and\n      jump\t// in\n    tag_402:\n        /* \"@openzeppelin/contracts-upgradeable/token/ERC20/utils/SafeERC20Upgradeable.sol\":4298:4393  bytes memory returndata = address(token).functionCall(data, \"SafeERC20: low-level call failed\") */\n      swap1\n      pop\n        /* \"@openzeppelin/contracts-upgradeable/token/ERC20/utils/SafeERC20Upgradeable.sol\":4427:4428  0 */\n      0x00\n        /* \"@openzeppelin/contracts-upgradeable/token/ERC20/utils/SafeERC20Upgradeable.sol\":4407:4417  returndata */\n      dup2\n        /* \"@openzeppelin/contracts-upgradeable/token/ERC20/utils/SafeERC20Upgradeable.sol\":4407:4424  returndata.length */\n      mload\n        /* \"@openzeppelin/contracts-upgradeable/token/ERC20/utils/SafeERC20Upgradeable.sol\":4407:4428  returndata.length > 0 */\n      gt\n        /* \"@openzeppelin/contracts-upgradeable/token/ERC20/utils/SafeERC20Upgradeable.sol\":4403:4579  if (returndata.length > 0) {... */\n      iszero\n      tag_404\n      jumpi\n        /* \"@openzeppelin/contracts-upgradeable/token/ERC20/utils/SafeERC20Upgradeable.sol\":4502:4512  returndata */\n      dup1\n        /* \"@openzeppelin/contracts-upgradeable/token/ERC20/utils/SafeERC20Upgradeable.sol\":4491:4521  abi.decode(returndata, (bool)) */\n      dup1\n      0x20\n      add\n      swap1\n      mload\n      dup2\n      add\n      swap1\n      tag_405\n      swap2\n      swap1\n      tag_406\n      jump\t// in\n    tag_405:\n        /* \"@openzeppelin/contracts-upgradeable/token/ERC20/utils/SafeERC20Upgradeable.sol\":4483:4568  require(abi.decode(returndata, (bool)), \"SafeERC20: ERC20 operation did not succeed\") */\n      tag_407\n      jumpi\n      mload(0x40)\n      0x08c379a000000000000000000000000000000000000000000000000000000000\n      dup2\n      mstore\n      0x04\n      add\n      tag_408\n      swap1\n      tag_409\n      jump\t// in\n    tag_408:\n      mload(0x40)\n      dup1\n      swap2\n      sub\n      swap1\n      revert\n    tag_407:\n        /* \"@openzeppelin/contracts-upgradeable/token/ERC20/utils/SafeERC20Upgradeable.sol\":4403:4579  if (returndata.length > 0) {... */\n    tag_404:\n        /* \"@openzeppelin/contracts-upgradeable/token/ERC20/utils/SafeERC20Upgradeable.sol\":3949:4585  {... */\n      pop\n        /* \"@openzeppelin/contracts-upgradeable/token/ERC20/utils/SafeERC20Upgradeable.sol\":3868:4585  function _callOptionalReturn(IERC20Upgradeable token, bytes memory data) private {... */\n      pop\n      pop\n      jump\t// out\n        /* \"@openzeppelin/contracts-upgradeable/utils/AddressUpgradeable.sol\":3872:4095  function functionCall(... */\n    tag_403:\n        /* \"@openzeppelin/contracts-upgradeable/utils/AddressUpgradeable.sol\":4005:4017  bytes memory */\n      0x60\n        /* \"@openzeppelin/contracts-upgradeable/utils/AddressUpgradeable.sol\":4036:4088  functionCallWithValue(target, data, 0, errorMessage) */\n      tag_411\n        /* \"@openzeppelin/contracts-upgradeable/utils/AddressUpgradeable.sol\":4058:4064  target */\n      dup5\n        /* \"@openzeppelin/contracts-upgradeable/utils/AddressUpgradeable.sol\":4066:4070  data */\n      dup5\n        /* \"@openzeppelin/contracts-upgradeable/utils/AddressUpgradeable.sol\":4072:4073  0 */\n      0x00\n        /* \"@openzeppelin/contracts-upgradeable/utils/AddressUpgradeable.sol\":4075:4087  errorMessage */\n      dup6\n        /* \"@openzeppelin/contracts-upgradeable/utils/AddressUpgradeable.sol\":4036:4057  functionCallWithValue */\n      tag_412\n        /* \"@openzeppelin/contracts-upgradeable/utils/AddressUpgradeable.sol\":4036:4088  functionCallWithValue(target, data, 0, errorMessage) */\n      jump\t// in\n    tag_411:\n        /* \"@openzeppelin/contracts-upgradeable/utils/AddressUpgradeable.sol\":4029:4088  return functionCallWithValue(target, data, 0, errorMessage) */\n      swap1\n      pop\n        /* \"@openzeppelin/contracts-upgradeable/utils/AddressUpgradeable.sol\":3872:4095  function functionCall(... */\n      swap4\n      swap3\n      pop\n      pop\n      pop\n      jump\t// out\n        /* \"@openzeppelin/contracts-upgradeable/utils/AddressUpgradeable.sol\":4959:5458  function functionCallWithValue(... */\n    tag_412:\n        /* \"@openzeppelin/contracts-upgradeable/utils/AddressUpgradeable.sol\":5124:5136  bytes memory */\n      0x60\n        /* \"@openzeppelin/contracts-upgradeable/utils/AddressUpgradeable.sol\":5181:5186  value */\n      dup3\n        /* \"@openzeppelin/contracts-upgradeable/utils/AddressUpgradeable.sol\":5156:5177  address(this).balance */\n      selfbalance\n        /* \"@openzeppelin/contracts-upgradeable/utils/AddressUpgradeable.sol\":5156:5186  address(this).balance >= value */\n      lt\n      iszero\n        /* \"@openzeppelin/contracts-upgradeable/utils/AddressUpgradeable.sol\":5148:5229  require(address(this).balance >= value, \"Address: insufficient balance for call\") */\n      tag_414\n      jumpi\n      mload(0x40)\n      0x08c379a000000000000000000000000000000000000000000000000000000000\n      dup2\n      mstore\n      0x04\n      add\n      tag_415\n      swap1\n      tag_416\n      jump\t// in\n    tag_415:\n      mload(0x40)\n      dup1\n      swap2\n      sub\n      swap1\n      revert\n    tag_414:\n        /* \"@openzeppelin/contracts-upgradeable/utils/AddressUpgradeable.sol\":5247:5265  isContract(target) */\n      tag_417\n        /* \"@openzeppelin/contracts-upgradeable/utils/AddressUpgradeable.sol\":5258:5264  target */\n      dup6\n        /* \"@openzeppelin/contracts-upgradeable/utils/AddressUpgradeable.sol\":5247:5257  isContract */\n      tag_201\n        /* \"@openzeppelin/contracts-upgradeable/utils/AddressUpgradeable.sol\":5247:5265  isContract(target) */\n      jump\t// in\n    tag_417:\n        /* \"@openzeppelin/contracts-upgradeable/utils/AddressUpgradeable.sol\":5239:5299  require(isContract(target), \"Address: call to non-contract\") */\n      tag_418\n      jumpi\n      mload(0x40)\n      0x08c379a000000000000000000000000000000000000000000000000000000000\n      dup2\n      mstore\n      0x04\n      add\n      tag_419\n      swap1\n      tag_420\n      jump\t// in\n    tag_419:\n      mload(0x40)\n      dup1\n      swap2\n      sub\n      swap1\n      revert\n    tag_418:\n        /* \"@openzeppelin/contracts-upgradeable/utils/AddressUpgradeable.sol\":5311:5323  bool success */\n      0x00\n        /* \"@openzeppelin/contracts-upgradeable/utils/AddressUpgradeable.sol\":5325:5348  bytes memory returndata */\n      dup1\n        /* \"@openzeppelin/contracts-upgradeable/utils/AddressUpgradeable.sol\":5352:5358  target */\n      dup7\n        /* \"@openzeppelin/contracts-upgradeable/utils/AddressUpgradeable.sol\":5352:5363  target.call */\n      0xffffffffffffffffffffffffffffffffffffffff\n      and\n        /* \"@openzeppelin/contracts-upgradeable/utils/AddressUpgradeable.sol\":5371:5376  value */\n      dup6\n        /* \"@openzeppelin/contracts-upgradeable/utils/AddressUpgradeable.sol\":5378:5382  data */\n      dup8\n        /* \"@openzeppelin/contracts-upgradeable/utils/AddressUpgradeable.sol\":5352:5383  target.call{value: value}(data) */\n      mload(0x40)\n      tag_421\n      swap2\n      swap1\n      tag_422\n      jump\t// in\n    tag_421:\n      0x00\n      mload(0x40)\n      dup1\n      dup4\n      sub\n      dup2\n      dup6\n      dup8\n      gas\n      call\n      swap3\n      pop\n      pop\n      pop\n      returndatasize\n      dup1\n      0x00\n      dup2\n      eq\n      tag_425\n      jumpi\n      mload(0x40)\n      swap2\n      pop\n      and(add(returndatasize, 0x3f), not(0x1f))\n      dup3\n      add\n      0x40\n      mstore\n      returndatasize\n      dup3\n      mstore\n      returndatasize\n      0x00\n      0x20\n      dup5\n      add\n      returndatacopy\n      jump(tag_424)\n    tag_425:\n      0x60\n      swap2\n      pop\n    tag_424:\n      pop\n        /* \"@openzeppelin/contracts-upgradeable/utils/AddressUpgradeable.sol\":5310:5383  (bool success, bytes memory returndata) = target.call{value: value}(data) */\n      swap2\n      pop\n      swap2\n      pop\n        /* \"@openzeppelin/contracts-upgradeable/utils/AddressUpgradeable.sol\":5400:5451  verifyCallResult(success, returndata, errorMessage) */\n      tag_426\n        /* \"@openzeppelin/contracts-upgradeable/utils/AddressUpgradeable.sol\":5417:5424  success */\n      dup3\n        /* \"@openzeppelin/contracts-upgradeable/utils/AddressUpgradeable.sol\":5426:5436  returndata */\n      dup3\n        /* \"@openzeppelin/contracts-upgradeable/utils/AddressUpgradeable.sol\":5438:5450  errorMessage */\n      dup7\n        /* \"@openzeppelin/contracts-upgradeable/utils/AddressUpgradeable.sol\":5400:5416  verifyCallResult */\n      tag_427\n        /* \"@openzeppelin/contracts-upgradeable/utils/AddressUpgradeable.sol\":5400:5451  verifyCallResult(success, returndata, errorMessage) */\n      jump\t// in\n    tag_426:\n        /* \"@openzeppelin/contracts-upgradeable/utils/AddressUpgradeable.sol\":5393:5451  return verifyCallResult(success, returndata, errorMessage) */\n      swap3\n      pop\n      pop\n      pop\n        /* \"@openzeppelin/contracts-upgradeable/utils/AddressUpgradeable.sol\":4959:5458  function functionCallWithValue(... */\n      swap5\n      swap4\n      pop\n      pop\n      pop\n      pop\n      jump\t// out\n        /* \"@openzeppelin/contracts-upgradeable/utils/AddressUpgradeable.sol\":6622:7364  function verifyCallResult(... */\n    tag_427:\n        /* \"@openzeppelin/contracts-upgradeable/utils/AddressUpgradeable.sol\":6768:6780  bytes memory */\n      0x60\n        /* \"@openzeppelin/contracts-upgradeable/utils/AddressUpgradeable.sol\":6796:6803  success */\n      dup4\n        /* \"@openzeppelin/contracts-upgradeable/utils/AddressUpgradeable.sol\":6792:7358  if (success) {... */\n      iszero\n      tag_429\n      jumpi\n        /* \"@openzeppelin/contracts-upgradeable/utils/AddressUpgradeable.sol\":6826:6836  returndata */\n      dup3\n        /* \"@openzeppelin/contracts-upgradeable/utils/AddressUpgradeable.sol\":6819:6836  return returndata */\n      swap1\n      pop\n      jump(tag_428)\n        /* \"@openzeppelin/contracts-upgradeable/utils/AddressUpgradeable.sol\":6792:7358  if (success) {... */\n    tag_429:\n        /* \"@openzeppelin/contracts-upgradeable/utils/AddressUpgradeable.sol\":6957:6958  0 */\n      0x00\n        /* \"@openzeppelin/contracts-upgradeable/utils/AddressUpgradeable.sol\":6937:6947  returndata */\n      dup4\n        /* \"@openzeppelin/contracts-upgradeable/utils/AddressUpgradeable.sol\":6937:6954  returndata.length */\n      mload\n        /* \"@openzeppelin/contracts-upgradeable/utils/AddressUpgradeable.sol\":6937:6958  returndata.length > 0 */\n      gt\n        /* \"@openzeppelin/contracts-upgradeable/utils/AddressUpgradeable.sol\":6933:7348  if (returndata.length > 0) {... */\n      iszero\n      tag_431\n      jumpi\n        /* \"@openzeppelin/contracts-upgradeable/utils/AddressUpgradeable.sol\":7181:7191  returndata */\n      dup3\n        /* \"@openzeppelin/contracts-upgradeable/utils/AddressUpgradeable.sol\":7175:7192  mload(returndata) */\n      mload\n        /* \"@openzeppelin/contracts-upgradeable/utils/AddressUpgradeable.sol\":7241:7256  returndata_size */\n      dup1\n        /* \"@openzeppelin/contracts-upgradeable/utils/AddressUpgradeable.sol\":7228:7238  returndata */\n      dup5\n        /* \"@openzeppelin/contracts-upgradeable/utils/AddressUpgradeable.sol\":7224:7226  32 */\n      0x20\n        /* \"@openzeppelin/contracts-upgradeable/utils/AddressUpgradeable.sol\":7220:7239  add(32, returndata) */\n      add\n        /* \"@openzeppelin/contracts-upgradeable/utils/AddressUpgradeable.sol\":7213:7257  revert(add(32, returndata), returndata_size) */\n      revert\n        /* \"@openzeppelin/contracts-upgradeable/utils/AddressUpgradeable.sol\":6933:7348  if (returndata.length > 0) {... */\n    tag_431:\n        /* \"@openzeppelin/contracts-upgradeable/utils/AddressUpgradeable.sol\":7320:7332  errorMessage */\n      dup2\n        /* \"@openzeppelin/contracts-upgradeable/utils/AddressUpgradeable.sol\":7313:7333  revert(errorMessage) */\n      mload(0x40)\n      0x08c379a000000000000000000000000000000000000000000000000000000000\n      dup2\n      mstore\n      0x04\n      add\n      tag_433\n      swap2\n      swap1\n      tag_434\n      jump\t// in\n    tag_433:\n      mload(0x40)\n      dup1\n      swap2\n      sub\n      swap1\n      revert\n        /* \"@openzeppelin/contracts-upgradeable/utils/AddressUpgradeable.sol\":6622:7364  function verifyCallResult(... */\n    tag_428:\n      swap4\n      swap3\n      pop\n      pop\n      pop\n      jump\t// out\n    tag_261:\n      mload(0x40)\n      dup1\n      0x0160\n      add\n      0x40\n      mstore\n      dup1\n      iszero(iszero(0x00))\n      dup2\n      mstore\n      0x20\n      add\n      and(0xffffffffffffffffffffffffffffffffffffffff, 0x00)\n      dup2\n      mstore\n      0x20\n      add\n      0x00\n      dup2\n      mstore\n      0x20\n      add\n      0x00\n      dup2\n      mstore\n      0x20\n      add\n      0x00\n      dup2\n      mstore\n      0x20\n      add\n      0x00\n      dup2\n      mstore\n      0x20\n      add\n      iszero(iszero(0x00))\n      dup2\n      mstore\n      0x20\n      add\n      0x00\n      dup2\n      mstore\n      0x20\n      add\n      0x00\n      dup2\n      mstore\n      0x20\n      add\n      iszero(iszero(0x00))\n      dup2\n      mstore\n      0x20\n      add\n      iszero(iszero(0x00))\n      dup2\n      mstore\n      pop\n      swap1\n      jump\t// out\n        /* \"#utility.yul\":7:84   */\n    tag_435:\n        /* \"#utility.yul\":44:51   */\n      0x00\n        /* \"#utility.yul\":73:78   */\n      dup2\n        /* \"#utility.yul\":62:78   */\n      swap1\n      pop\n        /* \"#utility.yul\":7:84   */\n      swap2\n      swap1\n      pop\n      jump\t// out\n        /* \"#utility.yul\":90:208   */\n    tag_436:\n        /* \"#utility.yul\":177:201   */\n      tag_536\n        /* \"#utility.yul\":195:200   */\n      dup2\n        /* \"#utility.yul\":177:201   */\n      tag_435\n      jump\t// in\n    tag_536:\n        /* \"#utility.yul\":172:175   */\n      dup3\n        /* \"#utility.yul\":165:202   */\n      mstore\n        /* \"#utility.yul\":90:208   */\n      pop\n      pop\n      jump\t// out\n        /* \"#utility.yul\":214:436   */\n    tag_42:\n        /* \"#utility.yul\":307:311   */\n      0x00\n        /* \"#utility.yul\":345:347   */\n      0x20\n        /* \"#utility.yul\":334:343   */\n      dup3\n        /* \"#utility.yul\":330:348   */\n      add\n        /* \"#utility.yul\":322:348   */\n      swap1\n      pop\n        /* \"#utility.yul\":358:429   */\n      tag_538\n        /* \"#utility.yul\":426:427   */\n      0x00\n        /* \"#utility.yul\":415:424   */\n      dup4\n        /* \"#utility.yul\":411:428   */\n      add\n        /* \"#utility.yul\":402:408   */\n      dup5\n        /* \"#utility.yul\":358:429   */\n      tag_436\n      jump\t// in\n    tag_538:\n        /* \"#utility.yul\":214:436   */\n      swap3\n      swap2\n      pop\n      pop\n      jump\t// out\n        /* \"#utility.yul\":523:640   */\n    tag_438:\n        /* \"#utility.yul\":632:633   */\n      0x00\n        /* \"#utility.yul\":629:630   */\n      dup1\n        /* \"#utility.yul\":622:634   */\n      revert\n        /* \"#utility.yul\":769:895   */\n    tag_440:\n        /* \"#utility.yul\":806:813   */\n      0x00\n        /* \"#utility.yul\":846:888   */\n      0xffffffffffffffffffffffffffffffffffffffff\n        /* \"#utility.yul\":839:844   */\n      dup3\n        /* \"#utility.yul\":835:889   */\n      and\n        /* \"#utility.yul\":824:889   */\n      swap1\n      pop\n        /* \"#utility.yul\":769:895   */\n      swap2\n      swap1\n      pop\n      jump\t// out\n        /* \"#utility.yul\":901:997   */\n    tag_441:\n        /* \"#utility.yul\":938:945   */\n      0x00\n        /* \"#utility.yul\":967:991   */\n      tag_544\n        /* \"#utility.yul\":985:990   */\n      dup3\n        /* \"#utility.yul\":967:991   */\n      tag_440\n      jump\t// in\n    tag_544:\n        /* \"#utility.yul\":956:991   */\n      swap1\n      pop\n        /* \"#utility.yul\":901:997   */\n      swap2\n      swap1\n      pop\n      jump\t// out\n        /* \"#utility.yul\":1003:1125   */\n    tag_442:\n        /* \"#utility.yul\":1076:1100   */\n      tag_546\n        /* \"#utility.yul\":1094:1099   */\n      dup2\n        /* \"#utility.yul\":1076:1100   */\n      tag_441\n      jump\t// in\n    tag_546:\n        /* \"#utility.yul\":1069:1074   */\n      dup2\n        /* \"#utility.yul\":1066:1101   */\n      eq\n        /* \"#utility.yul\":1056:1119   */\n      tag_547\n      jumpi\n        /* \"#utility.yul\":1115:1116   */\n      0x00\n        /* \"#utility.yul\":1112:1113   */\n      dup1\n        /* \"#utility.yul\":1105:1117   */\n      revert\n        /* \"#utility.yul\":1056:1119   */\n    tag_547:\n        /* \"#utility.yul\":1003:1125   */\n      pop\n      jump\t// out\n        /* \"#utility.yul\":1131:1270   */\n    tag_443:\n        /* \"#utility.yul\":1177:1182   */\n      0x00\n        /* \"#utility.yul\":1215:1221   */\n      dup2\n        /* \"#utility.yul\":1202:1222   */\n      calldataload\n        /* \"#utility.yul\":1193:1222   */\n      swap1\n      pop\n        /* \"#utility.yul\":1231:1264   */\n      tag_549\n        /* \"#utility.yul\":1258:1263   */\n      dup2\n        /* \"#utility.yul\":1231:1264   */\n      tag_442\n      jump\t// in\n    tag_549:\n        /* \"#utility.yul\":1131:1270   */\n      swap3\n      swap2\n      pop\n      pop\n      jump\t// out\n        /* \"#utility.yul\":1276:1605   */\n    tag_45:\n        /* \"#utility.yul\":1335:1341   */\n      0x00\n        /* \"#utility.yul\":1384:1386   */\n      0x20\n        /* \"#utility.yul\":1372:1381   */\n      dup3\n        /* \"#utility.yul\":1363:1370   */\n      dup5\n        /* \"#utility.yul\":1359:1382   */\n      sub\n        /* \"#utility.yul\":1355:1387   */\n      slt\n        /* \"#utility.yul\":1352:1471   */\n      iszero\n      tag_551\n      jumpi\n        /* \"#utility.yul\":1390:1469   */\n      tag_552\n      tag_438\n      jump\t// in\n    tag_552:\n        /* \"#utility.yul\":1352:1471   */\n    tag_551:\n        /* \"#utility.yul\":1510:1511   */\n      0x00\n        /* \"#utility.yul\":1535:1588   */\n      tag_553\n        /* \"#utility.yul\":1580:1587   */\n      dup5\n        /* \"#utility.yul\":1571:1577   */\n      dup3\n        /* \"#utility.yul\":1560:1569   */\n      dup6\n        /* \"#utility.yul\":1556:1578   */\n      add\n        /* \"#utility.yul\":1535:1588   */\n      tag_443\n      jump\t// in\n    tag_553:\n        /* \"#utility.yul\":1525:1588   */\n      swap2\n      pop\n        /* \"#utility.yul\":1481:1598   */\n      pop\n        /* \"#utility.yul\":1276:1605   */\n      swap3\n      swap2\n      pop\n      pop\n      jump\t// out\n        /* \"#utility.yul\":1611:1729   */\n    tag_444:\n        /* \"#utility.yul\":1698:1722   */\n      tag_555\n        /* \"#utility.yul\":1716:1721   */\n      dup2\n        /* \"#utility.yul\":1698:1722   */\n      tag_441\n      jump\t// in\n    tag_555:\n        /* \"#utility.yul\":1693:1696   */\n      dup3\n        /* \"#utility.yul\":1686:1723   */\n      mstore\n        /* \"#utility.yul\":1611:1729   */\n      pop\n      pop\n      jump\t// out\n        /* \"#utility.yul\":1735:1957   */\n    tag_50:\n        /* \"#utility.yul\":1828:1832   */\n      0x00\n        /* \"#utility.yul\":1866:1868   */\n      0x20\n        /* \"#utility.yul\":1855:1864   */\n      dup3\n        /* \"#utility.yul\":1851:1869   */\n      add\n        /* \"#utility.yul\":1843:1869   */\n      swap1\n      pop\n        /* \"#utility.yul\":1879:1950   */\n      tag_557\n        /* \"#utility.yul\":1947:1948   */\n      0x00\n        /* \"#utility.yul\":1936:1945   */\n      dup4\n        /* \"#utility.yul\":1932:1949   */\n      add\n        /* \"#utility.yul\":1923:1929   */\n      dup5\n        /* \"#utility.yul\":1879:1950   */\n      tag_444\n      jump\t// in\n    tag_557:\n        /* \"#utility.yul\":1735:1957   */\n      swap3\n      swap2\n      pop\n      pop\n      jump\t// out\n        /* \"#utility.yul\":1963:2085   */\n    tag_445:\n        /* \"#utility.yul\":2036:2060   */\n      tag_559\n        /* \"#utility.yul\":2054:2059   */\n      dup2\n        /* \"#utility.yul\":2036:2060   */\n      tag_435\n      jump\t// in\n    tag_559:\n        /* \"#utility.yul\":2029:2034   */\n      dup2\n        /* \"#utility.yul\":2026:2061   */\n      eq\n        /* \"#utility.yul\":2016:2079   */\n      tag_560\n      jumpi\n        /* \"#utility.yul\":2075:2076   */\n      0x00\n        /* \"#utility.yul\":2072:2073   */\n      dup1\n        /* \"#utility.yul\":2065:2077   */\n      revert\n        /* \"#utility.yul\":2016:2079   */\n    tag_560:\n        /* \"#utility.yul\":1963:2085   */\n      pop\n      jump\t// out\n        /* \"#utility.yul\":2091:2230   */\n    tag_446:\n        /* \"#utility.yul\":2137:2142   */\n      0x00\n        /* \"#utility.yul\":2175:2181   */\n      dup2\n        /* \"#utility.yul\":2162:2182   */\n      calldataload\n        /* \"#utility.yul\":2153:2182   */\n      swap1\n      pop\n        /* \"#utility.yul\":2191:2224   */\n      tag_562\n        /* \"#utility.yul\":2218:2223   */\n      dup2\n        /* \"#utility.yul\":2191:2224   */\n      tag_445\n      jump\t// in\n    tag_562:\n        /* \"#utility.yul\":2091:2230   */\n      swap3\n      swap2\n      pop\n      pop\n      jump\t// out\n        /* \"#utility.yul\":2236:2565   */\n    tag_59:\n        /* \"#utility.yul\":2295:2301   */\n      0x00\n        /* \"#utility.yul\":2344:2346   */\n      0x20\n        /* \"#utility.yul\":2332:2341   */\n      dup3\n        /* \"#utility.yul\":2323:2330   */\n      dup5\n        /* \"#utility.yul\":2319:2342   */\n      sub\n        /* \"#utility.yul\":2315:2347   */\n      slt\n        /* \"#utility.yul\":2312:2431   */\n      iszero\n      tag_564\n      jumpi\n        /* \"#utility.yul\":2350:2429   */\n      tag_565\n      tag_438\n      jump\t// in\n    tag_565:\n        /* \"#utility.yul\":2312:2431   */\n    tag_564:\n        /* \"#utility.yul\":2470:2471   */\n      0x00\n        /* \"#utility.yul\":2495:2548   */\n      tag_566\n        /* \"#utility.yul\":2540:2547   */\n      dup5\n        /* \"#utility.yul\":2531:2537   */\n      dup3\n        /* \"#utility.yul\":2520:2529   */\n      dup6\n        /* \"#utility.yul\":2516:2538   */\n      add\n        /* \"#utility.yul\":2495:2548   */\n      tag_446\n      jump\t// in\n    tag_566:\n        /* \"#utility.yul\":2485:2548   */\n      swap2\n      pop\n        /* \"#utility.yul\":2441:2558   */\n      pop\n        /* \"#utility.yul\":2236:2565   */\n      swap3\n      swap2\n      pop\n      pop\n      jump\t// out\n        /* \"#utility.yul\":2571:2648   */\n    tag_447:\n        /* \"#utility.yul\":2608:2615   */\n      0x00\n        /* \"#utility.yul\":2637:2642   */\n      dup2\n        /* \"#utility.yul\":2626:2642   */\n      swap1\n      pop\n        /* \"#utility.yul\":2571:2648   */\n      swap2\n      swap1\n      pop\n      jump\t// out\n        /* \"#utility.yul\":2654:2776   */\n    tag_448:\n        /* \"#utility.yul\":2727:2751   */\n      tag_569\n        /* \"#utility.yul\":2745:2750   */\n      dup2\n        /* \"#utility.yul\":2727:2751   */\n      tag_447\n      jump\t// in\n    tag_569:\n        /* \"#utility.yul\":2720:2725   */\n      dup2\n        /* \"#utility.yul\":2717:2752   */\n      eq\n        /* \"#utility.yul\":2707:2770   */\n      tag_570\n      jumpi\n        /* \"#utility.yul\":2766:2767   */\n      0x00\n        /* \"#utility.yul\":2763:2764   */\n      dup1\n        /* \"#utility.yul\":2756:2768   */\n      revert\n        /* \"#utility.yul\":2707:2770   */\n    tag_570:\n        /* \"#utility.yul\":2654:2776   */\n      pop\n      jump\t// out\n        /* \"#utility.yul\":2782:2921   */\n    tag_449:\n        /* \"#utility.yul\":2828:2833   */\n      0x00\n        /* \"#utility.yul\":2866:2872   */\n      dup2\n        /* \"#utility.yul\":2853:2873   */\n      calldataload\n        /* \"#utility.yul\":2844:2873   */\n      swap1\n      pop\n        /* \"#utility.yul\":2882:2915   */\n      tag_572\n        /* \"#utility.yul\":2909:2914   */\n      dup2\n        /* \"#utility.yul\":2882:2915   */\n      tag_448\n      jump\t// in\n    tag_572:\n        /* \"#utility.yul\":2782:2921   */\n      swap3\n      swap2\n      pop\n      pop\n      jump\t// out\n        /* \"#utility.yul\":2927:3401   */\n    tag_73:\n        /* \"#utility.yul\":2995:3001   */\n      0x00\n        /* \"#utility.yul\":3003:3009   */\n      dup1\n        /* \"#utility.yul\":3052:3054   */\n      0x40\n        /* \"#utility.yul\":3040:3049   */\n      dup4\n        /* \"#utility.yul\":3031:3038   */\n      dup6\n        /* \"#utility.yul\":3027:3050   */\n      sub\n        /* \"#utility.yul\":3023:3055   */\n      slt\n        /* \"#utility.yul\":3020:3139   */\n      iszero\n      tag_574\n      jumpi\n        /* \"#utility.yul\":3058:3137   */\n      tag_575\n      tag_438\n      jump\t// in\n    tag_575:\n        /* \"#utility.yul\":3020:3139   */\n    tag_574:\n        /* \"#utility.yul\":3178:3179   */\n      0x00\n        /* \"#utility.yul\":3203:3256   */\n      tag_576\n        /* \"#utility.yul\":3248:3255   */\n      dup6\n        /* \"#utility.yul\":3239:3245   */\n      dup3\n        /* \"#utility.yul\":3228:3237   */\n      dup7\n        /* \"#utility.yul\":3224:3246   */\n      add\n        /* \"#utility.yul\":3203:3256   */\n      tag_449\n      jump\t// in\n    tag_576:\n        /* \"#utility.yul\":3193:3256   */\n      swap3\n      pop\n        /* \"#utility.yul\":3149:3266   */\n      pop\n        /* \"#utility.yul\":3305:3307   */\n      0x20\n        /* \"#utility.yul\":3331:3384   */\n      tag_577\n        /* \"#utility.yul\":3376:3383   */\n      dup6\n        /* \"#utility.yul\":3367:3373   */\n      dup3\n        /* \"#utility.yul\":3356:3365   */\n      dup7\n        /* \"#utility.yul\":3352:3374   */\n      add\n        /* \"#utility.yul\":3331:3384   */\n      tag_446\n      jump\t// in\n    tag_577:\n        /* \"#utility.yul\":3321:3384   */\n      swap2\n      pop\n        /* \"#utility.yul\":3276:3394   */\n      pop\n        /* \"#utility.yul\":2927:3401   */\n      swap3\n      pop\n      swap3\n      swap1\n      pop\n      jump\t// out\n        /* \"#utility.yul\":3407:3528   */\n    tag_450:\n        /* \"#utility.yul\":3469:3476   */\n      0x00\n        /* \"#utility.yul\":3498:3522   */\n      tag_579\n        /* \"#utility.yul\":3516:3521   */\n      dup3\n        /* \"#utility.yul\":3498:3522   */\n      tag_441\n      jump\t// in\n    tag_579:\n        /* \"#utility.yul\":3487:3522   */\n      swap1\n      pop\n        /* \"#utility.yul\":3407:3528   */\n      swap2\n      swap1\n      pop\n      jump\t// out\n        /* \"#utility.yul\":3534:3706   */\n    tag_451:\n        /* \"#utility.yul\":3632:3681   */\n      tag_581\n        /* \"#utility.yul\":3675:3680   */\n      dup2\n        /* \"#utility.yul\":3632:3681   */\n      tag_450\n      jump\t// in\n    tag_581:\n        /* \"#utility.yul\":3625:3630   */\n      dup2\n        /* \"#utility.yul\":3622:3682   */\n      eq\n        /* \"#utility.yul\":3612:3700   */\n      tag_582\n      jumpi\n        /* \"#utility.yul\":3696:3697   */\n      0x00\n        /* \"#utility.yul\":3693:3694   */\n      dup1\n        /* \"#utility.yul\":3686:3698   */\n      revert\n        /* \"#utility.yul\":3612:3700   */\n    tag_582:\n        /* \"#utility.yul\":3534:3706   */\n      pop\n      jump\t// out\n        /* \"#utility.yul\":3712:3901   */\n    tag_452:\n        /* \"#utility.yul\":3783:3788   */\n      0x00\n        /* \"#utility.yul\":3821:3827   */\n      dup2\n        /* \"#utility.yul\":3808:3828   */\n      calldataload\n        /* \"#utility.yul\":3799:3828   */\n      swap1\n      pop\n        /* \"#utility.yul\":3837:3895   */\n      tag_584\n        /* \"#utility.yul\":3889:3894   */\n      dup2\n        /* \"#utility.yul\":3837:3895   */\n      tag_451\n      jump\t// in\n    tag_584:\n        /* \"#utility.yul\":3712:3901   */\n      swap3\n      swap2\n      pop\n      pop\n      jump\t// out\n        /* \"#utility.yul\":3907:4576   */\n    tag_79:\n        /* \"#utility.yul\":4009:4015   */\n      0x00\n        /* \"#utility.yul\":4017:4023   */\n      dup1\n        /* \"#utility.yul\":4025:4031   */\n      0x00\n        /* \"#utility.yul\":4074:4076   */\n      0x60\n        /* \"#utility.yul\":4062:4071   */\n      dup5\n        /* \"#utility.yul\":4053:4060   */\n      dup7\n        /* \"#utility.yul\":4049:4072   */\n      sub\n        /* \"#utility.yul\":4045:4077   */\n      slt\n        /* \"#utility.yul\":4042:4161   */\n      iszero\n      tag_586\n      jumpi\n        /* \"#utility.yul\":4080:4159   */\n      tag_587\n      tag_438\n      jump\t// in\n    tag_587:\n        /* \"#utility.yul\":4042:4161   */\n    tag_586:\n        /* \"#utility.yul\":4200:4201   */\n      0x00\n        /* \"#utility.yul\":4225:4303   */\n      tag_588\n        /* \"#utility.yul\":4295:4302   */\n      dup7\n        /* \"#utility.yul\":4286:4292   */\n      dup3\n        /* \"#utility.yul\":4275:4284   */\n      dup8\n        /* \"#utility.yul\":4271:4293   */\n      add\n        /* \"#utility.yul\":4225:4303   */\n      tag_452\n      jump\t// in\n    tag_588:\n        /* \"#utility.yul\":4215:4303   */\n      swap4\n      pop\n        /* \"#utility.yul\":4171:4313   */\n      pop\n        /* \"#utility.yul\":4352:4354   */\n      0x20\n        /* \"#utility.yul\":4378:4431   */\n      tag_589\n        /* \"#utility.yul\":4423:4430   */\n      dup7\n        /* \"#utility.yul\":4414:4420   */\n      dup3\n        /* \"#utility.yul\":4403:4412   */\n      dup8\n        /* \"#utility.yul\":4399:4421   */\n      add\n        /* \"#utility.yul\":4378:4431   */\n      tag_446\n      jump\t// in\n    tag_589:\n        /* \"#utility.yul\":4368:4431   */\n      swap3\n      pop\n        /* \"#utility.yul\":4323:4441   */\n      pop\n        /* \"#utility.yul\":4480:4482   */\n      0x40\n        /* \"#utility.yul\":4506:4559   */\n      tag_590\n        /* \"#utility.yul\":4551:4558   */\n      dup7\n        /* \"#utility.yul\":4542:4548   */\n      dup3\n        /* \"#utility.yul\":4531:4540   */\n      dup8\n        /* \"#utility.yul\":4527:4549   */\n      add\n        /* \"#utility.yul\":4506:4559   */\n      tag_446\n      jump\t// in\n    tag_590:\n        /* \"#utility.yul\":4496:4559   */\n      swap2\n      pop\n        /* \"#utility.yul\":4451:4569   */\n      pop\n        /* \"#utility.yul\":3907:4576   */\n      swap3\n      pop\n      swap3\n      pop\n      swap3\n      jump\t// out\n        /* \"#utility.yul\":4582:4672   */\n    tag_453:\n        /* \"#utility.yul\":4616:4623   */\n      0x00\n        /* \"#utility.yul\":4659:4664   */\n      dup2\n        /* \"#utility.yul\":4652:4665   */\n      iszero\n        /* \"#utility.yul\":4645:4666   */\n      iszero\n        /* \"#utility.yul\":4634:4666   */\n      swap1\n      pop\n        /* \"#utility.yul\":4582:4672   */\n      swap2\n      swap1\n      pop\n      jump\t// out\n        /* \"#utility.yul\":4678:4794   */\n    tag_454:\n        /* \"#utility.yul\":4748:4769   */\n      tag_593\n        /* \"#utility.yul\":4763:4768   */\n      dup2\n        /* \"#utility.yul\":4748:4769   */\n      tag_453\n      jump\t// in\n    tag_593:\n        /* \"#utility.yul\":4741:4746   */\n      dup2\n        /* \"#utility.yul\":4738:4770   */\n      eq\n        /* \"#utility.yul\":4728:4788   */\n      tag_594\n      jumpi\n        /* \"#utility.yul\":4784:4785   */\n      0x00\n        /* \"#utility.yul\":4781:4782   */\n      dup1\n        /* \"#utility.yul\":4774:4786   */\n      revert\n        /* \"#utility.yul\":4728:4788   */\n    tag_594:\n        /* \"#utility.yul\":4678:4794   */\n      pop\n      jump\t// out\n        /* \"#utility.yul\":4800:4933   */\n    tag_455:\n        /* \"#utility.yul\":4843:4848   */\n      0x00\n        /* \"#utility.yul\":4881:4887   */\n      dup2\n        /* \"#utility.yul\":4868:4888   */\n      calldataload\n        /* \"#utility.yul\":4859:4888   */\n      swap1\n      pop\n        /* \"#utility.yul\":4897:4927   */\n      tag_596\n        /* \"#utility.yul\":4921:4926   */\n      dup2\n        /* \"#utility.yul\":4897:4927   */\n      tag_454\n      jump\t// in\n    tag_596:\n        /* \"#utility.yul\":4800:4933   */\n      swap3\n      swap2\n      pop\n      pop\n      jump\t// out\n        /* \"#utility.yul\":4939:6276   */\n    tag_83:\n        /* \"#utility.yul\":5055:5061   */\n      0x00\n        /* \"#utility.yul\":5063:5069   */\n      dup1\n        /* \"#utility.yul\":5071:5077   */\n      0x00\n        /* \"#utility.yul\":5079:5085   */\n      dup1\n        /* \"#utility.yul\":5087:5093   */\n      0x00\n        /* \"#utility.yul\":5095:5101   */\n      dup1\n        /* \"#utility.yul\":5103:5109   */\n      0x00\n        /* \"#utility.yul\":5111:5117   */\n      dup1\n        /* \"#utility.yul\":5160:5163   */\n      0x0100\n        /* \"#utility.yul\":5148:5157   */\n      dup10\n        /* \"#utility.yul\":5139:5146   */\n      dup12\n        /* \"#utility.yul\":5135:5158   */\n      sub\n        /* \"#utility.yul\":5131:5164   */\n      slt\n        /* \"#utility.yul\":5128:5248   */\n      iszero\n      tag_598\n      jumpi\n        /* \"#utility.yul\":5167:5246   */\n      tag_599\n      tag_438\n      jump\t// in\n    tag_599:\n        /* \"#utility.yul\":5128:5248   */\n    tag_598:\n        /* \"#utility.yul\":5287:5288   */\n      0x00\n        /* \"#utility.yul\":5312:5365   */\n      tag_600\n        /* \"#utility.yul\":5357:5364   */\n      dup12\n        /* \"#utility.yul\":5348:5354   */\n      dup3\n        /* \"#utility.yul\":5337:5346   */\n      dup13\n        /* \"#utility.yul\":5333:5355   */\n      add\n        /* \"#utility.yul\":5312:5365   */\n      tag_443\n      jump\t// in\n    tag_600:\n        /* \"#utility.yul\":5302:5365   */\n      swap9\n      pop\n        /* \"#utility.yul\":5258:5375   */\n      pop\n        /* \"#utility.yul\":5414:5416   */\n      0x20\n        /* \"#utility.yul\":5440:5493   */\n      tag_601\n        /* \"#utility.yul\":5485:5492   */\n      dup12\n        /* \"#utility.yul\":5476:5482   */\n      dup3\n        /* \"#utility.yul\":5465:5474   */\n      dup13\n        /* \"#utility.yul\":5461:5483   */\n      add\n        /* \"#utility.yul\":5440:5493   */\n      tag_446\n      jump\t// in\n    tag_601:\n        /* \"#utility.yul\":5430:5493   */\n      swap8\n      pop\n        /* \"#utility.yul\":5385:5503   */\n      pop\n        /* \"#utility.yul\":5542:5544   */\n      0x40\n        /* \"#utility.yul\":5568:5621   */\n      tag_602\n        /* \"#utility.yul\":5613:5620   */\n      dup12\n        /* \"#utility.yul\":5604:5610   */\n      dup3\n        /* \"#utility.yul\":5593:5602   */\n      dup13\n        /* \"#utility.yul\":5589:5611   */\n      add\n        /* \"#utility.yul\":5568:5621   */\n      tag_446\n      jump\t// in\n    tag_602:\n        /* \"#utility.yul\":5558:5621   */\n      swap7\n      pop\n        /* \"#utility.yul\":5513:5631   */\n      pop\n        /* \"#utility.yul\":5670:5672   */\n      0x60\n        /* \"#utility.yul\":5696:5749   */\n      tag_603\n        /* \"#utility.yul\":5741:5748   */\n      dup12\n        /* \"#utility.yul\":5732:5738   */\n      dup3\n        /* \"#utility.yul\":5721:5730   */\n      dup13\n        /* \"#utility.yul\":5717:5739   */\n      add\n        /* \"#utility.yul\":5696:5749   */\n      tag_446\n      jump\t// in\n    tag_603:\n        /* \"#utility.yul\":5686:5749   */\n      swap6\n      pop\n        /* \"#utility.yul\":5641:5759   */\n      pop\n        /* \"#utility.yul\":5798:5801   */\n      0x80\n        /* \"#utility.yul\":5825:5878   */\n      tag_604\n        /* \"#utility.yul\":5870:5877   */\n      dup12\n        /* \"#utility.yul\":5861:5867   */\n      dup3\n        /* \"#utility.yul\":5850:5859   */\n      dup13\n        /* \"#utility.yul\":5846:5868   */\n      add\n        /* \"#utility.yul\":5825:5878   */\n      tag_446\n      jump\t// in\n    tag_604:\n        /* \"#utility.yul\":5815:5878   */\n      swap5\n      pop\n        /* \"#utility.yul\":5769:5888   */\n      pop\n        /* \"#utility.yul\":5927:5930   */\n      0xa0\n        /* \"#utility.yul\":5954:6004   */\n      tag_605\n        /* \"#utility.yul\":5996:6003   */\n      dup12\n        /* \"#utility.yul\":5987:5993   */\n      dup3\n        /* \"#utility.yul\":5976:5985   */\n      dup13\n        /* \"#utility.yul\":5972:5994   */\n      add\n        /* \"#utility.yul\":5954:6004   */\n      tag_455\n      jump\t// in\n    tag_605:\n        /* \"#utility.yul\":5944:6004   */\n      swap4\n      pop\n        /* \"#utility.yul\":5898:6014   */\n      pop\n        /* \"#utility.yul\":6053:6056   */\n      0xc0\n        /* \"#utility.yul\":6080:6133   */\n      tag_606\n        /* \"#utility.yul\":6125:6132   */\n      dup12\n        /* \"#utility.yul\":6116:6122   */\n      dup3\n        /* \"#utility.yul\":6105:6114   */\n      dup13\n        /* \"#utility.yul\":6101:6123   */\n      add\n        /* \"#utility.yul\":6080:6133   */\n      tag_446\n      jump\t// in\n    tag_606:\n        /* \"#utility.yul\":6070:6133   */\n      swap3\n      pop\n        /* \"#utility.yul\":6024:6143   */\n      pop\n        /* \"#utility.yul\":6182:6185   */\n      0xe0\n        /* \"#utility.yul\":6209:6259   */\n      tag_607\n        /* \"#utility.yul\":6251:6258   */\n      dup12\n        /* \"#utility.yul\":6242:6248   */\n      dup3\n        /* \"#utility.yul\":6231:6240   */\n      dup13\n        /* \"#utility.yul\":6227:6249   */\n      add\n        /* \"#utility.yul\":6209:6259   */\n      tag_455\n      jump\t// in\n    tag_607:\n        /* \"#utility.yul\":6199:6259   */\n      swap2\n      pop\n        /* \"#utility.yul\":6153:6269   */\n      pop\n        /* \"#utility.yul\":4939:6276   */\n      swap3\n      swap6\n      swap9\n      pop\n      swap3\n      swap6\n      swap9\n      swap1\n      swap4\n      swap7\n      pop\n      jump\t// out\n        /* \"#utility.yul\":6282:6381   */\n    tag_456:\n        /* \"#utility.yul\":6353:6374   */\n      tag_609\n        /* \"#utility.yul\":6368:6373   */\n      dup2\n        /* \"#utility.yul\":6353:6374   */\n      tag_453\n      jump\t// in\n    tag_609:\n        /* \"#utility.yul\":6348:6351   */\n      dup3\n        /* \"#utility.yul\":6341:6375   */\n      mstore\n        /* \"#utility.yul\":6282:6381   */\n      pop\n      pop\n      jump\t// out\n        /* \"#utility.yul\":6387:6495   */\n    tag_457:\n        /* \"#utility.yul\":6464:6488   */\n      tag_611\n        /* \"#utility.yul\":6482:6487   */\n      dup2\n        /* \"#utility.yul\":6464:6488   */\n      tag_441\n      jump\t// in\n    tag_611:\n        /* \"#utility.yul\":6459:6462   */\n      dup3\n        /* \"#utility.yul\":6452:6489   */\n      mstore\n        /* \"#utility.yul\":6387:6495   */\n      pop\n      pop\n      jump\t// out\n        /* \"#utility.yul\":6501:6609   */\n    tag_458:\n        /* \"#utility.yul\":6578:6602   */\n      tag_613\n        /* \"#utility.yul\":6596:6601   */\n      dup2\n        /* \"#utility.yul\":6578:6602   */\n      tag_435\n      jump\t// in\n    tag_613:\n        /* \"#utility.yul\":6573:6576   */\n      dup3\n        /* \"#utility.yul\":6566:6603   */\n      mstore\n        /* \"#utility.yul\":6501:6609   */\n      pop\n      pop\n      jump\t// out\n        /* \"#utility.yul\":6707:8847   */\n    tag_459:\n        /* \"#utility.yul\":6870:6876   */\n      0x0160\n        /* \"#utility.yul\":6865:6868   */\n      dup3\n        /* \"#utility.yul\":6861:6877   */\n      add\n        /* \"#utility.yul\":6966:6970   */\n      0x00\n        /* \"#utility.yul\":6959:6964   */\n      dup3\n        /* \"#utility.yul\":6955:6971   */\n      add\n        /* \"#utility.yul\":6949:6972   */\n      mload\n        /* \"#utility.yul\":6985:7042   */\n      tag_615\n        /* \"#utility.yul\":7036:7040   */\n      0x00\n        /* \"#utility.yul\":7031:7034   */\n      dup6\n        /* \"#utility.yul\":7027:7041   */\n      add\n        /* \"#utility.yul\":7013:7025   */\n      dup3\n        /* \"#utility.yul\":6985:7042   */\n      tag_456\n      jump\t// in\n    tag_615:\n        /* \"#utility.yul\":6887:7052   */\n      pop\n        /* \"#utility.yul\":7141:7145   */\n      0x20\n        /* \"#utility.yul\":7134:7139   */\n      dup3\n        /* \"#utility.yul\":7130:7146   */\n      add\n        /* \"#utility.yul\":7124:7147   */\n      mload\n        /* \"#utility.yul\":7160:7223   */\n      tag_616\n        /* \"#utility.yul\":7217:7221   */\n      0x20\n        /* \"#utility.yul\":7212:7215   */\n      dup6\n        /* \"#utility.yul\":7208:7222   */\n      add\n        /* \"#utility.yul\":7194:7206   */\n      dup3\n        /* \"#utility.yul\":7160:7223   */\n      tag_457\n      jump\t// in\n    tag_616:\n        /* \"#utility.yul\":7062:7233   */\n      pop\n        /* \"#utility.yul\":7316:7320   */\n      0x40\n        /* \"#utility.yul\":7309:7314   */\n      dup3\n        /* \"#utility.yul\":7305:7321   */\n      add\n        /* \"#utility.yul\":7299:7322   */\n      mload\n        /* \"#utility.yul\":7335:7398   */\n      tag_617\n        /* \"#utility.yul\":7392:7396   */\n      0x40\n        /* \"#utility.yul\":7387:7390   */\n      dup6\n        /* \"#utility.yul\":7383:7397   */\n      add\n        /* \"#utility.yul\":7369:7381   */\n      dup3\n        /* \"#utility.yul\":7335:7398   */\n      tag_458\n      jump\t// in\n    tag_617:\n        /* \"#utility.yul\":7243:7408   */\n      pop\n        /* \"#utility.yul\":7491:7495   */\n      0x60\n        /* \"#utility.yul\":7484:7489   */\n      dup3\n        /* \"#utility.yul\":7480:7496   */\n      add\n        /* \"#utility.yul\":7474:7497   */\n      mload\n        /* \"#utility.yul\":7510:7573   */\n      tag_618\n        /* \"#utility.yul\":7567:7571   */\n      0x60\n        /* \"#utility.yul\":7562:7565   */\n      dup6\n        /* \"#utility.yul\":7558:7572   */\n      add\n        /* \"#utility.yul\":7544:7556   */\n      dup3\n        /* \"#utility.yul\":7510:7573   */\n      tag_458\n      jump\t// in\n    tag_618:\n        /* \"#utility.yul\":7418:7583   */\n      pop\n        /* \"#utility.yul\":7669:7673   */\n      0x80\n        /* \"#utility.yul\":7662:7667   */\n      dup3\n        /* \"#utility.yul\":7658:7674   */\n      add\n        /* \"#utility.yul\":7652:7675   */\n      mload\n        /* \"#utility.yul\":7688:7751   */\n      tag_619\n        /* \"#utility.yul\":7745:7749   */\n      0x80\n        /* \"#utility.yul\":7740:7743   */\n      dup6\n        /* \"#utility.yul\":7736:7750   */\n      add\n        /* \"#utility.yul\":7722:7734   */\n      dup3\n        /* \"#utility.yul\":7688:7751   */\n      tag_458\n      jump\t// in\n    tag_619:\n        /* \"#utility.yul\":7593:7761   */\n      pop\n        /* \"#utility.yul\":7857:7861   */\n      0xa0\n        /* \"#utility.yul\":7850:7855   */\n      dup3\n        /* \"#utility.yul\":7846:7862   */\n      add\n        /* \"#utility.yul\":7840:7863   */\n      mload\n        /* \"#utility.yul\":7876:7939   */\n      tag_620\n        /* \"#utility.yul\":7933:7937   */\n      0xa0\n        /* \"#utility.yul\":7928:7931   */\n      dup6\n        /* \"#utility.yul\":7924:7938   */\n      add\n        /* \"#utility.yul\":7910:7922   */\n      dup3\n        /* \"#utility.yul\":7876:7939   */\n      tag_458\n      jump\t// in\n    tag_620:\n        /* \"#utility.yul\":7771:7949   */\n      pop\n        /* \"#utility.yul\":8036:8040   */\n      0xc0\n        /* \"#utility.yul\":8029:8034   */\n      dup3\n        /* \"#utility.yul\":8025:8041   */\n      add\n        /* \"#utility.yul\":8019:8042   */\n      mload\n        /* \"#utility.yul\":8055:8112   */\n      tag_621\n        /* \"#utility.yul\":8106:8110   */\n      0xc0\n        /* \"#utility.yul\":8101:8104   */\n      dup6\n        /* \"#utility.yul\":8097:8111   */\n      add\n        /* \"#utility.yul\":8083:8095   */\n      dup3\n        /* \"#utility.yul\":8055:8112   */\n      tag_456\n      jump\t// in\n    tag_621:\n        /* \"#utility.yul\":7959:8122   */\n      pop\n        /* \"#utility.yul\":8211:8215   */\n      0xe0\n        /* \"#utility.yul\":8204:8209   */\n      dup3\n        /* \"#utility.yul\":8200:8216   */\n      add\n        /* \"#utility.yul\":8194:8217   */\n      mload\n        /* \"#utility.yul\":8230:8293   */\n      tag_622\n        /* \"#utility.yul\":8287:8291   */\n      0xe0\n        /* \"#utility.yul\":8282:8285   */\n      dup6\n        /* \"#utility.yul\":8278:8292   */\n      add\n        /* \"#utility.yul\":8264:8276   */\n      dup3\n        /* \"#utility.yul\":8230:8293   */\n      tag_458\n      jump\t// in\n    tag_622:\n        /* \"#utility.yul\":8132:8303   */\n      pop\n        /* \"#utility.yul\":8389:8395   */\n      0x0100\n        /* \"#utility.yul\":8382:8387   */\n      dup3\n        /* \"#utility.yul\":8378:8396   */\n      add\n        /* \"#utility.yul\":8372:8397   */\n      mload\n        /* \"#utility.yul\":8410:8475   */\n      tag_623\n        /* \"#utility.yul\":8467:8473   */\n      0x0100\n        /* \"#utility.yul\":8462:8465   */\n      dup6\n        /* \"#utility.yul\":8458:8474   */\n      add\n        /* \"#utility.yul\":8444:8456   */\n      dup3\n        /* \"#utility.yul\":8410:8475   */\n      tag_458\n      jump\t// in\n    tag_623:\n        /* \"#utility.yul\":8313:8485   */\n      pop\n        /* \"#utility.yul\":8570:8576   */\n      0x0120\n        /* \"#utility.yul\":8563:8568   */\n      dup3\n        /* \"#utility.yul\":8559:8577   */\n      add\n        /* \"#utility.yul\":8553:8578   */\n      mload\n        /* \"#utility.yul\":8591:8650   */\n      tag_624\n        /* \"#utility.yul\":8642:8648   */\n      0x0120\n        /* \"#utility.yul\":8637:8640   */\n      dup6\n        /* \"#utility.yul\":8633:8649   */\n      add\n        /* \"#utility.yul\":8619:8631   */\n      dup3\n        /* \"#utility.yul\":8591:8650   */\n      tag_456\n      jump\t// in\n    tag_624:\n        /* \"#utility.yul\":8495:8660   */\n      pop\n        /* \"#utility.yul\":8750:8756   */\n      0x0140\n        /* \"#utility.yul\":8743:8748   */\n      dup3\n        /* \"#utility.yul\":8739:8757   */\n      add\n        /* \"#utility.yul\":8733:8758   */\n      mload\n        /* \"#utility.yul\":8771:8830   */\n      tag_625\n        /* \"#utility.yul\":8822:8828   */\n      0x0140\n        /* \"#utility.yul\":8817:8820   */\n      dup6\n        /* \"#utility.yul\":8813:8829   */\n      add\n        /* \"#utility.yul\":8799:8811   */\n      dup3\n        /* \"#utility.yul\":8771:8830   */\n      tag_456\n      jump\t// in\n    tag_625:\n        /* \"#utility.yul\":8670:8840   */\n      pop\n        /* \"#utility.yul\":6839:8847   */\n      pop\n        /* \"#utility.yul\":6707:8847   */\n      pop\n      pop\n      jump\t// out\n        /* \"#utility.yul\":8853:9208   */\n    tag_89:\n        /* \"#utility.yul\":9012:9016   */\n      0x00\n        /* \"#utility.yul\":9050:9053   */\n      0x0160\n        /* \"#utility.yul\":9039:9048   */\n      dup3\n        /* \"#utility.yul\":9035:9054   */\n      add\n        /* \"#utility.yul\":9027:9054   */\n      swap1\n      pop\n        /* \"#utility.yul\":9064:9201   */\n      tag_627\n        /* \"#utility.yul\":9198:9199   */\n      0x00\n        /* \"#utility.yul\":9187:9196   */\n      dup4\n        /* \"#utility.yul\":9183:9200   */\n      add\n        /* \"#utility.yul\":9174:9180   */\n      dup5\n        /* \"#utility.yul\":9064:9201   */\n      tag_459\n      jump\t// in\n    tag_627:\n        /* \"#utility.yul\":8853:9208   */\n      swap3\n      swap2\n      pop\n      pop\n      jump\t// out\n        /* \"#utility.yul\":9214:9688   */\n    tag_92:\n        /* \"#utility.yul\":9282:9288   */\n      0x00\n        /* \"#utility.yul\":9290:9296   */\n      dup1\n        /* \"#utility.yul\":9339:9341   */\n      0x40\n        /* \"#utility.yul\":9327:9336   */\n      dup4\n        /* \"#utility.yul\":9318:9325   */\n      dup6\n        /* \"#utility.yul\":9314:9337   */\n      sub\n        /* \"#utility.yul\":9310:9342   */\n      slt\n        /* \"#utility.yul\":9307:9426   */\n      iszero\n      tag_629\n      jumpi\n        /* \"#utility.yul\":9345:9424   */\n      tag_630\n      tag_438\n      jump\t// in\n    tag_630:\n        /* \"#utility.yul\":9307:9426   */\n    tag_629:\n        /* \"#utility.yul\":9465:9466   */\n      0x00\n        /* \"#utility.yul\":9490:9543   */\n      tag_631\n        /* \"#utility.yul\":9535:9542   */\n      dup6\n        /* \"#utility.yul\":9526:9532   */\n      dup3\n        /* \"#utility.yul\":9515:9524   */\n      dup7\n        /* \"#utility.yul\":9511:9533   */\n      add\n        /* \"#utility.yul\":9490:9543   */\n      tag_443\n      jump\t// in\n    tag_631:\n        /* \"#utility.yul\":9480:9543   */\n      swap3\n      pop\n        /* \"#utility.yul\":9436:9553   */\n      pop\n        /* \"#utility.yul\":9592:9594   */\n      0x20\n        /* \"#utility.yul\":9618:9671   */\n      tag_632\n        /* \"#utility.yul\":9663:9670   */\n      dup6\n        /* \"#utility.yul\":9654:9660   */\n      dup3\n        /* \"#utility.yul\":9643:9652   */\n      dup7\n        /* \"#utility.yul\":9639:9661   */\n      add\n        /* \"#utility.yul\":9618:9671   */\n      tag_446\n      jump\t// in\n    tag_632:\n        /* \"#utility.yul\":9608:9671   */\n      swap2\n      pop\n        /* \"#utility.yul\":9563:9681   */\n      pop\n        /* \"#utility.yul\":9214:9688   */\n      swap3\n      pop\n      swap3\n      swap1\n      pop\n      jump\t// out\n        /* \"#utility.yul\":9694:9812   */\n    tag_460:\n        /* \"#utility.yul\":9781:9805   */\n      tag_634\n        /* \"#utility.yul\":9799:9804   */\n      dup2\n        /* \"#utility.yul\":9781:9805   */\n      tag_447\n      jump\t// in\n    tag_634:\n        /* \"#utility.yul\":9776:9779   */\n      dup3\n        /* \"#utility.yul\":9769:9806   */\n      mstore\n        /* \"#utility.yul\":9694:9812   */\n      pop\n      pop\n      jump\t// out\n        /* \"#utility.yul\":9818:10040   */\n    tag_95:\n        /* \"#utility.yul\":9911:9915   */\n      0x00\n        /* \"#utility.yul\":9949:9951   */\n      0x20\n        /* \"#utility.yul\":9938:9947   */\n      dup3\n        /* \"#utility.yul\":9934:9952   */\n      add\n        /* \"#utility.yul\":9926:9952   */\n      swap1\n      pop\n        /* \"#utility.yul\":9962:10033   */\n      tag_636\n        /* \"#utility.yul\":10030:10031   */\n      0x00\n        /* \"#utility.yul\":10019:10028   */\n      dup4\n        /* \"#utility.yul\":10015:10032   */\n      add\n        /* \"#utility.yul\":10006:10012   */\n      dup5\n        /* \"#utility.yul\":9962:10033   */\n      tag_460\n      jump\t// in\n    tag_636:\n        /* \"#utility.yul\":9818:10040   */\n      swap3\n      swap2\n      pop\n      pop\n      jump\t// out\n        /* \"#utility.yul\":10046:10375   */\n    tag_104:\n        /* \"#utility.yul\":10105:10111   */\n      0x00\n        /* \"#utility.yul\":10154:10156   */\n      0x20\n        /* \"#utility.yul\":10142:10151   */\n      dup3\n        /* \"#utility.yul\":10133:10140   */\n      dup5\n        /* \"#utility.yul\":10129:10152   */\n      sub\n        /* \"#utility.yul\":10125:10157   */\n      slt\n        /* \"#utility.yul\":10122:10241   */\n      iszero\n      tag_638\n      jumpi\n        /* \"#utility.yul\":10160:10239   */\n      tag_639\n      tag_438\n      jump\t// in\n    tag_639:\n        /* \"#utility.yul\":10122:10241   */\n    tag_638:\n        /* \"#utility.yul\":10280:10281   */\n      0x00\n        /* \"#utility.yul\":10305:10358   */\n      tag_640\n        /* \"#utility.yul\":10350:10357   */\n      dup5\n        /* \"#utility.yul\":10341:10347   */\n      dup3\n        /* \"#utility.yul\":10330:10339   */\n      dup6\n        /* \"#utility.yul\":10326:10348   */\n      add\n        /* \"#utility.yul\":10305:10358   */\n      tag_449\n      jump\t// in\n    tag_640:\n        /* \"#utility.yul\":10295:10358   */\n      swap2\n      pop\n        /* \"#utility.yul\":10251:10368   */\n      pop\n        /* \"#utility.yul\":10046:10375   */\n      swap3\n      swap2\n      pop\n      pop\n      jump\t// out\n        /* \"#utility.yul\":10381:10550   */\n    tag_461:\n        /* \"#utility.yul\":10465:10476   */\n      0x00\n        /* \"#utility.yul\":10499:10505   */\n      dup3\n        /* \"#utility.yul\":10494:10497   */\n      dup3\n        /* \"#utility.yul\":10487:10506   */\n      mstore\n        /* \"#utility.yul\":10539:10543   */\n      0x20\n        /* \"#utility.yul\":10534:10537   */\n      dup3\n        /* \"#utility.yul\":10530:10544   */\n      add\n        /* \"#utility.yul\":10515:10544   */\n      swap1\n      pop\n        /* \"#utility.yul\":10381:10550   */\n      swap3\n      swap2\n      pop\n      pop\n      jump\t// out\n        /* \"#utility.yul\":10556:10737   */\n    tag_462:\n        /* \"#utility.yul\":10696:10729   */\n      0x5265656e7472616e637947756172643a207265656e7472616e742063616c6c00\n        /* \"#utility.yul\":10692:10693   */\n      0x00\n        /* \"#utility.yul\":10684:10690   */\n      dup3\n        /* \"#utility.yul\":10680:10694   */\n      add\n        /* \"#utility.yul\":10673:10730   */\n      mstore\n        /* \"#utility.yul\":10556:10737   */\n      pop\n      jump\t// out\n        /* \"#utility.yul\":10743:11109   */\n    tag_463:\n        /* \"#utility.yul\":10885:10888   */\n      0x00\n        /* \"#utility.yul\":10906:10973   */\n      tag_644\n        /* \"#utility.yul\":10970:10972   */\n      0x1f\n        /* \"#utility.yul\":10965:10968   */\n      dup4\n        /* \"#utility.yul\":10906:10973   */\n      tag_461\n      jump\t// in\n    tag_644:\n        /* \"#utility.yul\":10899:10973   */\n      swap2\n      pop\n        /* \"#utility.yul\":10982:11075   */\n      tag_645\n        /* \"#utility.yul\":11071:11074   */\n      dup3\n        /* \"#utility.yul\":10982:11075   */\n      tag_462\n      jump\t// in\n    tag_645:\n        /* \"#utility.yul\":11100:11102   */\n      0x20\n        /* \"#utility.yul\":11095:11098   */\n      dup3\n        /* \"#utility.yul\":11091:11103   */\n      add\n        /* \"#utility.yul\":11084:11103   */\n      swap1\n      pop\n        /* \"#utility.yul\":10743:11109   */\n      swap2\n      swap1\n      pop\n      jump\t// out\n        /* \"#utility.yul\":11115:11534   */\n    tag_152:\n        /* \"#utility.yul\":11281:11285   */\n      0x00\n        /* \"#utility.yul\":11319:11321   */\n      0x20\n        /* \"#utility.yul\":11308:11317   */\n      dup3\n        /* \"#utility.yul\":11304:11322   */\n      add\n        /* \"#utility.yul\":11296:11322   */\n      swap1\n      pop\n        /* \"#utility.yul\":11368:11377   */\n      dup2\n        /* \"#utility.yul\":11362:11366   */\n      dup2\n        /* \"#utility.yul\":11358:11378   */\n      sub\n        /* \"#utility.yul\":11354:11355   */\n      0x00\n        /* \"#utility.yul\":11343:11352   */\n      dup4\n        /* \"#utility.yul\":11339:11356   */\n      add\n        /* \"#utility.yul\":11332:11379   */\n      mstore\n        /* \"#utility.yul\":11396:11527   */\n      tag_647\n        /* \"#utility.yul\":11522:11526   */\n      dup2\n        /* \"#utility.yul\":11396:11527   */\n      tag_463\n      jump\t// in\n    tag_647:\n        /* \"#utility.yul\":11388:11527   */\n      swap1\n      pop\n        /* \"#utility.yul\":11115:11534   */\n      swap2\n      swap1\n      pop\n      jump\t// out\n        /* \"#utility.yul\":11540:11683   */\n    tag_464:\n        /* \"#utility.yul\":11597:11602   */\n      0x00\n        /* \"#utility.yul\":11628:11634   */\n      dup2\n        /* \"#utility.yul\":11622:11635   */\n      mload\n        /* \"#utility.yul\":11613:11635   */\n      swap1\n      pop\n        /* \"#utility.yul\":11644:11677   */\n      tag_649\n        /* \"#utility.yul\":11671:11676   */\n      dup2\n        /* \"#utility.yul\":11644:11677   */\n      tag_445\n      jump\t// in\n    tag_649:\n        /* \"#utility.yul\":11540:11683   */\n      swap3\n      swap2\n      pop\n      pop\n      jump\t// out\n        /* \"#utility.yul\":11689:12040   */\n    tag_161:\n        /* \"#utility.yul\":11759:11765   */\n      0x00\n        /* \"#utility.yul\":11808:11810   */\n      0x20\n        /* \"#utility.yul\":11796:11805   */\n      dup3\n        /* \"#utility.yul\":11787:11794   */\n      dup5\n        /* \"#utility.yul\":11783:11806   */\n      sub\n        /* \"#utility.yul\":11779:11811   */\n      slt\n        /* \"#utility.yul\":11776:11895   */\n      iszero\n      tag_651\n      jumpi\n        /* \"#utility.yul\":11814:11893   */\n      tag_652\n      tag_438\n      jump\t// in\n    tag_652:\n        /* \"#utility.yul\":11776:11895   */\n    tag_651:\n        /* \"#utility.yul\":11934:11935   */\n      0x00\n        /* \"#utility.yul\":11959:12023   */\n      tag_653\n        /* \"#utility.yul\":12015:12022   */\n      dup5\n        /* \"#utility.yul\":12006:12012   */\n      dup3\n        /* \"#utility.yul\":11995:12004   */\n      dup6\n        /* \"#utility.yul\":11991:12013   */\n      add\n        /* \"#utility.yul\":11959:12023   */\n      tag_464\n      jump\t// in\n    tag_653:\n        /* \"#utility.yul\":11949:12023   */\n      swap2\n      pop\n        /* \"#utility.yul\":11905:12033   */\n      pop\n        /* \"#utility.yul\":11689:12040   */\n      swap3\n      swap2\n      pop\n      pop\n      jump\t// out\n        /* \"#utility.yul\":12046:12276   */\n    tag_465:\n        /* \"#utility.yul\":12186:12220   */\n      0x546f6b656e56657374696e673a206e6f7420656e6f7567682077697468647261\n        /* \"#utility.yul\":12182:12183   */\n      0x00\n        /* \"#utility.yul\":12174:12180   */\n      dup3\n        /* \"#utility.yul\":12170:12184   */\n      add\n        /* \"#utility.yul\":12163:12221   */\n      mstore\n        /* \"#utility.yul\":12255:12268   */\n      0x7761626c652066756e6473000000000000000000000000000000000000000000\n        /* \"#utility.yul\":12250:12252   */\n      0x20\n        /* \"#utility.yul\":12242:12248   */\n      dup3\n        /* \"#utility.yul\":12238:12253   */\n      add\n        /* \"#utility.yul\":12231:12269   */\n      mstore\n        /* \"#utility.yul\":12046:12276   */\n      pop\n      jump\t// out\n        /* \"#utility.yul\":12282:12648   */\n    tag_466:\n        /* \"#utility.yul\":12424:12427   */\n      0x00\n        /* \"#utility.yul\":12445:12512   */\n      tag_656\n        /* \"#utility.yul\":12509:12511   */\n      0x2b\n        /* \"#utility.yul\":12504:12507   */\n      dup4\n        /* \"#utility.yul\":12445:12512   */\n      tag_461\n      jump\t// in\n    tag_656:\n        /* \"#utility.yul\":12438:12512   */\n      swap2\n      pop\n        /* \"#utility.yul\":12521:12614   */\n      tag_657\n        /* \"#utility.yul\":12610:12613   */\n      dup3\n        /* \"#utility.yul\":12521:12614   */\n      tag_465\n      jump\t// in\n    tag_657:\n        /* \"#utility.yul\":12639:12641   */\n      0x40\n        /* \"#utility.yul\":12634:12637   */\n      dup3\n        /* \"#utility.yul\":12630:12642   */\n      add\n        /* \"#utility.yul\":12623:12642   */\n      swap1\n      pop\n        /* \"#utility.yul\":12282:12648   */\n      swap2\n      swap1\n      pop\n      jump\t// out\n        /* \"#utility.yul\":12654:13073   */\n    tag_164:\n        /* \"#utility.yul\":12820:12824   */\n      0x00\n        /* \"#utility.yul\":12858:12860   */\n      0x20\n        /* \"#utility.yul\":12847:12856   */\n      dup3\n        /* \"#utility.yul\":12843:12861   */\n      add\n        /* \"#utility.yul\":12835:12861   */\n      swap1\n      pop\n        /* \"#utility.yul\":12907:12916   */\n      dup2\n        /* \"#utility.yul\":12901:12905   */\n      dup2\n        /* \"#utility.yul\":12897:12917   */\n      sub\n        /* \"#utility.yul\":12893:12894   */\n      0x00\n        /* \"#utility.yul\":12882:12891   */\n      dup4\n        /* \"#utility.yul\":12878:12895   */\n      add\n        /* \"#utility.yul\":12871:12918   */\n      mstore\n        /* \"#utility.yul\":12935:13066   */\n      tag_659\n        /* \"#utility.yul\":13061:13065   */\n      dup2\n        /* \"#utility.yul\":12935:13066   */\n      tag_466\n      jump\t// in\n    tag_659:\n        /* \"#utility.yul\":12927:13066   */\n      swap1\n      pop\n        /* \"#utility.yul\":12654:13073   */\n      swap2\n      swap1\n      pop\n      jump\t// out\n        /* \"#utility.yul\":13079:13369   */\n    tag_467:\n        /* \"#utility.yul\":13219:13253   */\n      0x546f6b656e56657374696e673a206f6e6c792062656e65666963696172792061\n        /* \"#utility.yul\":13215:13216   */\n      0x00\n        /* \"#utility.yul\":13207:13213   */\n      dup3\n        /* \"#utility.yul\":13203:13217   */\n      add\n        /* \"#utility.yul\":13196:13254   */\n      mstore\n        /* \"#utility.yul\":13288:13322   */\n      0x6e64206f776e65722063616e2072656c656173652076657374656420746f6b65\n        /* \"#utility.yul\":13283:13285   */\n      0x20\n        /* \"#utility.yul\":13275:13281   */\n      dup3\n        /* \"#utility.yul\":13271:13286   */\n      add\n        /* \"#utility.yul\":13264:13323   */\n      mstore\n        /* \"#utility.yul\":13357:13361   */\n      0x6e73000000000000000000000000000000000000000000000000000000000000\n        /* \"#utility.yul\":13352:13354   */\n      0x40\n        /* \"#utility.yul\":13344:13350   */\n      dup3\n        /* \"#utility.yul\":13340:13355   */\n      add\n        /* \"#utility.yul\":13333:13362   */\n      mstore\n        /* \"#utility.yul\":13079:13369   */\n      pop\n      jump\t// out\n        /* \"#utility.yul\":13375:13741   */\n    tag_468:\n        /* \"#utility.yul\":13517:13520   */\n      0x00\n        /* \"#utility.yul\":13538:13605   */\n      tag_662\n        /* \"#utility.yul\":13602:13604   */\n      0x42\n        /* \"#utility.yul\":13597:13600   */\n      dup4\n        /* \"#utility.yul\":13538:13605   */\n      tag_461\n      jump\t// in\n    tag_662:\n        /* \"#utility.yul\":13531:13605   */\n      swap2\n      pop\n        /* \"#utility.yul\":13614:13707   */\n      tag_663\n        /* \"#utility.yul\":13703:13706   */\n      dup3\n        /* \"#utility.yul\":13614:13707   */\n      tag_467\n      jump\t// in\n    tag_663:\n        /* \"#utility.yul\":13732:13734   */\n      0x60\n        /* \"#utility.yul\":13727:13730   */\n      dup3\n        /* \"#utility.yul\":13723:13735   */\n      add\n        /* \"#utility.yul\":13716:13735   */\n      swap1\n      pop\n        /* \"#utility.yul\":13375:13741   */\n      swap2\n      swap1\n      pop\n      jump\t// out\n        /* \"#utility.yul\":13747:14166   */\n    tag_181:\n        /* \"#utility.yul\":13913:13917   */\n      0x00\n        /* \"#utility.yul\":13951:13953   */\n      0x20\n        /* \"#utility.yul\":13940:13949   */\n      dup3\n        /* \"#utility.yul\":13936:13954   */\n      add\n        /* \"#utility.yul\":13928:13954   */\n      swap1\n      pop\n        /* \"#utility.yul\":14000:14009   */\n      dup2\n        /* \"#utility.yul\":13994:13998   */\n      dup2\n        /* \"#utility.yul\":13990:14010   */\n      sub\n        /* \"#utility.yul\":13986:13987   */\n      0x00\n        /* \"#utility.yul\":13975:13984   */\n      dup4\n        /* \"#utility.yul\":13971:13988   */\n      add\n        /* \"#utility.yul\":13964:14011   */\n      mstore\n        /* \"#utility.yul\":14028:14159   */\n      tag_665\n        /* \"#utility.yul\":14154:14158   */\n      dup2\n        /* \"#utility.yul\":14028:14159   */\n      tag_468\n      jump\t// in\n    tag_665:\n        /* \"#utility.yul\":14020:14159   */\n      swap1\n      pop\n        /* \"#utility.yul\":13747:14166   */\n      swap2\n      swap1\n      pop\n      jump\t// out\n        /* \"#utility.yul\":14172:14420   */\n    tag_469:\n        /* \"#utility.yul\":14312:14346   */\n      0x546f6b656e56657374696e673a2063616e6e6f742072656c6561736520746f6b\n        /* \"#utility.yul\":14308:14309   */\n      0x00\n        /* \"#utility.yul\":14300:14306   */\n      dup3\n        /* \"#utility.yul\":14296:14310   */\n      add\n        /* \"#utility.yul\":14289:14347   */\n      mstore\n        /* \"#utility.yul\":14381:14412   */\n      0x656e732c206e6f7420656e6f7567682076657374656420746f6b656e73000000\n        /* \"#utility.yul\":14376:14378   */\n      0x20\n        /* \"#utility.yul\":14368:14374   */\n      dup3\n        /* \"#utility.yul\":14364:14379   */\n      add\n        /* \"#utility.yul\":14357:14413   */\n      mstore\n        /* \"#utility.yul\":14172:14420   */\n      pop\n      jump\t// out\n        /* \"#utility.yul\":14426:14792   */\n    tag_470:\n        /* \"#utility.yul\":14568:14571   */\n      0x00\n        /* \"#utility.yul\":14589:14656   */\n      tag_668\n        /* \"#utility.yul\":14653:14655   */\n      0x3d\n        /* \"#utility.yul\":14648:14651   */\n      dup4\n        /* \"#utility.yul\":14589:14656   */\n      tag_461\n      jump\t// in\n    tag_668:\n        /* \"#utility.yul\":14582:14656   */\n      swap2\n      pop\n        /* \"#utility.yul\":14665:14758   */\n      tag_669\n        /* \"#utility.yul\":14754:14757   */\n      dup3\n        /* \"#utility.yul\":14665:14758   */\n      tag_469\n      jump\t// in\n    tag_669:\n        /* \"#utility.yul\":14783:14785   */\n      0x40\n        /* \"#utility.yul\":14778:14781   */\n      dup3\n        /* \"#utility.yul\":14774:14786   */\n      add\n        /* \"#utility.yul\":14767:14786   */\n      swap1\n      pop\n        /* \"#utility.yul\":14426:14792   */\n      swap2\n      swap1\n      pop\n      jump\t// out\n        /* \"#utility.yul\":14798:15217   */\n    tag_186:\n        /* \"#utility.yul\":14964:14968   */\n      0x00\n        /* \"#utility.yul\":15002:15004   */\n      0x20\n        /* \"#utility.yul\":14991:15000   */\n      dup3\n        /* \"#utility.yul\":14987:15005   */\n      add\n        /* \"#utility.yul\":14979:15005   */\n      swap1\n      pop\n        /* \"#utility.yul\":15051:15060   */\n      dup2\n        /* \"#utility.yul\":15045:15049   */\n      dup2\n        /* \"#utility.yul\":15041:15061   */\n      sub\n        /* \"#utility.yul\":15037:15038   */\n      0x00\n        /* \"#utility.yul\":15026:15035   */\n      dup4\n        /* \"#utility.yul\":15022:15039   */\n      add\n        /* \"#utility.yul\":15015:15062   */\n      mstore\n        /* \"#utility.yul\":15079:15210   */\n      tag_671\n        /* \"#utility.yul\":15205:15209   */\n      dup2\n        /* \"#utility.yul\":15079:15210   */\n      tag_470\n      jump\t// in\n    tag_671:\n        /* \"#utility.yul\":15071:15210   */\n      swap1\n      pop\n        /* \"#utility.yul\":14798:15217   */\n      swap2\n      swap1\n      pop\n      jump\t// out\n        /* \"#utility.yul\":15223:15456   */\n    tag_471:\n        /* \"#utility.yul\":15363:15397   */\n      0x496e697469616c697a61626c653a20636f6e747261637420697320616c726561\n        /* \"#utility.yul\":15359:15360   */\n      0x00\n        /* \"#utility.yul\":15351:15357   */\n      dup3\n        /* \"#utility.yul\":15347:15361   */\n      add\n        /* \"#utility.yul\":15340:15398   */\n      mstore\n        /* \"#utility.yul\":15432:15448   */\n      0x647920696e697469616c697a6564000000000000000000000000000000000000\n        /* \"#utility.yul\":15427:15429   */\n      0x20\n        /* \"#utility.yul\":15419:15425   */\n      dup3\n        /* \"#utility.yul\":15415:15430   */\n      add\n        /* \"#utility.yul\":15408:15449   */\n      mstore\n        /* \"#utility.yul\":15223:15456   */\n      pop\n      jump\t// out\n        /* \"#utility.yul\":15462:15828   */\n    tag_472:\n        /* \"#utility.yul\":15604:15607   */\n      0x00\n        /* \"#utility.yul\":15625:15692   */\n      tag_674\n        /* \"#utility.yul\":15689:15691   */\n      0x2e\n        /* \"#utility.yul\":15684:15687   */\n      dup4\n        /* \"#utility.yul\":15625:15692   */\n      tag_461\n      jump\t// in\n    tag_674:\n        /* \"#utility.yul\":15618:15692   */\n      swap2\n      pop\n        /* \"#utility.yul\":15701:15794   */\n      tag_675\n        /* \"#utility.yul\":15790:15793   */\n      dup3\n        /* \"#utility.yul\":15701:15794   */\n      tag_471\n      jump\t// in\n    tag_675:\n        /* \"#utility.yul\":15819:15821   */\n      0x40\n        /* \"#utility.yul\":15814:15817   */\n      dup3\n        /* \"#utility.yul\":15810:15822   */\n      add\n        /* \"#utility.yul\":15803:15822   */\n      swap1\n      pop\n        /* \"#utility.yul\":15462:15828   */\n      swap2\n      swap1\n      pop\n      jump\t// out\n        /* \"#utility.yul\":15834:16253   */\n    tag_205:\n        /* \"#utility.yul\":16000:16004   */\n      0x00\n        /* \"#utility.yul\":16038:16040   */\n      0x20\n        /* \"#utility.yul\":16027:16036   */\n      dup3\n        /* \"#utility.yul\":16023:16041   */\n      add\n        /* \"#utility.yul\":16015:16041   */\n      swap1\n      pop\n        /* \"#utility.yul\":16087:16096   */\n      dup2\n        /* \"#utility.yul\":16081:16085   */\n      dup2\n        /* \"#utility.yul\":16077:16097   */\n      sub\n        /* \"#utility.yul\":16073:16074   */\n      0x00\n        /* \"#utility.yul\":16062:16071   */\n      dup4\n        /* \"#utility.yul\":16058:16075   */\n      add\n        /* \"#utility.yul\":16051:16098   */\n      mstore\n        /* \"#utility.yul\":16115:16246   */\n      tag_677\n        /* \"#utility.yul\":16241:16245   */\n      dup2\n        /* \"#utility.yul\":16115:16246   */\n      tag_472\n      jump\t// in\n    tag_677:\n        /* \"#utility.yul\":16107:16246   */\n      swap1\n      pop\n        /* \"#utility.yul\":15834:16253   */\n      swap2\n      swap1\n      pop\n      jump\t// out\n        /* \"#utility.yul\":16259:16498   */\n    tag_473:\n        /* \"#utility.yul\":16399:16433   */\n      0x5447452050657263656e74206d7573742062652067726561746572207468616e\n        /* \"#utility.yul\":16395:16396   */\n      0x00\n        /* \"#utility.yul\":16387:16393   */\n      dup3\n        /* \"#utility.yul\":16383:16397   */\n      add\n        /* \"#utility.yul\":16376:16434   */\n      mstore\n        /* \"#utility.yul\":16468:16490   */\n      0x203020616e64204c657373207468616e20313030000000000000000000000000\n        /* \"#utility.yul\":16463:16465   */\n      0x20\n        /* \"#utility.yul\":16455:16461   */\n      dup3\n        /* \"#utility.yul\":16451:16466   */\n      add\n        /* \"#utility.yul\":16444:16491   */\n      mstore\n        /* \"#utility.yul\":16259:16498   */\n      pop\n      jump\t// out\n        /* \"#utility.yul\":16504:16870   */\n    tag_474:\n        /* \"#utility.yul\":16646:16649   */\n      0x00\n        /* \"#utility.yul\":16667:16734   */\n      tag_680\n        /* \"#utility.yul\":16731:16733   */\n      0x34\n        /* \"#utility.yul\":16726:16729   */\n      dup4\n        /* \"#utility.yul\":16667:16734   */\n      tag_461\n      jump\t// in\n    tag_680:\n        /* \"#utility.yul\":16660:16734   */\n      swap2\n      pop\n        /* \"#utility.yul\":16743:16836   */\n      tag_681\n        /* \"#utility.yul\":16832:16835   */\n      dup3\n        /* \"#utility.yul\":16743:16836   */\n      tag_473\n      jump\t// in\n    tag_681:\n        /* \"#utility.yul\":16861:16863   */\n      0x40\n        /* \"#utility.yul\":16856:16859   */\n      dup3\n        /* \"#utility.yul\":16852:16864   */\n      add\n        /* \"#utility.yul\":16845:16864   */\n      swap1\n      pop\n        /* \"#utility.yul\":16504:16870   */\n      swap2\n      swap1\n      pop\n      jump\t// out\n        /* \"#utility.yul\":16876:17295   */\n    tag_212:\n        /* \"#utility.yul\":17042:17046   */\n      0x00\n        /* \"#utility.yul\":17080:17082   */\n      0x20\n        /* \"#utility.yul\":17069:17078   */\n      dup3\n        /* \"#utility.yul\":17065:17083   */\n      add\n        /* \"#utility.yul\":17057:17083   */\n      swap1\n      pop\n        /* \"#utility.yul\":17129:17138   */\n      dup2\n        /* \"#utility.yul\":17123:17127   */\n      dup2\n        /* \"#utility.yul\":17119:17139   */\n      sub\n        /* \"#utility.yul\":17115:17116   */\n      0x00\n        /* \"#utility.yul\":17104:17113   */\n      dup4\n        /* \"#utility.yul\":17100:17117   */\n      add\n        /* \"#utility.yul\":17093:17140   */\n      mstore\n        /* \"#utility.yul\":17157:17288   */\n      tag_683\n        /* \"#utility.yul\":17283:17287   */\n      dup2\n        /* \"#utility.yul\":17157:17288   */\n      tag_474\n      jump\t// in\n    tag_683:\n        /* \"#utility.yul\":17149:17288   */\n      swap1\n      pop\n        /* \"#utility.yul\":16876:17295   */\n      swap2\n      swap1\n      pop\n      jump\t// out\n        /* \"#utility.yul\":17301:17386   */\n    tag_475:\n        /* \"#utility.yul\":17346:17353   */\n      0x00\n        /* \"#utility.yul\":17375:17380   */\n      dup2\n        /* \"#utility.yul\":17364:17380   */\n      swap1\n      pop\n        /* \"#utility.yul\":17301:17386   */\n      swap2\n      swap1\n      pop\n      jump\t// out\n        /* \"#utility.yul\":17392:17478   */\n    tag_476:\n        /* \"#utility.yul\":17427:17434   */\n      0x00\n        /* \"#utility.yul\":17467:17471   */\n      0xff\n        /* \"#utility.yul\":17460:17465   */\n      dup3\n        /* \"#utility.yul\":17456:17472   */\n      and\n        /* \"#utility.yul\":17445:17472   */\n      swap1\n      pop\n        /* \"#utility.yul\":17392:17478   */\n      swap2\n      swap1\n      pop\n      jump\t// out\n        /* \"#utility.yul\":17484:17544   */\n    tag_477:\n        /* \"#utility.yul\":17512:17515   */\n      0x00\n        /* \"#utility.yul\":17533:17538   */\n      dup2\n        /* \"#utility.yul\":17526:17538   */\n      swap1\n      pop\n        /* \"#utility.yul\":17484:17544   */\n      swap2\n      swap1\n      pop\n      jump\t// out\n        /* \"#utility.yul\":17550:17704   */\n    tag_478:\n        /* \"#utility.yul\":17606:17615   */\n      0x00\n        /* \"#utility.yul\":17639:17698   */\n      tag_688\n        /* \"#utility.yul\":17655:17697   */\n      tag_689\n        /* \"#utility.yul\":17664:17696   */\n      tag_690\n        /* \"#utility.yul\":17690:17695   */\n      dup5\n        /* \"#utility.yul\":17664:17696   */\n      tag_475\n      jump\t// in\n    tag_690:\n        /* \"#utility.yul\":17655:17697   */\n      tag_477\n      jump\t// in\n    tag_689:\n        /* \"#utility.yul\":17639:17698   */\n      tag_476\n      jump\t// in\n    tag_688:\n        /* \"#utility.yul\":17626:17698   */\n      swap1\n      pop\n        /* \"#utility.yul\":17550:17704   */\n      swap2\n      swap1\n      pop\n      jump\t// out\n        /* \"#utility.yul\":17710:17853   */\n    tag_479:\n        /* \"#utility.yul\":17803:17846   */\n      tag_692\n        /* \"#utility.yul\":17840:17845   */\n      dup2\n        /* \"#utility.yul\":17803:17846   */\n      tag_478\n      jump\t// in\n    tag_692:\n        /* \"#utility.yul\":17798:17801   */\n      dup3\n        /* \"#utility.yul\":17791:17847   */\n      mstore\n        /* \"#utility.yul\":17710:17853   */\n      pop\n      pop\n      jump\t// out\n        /* \"#utility.yul\":17859:18093   */\n    tag_219:\n        /* \"#utility.yul\":17958:17962   */\n      0x00\n        /* \"#utility.yul\":17996:17998   */\n      0x20\n        /* \"#utility.yul\":17985:17994   */\n      dup3\n        /* \"#utility.yul\":17981:17999   */\n      add\n        /* \"#utility.yul\":17973:17999   */\n      swap1\n      pop\n        /* \"#utility.yul\":18009:18086   */\n      tag_694\n        /* \"#utility.yul\":18083:18084   */\n      0x00\n        /* \"#utility.yul\":18072:18081   */\n      dup4\n        /* \"#utility.yul\":18068:18085   */\n      add\n        /* \"#utility.yul\":18059:18065   */\n      dup5\n        /* \"#utility.yul\":18009:18086   */\n      tag_479\n      jump\t// in\n    tag_694:\n        /* \"#utility.yul\":17859:18093   */\n      swap3\n      swap2\n      pop\n      pop\n      jump\t// out\n        /* \"#utility.yul\":18099:18258   */\n    tag_480:\n        /* \"#utility.yul\":18239:18250   */\n      0x4e6f204163636573730000000000000000000000000000000000000000000000\n        /* \"#utility.yul\":18235:18236   */\n      0x00\n        /* \"#utility.yul\":18227:18233   */\n      dup3\n        /* \"#utility.yul\":18223:18237   */\n      add\n        /* \"#utility.yul\":18216:18251   */\n      mstore\n        /* \"#utility.yul\":18099:18258   */\n      pop\n      jump\t// out\n        /* \"#utility.yul\":18264:18629   */\n    tag_481:\n        /* \"#utility.yul\":18406:18409   */\n      0x00\n        /* \"#utility.yul\":18427:18493   */\n      tag_697\n        /* \"#utility.yul\":18491:18492   */\n      0x09\n        /* \"#utility.yul\":18486:18489   */\n      dup4\n        /* \"#utility.yul\":18427:18493   */\n      tag_461\n      jump\t// in\n    tag_697:\n        /* \"#utility.yul\":18420:18493   */\n      swap2\n      pop\n        /* \"#utility.yul\":18502:18595   */\n      tag_698\n        /* \"#utility.yul\":18591:18594   */\n      dup3\n        /* \"#utility.yul\":18502:18595   */\n      tag_480\n      jump\t// in\n    tag_698:\n        /* \"#utility.yul\":18620:18622   */\n      0x20\n        /* \"#utility.yul\":18615:18618   */\n      dup3\n        /* \"#utility.yul\":18611:18623   */\n      add\n        /* \"#utility.yul\":18604:18623   */\n      swap1\n      pop\n        /* \"#utility.yul\":18264:18629   */\n      swap2\n      swap1\n      pop\n      jump\t// out\n        /* \"#utility.yul\":18635:19054   */\n    tag_225:\n        /* \"#utility.yul\":18801:18805   */\n      0x00\n        /* \"#utility.yul\":18839:18841   */\n      0x20\n        /* \"#utility.yul\":18828:18837   */\n      dup3\n        /* \"#utility.yul\":18824:18842   */\n      add\n        /* \"#utility.yul\":18816:18842   */\n      swap1\n      pop\n        /* \"#utility.yul\":18888:18897   */\n      dup2\n        /* \"#utility.yul\":18882:18886   */\n      dup2\n        /* \"#utility.yul\":18878:18898   */\n      sub\n        /* \"#utility.yul\":18874:18875   */\n      0x00\n        /* \"#utility.yul\":18863:18872   */\n      dup4\n        /* \"#utility.yul\":18859:18876   */\n      add\n        /* \"#utility.yul\":18852:18899   */\n      mstore\n        /* \"#utility.yul\":18916:19047   */\n      tag_700\n        /* \"#utility.yul\":19042:19046   */\n      dup2\n        /* \"#utility.yul\":18916:19047   */\n      tag_481\n      jump\t// in\n    tag_700:\n        /* \"#utility.yul\":18908:19047   */\n      swap1\n      pop\n        /* \"#utility.yul\":18635:19054   */\n      swap2\n      swap1\n      pop\n      jump\t// out\n        /* \"#utility.yul\":19060:19358   */\n    tag_482:\n        /* \"#utility.yul\":19200:19234   */\n      0x546f6b656e56657374696e673a2063616e6e6f74206372656174652076657374\n        /* \"#utility.yul\":19196:19197   */\n      0x00\n        /* \"#utility.yul\":19188:19194   */\n      dup3\n        /* \"#utility.yul\":19184:19198   */\n      add\n        /* \"#utility.yul\":19177:19235   */\n      mstore\n        /* \"#utility.yul\":19269:19303   */\n      0x696e67207363686564756c652062656361757365206e6f742073756666696369\n        /* \"#utility.yul\":19264:19266   */\n      0x20\n        /* \"#utility.yul\":19256:19262   */\n      dup3\n        /* \"#utility.yul\":19252:19267   */\n      add\n        /* \"#utility.yul\":19245:19304   */\n      mstore\n        /* \"#utility.yul\":19338:19350   */\n      0x656e7420746f6b656e7300000000000000000000000000000000000000000000\n        /* \"#utility.yul\":19333:19335   */\n      0x40\n        /* \"#utility.yul\":19325:19331   */\n      dup3\n        /* \"#utility.yul\":19321:19336   */\n      add\n        /* \"#utility.yul\":19314:19351   */\n      mstore\n        /* \"#utility.yul\":19060:19358   */\n      pop\n      jump\t// out\n        /* \"#utility.yul\":19364:19730   */\n    tag_483:\n        /* \"#utility.yul\":19506:19509   */\n      0x00\n        /* \"#utility.yul\":19527:19594   */\n      tag_703\n        /* \"#utility.yul\":19591:19593   */\n      0x4a\n        /* \"#utility.yul\":19586:19589   */\n      dup4\n        /* \"#utility.yul\":19527:19594   */\n      tag_461\n      jump\t// in\n    tag_703:\n        /* \"#utility.yul\":19520:19594   */\n      swap2\n      pop\n        /* \"#utility.yul\":19603:19696   */\n      tag_704\n        /* \"#utility.yul\":19692:19695   */\n      dup3\n        /* \"#utility.yul\":19603:19696   */\n      tag_482\n      jump\t// in\n    tag_704:\n        /* \"#utility.yul\":19721:19723   */\n      0x60\n        /* \"#utility.yul\":19716:19719   */\n      dup3\n        /* \"#utility.yul\":19712:19724   */\n      add\n        /* \"#utility.yul\":19705:19724   */\n      swap1\n      pop\n        /* \"#utility.yul\":19364:19730   */\n      swap2\n      swap1\n      pop\n      jump\t// out\n        /* \"#utility.yul\":19736:20155   */\n    tag_233:\n        /* \"#utility.yul\":19902:19906   */\n      0x00\n        /* \"#utility.yul\":19940:19942   */\n      0x20\n        /* \"#utility.yul\":19929:19938   */\n      dup3\n        /* \"#utility.yul\":19925:19943   */\n      add\n        /* \"#utility.yul\":19917:19943   */\n      swap1\n      pop\n        /* \"#utility.yul\":19989:19998   */\n      dup2\n        /* \"#utility.yul\":19983:19987   */\n      dup2\n        /* \"#utility.yul\":19979:19999   */\n      sub\n        /* \"#utility.yul\":19975:19976   */\n      0x00\n        /* \"#utility.yul\":19964:19973   */\n      dup4\n        /* \"#utility.yul\":19960:19977   */\n      add\n        /* \"#utility.yul\":19953:20000   */\n      mstore\n        /* \"#utility.yul\":20017:20148   */\n      tag_706\n        /* \"#utility.yul\":20143:20147   */\n      dup2\n        /* \"#utility.yul\":20017:20148   */\n      tag_483\n      jump\t// in\n    tag_706:\n        /* \"#utility.yul\":20009:20148   */\n      swap1\n      pop\n        /* \"#utility.yul\":19736:20155   */\n      swap2\n      swap1\n      pop\n      jump\t// out\n        /* \"#utility.yul\":20161:20382   */\n    tag_484:\n        /* \"#utility.yul\":20301:20335   */\n      0x546f6b656e56657374696e673a206475726174696f6e206d757374206265203e\n        /* \"#utility.yul\":20297:20298   */\n      0x00\n        /* \"#utility.yul\":20289:20295   */\n      dup3\n        /* \"#utility.yul\":20285:20299   */\n      add\n        /* \"#utility.yul\":20278:20336   */\n      mstore\n        /* \"#utility.yul\":20370:20374   */\n      0x2030000000000000000000000000000000000000000000000000000000000000\n        /* \"#utility.yul\":20365:20367   */\n      0x20\n        /* \"#utility.yul\":20357:20363   */\n      dup3\n        /* \"#utility.yul\":20353:20368   */\n      add\n        /* \"#utility.yul\":20346:20375   */\n      mstore\n        /* \"#utility.yul\":20161:20382   */\n      pop\n      jump\t// out\n        /* \"#utility.yul\":20388:20754   */\n    tag_485:\n        /* \"#utility.yul\":20530:20533   */\n      0x00\n        /* \"#utility.yul\":20551:20618   */\n      tag_709\n        /* \"#utility.yul\":20615:20617   */\n      0x22\n        /* \"#utility.yul\":20610:20613   */\n      dup4\n        /* \"#utility.yul\":20551:20618   */\n      tag_461\n      jump\t// in\n    tag_709:\n        /* \"#utility.yul\":20544:20618   */\n      swap2\n      pop\n        /* \"#utility.yul\":20627:20720   */\n      tag_710\n        /* \"#utility.yul\":20716:20719   */\n      dup3\n        /* \"#utility.yul\":20627:20720   */\n      tag_484\n      jump\t// in\n    tag_710:\n        /* \"#utility.yul\":20745:20747   */\n      0x40\n        /* \"#utility.yul\":20740:20743   */\n      dup3\n        /* \"#utility.yul\":20736:20748   */\n      add\n        /* \"#utility.yul\":20729:20748   */\n      swap1\n      pop\n        /* \"#utility.yul\":20388:20754   */\n      swap2\n      swap1\n      pop\n      jump\t// out\n        /* \"#utility.yul\":20760:21179   */\n    tag_236:\n        /* \"#utility.yul\":20926:20930   */\n      0x00\n        /* \"#utility.yul\":20964:20966   */\n      0x20\n        /* \"#utility.yul\":20953:20962   */\n      dup3\n        /* \"#utility.yul\":20949:20967   */\n      add\n        /* \"#utility.yul\":20941:20967   */\n      swap1\n      pop\n        /* \"#utility.yul\":21013:21022   */\n      dup2\n        /* \"#utility.yul\":21007:21011   */\n      dup2\n        /* \"#utility.yul\":21003:21023   */\n      sub\n        /* \"#utility.yul\":20999:21000   */\n      0x00\n        /* \"#utility.yul\":20988:20997   */\n      dup4\n        /* \"#utility.yul\":20984:21001   */\n      add\n        /* \"#utility.yul\":20977:21024   */\n      mstore\n        /* \"#utility.yul\":21041:21172   */\n      tag_712\n        /* \"#utility.yul\":21167:21171   */\n      dup2\n        /* \"#utility.yul\":21041:21172   */\n      tag_485\n      jump\t// in\n    tag_712:\n        /* \"#utility.yul\":21033:21172   */\n      swap1\n      pop\n        /* \"#utility.yul\":20760:21179   */\n      swap2\n      swap1\n      pop\n      jump\t// out\n        /* \"#utility.yul\":21185:21367   */\n    tag_486:\n        /* \"#utility.yul\":21325:21359   */\n      0x546f6b656e56657374696e673a20616d6f756e74206d757374206265203e2030\n        /* \"#utility.yul\":21321:21322   */\n      0x00\n        /* \"#utility.yul\":21313:21319   */\n      dup3\n        /* \"#utility.yul\":21309:21323   */\n      add\n        /* \"#utility.yul\":21302:21360   */\n      mstore\n        /* \"#utility.yul\":21185:21367   */\n      pop\n      jump\t// out\n        /* \"#utility.yul\":21373:21739   */\n    tag_487:\n        /* \"#utility.yul\":21515:21518   */\n      0x00\n        /* \"#utility.yul\":21536:21603   */\n      tag_715\n        /* \"#utility.yul\":21600:21602   */\n      0x20\n        /* \"#utility.yul\":21595:21598   */\n      dup4\n        /* \"#utility.yul\":21536:21603   */\n      tag_461\n      jump\t// in\n    tag_715:\n        /* \"#utility.yul\":21529:21603   */\n      swap2\n      pop\n        /* \"#utility.yul\":21612:21705   */\n      tag_716\n        /* \"#utility.yul\":21701:21704   */\n      dup3\n        /* \"#utility.yul\":21612:21705   */\n      tag_486\n      jump\t// in\n    tag_716:\n        /* \"#utility.yul\":21730:21732   */\n      0x20\n        /* \"#utility.yul\":21725:21728   */\n      dup3\n        /* \"#utility.yul\":21721:21733   */\n      add\n        /* \"#utility.yul\":21714:21733   */\n      swap1\n      pop\n        /* \"#utility.yul\":21373:21739   */\n      swap2\n      swap1\n      pop\n      jump\t// out\n        /* \"#utility.yul\":21745:22164   */\n    tag_239:\n        /* \"#utility.yul\":21911:21915   */\n      0x00\n        /* \"#utility.yul\":21949:21951   */\n      0x20\n        /* \"#utility.yul\":21938:21947   */\n      dup3\n        /* \"#utility.yul\":21934:21952   */\n      add\n        /* \"#utility.yul\":21926:21952   */\n      swap1\n      pop\n        /* \"#utility.yul\":21998:22007   */\n      dup2\n        /* \"#utility.yul\":21992:21996   */\n      dup2\n        /* \"#utility.yul\":21988:22008   */\n      sub\n        /* \"#utility.yul\":21984:21985   */\n      0x00\n        /* \"#utility.yul\":21973:21982   */\n      dup4\n        /* \"#utility.yul\":21969:21986   */\n      add\n        /* \"#utility.yul\":21962:22009   */\n      mstore\n        /* \"#utility.yul\":22026:22157   */\n      tag_718\n        /* \"#utility.yul\":22152:22156   */\n      dup2\n        /* \"#utility.yul\":22026:22157   */\n      tag_487\n      jump\t// in\n    tag_718:\n        /* \"#utility.yul\":22018:22157   */\n      swap1\n      pop\n        /* \"#utility.yul\":21745:22164   */\n      swap2\n      swap1\n      pop\n      jump\t// out\n        /* \"#utility.yul\":22170:22402   */\n    tag_488:\n        /* \"#utility.yul\":22310:22344   */\n      0x546f6b656e56657374696e673a20736c696365506572696f645365636f6e6473\n        /* \"#utility.yul\":22306:22307   */\n      0x00\n        /* \"#utility.yul\":22298:22304   */\n      dup3\n        /* \"#utility.yul\":22294:22308   */\n      add\n        /* \"#utility.yul\":22287:22345   */\n      mstore\n        /* \"#utility.yul\":22379:22394   */\n      0x206d757374206265203e3d203100000000000000000000000000000000000000\n        /* \"#utility.yul\":22374:22376   */\n      0x20\n        /* \"#utility.yul\":22366:22372   */\n      dup3\n        /* \"#utility.yul\":22362:22377   */\n      add\n        /* \"#utility.yul\":22355:22395   */\n      mstore\n        /* \"#utility.yul\":22170:22402   */\n      pop\n      jump\t// out\n        /* \"#utility.yul\":22408:22774   */\n    tag_489:\n        /* \"#utility.yul\":22550:22553   */\n      0x00\n        /* \"#utility.yul\":22571:22638   */\n      tag_721\n        /* \"#utility.yul\":22635:22637   */\n      0x2d\n        /* \"#utility.yul\":22630:22633   */\n      dup4\n        /* \"#utility.yul\":22571:22638   */\n      tag_461\n      jump\t// in\n    tag_721:\n        /* \"#utility.yul\":22564:22638   */\n      swap2\n      pop\n        /* \"#utility.yul\":22647:22740   */\n      tag_722\n        /* \"#utility.yul\":22736:22739   */\n      dup3\n        /* \"#utility.yul\":22647:22740   */\n      tag_488\n      jump\t// in\n    tag_722:\n        /* \"#utility.yul\":22765:22767   */\n      0x40\n        /* \"#utility.yul\":22760:22763   */\n      dup3\n        /* \"#utility.yul\":22756:22768   */\n      add\n        /* \"#utility.yul\":22749:22768   */\n      swap1\n      pop\n        /* \"#utility.yul\":22408:22774   */\n      swap2\n      swap1\n      pop\n      jump\t// out\n        /* \"#utility.yul\":22780:23199   */\n    tag_242:\n        /* \"#utility.yul\":22946:22950   */\n      0x00\n        /* \"#utility.yul\":22984:22986   */\n      0x20\n        /* \"#utility.yul\":22973:22982   */\n      dup3\n        /* \"#utility.yul\":22969:22987   */\n      add\n        /* \"#utility.yul\":22961:22987   */\n      swap1\n      pop\n        /* \"#utility.yul\":23033:23042   */\n      dup2\n        /* \"#utility.yul\":23027:23031   */\n      dup2\n        /* \"#utility.yul\":23023:23043   */\n      sub\n        /* \"#utility.yul\":23019:23020   */\n      0x00\n        /* \"#utility.yul\":23008:23017   */\n      dup4\n        /* \"#utility.yul\":23004:23021   */\n      add\n        /* \"#utility.yul\":22997:23044   */\n      mstore\n        /* \"#utility.yul\":23061:23192   */\n      tag_724\n        /* \"#utility.yul\":23187:23191   */\n      dup2\n        /* \"#utility.yul\":23061:23192   */\n      tag_489\n      jump\t// in\n    tag_724:\n        /* \"#utility.yul\":23053:23192   */\n      swap1\n      pop\n        /* \"#utility.yul\":22780:23199   */\n      swap2\n      swap1\n      pop\n      jump\t// out\n        /* \"#utility.yul\":23205:23348   */\n    tag_490:\n        /* \"#utility.yul\":23262:23267   */\n      0x00\n        /* \"#utility.yul\":23293:23299   */\n      dup2\n        /* \"#utility.yul\":23287:23300   */\n      mload\n        /* \"#utility.yul\":23278:23300   */\n      swap1\n      pop\n        /* \"#utility.yul\":23309:23342   */\n      tag_726\n        /* \"#utility.yul\":23336:23341   */\n      dup2\n        /* \"#utility.yul\":23309:23342   */\n      tag_448\n      jump\t// in\n    tag_726:\n        /* \"#utility.yul\":23205:23348   */\n      swap3\n      swap2\n      pop\n      pop\n      jump\t// out\n        /* \"#utility.yul\":23354:23705   */\n    tag_248:\n        /* \"#utility.yul\":23424:23430   */\n      0x00\n        /* \"#utility.yul\":23473:23475   */\n      0x20\n        /* \"#utility.yul\":23461:23470   */\n      dup3\n        /* \"#utility.yul\":23452:23459   */\n      dup5\n        /* \"#utility.yul\":23448:23471   */\n      sub\n        /* \"#utility.yul\":23444:23476   */\n      slt\n        /* \"#utility.yul\":23441:23560   */\n      iszero\n      tag_728\n      jumpi\n        /* \"#utility.yul\":23479:23558   */\n      tag_729\n      tag_438\n      jump\t// in\n    tag_729:\n        /* \"#utility.yul\":23441:23560   */\n    tag_728:\n        /* \"#utility.yul\":23599:23600   */\n      0x00\n        /* \"#utility.yul\":23624:23688   */\n      tag_730\n        /* \"#utility.yul\":23680:23687   */\n      dup5\n        /* \"#utility.yul\":23671:23677   */\n      dup3\n        /* \"#utility.yul\":23660:23669   */\n      dup6\n        /* \"#utility.yul\":23656:23678   */\n      add\n        /* \"#utility.yul\":23624:23688   */\n      tag_490\n      jump\t// in\n    tag_730:\n        /* \"#utility.yul\":23614:23688   */\n      swap2\n      pop\n        /* \"#utility.yul\":23570:23698   */\n      pop\n        /* \"#utility.yul\":23354:23705   */\n      swap3\n      swap2\n      pop\n      pop\n      jump\t// out\n        /* \"#utility.yul\":23711:23891   */\n    tag_491:\n        /* \"#utility.yul\":23759:23836   */\n      0x4e487b7100000000000000000000000000000000000000000000000000000000\n        /* \"#utility.yul\":23756:23757   */\n      0x00\n        /* \"#utility.yul\":23749:23837   */\n      mstore\n        /* \"#utility.yul\":23856:23860   */\n      0x11\n        /* \"#utility.yul\":23853:23854   */\n      0x04\n        /* \"#utility.yul\":23846:23861   */\n      mstore\n        /* \"#utility.yul\":23880:23884   */\n      0x24\n        /* \"#utility.yul\":23877:23878   */\n      0x00\n        /* \"#utility.yul\":23870:23885   */\n      revert\n        /* \"#utility.yul\":23897:24088   */\n    tag_265:\n        /* \"#utility.yul\":23937:23941   */\n      0x00\n        /* \"#utility.yul\":23957:23977   */\n      tag_733\n        /* \"#utility.yul\":23975:23976   */\n      dup3\n        /* \"#utility.yul\":23957:23977   */\n      tag_435\n      jump\t// in\n    tag_733:\n        /* \"#utility.yul\":23952:23977   */\n      swap2\n      pop\n        /* \"#utility.yul\":23991:24011   */\n      tag_734\n        /* \"#utility.yul\":24009:24010   */\n      dup4\n        /* \"#utility.yul\":23991:24011   */\n      tag_435\n      jump\t// in\n    tag_734:\n        /* \"#utility.yul\":23986:24011   */\n      swap3\n      pop\n        /* \"#utility.yul\":24030:24031   */\n      dup3\n        /* \"#utility.yul\":24027:24028   */\n      dup3\n        /* \"#utility.yul\":24024:24032   */\n      lt\n        /* \"#utility.yul\":24021:24055   */\n      iszero\n      tag_735\n      jumpi\n        /* \"#utility.yul\":24035:24053   */\n      tag_736\n      tag_491\n      jump\t// in\n    tag_736:\n        /* \"#utility.yul\":24021:24055   */\n    tag_735:\n        /* \"#utility.yul\":24080:24081   */\n      dup3\n        /* \"#utility.yul\":24077:24078   */\n      dup3\n        /* \"#utility.yul\":24073:24082   */\n      sub\n        /* \"#utility.yul\":24065:24082   */\n      swap1\n      pop\n        /* \"#utility.yul\":23897:24088   */\n      swap3\n      swap2\n      pop\n      pop\n      jump\t// out\n        /* \"#utility.yul\":24094:24188   */\n    tag_492:\n        /* \"#utility.yul\":24127:24135   */\n      0x00\n        /* \"#utility.yul\":24175:24180   */\n      dup2\n        /* \"#utility.yul\":24171:24173   */\n      0x60\n        /* \"#utility.yul\":24167:24181   */\n      shl\n        /* \"#utility.yul\":24146:24181   */\n      swap1\n      pop\n        /* \"#utility.yul\":24094:24188   */\n      swap2\n      swap1\n      pop\n      jump\t// out\n        /* \"#utility.yul\":24194:24288   */\n    tag_493:\n        /* \"#utility.yul\":24233:24240   */\n      0x00\n        /* \"#utility.yul\":24262:24282   */\n      tag_739\n        /* \"#utility.yul\":24276:24281   */\n      dup3\n        /* \"#utility.yul\":24262:24282   */\n      tag_492\n      jump\t// in\n    tag_739:\n        /* \"#utility.yul\":24251:24282   */\n      swap1\n      pop\n        /* \"#utility.yul\":24194:24288   */\n      swap2\n      swap1\n      pop\n      jump\t// out\n        /* \"#utility.yul\":24294:24394   */\n    tag_494:\n        /* \"#utility.yul\":24333:24340   */\n      0x00\n        /* \"#utility.yul\":24362:24388   */\n      tag_741\n        /* \"#utility.yul\":24382:24387   */\n      dup3\n        /* \"#utility.yul\":24362:24388   */\n      tag_493\n      jump\t// in\n    tag_741:\n        /* \"#utility.yul\":24351:24388   */\n      swap1\n      pop\n        /* \"#utility.yul\":24294:24394   */\n      swap2\n      swap1\n      pop\n      jump\t// out\n        /* \"#utility.yul\":24400:24557   */\n    tag_495:\n        /* \"#utility.yul\":24505:24550   */\n      tag_743\n        /* \"#utility.yul\":24525:24549   */\n      tag_744\n        /* \"#utility.yul\":24543:24548   */\n      dup3\n        /* \"#utility.yul\":24525:24549   */\n      tag_441\n      jump\t// in\n    tag_744:\n        /* \"#utility.yul\":24505:24550   */\n      tag_494\n      jump\t// in\n    tag_743:\n        /* \"#utility.yul\":24500:24503   */\n      dup3\n        /* \"#utility.yul\":24493:24551   */\n      mstore\n        /* \"#utility.yul\":24400:24557   */\n      pop\n      pop\n      jump\t// out\n        /* \"#utility.yul\":24563:24642   */\n    tag_496:\n        /* \"#utility.yul\":24602:24609   */\n      0x00\n        /* \"#utility.yul\":24631:24636   */\n      dup2\n        /* \"#utility.yul\":24620:24636   */\n      swap1\n      pop\n        /* \"#utility.yul\":24563:24642   */\n      swap2\n      swap1\n      pop\n      jump\t// out\n        /* \"#utility.yul\":24648:24805   */\n    tag_497:\n        /* \"#utility.yul\":24753:24798   */\n      tag_747\n        /* \"#utility.yul\":24773:24797   */\n      tag_748\n        /* \"#utility.yul\":24791:24796   */\n      dup3\n        /* \"#utility.yul\":24773:24797   */\n      tag_435\n      jump\t// in\n    tag_748:\n        /* \"#utility.yul\":24753:24798   */\n      tag_496\n      jump\t// in\n    tag_747:\n        /* \"#utility.yul\":24748:24751   */\n      dup3\n        /* \"#utility.yul\":24741:24799   */\n      mstore\n        /* \"#utility.yul\":24648:24805   */\n      pop\n      pop\n      jump\t// out\n        /* \"#utility.yul\":24811:25208   */\n    tag_268:\n        /* \"#utility.yul\":24951:24954   */\n      0x00\n        /* \"#utility.yul\":24966:25041   */\n      tag_750\n        /* \"#utility.yul\":25037:25040   */\n      dup3\n        /* \"#utility.yul\":25028:25034   */\n      dup6\n        /* \"#utility.yul\":24966:25041   */\n      tag_495\n      jump\t// in\n    tag_750:\n        /* \"#utility.yul\":25066:25068   */\n      0x14\n        /* \"#utility.yul\":25061:25064   */\n      dup3\n        /* \"#utility.yul\":25057:25069   */\n      add\n        /* \"#utility.yul\":25050:25069   */\n      swap2\n      pop\n        /* \"#utility.yul\":25079:25154   */\n      tag_751\n        /* \"#utility.yul\":25150:25153   */\n      dup3\n        /* \"#utility.yul\":25141:25147   */\n      dup5\n        /* \"#utility.yul\":25079:25154   */\n      tag_497\n      jump\t// in\n    tag_751:\n        /* \"#utility.yul\":25179:25181   */\n      0x20\n        /* \"#utility.yul\":25174:25177   */\n      dup3\n        /* \"#utility.yul\":25170:25182   */\n      add\n        /* \"#utility.yul\":25163:25182   */\n      swap2\n      pop\n        /* \"#utility.yul\":25199:25202   */\n      dup2\n        /* \"#utility.yul\":25192:25202   */\n      swap1\n      pop\n        /* \"#utility.yul\":24811:25208   */\n      swap4\n      swap3\n      pop\n      pop\n      pop\n      jump\t// out\n        /* \"#utility.yul\":25214:25439   */\n    tag_498:\n        /* \"#utility.yul\":25354:25388   */\n      0x546f6b656e56657374696e673a2076657374696e67206973206e6f7420726576\n        /* \"#utility.yul\":25350:25351   */\n      0x00\n        /* \"#utility.yul\":25342:25348   */\n      dup3\n        /* \"#utility.yul\":25338:25352   */\n      add\n        /* \"#utility.yul\":25331:25389   */\n      mstore\n        /* \"#utility.yul\":25423:25431   */\n      0x6f6361626c650000000000000000000000000000000000000000000000000000\n        /* \"#utility.yul\":25418:25420   */\n      0x20\n        /* \"#utility.yul\":25410:25416   */\n      dup3\n        /* \"#utility.yul\":25406:25421   */\n      add\n        /* \"#utility.yul\":25399:25432   */\n      mstore\n        /* \"#utility.yul\":25214:25439   */\n      pop\n      jump\t// out\n        /* \"#utility.yul\":25445:25811   */\n    tag_499:\n        /* \"#utility.yul\":25587:25590   */\n      0x00\n        /* \"#utility.yul\":25608:25675   */\n      tag_754\n        /* \"#utility.yul\":25672:25674   */\n      0x26\n        /* \"#utility.yul\":25667:25670   */\n      dup4\n        /* \"#utility.yul\":25608:25675   */\n      tag_461\n      jump\t// in\n    tag_754:\n        /* \"#utility.yul\":25601:25675   */\n      swap2\n      pop\n        /* \"#utility.yul\":25684:25777   */\n      tag_755\n        /* \"#utility.yul\":25773:25776   */\n      dup3\n        /* \"#utility.yul\":25684:25777   */\n      tag_498\n      jump\t// in\n    tag_755:\n        /* \"#utility.yul\":25802:25804   */\n      0x40\n        /* \"#utility.yul\":25797:25800   */\n      dup3\n        /* \"#utility.yul\":25793:25805   */\n      add\n        /* \"#utility.yul\":25786:25805   */\n      swap1\n      pop\n        /* \"#utility.yul\":25445:25811   */\n      swap2\n      swap1\n      pop\n      jump\t// out\n        /* \"#utility.yul\":25817:26236   */\n    tag_287:\n        /* \"#utility.yul\":25983:25987   */\n      0x00\n        /* \"#utility.yul\":26021:26023   */\n      0x20\n        /* \"#utility.yul\":26010:26019   */\n      dup3\n        /* \"#utility.yul\":26006:26024   */\n      add\n        /* \"#utility.yul\":25998:26024   */\n      swap1\n      pop\n        /* \"#utility.yul\":26070:26079   */\n      dup2\n        /* \"#utility.yul\":26064:26068   */\n      dup2\n        /* \"#utility.yul\":26060:26080   */\n      sub\n        /* \"#utility.yul\":26056:26057   */\n      0x00\n        /* \"#utility.yul\":26045:26054   */\n      dup4\n        /* \"#utility.yul\":26041:26058   */\n      add\n        /* \"#utility.yul\":26034:26081   */\n      mstore\n        /* \"#utility.yul\":26098:26229   */\n      tag_757\n        /* \"#utility.yul\":26224:26228   */\n      dup2\n        /* \"#utility.yul\":26098:26229   */\n      tag_499\n      jump\t// in\n    tag_757:\n        /* \"#utility.yul\":26090:26229   */\n      swap1\n      pop\n        /* \"#utility.yul\":25817:26236   */\n      swap2\n      swap1\n      pop\n      jump\t// out\n        /* \"#utility.yul\":26242:26547   */\n    tag_295:\n        /* \"#utility.yul\":26282:26285   */\n      0x00\n        /* \"#utility.yul\":26301:26321   */\n      tag_759\n        /* \"#utility.yul\":26319:26320   */\n      dup3\n        /* \"#utility.yul\":26301:26321   */\n      tag_435\n      jump\t// in\n    tag_759:\n        /* \"#utility.yul\":26296:26321   */\n      swap2\n      pop\n        /* \"#utility.yul\":26335:26355   */\n      tag_760\n        /* \"#utility.yul\":26353:26354   */\n      dup4\n        /* \"#utility.yul\":26335:26355   */\n      tag_435\n      jump\t// in\n    tag_760:\n        /* \"#utility.yul\":26330:26355   */\n      swap3\n      pop\n        /* \"#utility.yul\":26489:26490   */\n      dup3\n        /* \"#utility.yul\":26421:26487   */\n      0xffffffffffffffffffffffffffffffffffffffffffffffffffffffffffffffff\n        /* \"#utility.yul\":26417:26491   */\n      sub\n        /* \"#utility.yul\":26414:26415   */\n      dup3\n        /* \"#utility.yul\":26411:26492   */\n      gt\n        /* \"#utility.yul\":26408:26515   */\n      iszero\n      tag_761\n      jumpi\n        /* \"#utility.yul\":26495:26513   */\n      tag_762\n      tag_491\n      jump\t// in\n    tag_762:\n        /* \"#utility.yul\":26408:26515   */\n    tag_761:\n        /* \"#utility.yul\":26539:26540   */\n      dup3\n        /* \"#utility.yul\":26536:26537   */\n      dup3\n        /* \"#utility.yul\":26532:26541   */\n      add\n        /* \"#utility.yul\":26525:26541   */\n      swap1\n      pop\n        /* \"#utility.yul\":26242:26547   */\n      swap3\n      swap2\n      pop\n      pop\n      jump\t// out\n        /* \"#utility.yul\":26553:26778   */\n    tag_500:\n        /* \"#utility.yul\":26693:26727   */\n      0x4f776e61626c653a206e6577206f776e657220697320746865207a65726f2061\n        /* \"#utility.yul\":26689:26690   */\n      0x00\n        /* \"#utility.yul\":26681:26687   */\n      dup3\n        /* \"#utility.yul\":26677:26691   */\n      add\n        /* \"#utility.yul\":26670:26728   */\n      mstore\n        /* \"#utility.yul\":26762:26770   */\n      0x6464726573730000000000000000000000000000000000000000000000000000\n        /* \"#utility.yul\":26757:26759   */\n      0x20\n        /* \"#utility.yul\":26749:26755   */\n      dup3\n        /* \"#utility.yul\":26745:26760   */\n      add\n        /* \"#utility.yul\":26738:26771   */\n      mstore\n        /* \"#utility.yul\":26553:26778   */\n      pop\n      jump\t// out\n        /* \"#utility.yul\":26784:27150   */\n    tag_501:\n        /* \"#utility.yul\":26926:26929   */\n      0x00\n        /* \"#utility.yul\":26947:27014   */\n      tag_765\n        /* \"#utility.yul\":27011:27013   */\n      0x26\n        /* \"#utility.yul\":27006:27009   */\n      dup4\n        /* \"#utility.yul\":26947:27014   */\n      tag_461\n      jump\t// in\n    tag_765:\n        /* \"#utility.yul\":26940:27014   */\n      swap2\n      pop\n        /* \"#utility.yul\":27023:27116   */\n      tag_766\n        /* \"#utility.yul\":27112:27115   */\n      dup3\n        /* \"#utility.yul\":27023:27116   */\n      tag_500\n      jump\t// in\n    tag_766:\n        /* \"#utility.yul\":27141:27143   */\n      0x40\n        /* \"#utility.yul\":27136:27139   */\n      dup3\n        /* \"#utility.yul\":27132:27144   */\n      add\n        /* \"#utility.yul\":27125:27144   */\n      swap1\n      pop\n        /* \"#utility.yul\":26784:27150   */\n      swap2\n      swap1\n      pop\n      jump\t// out\n        /* \"#utility.yul\":27156:27575   */\n    tag_307:\n        /* \"#utility.yul\":27322:27326   */\n      0x00\n        /* \"#utility.yul\":27360:27362   */\n      0x20\n        /* \"#utility.yul\":27349:27358   */\n      dup3\n        /* \"#utility.yul\":27345:27363   */\n      add\n        /* \"#utility.yul\":27337:27363   */\n      swap1\n      pop\n        /* \"#utility.yul\":27409:27418   */\n      dup2\n        /* \"#utility.yul\":27403:27407   */\n      dup2\n        /* \"#utility.yul\":27399:27419   */\n      sub\n        /* \"#utility.yul\":27395:27396   */\n      0x00\n        /* \"#utility.yul\":27384:27393   */\n      dup4\n        /* \"#utility.yul\":27380:27397   */\n      add\n        /* \"#utility.yul\":27373:27420   */\n      mstore\n        /* \"#utility.yul\":27437:27568   */\n      tag_768\n        /* \"#utility.yul\":27563:27567   */\n      dup2\n        /* \"#utility.yul\":27437:27568   */\n      tag_501\n      jump\t// in\n    tag_768:\n        /* \"#utility.yul\":27429:27568   */\n      swap1\n      pop\n        /* \"#utility.yul\":27156:27575   */\n      swap2\n      swap1\n      pop\n      jump\t// out\n        /* \"#utility.yul\":27581:27801   */\n    tag_502:\n        /* \"#utility.yul\":27721:27755   */\n      0x546f6b656e56657374696e673a20696e646578206f7574206f6620626f756e64\n        /* \"#utility.yul\":27717:27718   */\n      0x00\n        /* \"#utility.yul\":27709:27715   */\n      dup3\n        /* \"#utility.yul\":27705:27719   */\n      add\n        /* \"#utility.yul\":27698:27756   */\n      mstore\n        /* \"#utility.yul\":27790:27793   */\n      0x7300000000000000000000000000000000000000000000000000000000000000\n        /* \"#utility.yul\":27785:27787   */\n      0x20\n        /* \"#utility.yul\":27777:27783   */\n      dup3\n        /* \"#utility.yul\":27773:27788   */\n      add\n        /* \"#utility.yul\":27766:27794   */\n      mstore\n        /* \"#utility.yul\":27581:27801   */\n      pop\n      jump\t// out\n        /* \"#utility.yul\":27807:28173   */\n    tag_503:\n        /* \"#utility.yul\":27949:27952   */\n      0x00\n        /* \"#utility.yul\":27970:28037   */\n      tag_771\n        /* \"#utility.yul\":28034:28036   */\n      0x21\n        /* \"#utility.yul\":28029:28032   */\n      dup4\n        /* \"#utility.yul\":27970:28037   */\n      tag_461\n      jump\t// in\n    tag_771:\n        /* \"#utility.yul\":27963:28037   */\n      swap2\n      pop\n        /* \"#utility.yul\":28046:28139   */\n      tag_772\n        /* \"#utility.yul\":28135:28138   */\n      dup3\n        /* \"#utility.yul\":28046:28139   */\n      tag_502\n      jump\t// in\n    tag_772:\n        /* \"#utility.yul\":28164:28166   */\n      0x40\n        /* \"#utility.yul\":28159:28162   */\n      dup3\n        /* \"#utility.yul\":28155:28167   */\n      add\n        /* \"#utility.yul\":28148:28167   */\n      swap1\n      pop\n        /* \"#utility.yul\":27807:28173   */\n      swap2\n      swap1\n      pop\n      jump\t// out\n        /* \"#utility.yul\":28179:28598   */\n    tag_319:\n        /* \"#utility.yul\":28345:28349   */\n      0x00\n        /* \"#utility.yul\":28383:28385   */\n      0x20\n        /* \"#utility.yul\":28372:28381   */\n      dup3\n        /* \"#utility.yul\":28368:28386   */\n      add\n        /* \"#utility.yul\":28360:28386   */\n      swap1\n      pop\n        /* \"#utility.yul\":28432:28441   */\n      dup2\n        /* \"#utility.yul\":28426:28430   */\n      dup2\n        /* \"#utility.yul\":28422:28442   */\n      sub\n        /* \"#utility.yul\":28418:28419   */\n      0x00\n        /* \"#utility.yul\":28407:28416   */\n      dup4\n        /* \"#utility.yul\":28403:28420   */\n      add\n        /* \"#utility.yul\":28396:28443   */\n      mstore\n        /* \"#utility.yul\":28460:28591   */\n      tag_774\n        /* \"#utility.yul\":28586:28590   */\n      dup2\n        /* \"#utility.yul\":28460:28591   */\n      tag_503\n      jump\t// in\n    tag_774:\n        /* \"#utility.yul\":28452:28591   */\n      swap1\n      pop\n        /* \"#utility.yul\":28179:28598   */\n      swap2\n      swap1\n      pop\n      jump\t// out\n        /* \"#utility.yul\":28604:28784   */\n    tag_322:\n        /* \"#utility.yul\":28652:28729   */\n      0x4e487b7100000000000000000000000000000000000000000000000000000000\n        /* \"#utility.yul\":28649:28650   */\n      0x00\n        /* \"#utility.yul\":28642:28730   */\n      mstore\n        /* \"#utility.yul\":28749:28753   */\n      0x32\n        /* \"#utility.yul\":28746:28747   */\n      0x04\n        /* \"#utility.yul\":28739:28754   */\n      mstore\n        /* \"#utility.yul\":28773:28777   */\n      0x24\n        /* \"#utility.yul\":28770:28771   */\n      0x00\n        /* \"#utility.yul\":28763:28778   */\n      revert\n        /* \"#utility.yul\":28790:29033   */\n    tag_504:\n        /* \"#utility.yul\":28930:28964   */\n      0x52656c65617365546f6b656e41745447453a206f6e6c7920696e766573746f72\n        /* \"#utility.yul\":28926:28927   */\n      0x00\n        /* \"#utility.yul\":28918:28924   */\n      dup3\n        /* \"#utility.yul\":28914:28928   */\n      add\n        /* \"#utility.yul\":28907:28965   */\n      mstore\n        /* \"#utility.yul\":28999:29025   */\n      0x732063616e20636c61696d20746f6b656e206174205447450000000000000000\n        /* \"#utility.yul\":28994:28996   */\n      0x20\n        /* \"#utility.yul\":28986:28992   */\n      dup3\n        /* \"#utility.yul\":28982:28997   */\n      add\n        /* \"#utility.yul\":28975:29026   */\n      mstore\n        /* \"#utility.yul\":28790:29033   */\n      pop\n      jump\t// out\n        /* \"#utility.yul\":29039:29405   */\n    tag_505:\n        /* \"#utility.yul\":29181:29184   */\n      0x00\n        /* \"#utility.yul\":29202:29269   */\n      tag_778\n        /* \"#utility.yul\":29266:29268   */\n      0x38\n        /* \"#utility.yul\":29261:29264   */\n      dup4\n        /* \"#utility.yul\":29202:29269   */\n      tag_461\n      jump\t// in\n    tag_778:\n        /* \"#utility.yul\":29195:29269   */\n      swap2\n      pop\n        /* \"#utility.yul\":29278:29371   */\n      tag_779\n        /* \"#utility.yul\":29367:29370   */\n      dup3\n        /* \"#utility.yul\":29278:29371   */\n      tag_504\n      jump\t// in\n    tag_779:\n        /* \"#utility.yul\":29396:29398   */\n      0x40\n        /* \"#utility.yul\":29391:29394   */\n      dup3\n        /* \"#utility.yul\":29387:29399   */\n      add\n        /* \"#utility.yul\":29380:29399   */\n      swap1\n      pop\n        /* \"#utility.yul\":29039:29405   */\n      swap2\n      swap1\n      pop\n      jump\t// out\n        /* \"#utility.yul\":29411:29830   */\n    tag_334:\n        /* \"#utility.yul\":29577:29581   */\n      0x00\n        /* \"#utility.yul\":29615:29617   */\n      0x20\n        /* \"#utility.yul\":29604:29613   */\n      dup3\n        /* \"#utility.yul\":29600:29618   */\n      add\n        /* \"#utility.yul\":29592:29618   */\n      swap1\n      pop\n        /* \"#utility.yul\":29664:29673   */\n      dup2\n        /* \"#utility.yul\":29658:29662   */\n      dup2\n        /* \"#utility.yul\":29654:29674   */\n      sub\n        /* \"#utility.yul\":29650:29651   */\n      0x00\n        /* \"#utility.yul\":29639:29648   */\n      dup4\n        /* \"#utility.yul\":29635:29652   */\n      add\n        /* \"#utility.yul\":29628:29675   */\n      mstore\n        /* \"#utility.yul\":29692:29823   */\n      tag_781\n        /* \"#utility.yul\":29818:29822   */\n      dup2\n        /* \"#utility.yul\":29692:29823   */\n      tag_505\n      jump\t// in\n    tag_781:\n        /* \"#utility.yul\":29684:29823   */\n      swap1\n      pop\n        /* \"#utility.yul\":29411:29830   */\n      swap2\n      swap1\n      pop\n      jump\t// out\n        /* \"#utility.yul\":29836:30008   */\n    tag_506:\n        /* \"#utility.yul\":29976:30000   */\n      0x5447453a2074696d65206e6f7420726561636865642100000000000000000000\n        /* \"#utility.yul\":29972:29973   */\n      0x00\n        /* \"#utility.yul\":29964:29970   */\n      dup3\n        /* \"#utility.yul\":29960:29974   */\n      add\n        /* \"#utility.yul\":29953:30001   */\n      mstore\n        /* \"#utility.yul\":29836:30008   */\n      pop\n      jump\t// out\n        /* \"#utility.yul\":30014:30380   */\n    tag_507:\n        /* \"#utility.yul\":30156:30159   */\n      0x00\n        /* \"#utility.yul\":30177:30244   */\n      tag_784\n        /* \"#utility.yul\":30241:30243   */\n      0x16\n        /* \"#utility.yul\":30236:30239   */\n      dup4\n        /* \"#utility.yul\":30177:30244   */\n      tag_461\n      jump\t// in\n    tag_784:\n        /* \"#utility.yul\":30170:30244   */\n      swap2\n      pop\n        /* \"#utility.yul\":30253:30346   */\n      tag_785\n        /* \"#utility.yul\":30342:30345   */\n      dup3\n        /* \"#utility.yul\":30253:30346   */\n      tag_506\n      jump\t// in\n    tag_785:\n        /* \"#utility.yul\":30371:30373   */\n      0x20\n        /* \"#utility.yul\":30366:30369   */\n      dup3\n        /* \"#utility.yul\":30362:30374   */\n      add\n        /* \"#utility.yul\":30355:30374   */\n      swap1\n      pop\n        /* \"#utility.yul\":30014:30380   */\n      swap2\n      swap1\n      pop\n      jump\t// out\n        /* \"#utility.yul\":30386:30805   */\n    tag_338:\n        /* \"#utility.yul\":30552:30556   */\n      0x00\n        /* \"#utility.yul\":30590:30592   */\n      0x20\n        /* \"#utility.yul\":30579:30588   */\n      dup3\n        /* \"#utility.yul\":30575:30593   */\n      add\n        /* \"#utility.yul\":30567:30593   */\n      swap1\n      pop\n        /* \"#utility.yul\":30639:30648   */\n      dup2\n        /* \"#utility.yul\":30633:30637   */\n      dup2\n        /* \"#utility.yul\":30629:30649   */\n      sub\n        /* \"#utility.yul\":30625:30626   */\n      0x00\n        /* \"#utility.yul\":30614:30623   */\n      dup4\n        /* \"#utility.yul\":30610:30627   */\n      add\n        /* \"#utility.yul\":30603:30650   */\n      mstore\n        /* \"#utility.yul\":30667:30798   */\n      tag_787\n        /* \"#utility.yul\":30793:30797   */\n      dup2\n        /* \"#utility.yul\":30667:30798   */\n      tag_507\n      jump\t// in\n    tag_787:\n        /* \"#utility.yul\":30659:30798   */\n      swap1\n      pop\n        /* \"#utility.yul\":30386:30805   */\n      swap2\n      swap1\n      pop\n      jump\t// out\n        /* \"#utility.yul\":30811:30987   */\n    tag_508:\n        /* \"#utility.yul\":30951:30979   */\n      0x5447453a20546f6b656e20416c726561647920636c61696d6564000000000000\n        /* \"#utility.yul\":30947:30948   */\n      0x00\n        /* \"#utility.yul\":30939:30945   */\n      dup3\n        /* \"#utility.yul\":30935:30949   */\n      add\n        /* \"#utility.yul\":30928:30980   */\n      mstore\n        /* \"#utility.yul\":30811:30987   */\n      pop\n      jump\t// out\n        /* \"#utility.yul\":30993:31359   */\n    tag_509:\n        /* \"#utility.yul\":31135:31138   */\n      0x00\n        /* \"#utility.yul\":31156:31223   */\n      tag_790\n        /* \"#utility.yul\":31220:31222   */\n      0x1a\n        /* \"#utility.yul\":31215:31218   */\n      dup4\n        /* \"#utility.yul\":31156:31223   */\n      tag_461\n      jump\t// in\n    tag_790:\n        /* \"#utility.yul\":31149:31223   */\n      swap2\n      pop\n        /* \"#utility.yul\":31232:31325   */\n      tag_791\n        /* \"#utility.yul\":31321:31324   */\n      dup3\n        /* \"#utility.yul\":31232:31325   */\n      tag_508\n      jump\t// in\n    tag_791:\n        /* \"#utility.yul\":31350:31352   */\n      0x20\n        /* \"#utility.yul\":31345:31348   */\n      dup3\n        /* \"#utility.yul\":31341:31353   */\n      add\n        /* \"#utility.yul\":31334:31353   */\n      swap1\n      pop\n        /* \"#utility.yul\":30993:31359   */\n      swap2\n      swap1\n      pop\n      jump\t// out\n        /* \"#utility.yul\":31365:31784   */\n    tag_341:\n        /* \"#utility.yul\":31531:31535   */\n      0x00\n        /* \"#utility.yul\":31569:31571   */\n      0x20\n        /* \"#utility.yul\":31558:31567   */\n      dup3\n        /* \"#utility.yul\":31554:31572   */\n      add\n        /* \"#utility.yul\":31546:31572   */\n      swap1\n      pop\n        /* \"#utility.yul\":31618:31627   */\n      dup2\n        /* \"#utility.yul\":31612:31616   */\n      dup2\n        /* \"#utility.yul\":31608:31628   */\n      sub\n        /* \"#utility.yul\":31604:31605   */\n      0x00\n        /* \"#utility.yul\":31593:31602   */\n      dup4\n        /* \"#utility.yul\":31589:31606   */\n      add\n        /* \"#utility.yul\":31582:31629   */\n      mstore\n        /* \"#utility.yul\":31646:31777   */\n      tag_793\n        /* \"#utility.yul\":31772:31776   */\n      dup2\n        /* \"#utility.yul\":31646:31777   */\n      tag_509\n      jump\t// in\n    tag_793:\n        /* \"#utility.yul\":31638:31777   */\n      swap1\n      pop\n        /* \"#utility.yul\":31365:31784   */\n      swap2\n      swap1\n      pop\n      jump\t// out\n        /* \"#utility.yul\":31790:31932   */\n    tag_510:\n        /* \"#utility.yul\":31840:31849   */\n      0x00\n        /* \"#utility.yul\":31873:31926   */\n      tag_795\n        /* \"#utility.yul\":31891:31925   */\n      tag_796\n        /* \"#utility.yul\":31900:31924   */\n      tag_797\n        /* \"#utility.yul\":31918:31923   */\n      dup5\n        /* \"#utility.yul\":31900:31924   */\n      tag_440\n      jump\t// in\n    tag_797:\n        /* \"#utility.yul\":31891:31925   */\n      tag_477\n      jump\t// in\n    tag_796:\n        /* \"#utility.yul\":31873:31926   */\n      tag_440\n      jump\t// in\n    tag_795:\n        /* \"#utility.yul\":31860:31926   */\n      swap1\n      pop\n        /* \"#utility.yul\":31790:31932   */\n      swap2\n      swap1\n      pop\n      jump\t// out\n        /* \"#utility.yul\":31938:32064   */\n    tag_511:\n        /* \"#utility.yul\":31988:31997   */\n      0x00\n        /* \"#utility.yul\":32021:32058   */\n      tag_799\n        /* \"#utility.yul\":32052:32057   */\n      dup3\n        /* \"#utility.yul\":32021:32058   */\n      tag_510\n      jump\t// in\n    tag_799:\n        /* \"#utility.yul\":32008:32058   */\n      swap1\n      pop\n        /* \"#utility.yul\":31938:32064   */\n      swap2\n      swap1\n      pop\n      jump\t// out\n        /* \"#utility.yul\":32070:32204   */\n    tag_512:\n        /* \"#utility.yul\":32128:32137   */\n      0x00\n        /* \"#utility.yul\":32161:32198   */\n      tag_801\n        /* \"#utility.yul\":32192:32197   */\n      dup3\n        /* \"#utility.yul\":32161:32198   */\n      tag_511\n      jump\t// in\n    tag_801:\n        /* \"#utility.yul\":32148:32198   */\n      swap1\n      pop\n        /* \"#utility.yul\":32070:32204   */\n      swap2\n      swap1\n      pop\n      jump\t// out\n        /* \"#utility.yul\":32210:32357   */\n    tag_513:\n        /* \"#utility.yul\":32305:32350   */\n      tag_803\n        /* \"#utility.yul\":32344:32349   */\n      dup2\n        /* \"#utility.yul\":32305:32350   */\n      tag_512\n      jump\t// in\n    tag_803:\n        /* \"#utility.yul\":32300:32303   */\n      dup3\n        /* \"#utility.yul\":32293:32351   */\n      mstore\n        /* \"#utility.yul\":32210:32357   */\n      pop\n      pop\n      jump\t// out\n        /* \"#utility.yul\":32363:32711   */\n    tag_347:\n        /* \"#utility.yul\":32492:32496   */\n      0x00\n        /* \"#utility.yul\":32530:32532   */\n      0x40\n        /* \"#utility.yul\":32519:32528   */\n      dup3\n        /* \"#utility.yul\":32515:32533   */\n      add\n        /* \"#utility.yul\":32507:32533   */\n      swap1\n      pop\n        /* \"#utility.yul\":32543:32622   */\n      tag_805\n        /* \"#utility.yul\":32619:32620   */\n      0x00\n        /* \"#utility.yul\":32608:32617   */\n      dup4\n        /* \"#utility.yul\":32604:32621   */\n      add\n        /* \"#utility.yul\":32595:32601   */\n      dup6\n        /* \"#utility.yul\":32543:32622   */\n      tag_513\n      jump\t// in\n    tag_805:\n        /* \"#utility.yul\":32632:32704   */\n      tag_806\n        /* \"#utility.yul\":32700:32702   */\n      0x20\n        /* \"#utility.yul\":32689:32698   */\n      dup4\n        /* \"#utility.yul\":32685:32703   */\n      add\n        /* \"#utility.yul\":32676:32682   */\n      dup5\n        /* \"#utility.yul\":32632:32704   */\n      tag_436\n      jump\t// in\n    tag_806:\n        /* \"#utility.yul\":32363:32711   */\n      swap4\n      swap3\n      pop\n      pop\n      pop\n      jump\t// out\n        /* \"#utility.yul\":32717:32899   */\n    tag_514:\n        /* \"#utility.yul\":32857:32891   */\n      0x4f776e61626c653a2063616c6c6572206973206e6f7420746865206f776e6572\n        /* \"#utility.yul\":32853:32854   */\n      0x00\n        /* \"#utility.yul\":32845:32851   */\n      dup3\n        /* \"#utility.yul\":32841:32855   */\n      add\n        /* \"#utility.yul\":32834:32892   */\n      mstore\n        /* \"#utility.yul\":32717:32899   */\n      pop\n      jump\t// out\n        /* \"#utility.yul\":32905:33271   */\n    tag_515:\n        /* \"#utility.yul\":33047:33050   */\n      0x00\n        /* \"#utility.yul\":33068:33135   */\n      tag_809\n        /* \"#utility.yul\":33132:33134   */\n      0x20\n        /* \"#utility.yul\":33127:33130   */\n      dup4\n        /* \"#utility.yul\":33068:33135   */\n      tag_461\n      jump\t// in\n    tag_809:\n        /* \"#utility.yul\":33061:33135   */\n      swap2\n      pop\n        /* \"#utility.yul\":33144:33237   */\n      tag_810\n        /* \"#utility.yul\":33233:33236   */\n      dup3\n        /* \"#utility.yul\":33144:33237   */\n      tag_514\n      jump\t// in\n    tag_810:\n        /* \"#utility.yul\":33262:33264   */\n      0x20\n        /* \"#utility.yul\":33257:33260   */\n      dup3\n        /* \"#utility.yul\":33253:33265   */\n      add\n        /* \"#utility.yul\":33246:33265   */\n      swap1\n      pop\n        /* \"#utility.yul\":32905:33271   */\n      swap2\n      swap1\n      pop\n      jump\t// out\n        /* \"#utility.yul\":33277:33696   */\n    tag_354:\n        /* \"#utility.yul\":33443:33447   */\n      0x00\n        /* \"#utility.yul\":33481:33483   */\n      0x20\n        /* \"#utility.yul\":33470:33479   */\n      dup3\n        /* \"#utility.yul\":33466:33484   */\n      add\n        /* \"#utility.yul\":33458:33484   */\n      swap1\n      pop\n        /* \"#utility.yul\":33530:33539   */\n      dup2\n        /* \"#utility.yul\":33524:33528   */\n      dup2\n        /* \"#utility.yul\":33520:33540   */\n      sub\n        /* \"#utility.yul\":33516:33517   */\n      0x00\n        /* \"#utility.yul\":33505:33514   */\n      dup4\n        /* \"#utility.yul\":33501:33518   */\n      add\n        /* \"#utility.yul\":33494:33541   */\n      mstore\n        /* \"#utility.yul\":33558:33689   */\n      tag_812\n        /* \"#utility.yul\":33684:33688   */\n      dup2\n        /* \"#utility.yul\":33558:33689   */\n      tag_515\n      jump\t// in\n    tag_812:\n        /* \"#utility.yul\":33550:33689   */\n      swap1\n      pop\n        /* \"#utility.yul\":33277:33696   */\n      swap2\n      swap1\n      pop\n      jump\t// out\n        /* \"#utility.yul\":33702:34034   */\n    tag_358:\n        /* \"#utility.yul\":33823:33827   */\n      0x00\n        /* \"#utility.yul\":33861:33863   */\n      0x40\n        /* \"#utility.yul\":33850:33859   */\n      dup3\n        /* \"#utility.yul\":33846:33864   */\n      add\n        /* \"#utility.yul\":33838:33864   */\n      swap1\n      pop\n        /* \"#utility.yul\":33874:33945   */\n      tag_814\n        /* \"#utility.yul\":33942:33943   */\n      0x00\n        /* \"#utility.yul\":33931:33940   */\n      dup4\n        /* \"#utility.yul\":33927:33944   */\n      add\n        /* \"#utility.yul\":33918:33924   */\n      dup6\n        /* \"#utility.yul\":33874:33945   */\n      tag_444\n      jump\t// in\n    tag_814:\n        /* \"#utility.yul\":33955:34027   */\n      tag_815\n        /* \"#utility.yul\":34023:34025   */\n      0x20\n        /* \"#utility.yul\":34012:34021   */\n      dup4\n        /* \"#utility.yul\":34008:34026   */\n      add\n        /* \"#utility.yul\":33999:34005   */\n      dup5\n        /* \"#utility.yul\":33955:34027   */\n      tag_436\n      jump\t// in\n    tag_815:\n        /* \"#utility.yul\":33702:34034   */\n      swap4\n      swap3\n      pop\n      pop\n      pop\n      jump\t// out\n        /* \"#utility.yul\":34040:34270   */\n    tag_516:\n        /* \"#utility.yul\":34180:34214   */\n      0x496e697469616c697a61626c653a20636f6e7472616374206973206e6f742069\n        /* \"#utility.yul\":34176:34177   */\n      0x00\n        /* \"#utility.yul\":34168:34174   */\n      dup3\n        /* \"#utility.yul\":34164:34178   */\n      add\n        /* \"#utility.yul\":34157:34215   */\n      mstore\n        /* \"#utility.yul\":34249:34262   */\n      0x6e697469616c697a696e67000000000000000000000000000000000000000000\n        /* \"#utility.yul\":34244:34246   */\n      0x20\n        /* \"#utility.yul\":34236:34242   */\n      dup3\n        /* \"#utility.yul\":34232:34247   */\n      add\n        /* \"#utility.yul\":34225:34263   */\n      mstore\n        /* \"#utility.yul\":34040:34270   */\n      pop\n      jump\t// out\n        /* \"#utility.yul\":34276:34642   */\n    tag_517:\n        /* \"#utility.yul\":34418:34421   */\n      0x00\n        /* \"#utility.yul\":34439:34506   */\n      tag_818\n        /* \"#utility.yul\":34503:34505   */\n      0x2b\n        /* \"#utility.yul\":34498:34501   */\n      dup4\n        /* \"#utility.yul\":34439:34506   */\n      tag_461\n      jump\t// in\n    tag_818:\n        /* \"#utility.yul\":34432:34506   */\n      swap2\n      pop\n        /* \"#utility.yul\":34515:34608   */\n      tag_819\n        /* \"#utility.yul\":34604:34607   */\n      dup3\n        /* \"#utility.yul\":34515:34608   */\n      tag_516\n      jump\t// in\n    tag_819:\n        /* \"#utility.yul\":34633:34635   */\n      0x40\n        /* \"#utility.yul\":34628:34631   */\n      dup3\n        /* \"#utility.yul\":34624:34636   */\n      add\n        /* \"#utility.yul\":34617:34636   */\n      swap1\n      pop\n        /* \"#utility.yul\":34276:34642   */\n      swap2\n      swap1\n      pop\n      jump\t// out\n        /* \"#utility.yul\":34648:35067   */\n    tag_386:\n        /* \"#utility.yul\":34814:34818   */\n      0x00\n        /* \"#utility.yul\":34852:34854   */\n      0x20\n        /* \"#utility.yul\":34841:34850   */\n      dup3\n        /* \"#utility.yul\":34837:34855   */\n      add\n        /* \"#utility.yul\":34829:34855   */\n      swap1\n      pop\n        /* \"#utility.yul\":34901:34910   */\n      dup2\n        /* \"#utility.yul\":34895:34899   */\n      dup2\n        /* \"#utility.yul\":34891:34911   */\n      sub\n        /* \"#utility.yul\":34887:34888   */\n      0x00\n        /* \"#utility.yul\":34876:34885   */\n      dup4\n        /* \"#utility.yul\":34872:34889   */\n      add\n        /* \"#utility.yul\":34865:34912   */\n      mstore\n        /* \"#utility.yul\":34929:35060   */\n      tag_821\n        /* \"#utility.yul\":35055:35059   */\n      dup2\n        /* \"#utility.yul\":34929:35060   */\n      tag_517\n      jump\t// in\n    tag_821:\n        /* \"#utility.yul\":34921:35060   */\n      swap1\n      pop\n        /* \"#utility.yul\":34648:35067   */\n      swap2\n      swap1\n      pop\n      jump\t// out\n        /* \"#utility.yul\":35073:35421   */\n    tag_396:\n        /* \"#utility.yul\":35113:35120   */\n      0x00\n        /* \"#utility.yul\":35136:35156   */\n      tag_823\n        /* \"#utility.yul\":35154:35155   */\n      dup3\n        /* \"#utility.yul\":35136:35156   */\n      tag_435\n      jump\t// in\n    tag_823:\n        /* \"#utility.yul\":35131:35156   */\n      swap2\n      pop\n        /* \"#utility.yul\":35170:35190   */\n      tag_824\n        /* \"#utility.yul\":35188:35189   */\n      dup4\n        /* \"#utility.yul\":35170:35190   */\n      tag_435\n      jump\t// in\n    tag_824:\n        /* \"#utility.yul\":35165:35190   */\n      swap3\n      pop\n        /* \"#utility.yul\":35358:35359   */\n      dup2\n        /* \"#utility.yul\":35290:35356   */\n      0xffffffffffffffffffffffffffffffffffffffffffffffffffffffffffffffff\n        /* \"#utility.yul\":35286:35360   */\n      div\n        /* \"#utility.yul\":35283:35284   */\n      dup4\n        /* \"#utility.yul\":35280:35361   */\n      gt\n        /* \"#utility.yul\":35275:35276   */\n      dup3\n        /* \"#utility.yul\":35268:35277   */\n      iszero\n        /* \"#utility.yul\":35261:35278   */\n      iszero\n        /* \"#utility.yul\":35257:35362   */\n      and\n        /* \"#utility.yul\":35254:35385   */\n      iszero\n      tag_825\n      jumpi\n        /* \"#utility.yul\":35365:35383   */\n      tag_826\n      tag_491\n      jump\t// in\n    tag_826:\n        /* \"#utility.yul\":35254:35385   */\n    tag_825:\n        /* \"#utility.yul\":35413:35414   */\n      dup3\n        /* \"#utility.yul\":35410:35411   */\n      dup3\n        /* \"#utility.yul\":35406:35415   */\n      mul\n        /* \"#utility.yul\":35395:35415   */\n      swap1\n      pop\n        /* \"#utility.yul\":35073:35421   */\n      swap3\n      swap2\n      pop\n      pop\n      jump\t// out\n        /* \"#utility.yul\":35427:35607   */\n    tag_518:\n        /* \"#utility.yul\":35475:35552   */\n      0x4e487b7100000000000000000000000000000000000000000000000000000000\n        /* \"#utility.yul\":35472:35473   */\n      0x00\n        /* \"#utility.yul\":35465:35553   */\n      mstore\n        /* \"#utility.yul\":35572:35576   */\n      0x12\n        /* \"#utility.yul\":35569:35570   */\n      0x04\n        /* \"#utility.yul\":35562:35577   */\n      mstore\n        /* \"#utility.yul\":35596:35600   */\n      0x24\n        /* \"#utility.yul\":35593:35594   */\n      0x00\n        /* \"#utility.yul\":35586:35601   */\n      revert\n        /* \"#utility.yul\":35613:35798   */\n    tag_399:\n        /* \"#utility.yul\":35653:35654   */\n      0x00\n        /* \"#utility.yul\":35670:35690   */\n      tag_829\n        /* \"#utility.yul\":35688:35689   */\n      dup3\n        /* \"#utility.yul\":35670:35690   */\n      tag_435\n      jump\t// in\n    tag_829:\n        /* \"#utility.yul\":35665:35690   */\n      swap2\n      pop\n        /* \"#utility.yul\":35704:35724   */\n      tag_830\n        /* \"#utility.yul\":35722:35723   */\n      dup4\n        /* \"#utility.yul\":35704:35724   */\n      tag_435\n      jump\t// in\n    tag_830:\n        /* \"#utility.yul\":35699:35724   */\n      swap3\n      pop\n        /* \"#utility.yul\":35743:35744   */\n      dup3\n        /* \"#utility.yul\":35733:35768   */\n      tag_831\n      jumpi\n        /* \"#utility.yul\":35748:35766   */\n      tag_832\n      tag_518\n      jump\t// in\n    tag_832:\n        /* \"#utility.yul\":35733:35768   */\n    tag_831:\n        /* \"#utility.yul\":35790:35791   */\n      dup3\n        /* \"#utility.yul\":35787:35788   */\n      dup3\n        /* \"#utility.yul\":35783:35792   */\n      div\n        /* \"#utility.yul\":35778:35792   */\n      swap1\n      pop\n        /* \"#utility.yul\":35613:35798   */\n      swap3\n      swap2\n      pop\n      pop\n      jump\t// out\n        /* \"#utility.yul\":35804:35941   */\n    tag_519:\n        /* \"#utility.yul\":35858:35863   */\n      0x00\n        /* \"#utility.yul\":35889:35895   */\n      dup2\n        /* \"#utility.yul\":35883:35896   */\n      mload\n        /* \"#utility.yul\":35874:35896   */\n      swap1\n      pop\n        /* \"#utility.yul\":35905:35935   */\n      tag_834\n        /* \"#utility.yul\":35929:35934   */\n      dup2\n        /* \"#utility.yul\":35905:35935   */\n      tag_454\n      jump\t// in\n    tag_834:\n        /* \"#utility.yul\":35804:35941   */\n      swap3\n      swap2\n      pop\n      pop\n      jump\t// out\n        /* \"#utility.yul\":35947:36292   */\n    tag_406:\n        /* \"#utility.yul\":36014:36020   */\n      0x00\n        /* \"#utility.yul\":36063:36065   */\n      0x20\n        /* \"#utility.yul\":36051:36060   */\n      dup3\n        /* \"#utility.yul\":36042:36049   */\n      dup5\n        /* \"#utility.yul\":36038:36061   */\n      sub\n        /* \"#utility.yul\":36034:36066   */\n      slt\n        /* \"#utility.yul\":36031:36150   */\n      iszero\n      tag_836\n      jumpi\n        /* \"#utility.yul\":36069:36148   */\n      tag_837\n      tag_438\n      jump\t// in\n    tag_837:\n        /* \"#utility.yul\":36031:36150   */\n    tag_836:\n        /* \"#utility.yul\":36189:36190   */\n      0x00\n        /* \"#utility.yul\":36214:36275   */\n      tag_838\n        /* \"#utility.yul\":36267:36274   */\n      dup5\n        /* \"#utility.yul\":36258:36264   */\n      dup3\n        /* \"#utility.yul\":36247:36256   */\n      dup6\n        /* \"#utility.yul\":36243:36265   */\n      add\n        /* \"#utility.yul\":36214:36275   */\n      tag_519\n      jump\t// in\n    tag_838:\n        /* \"#utility.yul\":36204:36275   */\n      swap2\n      pop\n        /* \"#utility.yul\":36160:36285   */\n      pop\n        /* \"#utility.yul\":35947:36292   */\n      swap3\n      swap2\n      pop\n      pop\n      jump\t// out\n        /* \"#utility.yul\":36298:36527   */\n    tag_520:\n        /* \"#utility.yul\":36438:36472   */\n      0x5361666545524332303a204552433230206f7065726174696f6e20646964206e\n        /* \"#utility.yul\":36434:36435   */\n      0x00\n        /* \"#utility.yul\":36426:36432   */\n      dup3\n        /* \"#utility.yul\":36422:36436   */\n      add\n        /* \"#utility.yul\":36415:36473   */\n      mstore\n        /* \"#utility.yul\":36507:36519   */\n      0x6f74207375636365656400000000000000000000000000000000000000000000\n        /* \"#utility.yul\":36502:36504   */\n      0x20\n        /* \"#utility.yul\":36494:36500   */\n      dup3\n        /* \"#utility.yul\":36490:36505   */\n      add\n        /* \"#utility.yul\":36483:36520   */\n      mstore\n        /* \"#utility.yul\":36298:36527   */\n      pop\n      jump\t// out\n        /* \"#utility.yul\":36533:36899   */\n    tag_521:\n        /* \"#utility.yul\":36675:36678   */\n      0x00\n        /* \"#utility.yul\":36696:36763   */\n      tag_841\n        /* \"#utility.yul\":36760:36762   */\n      0x2a\n        /* \"#utility.yul\":36755:36758   */\n      dup4\n        /* \"#utility.yul\":36696:36763   */\n      tag_461\n      jump\t// in\n    tag_841:\n        /* \"#utility.yul\":36689:36763   */\n      swap2\n      pop\n        /* \"#utility.yul\":36772:36865   */\n      tag_842\n        /* \"#utility.yul\":36861:36864   */\n      dup3\n        /* \"#utility.yul\":36772:36865   */\n      tag_520\n      jump\t// in\n    tag_842:\n        /* \"#utility.yul\":36890:36892   */\n      0x40\n        /* \"#utility.yul\":36885:36888   */\n      dup3\n        /* \"#utility.yul\":36881:36893   */\n      add\n        /* \"#utility.yul\":36874:36893   */\n      swap1\n      pop\n        /* \"#utility.yul\":36533:36899   */\n      swap2\n      swap1\n      pop\n      jump\t// out\n        /* \"#utility.yul\":36905:37324   */\n    tag_409:\n        /* \"#utility.yul\":37071:37075   */\n      0x00\n        /* \"#utility.yul\":37109:37111   */\n      0x20\n        /* \"#utility.yul\":37098:37107   */\n      dup3\n        /* \"#utility.yul\":37094:37112   */\n      add\n        /* \"#utility.yul\":37086:37112   */\n      swap1\n      pop\n        /* \"#utility.yul\":37158:37167   */\n      dup2\n        /* \"#utility.yul\":37152:37156   */\n      dup2\n        /* \"#utility.yul\":37148:37168   */\n      sub\n        /* \"#utility.yul\":37144:37145   */\n      0x00\n        /* \"#utility.yul\":37133:37142   */\n      dup4\n        /* \"#utility.yul\":37129:37146   */\n      add\n        /* \"#utility.yul\":37122:37169   */\n      mstore\n        /* \"#utility.yul\":37186:37317   */\n      tag_844\n        /* \"#utility.yul\":37312:37316   */\n      dup2\n        /* \"#utility.yul\":37186:37317   */\n      tag_521\n      jump\t// in\n    tag_844:\n        /* \"#utility.yul\":37178:37317   */\n      swap1\n      pop\n        /* \"#utility.yul\":36905:37324   */\n      swap2\n      swap1\n      pop\n      jump\t// out\n        /* \"#utility.yul\":37330:37555   */\n    tag_522:\n        /* \"#utility.yul\":37470:37504   */\n      0x416464726573733a20696e73756666696369656e742062616c616e636520666f\n        /* \"#utility.yul\":37466:37467   */\n      0x00\n        /* \"#utility.yul\":37458:37464   */\n      dup3\n        /* \"#utility.yul\":37454:37468   */\n      add\n        /* \"#utility.yul\":37447:37505   */\n      mstore\n        /* \"#utility.yul\":37539:37547   */\n      0x722063616c6c0000000000000000000000000000000000000000000000000000\n        /* \"#utility.yul\":37534:37536   */\n      0x20\n        /* \"#utility.yul\":37526:37532   */\n      dup3\n        /* \"#utility.yul\":37522:37537   */\n      add\n        /* \"#utility.yul\":37515:37548   */\n      mstore\n        /* \"#utility.yul\":37330:37555   */\n      pop\n      jump\t// out\n        /* \"#utility.yul\":37561:37927   */\n    tag_523:\n        /* \"#utility.yul\":37703:37706   */\n      0x00\n        /* \"#utility.yul\":37724:37791   */\n      tag_847\n        /* \"#utility.yul\":37788:37790   */\n      0x26\n        /* \"#utility.yul\":37783:37786   */\n      dup4\n        /* \"#utility.yul\":37724:37791   */\n      tag_461\n      jump\t// in\n    tag_847:\n        /* \"#utility.yul\":37717:37791   */\n      swap2\n      pop\n        /* \"#utility.yul\":37800:37893   */\n      tag_848\n        /* \"#utility.yul\":37889:37892   */\n      dup3\n        /* \"#utility.yul\":37800:37893   */\n      tag_522\n      jump\t// in\n    tag_848:\n        /* \"#utility.yul\":37918:37920   */\n      0x40\n        /* \"#utility.yul\":37913:37916   */\n      dup3\n        /* \"#utility.yul\":37909:37921   */\n      add\n        /* \"#utility.yul\":37902:37921   */\n      swap1\n      pop\n        /* \"#utility.yul\":37561:37927   */\n      swap2\n      swap1\n      pop\n      jump\t// out\n        /* \"#utility.yul\":37933:38352   */\n    tag_416:\n        /* \"#utility.yul\":38099:38103   */\n      0x00\n        /* \"#utility.yul\":38137:38139   */\n      0x20\n        /* \"#utility.yul\":38126:38135   */\n      dup3\n        /* \"#utility.yul\":38122:38140   */\n      add\n        /* \"#utility.yul\":38114:38140   */\n      swap1\n      pop\n        /* \"#utility.yul\":38186:38195   */\n      dup2\n        /* \"#utility.yul\":38180:38184   */\n      dup2\n        /* \"#utility.yul\":38176:38196   */\n      sub\n        /* \"#utility.yul\":38172:38173   */\n      0x00\n        /* \"#utility.yul\":38161:38170   */\n      dup4\n        /* \"#utility.yul\":38157:38174   */\n      add\n        /* \"#utility.yul\":38150:38197   */\n      mstore\n        /* \"#utility.yul\":38214:38345   */\n      tag_850\n        /* \"#utility.yul\":38340:38344   */\n      dup2\n        /* \"#utility.yul\":38214:38345   */\n      tag_523\n      jump\t// in\n    tag_850:\n        /* \"#utility.yul\":38206:38345   */\n      swap1\n      pop\n        /* \"#utility.yul\":37933:38352   */\n      swap2\n      swap1\n      pop\n      jump\t// out\n        /* \"#utility.yul\":38358:38537   */\n    tag_524:\n        /* \"#utility.yul\":38498:38529   */\n      0x416464726573733a2063616c6c20746f206e6f6e2d636f6e7472616374000000\n        /* \"#utility.yul\":38494:38495   */\n      0x00\n        /* \"#utility.yul\":38486:38492   */\n      dup3\n        /* \"#utility.yul\":38482:38496   */\n      add\n        /* \"#utility.yul\":38475:38530   */\n      mstore\n        /* \"#utility.yul\":38358:38537   */\n      pop\n      jump\t// out\n        /* \"#utility.yul\":38543:38909   */\n    tag_525:\n        /* \"#utility.yul\":38685:38688   */\n      0x00\n        /* \"#utility.yul\":38706:38773   */\n      tag_853\n        /* \"#utility.yul\":38770:38772   */\n      0x1d\n        /* \"#utility.yul\":38765:38768   */\n      dup4\n        /* \"#utility.yul\":38706:38773   */\n      tag_461\n      jump\t// in\n    tag_853:\n        /* \"#utility.yul\":38699:38773   */\n      swap2\n      pop\n        /* \"#utility.yul\":38782:38875   */\n      tag_854\n        /* \"#utility.yul\":38871:38874   */\n      dup3\n        /* \"#utility.yul\":38782:38875   */\n      tag_524\n      jump\t// in\n    tag_854:\n        /* \"#utility.yul\":38900:38902   */\n      0x20\n        /* \"#utility.yul\":38895:38898   */\n      dup3\n        /* \"#utility.yul\":38891:38903   */\n      add\n        /* \"#utility.yul\":38884:38903   */\n      swap1\n      pop\n        /* \"#utility.yul\":38543:38909   */\n      swap2\n      swap1\n      pop\n      jump\t// out\n        /* \"#utility.yul\":38915:39334   */\n    tag_420:\n        /* \"#utility.yul\":39081:39085   */\n      0x00\n        /* \"#utility.yul\":39119:39121   */\n      0x20\n        /* \"#utility.yul\":39108:39117   */\n      dup3\n        /* \"#utility.yul\":39104:39122   */\n      add\n        /* \"#utility.yul\":39096:39122   */\n      swap1\n      pop\n        /* \"#utility.yul\":39168:39177   */\n      dup2\n        /* \"#utility.yul\":39162:39166   */\n      dup2\n        /* \"#utility.yul\":39158:39178   */\n      sub\n        /* \"#utility.yul\":39154:39155   */\n      0x00\n        /* \"#utility.yul\":39143:39152   */\n      dup4\n        /* \"#utility.yul\":39139:39156   */\n      add\n        /* \"#utility.yul\":39132:39179   */\n      mstore\n        /* \"#utility.yul\":39196:39327   */\n      tag_856\n        /* \"#utility.yul\":39322:39326   */\n      dup2\n        /* \"#utility.yul\":39196:39327   */\n      tag_525\n      jump\t// in\n    tag_856:\n        /* \"#utility.yul\":39188:39327   */\n      swap1\n      pop\n        /* \"#utility.yul\":38915:39334   */\n      swap2\n      swap1\n      pop\n      jump\t// out\n        /* \"#utility.yul\":39340:39438   */\n    tag_526:\n        /* \"#utility.yul\":39391:39397   */\n      0x00\n        /* \"#utility.yul\":39425:39430   */\n      dup2\n        /* \"#utility.yul\":39419:39431   */\n      mload\n        /* \"#utility.yul\":39409:39431   */\n      swap1\n      pop\n        /* \"#utility.yul\":39340:39438   */\n      swap2\n      swap1\n      pop\n      jump\t// out\n        /* \"#utility.yul\":39444:39591   */\n    tag_527:\n        /* \"#utility.yul\":39545:39556   */\n      0x00\n        /* \"#utility.yul\":39582:39585   */\n      dup2\n        /* \"#utility.yul\":39567:39585   */\n      swap1\n      pop\n        /* \"#utility.yul\":39444:39591   */\n      swap3\n      swap2\n      pop\n      pop\n      jump\t// out\n        /* \"#utility.yul\":39597:39904   */\n    tag_528:\n        /* \"#utility.yul\":39665:39666   */\n      0x00\n        /* \"#utility.yul\":39675:39788   */\n    tag_860:\n        /* \"#utility.yul\":39689:39695   */\n      dup4\n        /* \"#utility.yul\":39686:39687   */\n      dup2\n        /* \"#utility.yul\":39683:39696   */\n      lt\n        /* \"#utility.yul\":39675:39788   */\n      iszero\n      tag_862\n      jumpi\n        /* \"#utility.yul\":39774:39775   */\n      dup1\n        /* \"#utility.yul\":39769:39772   */\n      dup3\n        /* \"#utility.yul\":39765:39776   */\n      add\n        /* \"#utility.yul\":39759:39777   */\n      mload\n        /* \"#utility.yul\":39755:39756   */\n      dup2\n        /* \"#utility.yul\":39750:39753   */\n      dup5\n        /* \"#utility.yul\":39746:39757   */\n      add\n        /* \"#utility.yul\":39739:39778   */\n      mstore\n        /* \"#utility.yul\":39711:39713   */\n      0x20\n        /* \"#utility.yul\":39708:39709   */\n      dup2\n        /* \"#utility.yul\":39704:39714   */\n      add\n        /* \"#utility.yul\":39699:39714   */\n      swap1\n      pop\n        /* \"#utility.yul\":39675:39788   */\n      jump(tag_860)\n    tag_862:\n        /* \"#utility.yul\":39806:39812   */\n      dup4\n        /* \"#utility.yul\":39803:39804   */\n      dup2\n        /* \"#utility.yul\":39800:39813   */\n      gt\n        /* \"#utility.yul\":39797:39898   */\n      iszero\n      tag_863\n      jumpi\n        /* \"#utility.yul\":39886:39887   */\n      0x00\n        /* \"#utility.yul\":39877:39883   */\n      dup5\n        /* \"#utility.yul\":39872:39875   */\n      dup5\n        /* \"#utility.yul\":39868:39884   */\n      add\n        /* \"#utility.yul\":39861:39888   */\n      mstore\n        /* \"#utility.yul\":39797:39898   */\n    tag_863:\n        /* \"#utility.yul\":39646:39904   */\n      pop\n        /* \"#utility.yul\":39597:39904   */\n      pop\n      pop\n      pop\n      jump\t// out\n        /* \"#utility.yul\":39910:40283   */\n    tag_529:\n        /* \"#utility.yul\":40014:40017   */\n      0x00\n        /* \"#utility.yul\":40042:40080   */\n      tag_865\n        /* \"#utility.yul\":40074:40079   */\n      dup3\n        /* \"#utility.yul\":40042:40080   */\n      tag_526\n      jump\t// in\n    tag_865:\n        /* \"#utility.yul\":40096:40184   */\n      tag_866\n        /* \"#utility.yul\":40177:40183   */\n      dup2\n        /* \"#utility.yul\":40172:40175   */\n      dup6\n        /* \"#utility.yul\":40096:40184   */\n      tag_527\n      jump\t// in\n    tag_866:\n        /* \"#utility.yul\":40089:40184   */\n      swap4\n      pop\n        /* \"#utility.yul\":40193:40245   */\n      tag_867\n        /* \"#utility.yul\":40238:40244   */\n      dup2\n        /* \"#utility.yul\":40233:40236   */\n      dup6\n        /* \"#utility.yul\":40226:40230   */\n      0x20\n        /* \"#utility.yul\":40219:40224   */\n      dup7\n        /* \"#utility.yul\":40215:40231   */\n      add\n        /* \"#utility.yul\":40193:40245   */\n      tag_528\n      jump\t// in\n    tag_867:\n        /* \"#utility.yul\":40270:40276   */\n      dup1\n        /* \"#utility.yul\":40265:40268   */\n      dup5\n        /* \"#utility.yul\":40261:40277   */\n      add\n        /* \"#utility.yul\":40254:40277   */\n      swap2\n      pop\n        /* \"#utility.yul\":40018:40283   */\n      pop\n        /* \"#utility.yul\":39910:40283   */\n      swap3\n      swap2\n      pop\n      pop\n      jump\t// out\n        /* \"#utility.yul\":40289:40560   */\n    tag_422:\n        /* \"#utility.yul\":40419:40422   */\n      0x00\n        /* \"#utility.yul\":40441:40534   */\n      tag_869\n        /* \"#utility.yul\":40530:40533   */\n      dup3\n        /* \"#utility.yul\":40521:40527   */\n      dup5\n        /* \"#utility.yul\":40441:40534   */\n      tag_529\n      jump\t// in\n    tag_869:\n        /* \"#utility.yul\":40434:40534   */\n      swap2\n      pop\n        /* \"#utility.yul\":40551:40554   */\n      dup2\n        /* \"#utility.yul\":40544:40554   */\n      swap1\n      pop\n        /* \"#utility.yul\":40289:40560   */\n      swap3\n      swap2\n      pop\n      pop\n      jump\t// out\n        /* \"#utility.yul\":40566:40665   */\n    tag_530:\n        /* \"#utility.yul\":40618:40624   */\n      0x00\n        /* \"#utility.yul\":40652:40657   */\n      dup2\n        /* \"#utility.yul\":40646:40658   */\n      mload\n        /* \"#utility.yul\":40636:40658   */\n      swap1\n      pop\n        /* \"#utility.yul\":40566:40665   */\n      swap2\n      swap1\n      pop\n      jump\t// out\n        /* \"#utility.yul\":40671:40773   */\n    tag_531:\n        /* \"#utility.yul\":40712:40718   */\n      0x00\n        /* \"#utility.yul\":40763:40765   */\n      0x1f\n        /* \"#utility.yul\":40759:40766   */\n      not\n        /* \"#utility.yul\":40754:40756   */\n      0x1f\n        /* \"#utility.yul\":40747:40752   */\n      dup4\n        /* \"#utility.yul\":40743:40757   */\n      add\n        /* \"#utility.yul\":40739:40767   */\n      and\n        /* \"#utility.yul\":40729:40767   */\n      swap1\n      pop\n        /* \"#utility.yul\":40671:40773   */\n      swap2\n      swap1\n      pop\n      jump\t// out\n        /* \"#utility.yul\":40779:41143   */\n    tag_532:\n        /* \"#utility.yul\":40867:40870   */\n      0x00\n        /* \"#utility.yul\":40895:40934   */\n      tag_873\n        /* \"#utility.yul\":40928:40933   */\n      dup3\n        /* \"#utility.yul\":40895:40934   */\n      tag_530\n      jump\t// in\n    tag_873:\n        /* \"#utility.yul\":40950:41021   */\n      tag_874\n        /* \"#utility.yul\":41014:41020   */\n      dup2\n        /* \"#utility.yul\":41009:41012   */\n      dup6\n        /* \"#utility.yul\":40950:41021   */\n      tag_461\n      jump\t// in\n    tag_874:\n        /* \"#utility.yul\":40943:41021   */\n      swap4\n      pop\n        /* \"#utility.yul\":41030:41082   */\n      tag_875\n        /* \"#utility.yul\":41075:41081   */\n      dup2\n        /* \"#utility.yul\":41070:41073   */\n      dup6\n        /* \"#utility.yul\":41063:41067   */\n      0x20\n        /* \"#utility.yul\":41056:41061   */\n      dup7\n        /* \"#utility.yul\":41052:41068   */\n      add\n        /* \"#utility.yul\":41030:41082   */\n      tag_528\n      jump\t// in\n    tag_875:\n        /* \"#utility.yul\":41107:41136   */\n      tag_876\n        /* \"#utility.yul\":41129:41135   */\n      dup2\n        /* \"#utility.yul\":41107:41136   */\n      tag_531\n      jump\t// in\n    tag_876:\n        /* \"#utility.yul\":41102:41105   */\n      dup5\n        /* \"#utility.yul\":41098:41137   */\n      add\n        /* \"#utility.yul\":41091:41137   */\n      swap2\n      pop\n        /* \"#utility.yul\":40871:41143   */\n      pop\n        /* \"#utility.yul\":40779:41143   */\n      swap3\n      swap2\n      pop\n      pop\n      jump\t// out\n        /* \"#utility.yul\":41149:41462   */\n    tag_434:\n        /* \"#utility.yul\":41262:41266   */\n      0x00\n        /* \"#utility.yul\":41300:41302   */\n      0x20\n        /* \"#utility.yul\":41289:41298   */\n      dup3\n        /* \"#utility.yul\":41285:41303   */\n      add\n        /* \"#utility.yul\":41277:41303   */\n      swap1\n      pop\n        /* \"#utility.yul\":41349:41358   */\n      dup2\n        /* \"#utility.yul\":41343:41347   */\n      dup2\n        /* \"#utility.yul\":41339:41359   */\n      sub\n        /* \"#utility.yul\":41335:41336   */\n      0x00\n        /* \"#utility.yul\":41324:41333   */\n      dup4\n        /* \"#utility.yul\":41320:41337   */\n      add\n        /* \"#utility.yul\":41313:41360   */\n      mstore\n        /* \"#utility.yul\":41377:41455   */\n      tag_878\n        /* \"#utility.yul\":41450:41454   */\n      dup2\n        /* \"#utility.yul\":41441:41447   */\n      dup5\n        /* \"#utility.yul\":41377:41455   */\n      tag_532\n      jump\t// in\n    tag_878:\n        /* \"#utility.yul\":41369:41455   */\n      swap1\n      pop\n        /* \"#utility.yul\":41149:41462   */\n      swap3\n      swap2\n      pop\n      pop\n      jump\t// out\n\n    auxdata: 0xa264697066735822122027260399fb93a56d3a4da5108802e5cf629e92f803863edd2ce0f7d1709d0e8b64736f6c63430008090033\n}\n",
				"bytecode": {
					"linkReferences": {},
					"object": "608060405234801561001057600080fd5b50613e2b806100206000396000f3fe608060405234801561001057600080fd5b50600436106101cf5760003560e01c80638af104da11610104578063c990c2f7116100a2578063f51321d711610071578063f51321d71461050c578063f7c469f01461053c578063f9079b371461056c578063f9299dd91461059c576101cf565b8063c990c2f714610484578063e2f0f42d146104a2578063ea1bb3d5146104c0578063f2fde38b146104f0576101cf565b80639ef346b4116100de5780639ef346b4146103ea578063b75c7dc61461041a578063c07aa65614610436578063c8ac75d214610454576101cf565b80638af104da1461037e5780638da5cb5b146103ae57806390be10cc146103cc576101cf565b806348deb47111610171578063715018a61161014b578063715018a61461030c5780637a1ac61e146103165780637df8df92146103325780637e913dc61461034e576101cf565b806348deb471146102a25780635a7bb69a146102c057806366afd8ef146102f0576101cf565b8063260a51e5116101ad578063260a51e51461022c57806329cb924d1461024a5780632e1a7d4d1461026857806340a9627f14610284576101cf565b806313083617146101d45780631f35bc40146101f257806321df0da71461020e575b600080fd5b6101dc6105b8565b6040516101e99190612819565b60405180910390f35b61020c60048036038101906102079190612897565b6105c5565b005b610216610609565b60405161022391906128d3565b60405180910390f35b610234610633565b60405161024191906128d3565b60405180910390f35b610252610659565b60405161025f9190612819565b60405180910390f35b610282600480360381019061027d919061291a565b610661565b005b61028c6107d6565b6040516102999190612819565b60405180910390f35b6102aa6107dc565b6040516102b79190612819565b60405180910390f35b6102da60048036038101906102d59190612897565b6107e6565b6040516102e79190612819565b60405180910390f35b61030a6004803603810190610305919061297d565b61082f565b005b610314610be5565b005b610330600480360381019061032b91906129fb565b610bf9565b005b61034c60048036038101906103479190612a86565b610e1a565b005b61036860048036038101906103639190612897565b611429565b6040516103759190612c4a565b60405180910390f35b61039860048036038101906103939190612c66565b6115a9565b6040516103a59190612cb5565b60405180910390f35b6103b66115dc565b6040516103c391906128d3565b60405180910390f35b6103d4611606565b6040516103e19190612819565b60405180910390f35b61040460048036038101906103ff9190612cd0565b6116cc565b6040516104119190612c4a565b60405180910390f35b610434600480360381019061042f9190612cd0565b6117f8565b005b61043e611a4d565b60405161044b9190612819565b60405180910390f35b61046e60048036038101906104699190612cd0565b611a64565b60405161047b9190612819565b60405180910390f35b61048c611a7c565b6040516104999190612819565b60405180910390f35b6104aa611a86565b6040516104b79190612819565b60405180910390f35b6104da60048036038101906104d59190612cd0565b611a8c565b6040516104e79190612819565b60405180910390f35b61050a60048036038101906105059190612897565b611c1d565b005b61052660048036038101906105219190612c66565b611ca1565b6040516105339190612c4a565b60405180910390f35b61055660048036038101906105519190612897565b611cc3565b6040516105639190612cb5565b60405180910390f35b6105866004803603810190610581919061291a565b611d15565b6040516105939190612cb5565b60405180910390f35b6105b660048036038101906105b19190612cd0565b611d86565b005b6000609a80549050905090565b8060a060006101000a81548173ffffffffffffffffffffffffffffffffffffffff021916908373ffffffffffffffffffffffffffffffffffffffff16021790555050565b6000609760009054906101000a900473ffffffffffffffffffffffffffffffffffffffff16905090565b60a060009054906101000a900473ffffffffffffffffffffffffffffffffffffffff1681565b600042905090565b600260655414156106a7576040517f08c379a000000000000000000000000000000000000000000000000000000000815260040161069e90612d5a565b60405180910390fd5b60026065819055506106b76120df565b803073ffffffffffffffffffffffffffffffffffffffff166390be10cc6040518163ffffffff1660e01b815260040160206040518083038186803b1580156106fe57600080fd5b505afa158015610712573d6000803e3d6000fd5b505050506040513d601f19601f820116820180604052508101906107369190612d8f565b1015610777576040517f08c379a000000000000000000000000000000000000000000000000000000000815260040161076e90612e2e565b60405180910390fd5b6107cb6107826115dc565b82609760009054906101000a900473ffffffffffffffffffffffffffffffffffffffff1673ffffffffffffffffffffffffffffffffffffffff1661215d9092919063ffffffff16565b600160658190555050565b60995481565b6000609c54905090565b6000609e60008373ffffffffffffffffffffffffffffffffffffffff1673ffffffffffffffffffffffffffffffffffffffff168152602001908152602001600020549050919050565b60026065541415610875576040517f08c379a000000000000000000000000000000000000000000000000000000000815260040161086c90612d5a565b60405180910390fd5b600260658190555081609b600082815260200190815260200160002060000160009054906101000a900460ff166108ab57600080fd5b609b600082815260200190815260200160002060080160009054906101000a900460ff16156108d957600080fd5b6000609b6000858152602001908152602001600020905060008160000160019054906101000a900473ffffffffffffffffffffffffffffffffffffffff1673ffffffffffffffffffffffffffffffffffffffff163373ffffffffffffffffffffffffffffffffffffffff1614905060006109516115dc565b73ffffffffffffffffffffffffffffffffffffffff163373ffffffffffffffffffffffffffffffffffffffff16149050818061098a5750805b6109c9576040517f08c379a00000000000000000000000000000000000000000000000000000000081526004016109c090612ee6565b60405180910390fd5b6000610ade84604051806101600160405290816000820160009054906101000a900460ff161515151581526020016000820160019054906101000a900473ffffffffffffffffffffffffffffffffffffffff1673ffffffffffffffffffffffffffffffffffffffff1673ffffffffffffffffffffffffffffffffffffffff168152602001600182015481526020016002820154815260200160038201548152602001600482015481526020016005820160009054906101000a900460ff1615151515815260200160068201548152602001600782015481526020016008820160009054906101000a900460ff161515151581526020016008820160019054906101000a900460ff1615151515815250506121e3565b905085811015610b23576040517f08c379a0000000000000000000000000000000000000000000000000000000008152600401610b1a90612f78565b60405180910390fd5b610b3a86856007015461232b90919063ffffffff16565b846007018190555060008460000160019054906101000a900473ffffffffffffffffffffffffffffffffffffffff169050610b8087609c5461234190919063ffffffff16565b609c81905550610bd38188609760009054906101000a900473ffffffffffffffffffffffffffffffffffffffff1673ffffffffffffffffffffffffffffffffffffffff1661215d9092919063ffffffff16565b50505050505060016065819055505050565b610bed6120df565b610bf76000612357565b565b60008060019054906101000a900460ff16159050808015610c2a5750600160008054906101000a900460ff1660ff16105b80610c575750610c393061241d565b158015610c565750600160008054906101000a900460ff1660ff16145b5b610c96576040517f08c379a0000000000000000000000000000000000000000000000000000000008152600401610c8d9061300a565b60405180910390fd5b60016000806101000a81548160ff021916908360ff1602179055508015610cd3576001600060016101000a81548160ff0219169083151502179055505b600073ffffffffffffffffffffffffffffffffffffffff168473ffffffffffffffffffffffffffffffffffffffff161415610d0d57600080fd5b600083118015610d1d5750606483105b610d5c576040517f08c379a0000000000000000000000000000000000000000000000000000000008152600401610d539061309c565b60405180910390fd5b610d64612440565b610d6c6124a1565b83609760006101000a81548173ffffffffffffffffffffffffffffffffffffffff021916908373ffffffffffffffffffffffffffffffffffffffff16021790555081609981905550826098819055508015610e145760008060016101000a81548160ff0219169083151502179055507f7f26b83ff96e1f2b6a682f133852f6798a09c465da95921460cefb38474024986001604051610e0b919061310e565b60405180910390a15b50505050565b60a060009054906101000a900473ffffffffffffffffffffffffffffffffffffffff1673ffffffffffffffffffffffffffffffffffffffff163373ffffffffffffffffffffffffffffffffffffffff161480610ea85750610e796115dc565b73ffffffffffffffffffffffffffffffffffffffff163373ffffffffffffffffffffffffffffffffffffffff16145b610ee7576040517f08c379a0000000000000000000000000000000000000000000000000000000008152600401610ede90613175565b60405180910390fd5b813073ffffffffffffffffffffffffffffffffffffffff166390be10cc6040518163ffffffff1660e01b815260040160206040518083038186803b158015610f2e57600080fd5b505afa158015610f42573d6000803e3d6000fd5b505050506040513d601f19601f82011682018060405250810190610f669190612d8f565b1015610fa7576040517f08c379a0000000000000000000000000000000000000000000000000000000008152600401610f9e9061322d565b60405180910390fd5b60008511610fea576040517f08c379a0000000000000000000000000000000000000000000000000000000008152600401610fe1906132bf565b60405180910390fd5b6000821161102d576040517f08c379a00000000000000000000000000000000000000000000000000000000081526004016110249061332b565b60405180910390fd5b6001841015611071576040517f08c379a0000000000000000000000000000000000000000000000000000000008152600401611068906133bd565b60405180910390fd5b60003073ffffffffffffffffffffffffffffffffffffffff1663f7c469f08a6040518263ffffffff1660e01b81526004016110ac91906128d3565b60206040518083038186803b1580156110c457600080fd5b505afa1580156110d8573d6000803e3d6000fd5b505050506040513d601f19601f820116820180604052508101906110fc91906133f2565b90506000611113888a61232b90919063ffffffff16565b90506040518061016001604052806001151581526020018b73ffffffffffffffffffffffffffffffffffffffff1681526020018281526020018a8152602001888152602001878152602001861515815260200185815260200160008152602001600015158152602001841515815250609b600084815260200190815260200160002060008201518160000160006101000a81548160ff02191690831515021790555060208201518160000160016101000a81548173ffffffffffffffffffffffffffffffffffffffff021916908373ffffffffffffffffffffffffffffffffffffffff16021790555060408201518160010155606082015181600201556080820151816003015560a0820151816004015560c08201518160050160006101000a81548160ff02191690831515021790555060e0820151816006015561010082015181600701556101208201518160080160006101000a81548160ff0219169083151502179055506101408201518160080160016101000a81548160ff0219169083151502179055509050506112b384609c5461232b90919063ffffffff16565b609c8190555082156113085760006112e960646112db609854886124fa90919063ffffffff16565b61251090919063ffffffff16565b905061130081609d5461232b90919063ffffffff16565b609d81905550505b609a8290806001815401808255809150506001900390600052602060002001600090919091909150556000609e60008c73ffffffffffffffffffffffffffffffffffffffff1673ffffffffffffffffffffffffffffffffffffffff16815260200190815260200160002054905061138960018261232b90919063ffffffff16565b609e60008d73ffffffffffffffffffffffffffffffffffffffff1673ffffffffffffffffffffffffffffffffffffffff168152602001908152602001600020819055506000609f6000858152602001908152602001600020819055507f7deecc243dec36156ece079ae8e71cb3f5b8a86d4ee141e3733216e23614e0c3836040516114149190612cb5565b60405180910390a15050505050505050505050565b611431612788565b609b600061148a846001609e60008873ffffffffffffffffffffffffffffffffffffffff1673ffffffffffffffffffffffffffffffffffffffff16815260200190815260200160002054611485919061344e565b6115a9565b8152602001908152602001600020604051806101600160405290816000820160009054906101000a900460ff161515151581526020016000820160019054906101000a900473ffffffffffffffffffffffffffffffffffffffff1673ffffffffffffffffffffffffffffffffffffffff1673ffffffffffffffffffffffffffffffffffffffff168152602001600182015481526020016002820154815260200160038201548152602001600482015481526020016005820160009054906101000a900460ff1615151515815260200160068201548152602001600782015481526020016008820160009054906101000a900460ff161515151581526020016008820160019054906101000a900460ff1615151515815250509050919050565b600082826040516020016115be9291906134eb565b60405160208183030381529060405280519060200120905092915050565b6000603360009054906101000a900473ffffffffffffffffffffffffffffffffffffffff16905090565b60006116c7609c54609760009054906101000a900473ffffffffffffffffffffffffffffffffffffffff1673ffffffffffffffffffffffffffffffffffffffff166370a08231306040518263ffffffff1660e01b815260040161166991906128d3565b60206040518083038186803b15801561168157600080fd5b505afa158015611695573d6000803e3d6000fd5b505050506040513d601f19601f820116820180604052508101906116b99190612d8f565b61234190919063ffffffff16565b905090565b6116d4612788565b609b6000838152602001908152602001600020604051806101600160405290816000820160009054906101000a900460ff161515151581526020016000820160019054906101000a900473ffffffffffffffffffffffffffffffffffffffff1673ffffffffffffffffffffffffffffffffffffffff1673ffffffffffffffffffffffffffffffffffffffff168152602001600182015481526020016002820154815260200160038201548152602001600482015481526020016005820160009054906101000a900460ff1615151515815260200160068201548152602001600782015481526020016008820160009054906101000a900460ff161515151581526020016008820160019054906101000a900460ff1615151515815250509050919050565b6118006120df565b80609b600082815260200190815260200160002060000160009054906101000a900460ff1661182e57600080fd5b609b600082815260200190815260200160002060080160009054906101000a900460ff161561185c57600080fd5b6000609b600084815260200190815260200160002090508060050160009054906101000a900460ff166118c4576040517f08c379a00000000000000000000000000000000000000000000000000000000081526004016118bb90613589565b60405180910390fd5b60006119d982604051806101600160405290816000820160009054906101000a900460ff161515151581526020016000820160019054906101000a900473ffffffffffffffffffffffffffffffffffffffff1673ffffffffffffffffffffffffffffffffffffffff1673ffffffffffffffffffffffffffffffffffffffff168152602001600182015481526020016002820154815260200160038201548152602001600482015481526020016005820160009054906101000a900460ff1615151515815260200160068201548152602001600782015481526020016008820160009054906101000a900460ff161515151581526020016008820160019054906101000a900460ff1615151515815250506121e3565b905060008111156119ef576119ee848261082f565b5b6000611a0c8360070154846006015461234190919063ffffffff16565b9050611a2381609c5461234190919063ffffffff16565b609c8190555060018360080160006101000a81548160ff0219169083151502179055505050505050565b6000609c54609d54611a5f91906135a9565b905090565b609f6020528060005260406000206000915090505481565b6000609d54905090565b60985481565b600081609b600082815260200190815260200160002060000160009054906101000a900460ff16611abc57600080fd5b609b600082815260200190815260200160002060080160009054906101000a900460ff1615611aea57600080fd5b6000609b60008581526020019081526020016000209050611c1481604051806101600160405290816000820160009054906101000a900460ff161515151581526020016000820160019054906101000a900473ffffffffffffffffffffffffffffffffffffffff1673ffffffffffffffffffffffffffffffffffffffff1673ffffffffffffffffffffffffffffffffffffffff168152602001600182015481526020016002820154815260200160038201548152602001600482015481526020016005820160009054906101000a900460ff1615151515815260200160068201548152602001600782015481526020016008820160009054906101000a900460ff161515151581526020016008820160019054906101000a900460ff1615151515815250506121e3565b92505050919050565b611c256120df565b600073ffffffffffffffffffffffffffffffffffffffff168173ffffffffffffffffffffffffffffffffffffffff161415611c95576040517f08c379a0000000000000000000000000000000000000000000000000000000008152600401611c8c90613671565b60405180910390fd5b611c9e81612357565b50565b611ca9612788565b611cbb611cb684846115a9565b6116cc565b905092915050565b6000611d0e82609e60008573ffffffffffffffffffffffffffffffffffffffff1673ffffffffffffffffffffffffffffffffffffffff168152602001908152602001600020546115a9565b9050919050565b6000611d1f6105b8565b8210611d60576040517f08c379a0000000000000000000000000000000000000000000000000000000008152600401611d5790613703565b60405180910390fd5b609a8281548110611d7457611d73613723565b5b90600052602060002001549050919050565b60026065541415611dcc576040517f08c379a0000000000000000000000000000000000000000000000000000000008152600401611dc390612d5a565b60405180910390fd5b60026065819055506000609b6000838152602001908152602001600020905060008160000160019054906101000a900473ffffffffffffffffffffffffffffffffffffffff1673ffffffffffffffffffffffffffffffffffffffff163373ffffffffffffffffffffffffffffffffffffffff161490506000611e4c6115dc565b73ffffffffffffffffffffffffffffffffffffffff163373ffffffffffffffffffffffffffffffffffffffff161490508180611e855750805b611ec4576040517f08c379a0000000000000000000000000000000000000000000000000000000008152600401611ebb90612ee6565b60405180910390fd5b8260080160019054906101000a900460ff16611f15576040517f08c379a0000000000000000000000000000000000000000000000000000000008152600401611f0c906137c4565b60405180910390fd5b6000611f1f610659565b9050609954811015611f66576040517f08c379a0000000000000000000000000000000000000000000000000000000008152600401611f5d90613830565b60405180910390fd5b6000609f60008781526020019081526020016000205414611fbc576040517f08c379a0000000000000000000000000000000000000000000000000000000008152600401611fb39061389c565b60405180910390fd5b6000611fea6064611fdc60985488600601546124fa90919063ffffffff16565b61251090919063ffffffff16565b905080609f60008881526020019081526020016000208190555060008560000160019054906101000a900473ffffffffffffffffffffffffffffffffffffffff16905061204282609d5461234190919063ffffffff16565b609d819055506120958183609760009054906101000a900473ffffffffffffffffffffffffffffffffffffffff1673ffffffffffffffffffffffffffffffffffffffff1661215d9092919063ffffffff16565b7fd9215c0345f0d530c5101edea49413960423257c62dd4dcc18b5e6c0b63a022781836040516120c6929190613911565b60405180910390a1505050505050600160658190555050565b6120e7612526565b73ffffffffffffffffffffffffffffffffffffffff166121056115dc565b73ffffffffffffffffffffffffffffffffffffffff161461215b576040517f08c379a000000000000000000000000000000000000000000000000000000000815260040161215290613986565b60405180910390fd5b565b6121de8363a9059cbb60e01b848460405160240161217c9291906139a6565b604051602081830303815290604052907bffffffffffffffffffffffffffffffffffffffffffffffffffffffff19166020820180517bffffffffffffffffffffffffffffffffffffffffffffffffffffffff838183161783525050505061252e565b505050565b6000806121ee610659565b905060008360e0015190508361014001511561224f57600061223260646122246098548860e001516124fa90919063ffffffff16565b61251090919063ffffffff16565b905061224b818660e0015161234190919063ffffffff16565b9150505b836040015182108061226a5750600115158461012001511515145b1561227a57600092505050612326565b6122958460800151856060015161232b90919063ffffffff16565b82106122bc576122b38461010001518261234190919063ffffffff16565b92505050612326565b60006122d585606001518461234190919063ffffffff16565b9050600061230286608001516122f484866124fa90919063ffffffff16565b61251090919063ffffffff16565b905061231c8661010001518261234190919063ffffffff16565b9050809450505050505b919050565b6000818361233991906135a9565b905092915050565b6000818361234f919061344e565b905092915050565b6000603360009054906101000a900473ffffffffffffffffffffffffffffffffffffffff16905081603360006101000a81548173ffffffffffffffffffffffffffffffffffffffff021916908373ffffffffffffffffffffffffffffffffffffffff1602179055508173ffffffffffffffffffffffffffffffffffffffff168173ffffffffffffffffffffffffffffffffffffffff167f8be0079c531659141344cd1fd0a4f28419497f9722a3daafe3b4186f6b6457e060405160405180910390a35050565b6000808273ffffffffffffffffffffffffffffffffffffffff163b119050919050565b600060019054906101000a900460ff1661248f576040517f08c379a000000000000000000000000000000000000000000000000000000000815260040161248690613a41565b60405180910390fd5b61249f61249a612526565b612357565b565b600060019054906101000a900460ff166124f0576040517f08c379a00000000000000000000000000000000000000000000000000000000081526004016124e790613a41565b60405180910390fd5b6001606581905550565b600081836125089190613a61565b905092915050565b6000818361251e9190613aea565b905092915050565b600033905090565b6000612590826040518060400160405280602081526020017f5361666545524332303a206c6f772d6c6576656c2063616c6c206661696c65648152508573ffffffffffffffffffffffffffffffffffffffff166125f59092919063ffffffff16565b90506000815111156125f057808060200190518101906125b09190613b30565b6125ef576040517f08c379a00000000000000000000000000000000000000000000000000000000081526004016125e690613bcf565b60405180910390fd5b5b505050565b6060612604848460008561260d565b90509392505050565b606082471015612652576040517f08c379a000000000000000000000000000000000000000000000000000000000815260040161264990613c61565b60405180910390fd5b61265b8561241d565b61269a576040517f08c379a000000000000000000000000000000000000000000000000000000000815260040161269190613ccd565b60405180910390fd5b6000808673ffffffffffffffffffffffffffffffffffffffff1685876040516126c39190613d67565b60006040518083038185875af1925050503d8060008114612700576040519150601f19603f3d011682016040523d82523d6000602084013e612705565b606091505b5091509150612715828286612721565b92505050949350505050565b6060831561273157829050612781565b6000835111156127445782518084602001fd5b816040517f08c379a00000000000000000000000000000000000000000000000000000000081526004016127789190613dd3565b60405180910390fd5b9392505050565b604051806101600160405280600015158152602001600073ffffffffffffffffffffffffffffffffffffffff1681526020016000815260200160008152602001600081526020016000815260200160001515815260200160008152602001600081526020016000151581526020016000151581525090565b6000819050919050565b61281381612800565b82525050565b600060208201905061282e600083018461280a565b92915050565b600080fd5b600073ffffffffffffffffffffffffffffffffffffffff82169050919050565b600061286482612839565b9050919050565b61287481612859565b811461287f57600080fd5b50565b6000813590506128918161286b565b92915050565b6000602082840312156128ad576128ac612834565b5b60006128bb84828501612882565b91505092915050565b6128cd81612859565b82525050565b60006020820190506128e860008301846128c4565b92915050565b6128f781612800565b811461290257600080fd5b50565b600081359050612914816128ee565b92915050565b6000602082840312156129305761292f612834565b5b600061293e84828501612905565b91505092915050565b6000819050919050565b61295a81612947565b811461296557600080fd5b50565b60008135905061297781612951565b92915050565b6000806040838503121561299457612993612834565b5b60006129a285828601612968565b92505060206129b385828601612905565b9150509250929050565b60006129c882612859565b9050919050565b6129d8816129bd565b81146129e357600080fd5b50565b6000813590506129f5816129cf565b92915050565b600080600060608486031215612a1457612a13612834565b5b6000612a22868287016129e6565b9350506020612a3386828701612905565b9250506040612a4486828701612905565b9150509250925092565b60008115159050919050565b612a6381612a4e565b8114612a6e57600080fd5b50565b600081359050612a8081612a5a565b92915050565b600080600080600080600080610100898b031215612aa757612aa6612834565b5b6000612ab58b828c01612882565b9850506020612ac68b828c01612905565b9750506040612ad78b828c01612905565b9650506060612ae88b828c01612905565b9550506080612af98b828c01612905565b94505060a0612b0a8b828c01612a71565b93505060c0612b1b8b828c01612905565b92505060e0612b2c8b828c01612a71565b9150509295985092959890939650565b612b4581612a4e565b82525050565b612b5481612859565b82525050565b612b6381612800565b82525050565b61016082016000820151612b806000850182612b3c565b506020820151612b936020850182612b4b565b506040820151612ba66040850182612b5a565b506060820151612bb96060850182612b5a565b506080820151612bcc6080850182612b5a565b5060a0820151612bdf60a0850182612b5a565b5060c0820151612bf260c0850182612b3c565b5060e0820151612c0560e0850182612b5a565b50610100820151612c1a610100850182612b5a565b50610120820151612c2f610120850182612b3c565b50610140820151612c44610140850182612b3c565b50505050565b600061016082019050612c606000830184612b69565b92915050565b60008060408385031215612c7d57612c7c612834565b5b6000612c8b85828601612882565b9250506020612c9c85828601612905565b9150509250929050565b612caf81612947565b82525050565b6000602082019050612cca6000830184612ca6565b92915050565b600060208284031215612ce657612ce5612834565b5b6000612cf484828501612968565b91505092915050565b600082825260208201905092915050565b7f5265656e7472616e637947756172643a207265656e7472616e742063616c6c00600082015250565b6000612d44601f83612cfd565b9150612d4f82612d0e565b602082019050919050565b60006020820190508181036000830152612d7381612d37565b9050919050565b600081519050612d89816128ee565b92915050565b600060208284031215612da557612da4612834565b5b6000612db384828501612d7a565b91505092915050565b7f546f6b656e56657374696e673a206e6f7420656e6f756768207769746864726160008201527f7761626c652066756e6473000000000000000000000000000000000000000000602082015250565b6000612e18602b83612cfd565b9150612e2382612dbc565b604082019050919050565b60006020820190508181036000830152612e4781612e0b565b9050919050565b7f546f6b656e56657374696e673a206f6e6c792062656e6566696369617279206160008201527f6e64206f776e65722063616e2072656c656173652076657374656420746f6b6560208201527f6e73000000000000000000000000000000000000000000000000000000000000604082015250565b6000612ed0604283612cfd565b9150612edb82612e4e565b606082019050919050565b60006020820190508181036000830152612eff81612ec3565b9050919050565b7f546f6b656e56657374696e673a2063616e6e6f742072656c6561736520746f6b60008201527f656e732c206e6f7420656e6f7567682076657374656420746f6b656e73000000602082015250565b6000612f62603d83612cfd565b9150612f6d82612f06565b604082019050919050565b60006020820190508181036000830152612f9181612f55565b9050919050565b7f496e697469616c697a61626c653a20636f6e747261637420697320616c72656160008201527f647920696e697469616c697a6564000000000000000000000000000000000000602082015250565b6000612ff4602e83612cfd565b9150612fff82612f98565b604082019050919050565b6000602082019050818103600083015261302381612fe7565b9050919050565b7f5447452050657263656e74206d7573742062652067726561746572207468616e60008201527f203020616e64204c657373207468616e20313030000000000000000000000000602082015250565b6000613086603483612cfd565b91506130918261302a565b604082019050919050565b600060208201905081810360008301526130b581613079565b9050919050565b6000819050919050565b600060ff82169050919050565b6000819050919050565b60006130f86130f36130ee846130bc565b6130d3565b6130c6565b9050919050565b613108816130dd565b82525050565b600060208201905061312360008301846130ff565b92915050565b7f4e6f204163636573730000000000000000000000000000000000000000000000600082015250565b600061315f600983612cfd565b915061316a82613129565b602082019050919050565b6000602082019050818103600083015261318e81613152565b9050919050565b7f546f6b656e56657374696e673a2063616e6e6f7420637265617465207665737460008201527f696e67207363686564756c652062656361757365206e6f74207375666669636960208201527f656e7420746f6b656e7300000000000000000000000000000000000000000000604082015250565b6000613217604a83612cfd565b915061322282613195565b606082019050919050565b600060208201905081810360008301526132468161320a565b9050919050565b7f546f6b656e56657374696e673a206475726174696f6e206d757374206265203e60008201527f2030000000000000000000000000000000000000000000000000000000000000602082015250565b60006132a9602283612cfd565b91506132b48261324d565b604082019050919050565b600060208201905081810360008301526132d88161329c565b9050919050565b7f546f6b656e56657374696e673a20616d6f756e74206d757374206265203e2030600082015250565b6000613315602083612cfd565b9150613320826132df565b602082019050919050565b6000602082019050818103600083015261334481613308565b9050919050565b7f546f6b656e56657374696e673a20736c696365506572696f645365636f6e647360008201527f206d757374206265203e3d203100000000000000000000000000000000000000602082015250565b60006133a7602d83612cfd565b91506133b28261334b565b604082019050919050565b600060208201905081810360008301526133d68161339a565b9050919050565b6000815190506133ec81612951565b92915050565b60006020828403121561340857613407612834565b5b6000613416848285016133dd565b91505092915050565b7f4e487b7100000000000000000000000000000000000000000000000000000000600052601160045260246000fd5b600061345982612800565b915061346483612800565b9250828210156134775761347661341f565b5b828203905092915050565b60008160601b9050919050565b600061349a82613482565b9050919050565b60006134ac8261348f565b9050919050565b6134c46134bf82612859565b6134a1565b82525050565b6000819050919050565b6134e56134e082612800565b6134ca565b82525050565b60006134f782856134b3565b60148201915061350782846134d4565b6020820191508190509392505050565b7f546f6b656e56657374696e673a2076657374696e67206973206e6f742072657660008201527f6f6361626c650000000000000000000000000000000000000000000000000000602082015250565b6000613573602683612cfd565b915061357e82613517565b604082019050919050565b600060208201905081810360008301526135a281613566565b9050919050565b60006135b482612800565b91506135bf83612800565b9250827fffffffffffffffffffffffffffffffffffffffffffffffffffffffffffffffff038211156135f4576135f361341f565b5b828201905092915050565b7f4f776e61626c653a206e6577206f776e657220697320746865207a65726f206160008201527f6464726573730000000000000000000000000000000000000000000000000000602082015250565b600061365b602683612cfd565b9150613666826135ff565b604082019050919050565b6000602082019050818103600083015261368a8161364e565b9050919050565b7f546f6b656e56657374696e673a20696e646578206f7574206f6620626f756e6460008201527f7300000000000000000000000000000000000000000000000000000000000000602082015250565b60006136ed602183612cfd565b91506136f882613691565b604082019050919050565b6000602082019050818103600083015261371c816136e0565b9050919050565b7f4e487b7100000000000000000000000000000000000000000000000000000000600052603260045260246000fd5b7f52656c65617365546f6b656e41745447453a206f6e6c7920696e766573746f7260008201527f732063616e20636c61696d20746f6b656e206174205447450000000000000000602082015250565b60006137ae603883612cfd565b91506137b982613752565b604082019050919050565b600060208201905081810360008301526137dd816137a1565b9050919050565b7f5447453a2074696d65206e6f7420726561636865642100000000000000000000600082015250565b600061381a601683612cfd565b9150613825826137e4565b602082019050919050565b600060208201905081810360008301526138498161380d565b9050919050565b7f5447453a20546f6b656e20416c726561647920636c61696d6564000000000000600082015250565b6000613886601a83612cfd565b915061389182613850565b602082019050919050565b600060208201905081810360008301526138b581613879565b9050919050565b60006138d76138d26138cd84612839565b6130d3565b612839565b9050919050565b60006138e9826138bc565b9050919050565b60006138fb826138de565b9050919050565b61390b816138f0565b82525050565b60006040820190506139266000830185613902565b613933602083018461280a565b9392505050565b7f4f776e61626c653a2063616c6c6572206973206e6f7420746865206f776e6572600082015250565b6000613970602083612cfd565b915061397b8261393a565b602082019050919050565b6000602082019050818103600083015261399f81613963565b9050919050565b60006040820190506139bb60008301856128c4565b6139c8602083018461280a565b9392505050565b7f496e697469616c697a61626c653a20636f6e7472616374206973206e6f74206960008201527f6e697469616c697a696e67000000000000000000000000000000000000000000602082015250565b6000613a2b602b83612cfd565b9150613a36826139cf565b604082019050919050565b60006020820190508181036000830152613a5a81613a1e565b9050919050565b6000613a6c82612800565b9150613a7783612800565b9250817fffffffffffffffffffffffffffffffffffffffffffffffffffffffffffffffff0483118215151615613ab057613aaf61341f565b5b828202905092915050565b7f4e487b7100000000000000000000000000000000000000000000000000000000600052601260045260246000fd5b6000613af582612800565b9150613b0083612800565b925082613b1057613b0f613abb565b5b828204905092915050565b600081519050613b2a81612a5a565b92915050565b600060208284031215613b4657613b45612834565b5b6000613b5484828501613b1b565b91505092915050565b7f5361666545524332303a204552433230206f7065726174696f6e20646964206e60008201527f6f74207375636365656400000000000000000000000000000000000000000000602082015250565b6000613bb9602a83612cfd565b9150613bc482613b5d565b604082019050919050565b60006020820190508181036000830152613be881613bac565b9050919050565b7f416464726573733a20696e73756666696369656e742062616c616e636520666f60008201527f722063616c6c0000000000000000000000000000000000000000000000000000602082015250565b6000613c4b602683612cfd565b9150613c5682613bef565b604082019050919050565b60006020820190508181036000830152613c7a81613c3e565b9050919050565b7f416464726573733a2063616c6c20746f206e6f6e2d636f6e7472616374000000600082015250565b6000613cb7601d83612cfd565b9150613cc282613c81565b602082019050919050565b60006020820190508181036000830152613ce681613caa565b9050919050565b600081519050919050565b600081905092915050565b60005b83811015613d21578082015181840152602081019050613d06565b83811115613d30576000848401525b50505050565b6000613d4182613ced565b613d4b8185613cf8565b9350613d5b818560208601613d03565b80840191505092915050565b6000613d738284613d36565b915081905092915050565b600081519050919050565b6000601f19601f8301169050919050565b6000613da582613d7e565b613daf8185612cfd565b9350613dbf818560208601613d03565b613dc881613d89565b840191505092915050565b60006020820190508181036000830152613ded8184613d9a565b90509291505056fea264697066735822122027260399fb93a56d3a4da5108802e5cf629e92f803863edd2ce0f7d1709d0e8b64736f6c63430008090033",
					"opcodes": "PUSH1 0x80 PUSH1 0x40 MSTORE CALLVALUE DUP1 ISZERO PUSH2 0x10 JUMPI PUSH1 0x0 DUP1 REVERT JUMPDEST POP PUSH2 0x3E2B DUP1 PUSH2 0x20 PUSH1 0x0 CODECOPY PUSH1 0x0 RETURN INVALID PUSH1 0x80 PUSH1 0x40 MSTORE CALLVALUE DUP1 ISZERO PUSH2 0x10 JUMPI PUSH1 0x0 DUP1 REVERT JUMPDEST POP PUSH1 0x4 CALLDATASIZE LT PUSH2 0x1CF JUMPI PUSH1 0x0 CALLDATALOAD PUSH1 0xE0 SHR DUP1 PUSH4 0x8AF104DA GT PUSH2 0x104 JUMPI DUP1 PUSH4 0xC990C2F7 GT PUSH2 0xA2 JUMPI DUP1 PUSH4 0xF51321D7 GT PUSH2 0x71 JUMPI DUP1 PUSH4 0xF51321D7 EQ PUSH2 0x50C JUMPI DUP1 PUSH4 0xF7C469F0 EQ PUSH2 0x53C JUMPI DUP1 PUSH4 0xF9079B37 EQ PUSH2 0x56C JUMPI DUP1 PUSH4 0xF9299DD9 EQ PUSH2 0x59C JUMPI PUSH2 0x1CF JUMP JUMPDEST DUP1 PUSH4 0xC990C2F7 EQ PUSH2 0x484 JUMPI DUP1 PUSH4 0xE2F0F42D EQ PUSH2 0x4A2 JUMPI DUP1 PUSH4 0xEA1BB3D5 EQ PUSH2 0x4C0 JUMPI DUP1 PUSH4 0xF2FDE38B EQ PUSH2 0x4F0 JUMPI PUSH2 0x1CF JUMP JUMPDEST DUP1 PUSH4 0x9EF346B4 GT PUSH2 0xDE JUMPI DUP1 PUSH4 0x9EF346B4 EQ PUSH2 0x3EA JUMPI DUP1 PUSH4 0xB75C7DC6 EQ PUSH2 0x41A JUMPI DUP1 PUSH4 0xC07AA656 EQ PUSH2 0x436 JUMPI DUP1 PUSH4 0xC8AC75D2 EQ PUSH2 0x454 JUMPI PUSH2 0x1CF JUMP JUMPDEST DUP1 PUSH4 0x8AF104DA EQ PUSH2 0x37E JUMPI DUP1 PUSH4 0x8DA5CB5B EQ PUSH2 0x3AE JUMPI DUP1 PUSH4 0x90BE10CC EQ PUSH2 0x3CC JUMPI PUSH2 0x1CF JUMP JUMPDEST DUP1 PUSH4 0x48DEB471 GT PUSH2 0x171 JUMPI DUP1 PUSH4 0x715018A6 GT PUSH2 0x14B JUMPI DUP1 PUSH4 0x715018A6 EQ PUSH2 0x30C JUMPI DUP1 PUSH4 0x7A1AC61E EQ PUSH2 0x316 JUMPI DUP1 PUSH4 0x7DF8DF92 EQ PUSH2 0x332 JUMPI DUP1 PUSH4 0x7E913DC6 EQ PUSH2 0x34E JUMPI PUSH2 0x1CF JUMP JUMPDEST DUP1 PUSH4 0x48DEB471 EQ PUSH2 0x2A2 JUMPI DUP1 PUSH4 0x5A7BB69A EQ PUSH2 0x2C0 JUMPI DUP1 PUSH4 0x66AFD8EF EQ PUSH2 0x2F0 JUMPI PUSH2 0x1CF JUMP JUMPDEST DUP1 PUSH4 0x260A51E5 GT PUSH2 0x1AD JUMPI DUP1 PUSH4 0x260A51E5 EQ PUSH2 0x22C JUMPI DUP1 PUSH4 0x29CB924D EQ PUSH2 0x24A JUMPI DUP1 PUSH4 0x2E1A7D4D EQ PUSH2 0x268 JUMPI DUP1 PUSH4 0x40A9627F EQ PUSH2 0x284 JUMPI PUSH2 0x1CF JUMP JUMPDEST DUP1 PUSH4 0x13083617 EQ PUSH2 0x1D4 JUMPI DUP1 PUSH4 0x1F35BC40 EQ PUSH2 0x1F2 JUMPI DUP1 PUSH4 0x21DF0DA7 EQ PUSH2 0x20E JUMPI JUMPDEST PUSH1 0x0 DUP1 REVERT JUMPDEST PUSH2 0x1DC PUSH2 0x5B8 JUMP JUMPDEST PUSH1 0x40 MLOAD PUSH2 0x1E9 SWAP2 SWAP1 PUSH2 0x2819 JUMP JUMPDEST PUSH1 0x40 MLOAD DUP1 SWAP2 SUB SWAP1 RETURN JUMPDEST PUSH2 0x20C PUSH1 0x4 DUP1 CALLDATASIZE SUB DUP2 ADD SWAP1 PUSH2 0x207 SWAP2 SWAP1 PUSH2 0x2897 JUMP JUMPDEST PUSH2 0x5C5 JUMP JUMPDEST STOP JUMPDEST PUSH2 0x216 PUSH2 0x609 JUMP JUMPDEST PUSH1 0x40 MLOAD PUSH2 0x223 SWAP2 SWAP1 PUSH2 0x28D3 JUMP JUMPDEST PUSH1 0x40 MLOAD DUP1 SWAP2 SUB SWAP1 RETURN JUMPDEST PUSH2 0x234 PUSH2 0x633 JUMP JUMPDEST PUSH1 0x40 MLOAD PUSH2 0x241 SWAP2 SWAP1 PUSH2 0x28D3 JUMP JUMPDEST PUSH1 0x40 MLOAD DUP1 SWAP2 SUB SWAP1 RETURN JUMPDEST PUSH2 0x252 PUSH2 0x659 JUMP JUMPDEST PUSH1 0x40 MLOAD PUSH2 0x25F SWAP2 SWAP1 PUSH2 0x2819 JUMP JUMPDEST PUSH1 0x40 MLOAD DUP1 SWAP2 SUB SWAP1 RETURN JUMPDEST PUSH2 0x282 PUSH1 0x4 DUP1 CALLDATASIZE SUB DUP2 ADD SWAP1 PUSH2 0x27D SWAP2 SWAP1 PUSH2 0x291A JUMP JUMPDEST PUSH2 0x661 JUMP JUMPDEST STOP JUMPDEST PUSH2 0x28C PUSH2 0x7D6 JUMP JUMPDEST PUSH1 0x40 MLOAD PUSH2 0x299 SWAP2 SWAP1 PUSH2 0x2819 JUMP JUMPDEST PUSH1 0x40 MLOAD DUP1 SWAP2 SUB SWAP1 RETURN JUMPDEST PUSH2 0x2AA PUSH2 0x7DC JUMP JUMPDEST PUSH1 0x40 MLOAD PUSH2 0x2B7 SWAP2 SWAP1 PUSH2 0x2819 JUMP JUMPDEST PUSH1 0x40 MLOAD DUP1 SWAP2 SUB SWAP1 RETURN JUMPDEST PUSH2 0x2DA PUSH1 0x4 DUP1 CALLDATASIZE SUB DUP2 ADD SWAP1 PUSH2 0x2D5 SWAP2 SWAP1 PUSH2 0x2897 JUMP JUMPDEST PUSH2 0x7E6 JUMP JUMPDEST PUSH1 0x40 MLOAD PUSH2 0x2E7 SWAP2 SWAP1 PUSH2 0x2819 JUMP JUMPDEST PUSH1 0x40 MLOAD DUP1 SWAP2 SUB SWAP1 RETURN JUMPDEST PUSH2 0x30A PUSH1 0x4 DUP1 CALLDATASIZE SUB DUP2 ADD SWAP1 PUSH2 0x305 SWAP2 SWAP1 PUSH2 0x297D JUMP JUMPDEST PUSH2 0x82F JUMP JUMPDEST STOP JUMPDEST PUSH2 0x314 PUSH2 0xBE5 JUMP JUMPDEST STOP JUMPDEST PUSH2 0x330 PUSH1 0x4 DUP1 CALLDATASIZE SUB DUP2 ADD SWAP1 PUSH2 0x32B SWAP2 SWAP1 PUSH2 0x29FB JUMP JUMPDEST PUSH2 0xBF9 JUMP JUMPDEST STOP JUMPDEST PUSH2 0x34C PUSH1 0x4 DUP1 CALLDATASIZE SUB DUP2 ADD SWAP1 PUSH2 0x347 SWAP2 SWAP1 PUSH2 0x2A86 JUMP JUMPDEST PUSH2 0xE1A JUMP JUMPDEST STOP JUMPDEST PUSH2 0x368 PUSH1 0x4 DUP1 CALLDATASIZE SUB DUP2 ADD SWAP1 PUSH2 0x363 SWAP2 SWAP1 PUSH2 0x2897 JUMP JUMPDEST PUSH2 0x1429 JUMP JUMPDEST PUSH1 0x40 MLOAD PUSH2 0x375 SWAP2 SWAP1 PUSH2 0x2C4A JUMP JUMPDEST PUSH1 0x40 MLOAD DUP1 SWAP2 SUB SWAP1 RETURN JUMPDEST PUSH2 0x398 PUSH1 0x4 DUP1 CALLDATASIZE SUB DUP2 ADD SWAP1 PUSH2 0x393 SWAP2 SWAP1 PUSH2 0x2C66 JUMP JUMPDEST PUSH2 0x15A9 JUMP JUMPDEST PUSH1 0x40 MLOAD PUSH2 0x3A5 SWAP2 SWAP1 PUSH2 0x2CB5 JUMP JUMPDEST PUSH1 0x40 MLOAD DUP1 SWAP2 SUB SWAP1 RETURN JUMPDEST PUSH2 0x3B6 PUSH2 0x15DC JUMP JUMPDEST PUSH1 0x40 MLOAD PUSH2 0x3C3 SWAP2 SWAP1 PUSH2 0x28D3 JUMP JUMPDEST PUSH1 0x40 MLOAD DUP1 SWAP2 SUB SWAP1 RETURN JUMPDEST PUSH2 0x3D4 PUSH2 0x1606 JUMP JUMPDEST PUSH1 0x40 MLOAD PUSH2 0x3E1 SWAP2 SWAP1 PUSH2 0x2819 JUMP JUMPDEST PUSH1 0x40 MLOAD DUP1 SWAP2 SUB SWAP1 RETURN JUMPDEST PUSH2 0x404 PUSH1 0x4 DUP1 CALLDATASIZE SUB DUP2 ADD SWAP1 PUSH2 0x3FF SWAP2 SWAP1 PUSH2 0x2CD0 JUMP JUMPDEST PUSH2 0x16CC JUMP JUMPDEST PUSH1 0x40 MLOAD PUSH2 0x411 SWAP2 SWAP1 PUSH2 0x2C4A JUMP JUMPDEST PUSH1 0x40 MLOAD DUP1 SWAP2 SUB SWAP1 RETURN JUMPDEST PUSH2 0x434 PUSH1 0x4 DUP1 CALLDATASIZE SUB DUP2 ADD SWAP1 PUSH2 0x42F SWAP2 SWAP1 PUSH2 0x2CD0 JUMP JUMPDEST PUSH2 0x17F8 JUMP JUMPDEST STOP JUMPDEST PUSH2 0x43E PUSH2 0x1A4D JUMP JUMPDEST PUSH1 0x40 MLOAD PUSH2 0x44B SWAP2 SWAP1 PUSH2 0x2819 JUMP JUMPDEST PUSH1 0x40 MLOAD DUP1 SWAP2 SUB SWAP1 RETURN JUMPDEST PUSH2 0x46E PUSH1 0x4 DUP1 CALLDATASIZE SUB DUP2 ADD SWAP1 PUSH2 0x469 SWAP2 SWAP1 PUSH2 0x2CD0 JUMP JUMPDEST PUSH2 0x1A64 JUMP JUMPDEST PUSH1 0x40 MLOAD PUSH2 0x47B SWAP2 SWAP1 PUSH2 0x2819 JUMP JUMPDEST PUSH1 0x40 MLOAD DUP1 SWAP2 SUB SWAP1 RETURN JUMPDEST PUSH2 0x48C PUSH2 0x1A7C JUMP JUMPDEST PUSH1 0x40 MLOAD PUSH2 0x499 SWAP2 SWAP1 PUSH2 0x2819 JUMP JUMPDEST PUSH1 0x40 MLOAD DUP1 SWAP2 SUB SWAP1 RETURN JUMPDEST PUSH2 0x4AA PUSH2 0x1A86 JUMP JUMPDEST PUSH1 0x40 MLOAD PUSH2 0x4B7 SWAP2 SWAP1 PUSH2 0x2819 JUMP JUMPDEST PUSH1 0x40 MLOAD DUP1 SWAP2 SUB SWAP1 RETURN JUMPDEST PUSH2 0x4DA PUSH1 0x4 DUP1 CALLDATASIZE SUB DUP2 ADD SWAP1 PUSH2 0x4D5 SWAP2 SWAP1 PUSH2 0x2CD0 JUMP JUMPDEST PUSH2 0x1A8C JUMP JUMPDEST PUSH1 0x40 MLOAD PUSH2 0x4E7 SWAP2 SWAP1 PUSH2 0x2819 JUMP JUMPDEST PUSH1 0x40 MLOAD DUP1 SWAP2 SUB SWAP1 RETURN JUMPDEST PUSH2 0x50A PUSH1 0x4 DUP1 CALLDATASIZE SUB DUP2 ADD SWAP1 PUSH2 0x505 SWAP2 SWAP1 PUSH2 0x2897 JUMP JUMPDEST PUSH2 0x1C1D JUMP JUMPDEST STOP JUMPDEST PUSH2 0x526 PUSH1 0x4 DUP1 CALLDATASIZE SUB DUP2 ADD SWAP1 PUSH2 0x521 SWAP2 SWAP1 PUSH2 0x2C66 JUMP JUMPDEST PUSH2 0x1CA1 JUMP JUMPDEST PUSH1 0x40 MLOAD PUSH2 0x533 SWAP2 SWAP1 PUSH2 0x2C4A JUMP JUMPDEST PUSH1 0x40 MLOAD DUP1 SWAP2 SUB SWAP1 RETURN JUMPDEST PUSH2 0x556 PUSH1 0x4 DUP1 CALLDATASIZE SUB DUP2 ADD SWAP1 PUSH2 0x551 SWAP2 SWAP1 PUSH2 0x2897 JUMP JUMPDEST PUSH2 0x1CC3 JUMP JUMPDEST PUSH1 0x40 MLOAD PUSH2 0x563 SWAP2 SWAP1 PUSH2 0x2CB5 JUMP JUMPDEST PUSH1 0x40 MLOAD DUP1 SWAP2 SUB SWAP1 RETURN JUMPDEST PUSH2 0x586 PUSH1 0x4 DUP1 CALLDATASIZE SUB DUP2 ADD SWAP1 PUSH2 0x581 SWAP2 SWAP1 PUSH2 0x291A JUMP JUMPDEST PUSH2 0x1D15 JUMP JUMPDEST PUSH1 0x40 MLOAD PUSH2 0x593 SWAP2 SWAP1 PUSH2 0x2CB5 JUMP JUMPDEST PUSH1 0x40 MLOAD DUP1 SWAP2 SUB SWAP1 RETURN JUMPDEST PUSH2 0x5B6 PUSH1 0x4 DUP1 CALLDATASIZE SUB DUP2 ADD SWAP1 PUSH2 0x5B1 SWAP2 SWAP1 PUSH2 0x2CD0 JUMP JUMPDEST PUSH2 0x1D86 JUMP JUMPDEST STOP JUMPDEST PUSH1 0x0 PUSH1 0x9A DUP1 SLOAD SWAP1 POP SWAP1 POP SWAP1 JUMP JUMPDEST DUP1 PUSH1 0xA0 PUSH1 0x0 PUSH2 0x100 EXP DUP2 SLOAD DUP2 PUSH20 0xFFFFFFFFFFFFFFFFFFFFFFFFFFFFFFFFFFFFFFFF MUL NOT AND SWAP1 DUP4 PUSH20 0xFFFFFFFFFFFFFFFFFFFFFFFFFFFFFFFFFFFFFFFF AND MUL OR SWAP1 SSTORE POP POP JUMP JUMPDEST PUSH1 0x0 PUSH1 0x97 PUSH1 0x0 SWAP1 SLOAD SWAP1 PUSH2 0x100 EXP SWAP1 DIV PUSH20 0xFFFFFFFFFFFFFFFFFFFFFFFFFFFFFFFFFFFFFFFF AND SWAP1 POP SWAP1 JUMP JUMPDEST PUSH1 0xA0 PUSH1 0x0 SWAP1 SLOAD SWAP1 PUSH2 0x100 EXP SWAP1 DIV PUSH20 0xFFFFFFFFFFFFFFFFFFFFFFFFFFFFFFFFFFFFFFFF AND DUP2 JUMP JUMPDEST PUSH1 0x0 TIMESTAMP SWAP1 POP SWAP1 JUMP JUMPDEST PUSH1 0x2 PUSH1 0x65 SLOAD EQ ISZERO PUSH2 0x6A7 JUMPI PUSH1 0x40 MLOAD PUSH32 0x8C379A000000000000000000000000000000000000000000000000000000000 DUP2 MSTORE PUSH1 0x4 ADD PUSH2 0x69E SWAP1 PUSH2 0x2D5A JUMP JUMPDEST PUSH1 0x40 MLOAD DUP1 SWAP2 SUB SWAP1 REVERT JUMPDEST PUSH1 0x2 PUSH1 0x65 DUP2 SWAP1 SSTORE POP PUSH2 0x6B7 PUSH2 0x20DF JUMP JUMPDEST DUP1 ADDRESS PUSH20 0xFFFFFFFFFFFFFFFFFFFFFFFFFFFFFFFFFFFFFFFF AND PUSH4 0x90BE10CC PUSH1 0x40 MLOAD DUP2 PUSH4 0xFFFFFFFF AND PUSH1 0xE0 SHL DUP2 MSTORE PUSH1 0x4 ADD PUSH1 0x20 PUSH1 0x40 MLOAD DUP1 DUP4 SUB DUP2 DUP7 DUP1 EXTCODESIZE ISZERO DUP1 ISZERO PUSH2 0x6FE JUMPI PUSH1 0x0 DUP1 REVERT JUMPDEST POP GAS STATICCALL ISZERO DUP1 ISZERO PUSH2 0x712 JUMPI RETURNDATASIZE PUSH1 0x0 DUP1 RETURNDATACOPY RETURNDATASIZE PUSH1 0x0 REVERT JUMPDEST POP POP POP POP PUSH1 0x40 MLOAD RETURNDATASIZE PUSH1 0x1F NOT PUSH1 0x1F DUP3 ADD AND DUP3 ADD DUP1 PUSH1 0x40 MSTORE POP DUP2 ADD SWAP1 PUSH2 0x736 SWAP2 SWAP1 PUSH2 0x2D8F JUMP JUMPDEST LT ISZERO PUSH2 0x777 JUMPI PUSH1 0x40 MLOAD PUSH32 0x8C379A000000000000000000000000000000000000000000000000000000000 DUP2 MSTORE PUSH1 0x4 ADD PUSH2 0x76E SWAP1 PUSH2 0x2E2E JUMP JUMPDEST PUSH1 0x40 MLOAD DUP1 SWAP2 SUB SWAP1 REVERT JUMPDEST PUSH2 0x7CB PUSH2 0x782 PUSH2 0x15DC JUMP JUMPDEST DUP3 PUSH1 0x97 PUSH1 0x0 SWAP1 SLOAD SWAP1 PUSH2 0x100 EXP SWAP1 DIV PUSH20 0xFFFFFFFFFFFFFFFFFFFFFFFFFFFFFFFFFFFFFFFF AND PUSH20 0xFFFFFFFFFFFFFFFFFFFFFFFFFFFFFFFFFFFFFFFF AND PUSH2 0x215D SWAP1 SWAP3 SWAP2 SWAP1 PUSH4 0xFFFFFFFF AND JUMP JUMPDEST PUSH1 0x1 PUSH1 0x65 DUP2 SWAP1 SSTORE POP POP JUMP JUMPDEST PUSH1 0x99 SLOAD DUP2 JUMP JUMPDEST PUSH1 0x0 PUSH1 0x9C SLOAD SWAP1 POP SWAP1 JUMP JUMPDEST PUSH1 0x0 PUSH1 0x9E PUSH1 0x0 DUP4 PUSH20 0xFFFFFFFFFFFFFFFFFFFFFFFFFFFFFFFFFFFFFFFF AND PUSH20 0xFFFFFFFFFFFFFFFFFFFFFFFFFFFFFFFFFFFFFFFF AND DUP2 MSTORE PUSH1 0x20 ADD SWAP1 DUP2 MSTORE PUSH1 0x20 ADD PUSH1 0x0 KECCAK256 SLOAD SWAP1 POP SWAP2 SWAP1 POP JUMP JUMPDEST PUSH1 0x2 PUSH1 0x65 SLOAD EQ ISZERO PUSH2 0x875 JUMPI PUSH1 0x40 MLOAD PUSH32 0x8C379A000000000000000000000000000000000000000000000000000000000 DUP2 MSTORE PUSH1 0x4 ADD PUSH2 0x86C SWAP1 PUSH2 0x2D5A JUMP JUMPDEST PUSH1 0x40 MLOAD DUP1 SWAP2 SUB SWAP1 REVERT JUMPDEST PUSH1 0x2 PUSH1 0x65 DUP2 SWAP1 SSTORE POP DUP2 PUSH1 0x9B PUSH1 0x0 DUP3 DUP2 MSTORE PUSH1 0x20 ADD SWAP1 DUP2 MSTORE PUSH1 0x20 ADD PUSH1 0x0 KECCAK256 PUSH1 0x0 ADD PUSH1 0x0 SWAP1 SLOAD SWAP1 PUSH2 0x100 EXP SWAP1 DIV PUSH1 0xFF AND PUSH2 0x8AB JUMPI PUSH1 0x0 DUP1 REVERT JUMPDEST PUSH1 0x9B PUSH1 0x0 DUP3 DUP2 MSTORE PUSH1 0x20 ADD SWAP1 DUP2 MSTORE PUSH1 0x20 ADD PUSH1 0x0 KECCAK256 PUSH1 0x8 ADD PUSH1 0x0 SWAP1 SLOAD SWAP1 PUSH2 0x100 EXP SWAP1 DIV PUSH1 0xFF AND ISZERO PUSH2 0x8D9 JUMPI PUSH1 0x0 DUP1 REVERT JUMPDEST PUSH1 0x0 PUSH1 0x9B PUSH1 0x0 DUP6 DUP2 MSTORE PUSH1 0x20 ADD SWAP1 DUP2 MSTORE PUSH1 0x20 ADD PUSH1 0x0 KECCAK256 SWAP1 POP PUSH1 0x0 DUP2 PUSH1 0x0 ADD PUSH1 0x1 SWAP1 SLOAD SWAP1 PUSH2 0x100 EXP SWAP1 DIV PUSH20 0xFFFFFFFFFFFFFFFFFFFFFFFFFFFFFFFFFFFFFFFF AND PUSH20 0xFFFFFFFFFFFFFFFFFFFFFFFFFFFFFFFFFFFFFFFF AND CALLER PUSH20 0xFFFFFFFFFFFFFFFFFFFFFFFFFFFFFFFFFFFFFFFF AND EQ SWAP1 POP PUSH1 0x0 PUSH2 0x951 PUSH2 0x15DC JUMP JUMPDEST PUSH20 0xFFFFFFFFFFFFFFFFFFFFFFFFFFFFFFFFFFFFFFFF AND CALLER PUSH20 0xFFFFFFFFFFFFFFFFFFFFFFFFFFFFFFFFFFFFFFFF AND EQ SWAP1 POP DUP2 DUP1 PUSH2 0x98A JUMPI POP DUP1 JUMPDEST PUSH2 0x9C9 JUMPI PUSH1 0x40 MLOAD PUSH32 0x8C379A000000000000000000000000000000000000000000000000000000000 DUP2 MSTORE PUSH1 0x4 ADD PUSH2 0x9C0 SWAP1 PUSH2 0x2EE6 JUMP JUMPDEST PUSH1 0x40 MLOAD DUP1 SWAP2 SUB SWAP1 REVERT JUMPDEST PUSH1 0x0 PUSH2 0xADE DUP5 PUSH1 0x40 MLOAD DUP1 PUSH2 0x160 ADD PUSH1 0x40 MSTORE SWAP1 DUP2 PUSH1 0x0 DUP3 ADD PUSH1 0x0 SWAP1 SLOAD SWAP1 PUSH2 0x100 EXP SWAP1 DIV PUSH1 0xFF AND ISZERO ISZERO ISZERO ISZERO DUP2 MSTORE PUSH1 0x20 ADD PUSH1 0x0 DUP3 ADD PUSH1 0x1 SWAP1 SLOAD SWAP1 PUSH2 0x100 EXP SWAP1 DIV PUSH20 0xFFFFFFFFFFFFFFFFFFFFFFFFFFFFFFFFFFFFFFFF AND PUSH20 0xFFFFFFFFFFFFFFFFFFFFFFFFFFFFFFFFFFFFFFFF AND PUSH20 0xFFFFFFFFFFFFFFFFFFFFFFFFFFFFFFFFFFFFFFFF AND DUP2 MSTORE PUSH1 0x20 ADD PUSH1 0x1 DUP3 ADD SLOAD DUP2 MSTORE PUSH1 0x20 ADD PUSH1 0x2 DUP3 ADD SLOAD DUP2 MSTORE PUSH1 0x20 ADD PUSH1 0x3 DUP3 ADD SLOAD DUP2 MSTORE PUSH1 0x20 ADD PUSH1 0x4 DUP3 ADD SLOAD DUP2 MSTORE PUSH1 0x20 ADD PUSH1 0x5 DUP3 ADD PUSH1 0x0 SWAP1 SLOAD SWAP1 PUSH2 0x100 EXP SWAP1 DIV PUSH1 0xFF AND ISZERO ISZERO ISZERO ISZERO DUP2 MSTORE PUSH1 0x20 ADD PUSH1 0x6 DUP3 ADD SLOAD DUP2 MSTORE PUSH1 0x20 ADD PUSH1 0x7 DUP3 ADD SLOAD DUP2 MSTORE PUSH1 0x20 ADD PUSH1 0x8 DUP3 ADD PUSH1 0x0 SWAP1 SLOAD SWAP1 PUSH2 0x100 EXP SWAP1 DIV PUSH1 0xFF AND ISZERO ISZERO ISZERO ISZERO DUP2 MSTORE PUSH1 0x20 ADD PUSH1 0x8 DUP3 ADD PUSH1 0x1 SWAP1 SLOAD SWAP1 PUSH2 0x100 EXP SWAP1 DIV PUSH1 0xFF AND ISZERO ISZERO ISZERO ISZERO DUP2 MSTORE POP POP PUSH2 0x21E3 JUMP JUMPDEST SWAP1 POP DUP6 DUP2 LT ISZERO PUSH2 0xB23 JUMPI PUSH1 0x40 MLOAD PUSH32 0x8C379A000000000000000000000000000000000000000000000000000000000 DUP2 MSTORE PUSH1 0x4 ADD PUSH2 0xB1A SWAP1 PUSH2 0x2F78 JUMP JUMPDEST PUSH1 0x40 MLOAD DUP1 SWAP2 SUB SWAP1 REVERT JUMPDEST PUSH2 0xB3A DUP7 DUP6 PUSH1 0x7 ADD SLOAD PUSH2 0x232B SWAP1 SWAP2 SWAP1 PUSH4 0xFFFFFFFF AND JUMP JUMPDEST DUP5 PUSH1 0x7 ADD DUP2 SWAP1 SSTORE POP PUSH1 0x0 DUP5 PUSH1 0x0 ADD PUSH1 0x1 SWAP1 SLOAD SWAP1 PUSH2 0x100 EXP SWAP1 DIV PUSH20 0xFFFFFFFFFFFFFFFFFFFFFFFFFFFFFFFFFFFFFFFF AND SWAP1 POP PUSH2 0xB80 DUP8 PUSH1 0x9C SLOAD PUSH2 0x2341 SWAP1 SWAP2 SWAP1 PUSH4 0xFFFFFFFF AND JUMP JUMPDEST PUSH1 0x9C DUP2 SWAP1 SSTORE POP PUSH2 0xBD3 DUP2 DUP9 PUSH1 0x97 PUSH1 0x0 SWAP1 SLOAD SWAP1 PUSH2 0x100 EXP SWAP1 DIV PUSH20 0xFFFFFFFFFFFFFFFFFFFFFFFFFFFFFFFFFFFFFFFF AND PUSH20 0xFFFFFFFFFFFFFFFFFFFFFFFFFFFFFFFFFFFFFFFF AND PUSH2 0x215D SWAP1 SWAP3 SWAP2 SWAP1 PUSH4 0xFFFFFFFF AND JUMP JUMPDEST POP POP POP POP POP POP PUSH1 0x1 PUSH1 0x65 DUP2 SWAP1 SSTORE POP POP POP JUMP JUMPDEST PUSH2 0xBED PUSH2 0x20DF JUMP JUMPDEST PUSH2 0xBF7 PUSH1 0x0 PUSH2 0x2357 JUMP JUMPDEST JUMP JUMPDEST PUSH1 0x0 DUP1 PUSH1 0x1 SWAP1 SLOAD SWAP1 PUSH2 0x100 EXP SWAP1 DIV PUSH1 0xFF AND ISZERO SWAP1 POP DUP1 DUP1 ISZERO PUSH2 0xC2A JUMPI POP PUSH1 0x1 PUSH1 0x0 DUP1 SLOAD SWAP1 PUSH2 0x100 EXP SWAP1 DIV PUSH1 0xFF AND PUSH1 0xFF AND LT JUMPDEST DUP1 PUSH2 0xC57 JUMPI POP PUSH2 0xC39 ADDRESS PUSH2 0x241D JUMP JUMPDEST ISZERO DUP1 ISZERO PUSH2 0xC56 JUMPI POP PUSH1 0x1 PUSH1 0x0 DUP1 SLOAD SWAP1 PUSH2 0x100 EXP SWAP1 DIV PUSH1 0xFF AND PUSH1 0xFF AND EQ JUMPDEST JUMPDEST PUSH2 0xC96 JUMPI PUSH1 0x40 MLOAD PUSH32 0x8C379A000000000000000000000000000000000000000000000000000000000 DUP2 MSTORE PUSH1 0x4 ADD PUSH2 0xC8D SWAP1 PUSH2 0x300A JUMP JUMPDEST PUSH1 0x40 MLOAD DUP1 SWAP2 SUB SWAP1 REVERT JUMPDEST PUSH1 0x1 PUSH1 0x0 DUP1 PUSH2 0x100 EXP DUP2 SLOAD DUP2 PUSH1 0xFF MUL NOT AND SWAP1 DUP4 PUSH1 0xFF AND MUL OR SWAP1 SSTORE POP DUP1 ISZERO PUSH2 0xCD3 JUMPI PUSH1 0x1 PUSH1 0x0 PUSH1 0x1 PUSH2 0x100 EXP DUP2 SLOAD DUP2 PUSH1 0xFF MUL NOT AND SWAP1 DUP4 ISZERO ISZERO MUL OR SWAP1 SSTORE POP JUMPDEST PUSH1 0x0 PUSH20 0xFFFFFFFFFFFFFFFFFFFFFFFFFFFFFFFFFFFFFFFF AND DUP5 PUSH20 0xFFFFFFFFFFFFFFFFFFFFFFFFFFFFFFFFFFFFFFFF AND EQ ISZERO PUSH2 0xD0D JUMPI PUSH1 0x0 DUP1 REVERT JUMPDEST PUSH1 0x0 DUP4 GT DUP1 ISZERO PUSH2 0xD1D JUMPI POP PUSH1 0x64 DUP4 LT JUMPDEST PUSH2 0xD5C JUMPI PUSH1 0x40 MLOAD PUSH32 0x8C379A000000000000000000000000000000000000000000000000000000000 DUP2 MSTORE PUSH1 0x4 ADD PUSH2 0xD53 SWAP1 PUSH2 0x309C JUMP JUMPDEST PUSH1 0x40 MLOAD DUP1 SWAP2 SUB SWAP1 REVERT JUMPDEST PUSH2 0xD64 PUSH2 0x2440 JUMP JUMPDEST PUSH2 0xD6C PUSH2 0x24A1 JUMP JUMPDEST DUP4 PUSH1 0x97 PUSH1 0x0 PUSH2 0x100 EXP DUP2 SLOAD DUP2 PUSH20 0xFFFFFFFFFFFFFFFFFFFFFFFFFFFFFFFFFFFFFFFF MUL NOT AND SWAP1 DUP4 PUSH20 0xFFFFFFFFFFFFFFFFFFFFFFFFFFFFFFFFFFFFFFFF AND MUL OR SWAP1 SSTORE POP DUP2 PUSH1 0x99 DUP2 SWAP1 SSTORE POP DUP3 PUSH1 0x98 DUP2 SWAP1 SSTORE POP DUP1 ISZERO PUSH2 0xE14 JUMPI PUSH1 0x0 DUP1 PUSH1 0x1 PUSH2 0x100 EXP DUP2 SLOAD DUP2 PUSH1 0xFF MUL NOT AND SWAP1 DUP4 ISZERO ISZERO MUL OR SWAP1 SSTORE POP PUSH32 0x7F26B83FF96E1F2B6A682F133852F6798A09C465DA95921460CEFB3847402498 PUSH1 0x1 PUSH1 0x40 MLOAD PUSH2 0xE0B SWAP2 SWAP1 PUSH2 0x310E JUMP JUMPDEST PUSH1 0x40 MLOAD DUP1 SWAP2 SUB SWAP1 LOG1 JUMPDEST POP POP POP POP JUMP JUMPDEST PUSH1 0xA0 PUSH1 0x0 SWAP1 SLOAD SWAP1 PUSH2 0x100 EXP SWAP1 DIV PUSH20 0xFFFFFFFFFFFFFFFFFFFFFFFFFFFFFFFFFFFFFFFF AND PUSH20 0xFFFFFFFFFFFFFFFFFFFFFFFFFFFFFFFFFFFFFFFF AND CALLER PUSH20 0xFFFFFFFFFFFFFFFFFFFFFFFFFFFFFFFFFFFFFFFF AND EQ DUP1 PUSH2 0xEA8 JUMPI POP PUSH2 0xE79 PUSH2 0x15DC JUMP JUMPDEST PUSH20 0xFFFFFFFFFFFFFFFFFFFFFFFFFFFFFFFFFFFFFFFF AND CALLER PUSH20 0xFFFFFFFFFFFFFFFFFFFFFFFFFFFFFFFFFFFFFFFF AND EQ JUMPDEST PUSH2 0xEE7 JUMPI PUSH1 0x40 MLOAD PUSH32 0x8C379A000000000000000000000000000000000000000000000000000000000 DUP2 MSTORE PUSH1 0x4 ADD PUSH2 0xEDE SWAP1 PUSH2 0x3175 JUMP JUMPDEST PUSH1 0x40 MLOAD DUP1 SWAP2 SUB SWAP1 REVERT JUMPDEST DUP2 ADDRESS PUSH20 0xFFFFFFFFFFFFFFFFFFFFFFFFFFFFFFFFFFFFFFFF AND PUSH4 0x90BE10CC PUSH1 0x40 MLOAD DUP2 PUSH4 0xFFFFFFFF AND PUSH1 0xE0 SHL DUP2 MSTORE PUSH1 0x4 ADD PUSH1 0x20 PUSH1 0x40 MLOAD DUP1 DUP4 SUB DUP2 DUP7 DUP1 EXTCODESIZE ISZERO DUP1 ISZERO PUSH2 0xF2E JUMPI PUSH1 0x0 DUP1 REVERT JUMPDEST POP GAS STATICCALL ISZERO DUP1 ISZERO PUSH2 0xF42 JUMPI RETURNDATASIZE PUSH1 0x0 DUP1 RETURNDATACOPY RETURNDATASIZE PUSH1 0x0 REVERT JUMPDEST POP POP POP POP PUSH1 0x40 MLOAD RETURNDATASIZE PUSH1 0x1F NOT PUSH1 0x1F DUP3 ADD AND DUP3 ADD DUP1 PUSH1 0x40 MSTORE POP DUP2 ADD SWAP1 PUSH2 0xF66 SWAP2 SWAP1 PUSH2 0x2D8F JUMP JUMPDEST LT ISZERO PUSH2 0xFA7 JUMPI PUSH1 0x40 MLOAD PUSH32 0x8C379A000000000000000000000000000000000000000000000000000000000 DUP2 MSTORE PUSH1 0x4 ADD PUSH2 0xF9E SWAP1 PUSH2 0x322D JUMP JUMPDEST PUSH1 0x40 MLOAD DUP1 SWAP2 SUB SWAP1 REVERT JUMPDEST PUSH1 0x0 DUP6 GT PUSH2 0xFEA JUMPI PUSH1 0x40 MLOAD PUSH32 0x8C379A000000000000000000000000000000000000000000000000000000000 DUP2 MSTORE PUSH1 0x4 ADD PUSH2 0xFE1 SWAP1 PUSH2 0x32BF JUMP JUMPDEST PUSH1 0x40 MLOAD DUP1 SWAP2 SUB SWAP1 REVERT JUMPDEST PUSH1 0x0 DUP3 GT PUSH2 0x102D JUMPI PUSH1 0x40 MLOAD PUSH32 0x8C379A000000000000000000000000000000000000000000000000000000000 DUP2 MSTORE PUSH1 0x4 ADD PUSH2 0x1024 SWAP1 PUSH2 0x332B JUMP JUMPDEST PUSH1 0x40 MLOAD DUP1 SWAP2 SUB SWAP1 REVERT JUMPDEST PUSH1 0x1 DUP5 LT ISZERO PUSH2 0x1071 JUMPI PUSH1 0x40 MLOAD PUSH32 0x8C379A000000000000000000000000000000000000000000000000000000000 DUP2 MSTORE PUSH1 0x4 ADD PUSH2 0x1068 SWAP1 PUSH2 0x33BD JUMP JUMPDEST PUSH1 0x40 MLOAD DUP1 SWAP2 SUB SWAP1 REVERT JUMPDEST PUSH1 0x0 ADDRESS PUSH20 0xFFFFFFFFFFFFFFFFFFFFFFFFFFFFFFFFFFFFFFFF AND PUSH4 0xF7C469F0 DUP11 PUSH1 0x40 MLOAD DUP3 PUSH4 0xFFFFFFFF AND PUSH1 0xE0 SHL DUP2 MSTORE PUSH1 0x4 ADD PUSH2 0x10AC SWAP2 SWAP1 PUSH2 0x28D3 JUMP JUMPDEST PUSH1 0x20 PUSH1 0x40 MLOAD DUP1 DUP4 SUB DUP2 DUP7 DUP1 EXTCODESIZE ISZERO DUP1 ISZERO PUSH2 0x10C4 JUMPI PUSH1 0x0 DUP1 REVERT JUMPDEST POP GAS STATICCALL ISZERO DUP1 ISZERO PUSH2 0x10D8 JUMPI RETURNDATASIZE PUSH1 0x0 DUP1 RETURNDATACOPY RETURNDATASIZE PUSH1 0x0 REVERT JUMPDEST POP POP POP POP PUSH1 0x40 MLOAD RETURNDATASIZE PUSH1 0x1F NOT PUSH1 0x1F DUP3 ADD AND DUP3 ADD DUP1 PUSH1 0x40 MSTORE POP DUP2 ADD SWAP1 PUSH2 0x10FC SWAP2 SWAP1 PUSH2 0x33F2 JUMP JUMPDEST SWAP1 POP PUSH1 0x0 PUSH2 0x1113 DUP9 DUP11 PUSH2 0x232B SWAP1 SWAP2 SWAP1 PUSH4 0xFFFFFFFF AND JUMP JUMPDEST SWAP1 POP PUSH1 0x40 MLOAD DUP1 PUSH2 0x160 ADD PUSH1 0x40 MSTORE DUP1 PUSH1 0x1 ISZERO ISZERO DUP2 MSTORE PUSH1 0x20 ADD DUP12 PUSH20 0xFFFFFFFFFFFFFFFFFFFFFFFFFFFFFFFFFFFFFFFF AND DUP2 MSTORE PUSH1 0x20 ADD DUP3 DUP2 MSTORE PUSH1 0x20 ADD DUP11 DUP2 MSTORE PUSH1 0x20 ADD DUP9 DUP2 MSTORE PUSH1 0x20 ADD DUP8 DUP2 MSTORE PUSH1 0x20 ADD DUP7 ISZERO ISZERO DUP2 MSTORE PUSH1 0x20 ADD DUP6 DUP2 MSTORE PUSH1 0x20 ADD PUSH1 0x0 DUP2 MSTORE PUSH1 0x20 ADD PUSH1 0x0 ISZERO ISZERO DUP2 MSTORE PUSH1 0x20 ADD DUP5 ISZERO ISZERO DUP2 MSTORE POP PUSH1 0x9B PUSH1 0x0 DUP5 DUP2 MSTORE PUSH1 0x20 ADD SWAP1 DUP2 MSTORE PUSH1 0x20 ADD PUSH1 0x0 KECCAK256 PUSH1 0x0 DUP3 ADD MLOAD DUP2 PUSH1 0x0 ADD PUSH1 0x0 PUSH2 0x100 EXP DUP2 SLOAD DUP2 PUSH1 0xFF MUL NOT AND SWAP1 DUP4 ISZERO ISZERO MUL OR SWAP1 SSTORE POP PUSH1 0x20 DUP3 ADD MLOAD DUP2 PUSH1 0x0 ADD PUSH1 0x1 PUSH2 0x100 EXP DUP2 SLOAD DUP2 PUSH20 0xFFFFFFFFFFFFFFFFFFFFFFFFFFFFFFFFFFFFFFFF MUL NOT AND SWAP1 DUP4 PUSH20 0xFFFFFFFFFFFFFFFFFFFFFFFFFFFFFFFFFFFFFFFF AND MUL OR SWAP1 SSTORE POP PUSH1 0x40 DUP3 ADD MLOAD DUP2 PUSH1 0x1 ADD SSTORE PUSH1 0x60 DUP3 ADD MLOAD DUP2 PUSH1 0x2 ADD SSTORE PUSH1 0x80 DUP3 ADD MLOAD DUP2 PUSH1 0x3 ADD SSTORE PUSH1 0xA0 DUP3 ADD MLOAD DUP2 PUSH1 0x4 ADD SSTORE PUSH1 0xC0 DUP3 ADD MLOAD DUP2 PUSH1 0x5 ADD PUSH1 0x0 PUSH2 0x100 EXP DUP2 SLOAD DUP2 PUSH1 0xFF MUL NOT AND SWAP1 DUP4 ISZERO ISZERO MUL OR SWAP1 SSTORE POP PUSH1 0xE0 DUP3 ADD MLOAD DUP2 PUSH1 0x6 ADD SSTORE PUSH2 0x100 DUP3 ADD MLOAD DUP2 PUSH1 0x7 ADD SSTORE PUSH2 0x120 DUP3 ADD MLOAD DUP2 PUSH1 0x8 ADD PUSH1 0x0 PUSH2 0x100 EXP DUP2 SLOAD DUP2 PUSH1 0xFF MUL NOT AND SWAP1 DUP4 ISZERO ISZERO MUL OR SWAP1 SSTORE POP PUSH2 0x140 DUP3 ADD MLOAD DUP2 PUSH1 0x8 ADD PUSH1 0x1 PUSH2 0x100 EXP DUP2 SLOAD DUP2 PUSH1 0xFF MUL NOT AND SWAP1 DUP4 ISZERO ISZERO MUL OR SWAP1 SSTORE POP SWAP1 POP POP PUSH2 0x12B3 DUP5 PUSH1 0x9C SLOAD PUSH2 0x232B SWAP1 SWAP2 SWAP1 PUSH4 0xFFFFFFFF AND JUMP JUMPDEST PUSH1 0x9C DUP2 SWAP1 SSTORE POP DUP3 ISZERO PUSH2 0x1308 JUMPI PUSH1 0x0 PUSH2 0x12E9 PUSH1 0x64 PUSH2 0x12DB PUSH1 0x98 SLOAD DUP9 PUSH2 0x24FA SWAP1 SWAP2 SWAP1 PUSH4 0xFFFFFFFF AND JUMP JUMPDEST PUSH2 0x2510 SWAP1 SWAP2 SWAP1 PUSH4 0xFFFFFFFF AND JUMP JUMPDEST SWAP1 POP PUSH2 0x1300 DUP2 PUSH1 0x9D SLOAD PUSH2 0x232B SWAP1 SWAP2 SWAP1 PUSH4 0xFFFFFFFF AND JUMP JUMPDEST PUSH1 0x9D DUP2 SWAP1 SSTORE POP POP JUMPDEST PUSH1 0x9A DUP3 SWAP1 DUP1 PUSH1 0x1 DUP2 SLOAD ADD DUP1 DUP3 SSTORE DUP1 SWAP2 POP POP PUSH1 0x1 SWAP1 SUB SWAP1 PUSH1 0x0 MSTORE PUSH1 0x20 PUSH1 0x0 KECCAK256 ADD PUSH1 0x0 SWAP1 SWAP2 SWAP1 SWAP2 SWAP1 SWAP2 POP SSTORE PUSH1 0x0 PUSH1 0x9E PUSH1 0x0 DUP13 PUSH20 0xFFFFFFFFFFFFFFFFFFFFFFFFFFFFFFFFFFFFFFFF AND PUSH20 0xFFFFFFFFFFFFFFFFFFFFFFFFFFFFFFFFFFFFFFFF AND DUP2 MSTORE PUSH1 0x20 ADD SWAP1 DUP2 MSTORE PUSH1 0x20 ADD PUSH1 0x0 KECCAK256 SLOAD SWAP1 POP PUSH2 0x1389 PUSH1 0x1 DUP3 PUSH2 0x232B SWAP1 SWAP2 SWAP1 PUSH4 0xFFFFFFFF AND JUMP JUMPDEST PUSH1 0x9E PUSH1 0x0 DUP14 PUSH20 0xFFFFFFFFFFFFFFFFFFFFFFFFFFFFFFFFFFFFFFFF AND PUSH20 0xFFFFFFFFFFFFFFFFFFFFFFFFFFFFFFFFFFFFFFFF AND DUP2 MSTORE PUSH1 0x20 ADD SWAP1 DUP2 MSTORE PUSH1 0x20 ADD PUSH1 0x0 KECCAK256 DUP2 SWAP1 SSTORE POP PUSH1 0x0 PUSH1 0x9F PUSH1 0x0 DUP6 DUP2 MSTORE PUSH1 0x20 ADD SWAP1 DUP2 MSTORE PUSH1 0x20 ADD PUSH1 0x0 KECCAK256 DUP2 SWAP1 SSTORE POP PUSH32 0x7DEECC243DEC36156ECE079AE8E71CB3F5B8A86D4EE141E3733216E23614E0C3 DUP4 PUSH1 0x40 MLOAD PUSH2 0x1414 SWAP2 SWAP1 PUSH2 0x2CB5 JUMP JUMPDEST PUSH1 0x40 MLOAD DUP1 SWAP2 SUB SWAP1 LOG1 POP POP POP POP POP POP POP POP POP POP POP JUMP JUMPDEST PUSH2 0x1431 PUSH2 0x2788 JUMP JUMPDEST PUSH1 0x9B PUSH1 0x0 PUSH2 0x148A DUP5 PUSH1 0x1 PUSH1 0x9E PUSH1 0x0 DUP9 PUSH20 0xFFFFFFFFFFFFFFFFFFFFFFFFFFFFFFFFFFFFFFFF AND PUSH20 0xFFFFFFFFFFFFFFFFFFFFFFFFFFFFFFFFFFFFFFFF AND DUP2 MSTORE PUSH1 0x20 ADD SWAP1 DUP2 MSTORE PUSH1 0x20 ADD PUSH1 0x0 KECCAK256 SLOAD PUSH2 0x1485 SWAP2 SWAP1 PUSH2 0x344E JUMP JUMPDEST PUSH2 0x15A9 JUMP JUMPDEST DUP2 MSTORE PUSH1 0x20 ADD SWAP1 DUP2 MSTORE PUSH1 0x20 ADD PUSH1 0x0 KECCAK256 PUSH1 0x40 MLOAD DUP1 PUSH2 0x160 ADD PUSH1 0x40 MSTORE SWAP1 DUP2 PUSH1 0x0 DUP3 ADD PUSH1 0x0 SWAP1 SLOAD SWAP1 PUSH2 0x100 EXP SWAP1 DIV PUSH1 0xFF AND ISZERO ISZERO ISZERO ISZERO DUP2 MSTORE PUSH1 0x20 ADD PUSH1 0x0 DUP3 ADD PUSH1 0x1 SWAP1 SLOAD SWAP1 PUSH2 0x100 EXP SWAP1 DIV PUSH20 0xFFFFFFFFFFFFFFFFFFFFFFFFFFFFFFFFFFFFFFFF AND PUSH20 0xFFFFFFFFFFFFFFFFFFFFFFFFFFFFFFFFFFFFFFFF AND PUSH20 0xFFFFFFFFFFFFFFFFFFFFFFFFFFFFFFFFFFFFFFFF AND DUP2 MSTORE PUSH1 0x20 ADD PUSH1 0x1 DUP3 ADD SLOAD DUP2 MSTORE PUSH1 0x20 ADD PUSH1 0x2 DUP3 ADD SLOAD DUP2 MSTORE PUSH1 0x20 ADD PUSH1 0x3 DUP3 ADD SLOAD DUP2 MSTORE PUSH1 0x20 ADD PUSH1 0x4 DUP3 ADD SLOAD DUP2 MSTORE PUSH1 0x20 ADD PUSH1 0x5 DUP3 ADD PUSH1 0x0 SWAP1 SLOAD SWAP1 PUSH2 0x100 EXP SWAP1 DIV PUSH1 0xFF AND ISZERO ISZERO ISZERO ISZERO DUP2 MSTORE PUSH1 0x20 ADD PUSH1 0x6 DUP3 ADD SLOAD DUP2 MSTORE PUSH1 0x20 ADD PUSH1 0x7 DUP3 ADD SLOAD DUP2 MSTORE PUSH1 0x20 ADD PUSH1 0x8 DUP3 ADD PUSH1 0x0 SWAP1 SLOAD SWAP1 PUSH2 0x100 EXP SWAP1 DIV PUSH1 0xFF AND ISZERO ISZERO ISZERO ISZERO DUP2 MSTORE PUSH1 0x20 ADD PUSH1 0x8 DUP3 ADD PUSH1 0x1 SWAP1 SLOAD SWAP1 PUSH2 0x100 EXP SWAP1 DIV PUSH1 0xFF AND ISZERO ISZERO ISZERO ISZERO DUP2 MSTORE POP POP SWAP1 POP SWAP2 SWAP1 POP JUMP JUMPDEST PUSH1 0x0 DUP3 DUP3 PUSH1 0x40 MLOAD PUSH1 0x20 ADD PUSH2 0x15BE SWAP3 SWAP2 SWAP1 PUSH2 0x34EB JUMP JUMPDEST PUSH1 0x40 MLOAD PUSH1 0x20 DUP2 DUP4 SUB SUB DUP2 MSTORE SWAP1 PUSH1 0x40 MSTORE DUP1 MLOAD SWAP1 PUSH1 0x20 ADD KECCAK256 SWAP1 POP SWAP3 SWAP2 POP POP JUMP JUMPDEST PUSH1 0x0 PUSH1 0x33 PUSH1 0x0 SWAP1 SLOAD SWAP1 PUSH2 0x100 EXP SWAP1 DIV PUSH20 0xFFFFFFFFFFFFFFFFFFFFFFFFFFFFFFFFFFFFFFFF AND SWAP1 POP SWAP1 JUMP JUMPDEST PUSH1 0x0 PUSH2 0x16C7 PUSH1 0x9C SLOAD PUSH1 0x97 PUSH1 0x0 SWAP1 SLOAD SWAP1 PUSH2 0x100 EXP SWAP1 DIV PUSH20 0xFFFFFFFFFFFFFFFFFFFFFFFFFFFFFFFFFFFFFFFF AND PUSH20 0xFFFFFFFFFFFFFFFFFFFFFFFFFFFFFFFFFFFFFFFF AND PUSH4 0x70A08231 ADDRESS PUSH1 0x40 MLOAD DUP3 PUSH4 0xFFFFFFFF AND PUSH1 0xE0 SHL DUP2 MSTORE PUSH1 0x4 ADD PUSH2 0x1669 SWAP2 SWAP1 PUSH2 0x28D3 JUMP JUMPDEST PUSH1 0x20 PUSH1 0x40 MLOAD DUP1 DUP4 SUB DUP2 DUP7 DUP1 EXTCODESIZE ISZERO DUP1 ISZERO PUSH2 0x1681 JUMPI PUSH1 0x0 DUP1 REVERT JUMPDEST POP GAS STATICCALL ISZERO DUP1 ISZERO PUSH2 0x1695 JUMPI RETURNDATASIZE PUSH1 0x0 DUP1 RETURNDATACOPY RETURNDATASIZE PUSH1 0x0 REVERT JUMPDEST POP POP POP POP PUSH1 0x40 MLOAD RETURNDATASIZE PUSH1 0x1F NOT PUSH1 0x1F DUP3 ADD AND DUP3 ADD DUP1 PUSH1 0x40 MSTORE POP DUP2 ADD SWAP1 PUSH2 0x16B9 SWAP2 SWAP1 PUSH2 0x2D8F JUMP JUMPDEST PUSH2 0x2341 SWAP1 SWAP2 SWAP1 PUSH4 0xFFFFFFFF AND JUMP JUMPDEST SWAP1 POP SWAP1 JUMP JUMPDEST PUSH2 0x16D4 PUSH2 0x2788 JUMP JUMPDEST PUSH1 0x9B PUSH1 0x0 DUP4 DUP2 MSTORE PUSH1 0x20 ADD SWAP1 DUP2 MSTORE PUSH1 0x20 ADD PUSH1 0x0 KECCAK256 PUSH1 0x40 MLOAD DUP1 PUSH2 0x160 ADD PUSH1 0x40 MSTORE SWAP1 DUP2 PUSH1 0x0 DUP3 ADD PUSH1 0x0 SWAP1 SLOAD SWAP1 PUSH2 0x100 EXP SWAP1 DIV PUSH1 0xFF AND ISZERO ISZERO ISZERO ISZERO DUP2 MSTORE PUSH1 0x20 ADD PUSH1 0x0 DUP3 ADD PUSH1 0x1 SWAP1 SLOAD SWAP1 PUSH2 0x100 EXP SWAP1 DIV PUSH20 0xFFFFFFFFFFFFFFFFFFFFFFFFFFFFFFFFFFFFFFFF AND PUSH20 0xFFFFFFFFFFFFFFFFFFFFFFFFFFFFFFFFFFFFFFFF AND PUSH20 0xFFFFFFFFFFFFFFFFFFFFFFFFFFFFFFFFFFFFFFFF AND DUP2 MSTORE PUSH1 0x20 ADD PUSH1 0x1 DUP3 ADD SLOAD DUP2 MSTORE PUSH1 0x20 ADD PUSH1 0x2 DUP3 ADD SLOAD DUP2 MSTORE PUSH1 0x20 ADD PUSH1 0x3 DUP3 ADD SLOAD DUP2 MSTORE PUSH1 0x20 ADD PUSH1 0x4 DUP3 ADD SLOAD DUP2 MSTORE PUSH1 0x20 ADD PUSH1 0x5 DUP3 ADD PUSH1 0x0 SWAP1 SLOAD SWAP1 PUSH2 0x100 EXP SWAP1 DIV PUSH1 0xFF AND ISZERO ISZERO ISZERO ISZERO DUP2 MSTORE PUSH1 0x20 ADD PUSH1 0x6 DUP3 ADD SLOAD DUP2 MSTORE PUSH1 0x20 ADD PUSH1 0x7 DUP3 ADD SLOAD DUP2 MSTORE PUSH1 0x20 ADD PUSH1 0x8 DUP3 ADD PUSH1 0x0 SWAP1 SLOAD SWAP1 PUSH2 0x100 EXP SWAP1 DIV PUSH1 0xFF AND ISZERO ISZERO ISZERO ISZERO DUP2 MSTORE PUSH1 0x20 ADD PUSH1 0x8 DUP3 ADD PUSH1 0x1 SWAP1 SLOAD SWAP1 PUSH2 0x100 EXP SWAP1 DIV PUSH1 0xFF AND ISZERO ISZERO ISZERO ISZERO DUP2 MSTORE POP POP SWAP1 POP SWAP2 SWAP1 POP JUMP JUMPDEST PUSH2 0x1800 PUSH2 0x20DF JUMP JUMPDEST DUP1 PUSH1 0x9B PUSH1 0x0 DUP3 DUP2 MSTORE PUSH1 0x20 ADD SWAP1 DUP2 MSTORE PUSH1 0x20 ADD PUSH1 0x0 KECCAK256 PUSH1 0x0 ADD PUSH1 0x0 SWAP1 SLOAD SWAP1 PUSH2 0x100 EXP SWAP1 DIV PUSH1 0xFF AND PUSH2 0x182E JUMPI PUSH1 0x0 DUP1 REVERT JUMPDEST PUSH1 0x9B PUSH1 0x0 DUP3 DUP2 MSTORE PUSH1 0x20 ADD SWAP1 DUP2 MSTORE PUSH1 0x20 ADD PUSH1 0x0 KECCAK256 PUSH1 0x8 ADD PUSH1 0x0 SWAP1 SLOAD SWAP1 PUSH2 0x100 EXP SWAP1 DIV PUSH1 0xFF AND ISZERO PUSH2 0x185C JUMPI PUSH1 0x0 DUP1 REVERT JUMPDEST PUSH1 0x0 PUSH1 0x9B PUSH1 0x0 DUP5 DUP2 MSTORE PUSH1 0x20 ADD SWAP1 DUP2 MSTORE PUSH1 0x20 ADD PUSH1 0x0 KECCAK256 SWAP1 POP DUP1 PUSH1 0x5 ADD PUSH1 0x0 SWAP1 SLOAD SWAP1 PUSH2 0x100 EXP SWAP1 DIV PUSH1 0xFF AND PUSH2 0x18C4 JUMPI PUSH1 0x40 MLOAD PUSH32 0x8C379A000000000000000000000000000000000000000000000000000000000 DUP2 MSTORE PUSH1 0x4 ADD PUSH2 0x18BB SWAP1 PUSH2 0x3589 JUMP JUMPDEST PUSH1 0x40 MLOAD DUP1 SWAP2 SUB SWAP1 REVERT JUMPDEST PUSH1 0x0 PUSH2 0x19D9 DUP3 PUSH1 0x40 MLOAD DUP1 PUSH2 0x160 ADD PUSH1 0x40 MSTORE SWAP1 DUP2 PUSH1 0x0 DUP3 ADD PUSH1 0x0 SWAP1 SLOAD SWAP1 PUSH2 0x100 EXP SWAP1 DIV PUSH1 0xFF AND ISZERO ISZERO ISZERO ISZERO DUP2 MSTORE PUSH1 0x20 ADD PUSH1 0x0 DUP3 ADD PUSH1 0x1 SWAP1 SLOAD SWAP1 PUSH2 0x100 EXP SWAP1 DIV PUSH20 0xFFFFFFFFFFFFFFFFFFFFFFFFFFFFFFFFFFFFFFFF AND PUSH20 0xFFFFFFFFFFFFFFFFFFFFFFFFFFFFFFFFFFFFFFFF AND PUSH20 0xFFFFFFFFFFFFFFFFFFFFFFFFFFFFFFFFFFFFFFFF AND DUP2 MSTORE PUSH1 0x20 ADD PUSH1 0x1 DUP3 ADD SLOAD DUP2 MSTORE PUSH1 0x20 ADD PUSH1 0x2 DUP3 ADD SLOAD DUP2 MSTORE PUSH1 0x20 ADD PUSH1 0x3 DUP3 ADD SLOAD DUP2 MSTORE PUSH1 0x20 ADD PUSH1 0x4 DUP3 ADD SLOAD DUP2 MSTORE PUSH1 0x20 ADD PUSH1 0x5 DUP3 ADD PUSH1 0x0 SWAP1 SLOAD SWAP1 PUSH2 0x100 EXP SWAP1 DIV PUSH1 0xFF AND ISZERO ISZERO ISZERO ISZERO DUP2 MSTORE PUSH1 0x20 ADD PUSH1 0x6 DUP3 ADD SLOAD DUP2 MSTORE PUSH1 0x20 ADD PUSH1 0x7 DUP3 ADD SLOAD DUP2 MSTORE PUSH1 0x20 ADD PUSH1 0x8 DUP3 ADD PUSH1 0x0 SWAP1 SLOAD SWAP1 PUSH2 0x100 EXP SWAP1 DIV PUSH1 0xFF AND ISZERO ISZERO ISZERO ISZERO DUP2 MSTORE PUSH1 0x20 ADD PUSH1 0x8 DUP3 ADD PUSH1 0x1 SWAP1 SLOAD SWAP1 PUSH2 0x100 EXP SWAP1 DIV PUSH1 0xFF AND ISZERO ISZERO ISZERO ISZERO DUP2 MSTORE POP POP PUSH2 0x21E3 JUMP JUMPDEST SWAP1 POP PUSH1 0x0 DUP2 GT ISZERO PUSH2 0x19EF JUMPI PUSH2 0x19EE DUP5 DUP3 PUSH2 0x82F JUMP JUMPDEST JUMPDEST PUSH1 0x0 PUSH2 0x1A0C DUP4 PUSH1 0x7 ADD SLOAD DUP5 PUSH1 0x6 ADD SLOAD PUSH2 0x2341 SWAP1 SWAP2 SWAP1 PUSH4 0xFFFFFFFF AND JUMP JUMPDEST SWAP1 POP PUSH2 0x1A23 DUP2 PUSH1 0x9C SLOAD PUSH2 0x2341 SWAP1 SWAP2 SWAP1 PUSH4 0xFFFFFFFF AND JUMP JUMPDEST PUSH1 0x9C DUP2 SWAP1 SSTORE POP PUSH1 0x1 DUP4 PUSH1 0x8 ADD PUSH1 0x0 PUSH2 0x100 EXP DUP2 SLOAD DUP2 PUSH1 0xFF MUL NOT AND SWAP1 DUP4 ISZERO ISZERO MUL OR SWAP1 SSTORE POP POP POP POP POP POP JUMP JUMPDEST PUSH1 0x0 PUSH1 0x9C SLOAD PUSH1 0x9D SLOAD PUSH2 0x1A5F SWAP2 SWAP1 PUSH2 0x35A9 JUMP JUMPDEST SWAP1 POP SWAP1 JUMP JUMPDEST PUSH1 0x9F PUSH1 0x20 MSTORE DUP1 PUSH1 0x0 MSTORE PUSH1 0x40 PUSH1 0x0 KECCAK256 PUSH1 0x0 SWAP2 POP SWAP1 POP SLOAD DUP2 JUMP JUMPDEST PUSH1 0x0 PUSH1 0x9D SLOAD SWAP1 POP SWAP1 JUMP JUMPDEST PUSH1 0x98 SLOAD DUP2 JUMP JUMPDEST PUSH1 0x0 DUP2 PUSH1 0x9B PUSH1 0x0 DUP3 DUP2 MSTORE PUSH1 0x20 ADD SWAP1 DUP2 MSTORE PUSH1 0x20 ADD PUSH1 0x0 KECCAK256 PUSH1 0x0 ADD PUSH1 0x0 SWAP1 SLOAD SWAP1 PUSH2 0x100 EXP SWAP1 DIV PUSH1 0xFF AND PUSH2 0x1ABC JUMPI PUSH1 0x0 DUP1 REVERT JUMPDEST PUSH1 0x9B PUSH1 0x0 DUP3 DUP2 MSTORE PUSH1 0x20 ADD SWAP1 DUP2 MSTORE PUSH1 0x20 ADD PUSH1 0x0 KECCAK256 PUSH1 0x8 ADD PUSH1 0x0 SWAP1 SLOAD SWAP1 PUSH2 0x100 EXP SWAP1 DIV PUSH1 0xFF AND ISZERO PUSH2 0x1AEA JUMPI PUSH1 0x0 DUP1 REVERT JUMPDEST PUSH1 0x0 PUSH1 0x9B PUSH1 0x0 DUP6 DUP2 MSTORE PUSH1 0x20 ADD SWAP1 DUP2 MSTORE PUSH1 0x20 ADD PUSH1 0x0 KECCAK256 SWAP1 POP PUSH2 0x1C14 DUP2 PUSH1 0x40 MLOAD DUP1 PUSH2 0x160 ADD PUSH1 0x40 MSTORE SWAP1 DUP2 PUSH1 0x0 DUP3 ADD PUSH1 0x0 SWAP1 SLOAD SWAP1 PUSH2 0x100 EXP SWAP1 DIV PUSH1 0xFF AND ISZERO ISZERO ISZERO ISZERO DUP2 MSTORE PUSH1 0x20 ADD PUSH1 0x0 DUP3 ADD PUSH1 0x1 SWAP1 SLOAD SWAP1 PUSH2 0x100 EXP SWAP1 DIV PUSH20 0xFFFFFFFFFFFFFFFFFFFFFFFFFFFFFFFFFFFFFFFF AND PUSH20 0xFFFFFFFFFFFFFFFFFFFFFFFFFFFFFFFFFFFFFFFF AND PUSH20 0xFFFFFFFFFFFFFFFFFFFFFFFFFFFFFFFFFFFFFFFF AND DUP2 MSTORE PUSH1 0x20 ADD PUSH1 0x1 DUP3 ADD SLOAD DUP2 MSTORE PUSH1 0x20 ADD PUSH1 0x2 DUP3 ADD SLOAD DUP2 MSTORE PUSH1 0x20 ADD PUSH1 0x3 DUP3 ADD SLOAD DUP2 MSTORE PUSH1 0x20 ADD PUSH1 0x4 DUP3 ADD SLOAD DUP2 MSTORE PUSH1 0x20 ADD PUSH1 0x5 DUP3 ADD PUSH1 0x0 SWAP1 SLOAD SWAP1 PUSH2 0x100 EXP SWAP1 DIV PUSH1 0xFF AND ISZERO ISZERO ISZERO ISZERO DUP2 MSTORE PUSH1 0x20 ADD PUSH1 0x6 DUP3 ADD SLOAD DUP2 MSTORE PUSH1 0x20 ADD PUSH1 0x7 DUP3 ADD SLOAD DUP2 MSTORE PUSH1 0x20 ADD PUSH1 0x8 DUP3 ADD PUSH1 0x0 SWAP1 SLOAD SWAP1 PUSH2 0x100 EXP SWAP1 DIV PUSH1 0xFF AND ISZERO ISZERO ISZERO ISZERO DUP2 MSTORE PUSH1 0x20 ADD PUSH1 0x8 DUP3 ADD PUSH1 0x1 SWAP1 SLOAD SWAP1 PUSH2 0x100 EXP SWAP1 DIV PUSH1 0xFF AND ISZERO ISZERO ISZERO ISZERO DUP2 MSTORE POP POP PUSH2 0x21E3 JUMP JUMPDEST SWAP3 POP POP POP SWAP2 SWAP1 POP JUMP JUMPDEST PUSH2 0x1C25 PUSH2 0x20DF JUMP JUMPDEST PUSH1 0x0 PUSH20 0xFFFFFFFFFFFFFFFFFFFFFFFFFFFFFFFFFFFFFFFF AND DUP2 PUSH20 0xFFFFFFFFFFFFFFFFFFFFFFFFFFFFFFFFFFFFFFFF AND EQ ISZERO PUSH2 0x1C95 JUMPI PUSH1 0x40 MLOAD PUSH32 0x8C379A000000000000000000000000000000000000000000000000000000000 DUP2 MSTORE PUSH1 0x4 ADD PUSH2 0x1C8C SWAP1 PUSH2 0x3671 JUMP JUMPDEST PUSH1 0x40 MLOAD DUP1 SWAP2 SUB SWAP1 REVERT JUMPDEST PUSH2 0x1C9E DUP2 PUSH2 0x2357 JUMP JUMPDEST POP JUMP JUMPDEST PUSH2 0x1CA9 PUSH2 0x2788 JUMP JUMPDEST PUSH2 0x1CBB PUSH2 0x1CB6 DUP5 DUP5 PUSH2 0x15A9 JUMP JUMPDEST PUSH2 0x16CC JUMP JUMPDEST SWAP1 POP SWAP3 SWAP2 POP POP JUMP JUMPDEST PUSH1 0x0 PUSH2 0x1D0E DUP3 PUSH1 0x9E PUSH1 0x0 DUP6 PUSH20 0xFFFFFFFFFFFFFFFFFFFFFFFFFFFFFFFFFFFFFFFF AND PUSH20 0xFFFFFFFFFFFFFFFFFFFFFFFFFFFFFFFFFFFFFFFF AND DUP2 MSTORE PUSH1 0x20 ADD SWAP1 DUP2 MSTORE PUSH1 0x20 ADD PUSH1 0x0 KECCAK256 SLOAD PUSH2 0x15A9 JUMP JUMPDEST SWAP1 POP SWAP2 SWAP1 POP JUMP JUMPDEST PUSH1 0x0 PUSH2 0x1D1F PUSH2 0x5B8 JUMP JUMPDEST DUP3 LT PUSH2 0x1D60 JUMPI PUSH1 0x40 MLOAD PUSH32 0x8C379A000000000000000000000000000000000000000000000000000000000 DUP2 MSTORE PUSH1 0x4 ADD PUSH2 0x1D57 SWAP1 PUSH2 0x3703 JUMP JUMPDEST PUSH1 0x40 MLOAD DUP1 SWAP2 SUB SWAP1 REVERT JUMPDEST PUSH1 0x9A DUP3 DUP2 SLOAD DUP2 LT PUSH2 0x1D74 JUMPI PUSH2 0x1D73 PUSH2 0x3723 JUMP JUMPDEST JUMPDEST SWAP1 PUSH1 0x0 MSTORE PUSH1 0x20 PUSH1 0x0 KECCAK256 ADD SLOAD SWAP1 POP SWAP2 SWAP1 POP JUMP JUMPDEST PUSH1 0x2 PUSH1 0x65 SLOAD EQ ISZERO PUSH2 0x1DCC JUMPI PUSH1 0x40 MLOAD PUSH32 0x8C379A000000000000000000000000000000000000000000000000000000000 DUP2 MSTORE PUSH1 0x4 ADD PUSH2 0x1DC3 SWAP1 PUSH2 0x2D5A JUMP JUMPDEST PUSH1 0x40 MLOAD DUP1 SWAP2 SUB SWAP1 REVERT JUMPDEST PUSH1 0x2 PUSH1 0x65 DUP2 SWAP1 SSTORE POP PUSH1 0x0 PUSH1 0x9B PUSH1 0x0 DUP4 DUP2 MSTORE PUSH1 0x20 ADD SWAP1 DUP2 MSTORE PUSH1 0x20 ADD PUSH1 0x0 KECCAK256 SWAP1 POP PUSH1 0x0 DUP2 PUSH1 0x0 ADD PUSH1 0x1 SWAP1 SLOAD SWAP1 PUSH2 0x100 EXP SWAP1 DIV PUSH20 0xFFFFFFFFFFFFFFFFFFFFFFFFFFFFFFFFFFFFFFFF AND PUSH20 0xFFFFFFFFFFFFFFFFFFFFFFFFFFFFFFFFFFFFFFFF AND CALLER PUSH20 0xFFFFFFFFFFFFFFFFFFFFFFFFFFFFFFFFFFFFFFFF AND EQ SWAP1 POP PUSH1 0x0 PUSH2 0x1E4C PUSH2 0x15DC JUMP JUMPDEST PUSH20 0xFFFFFFFFFFFFFFFFFFFFFFFFFFFFFFFFFFFFFFFF AND CALLER PUSH20 0xFFFFFFFFFFFFFFFFFFFFFFFFFFFFFFFFFFFFFFFF AND EQ SWAP1 POP DUP2 DUP1 PUSH2 0x1E85 JUMPI POP DUP1 JUMPDEST PUSH2 0x1EC4 JUMPI PUSH1 0x40 MLOAD PUSH32 0x8C379A000000000000000000000000000000000000000000000000000000000 DUP2 MSTORE PUSH1 0x4 ADD PUSH2 0x1EBB SWAP1 PUSH2 0x2EE6 JUMP JUMPDEST PUSH1 0x40 MLOAD DUP1 SWAP2 SUB SWAP1 REVERT JUMPDEST DUP3 PUSH1 0x8 ADD PUSH1 0x1 SWAP1 SLOAD SWAP1 PUSH2 0x100 EXP SWAP1 DIV PUSH1 0xFF AND PUSH2 0x1F15 JUMPI PUSH1 0x40 MLOAD PUSH32 0x8C379A000000000000000000000000000000000000000000000000000000000 DUP2 MSTORE PUSH1 0x4 ADD PUSH2 0x1F0C SWAP1 PUSH2 0x37C4 JUMP JUMPDEST PUSH1 0x40 MLOAD DUP1 SWAP2 SUB SWAP1 REVERT JUMPDEST PUSH1 0x0 PUSH2 0x1F1F PUSH2 0x659 JUMP JUMPDEST SWAP1 POP PUSH1 0x99 SLOAD DUP2 LT ISZERO PUSH2 0x1F66 JUMPI PUSH1 0x40 MLOAD PUSH32 0x8C379A000000000000000000000000000000000000000000000000000000000 DUP2 MSTORE PUSH1 0x4 ADD PUSH2 0x1F5D SWAP1 PUSH2 0x3830 JUMP JUMPDEST PUSH1 0x40 MLOAD DUP1 SWAP2 SUB SWAP1 REVERT JUMPDEST PUSH1 0x0 PUSH1 0x9F PUSH1 0x0 DUP8 DUP2 MSTORE PUSH1 0x20 ADD SWAP1 DUP2 MSTORE PUSH1 0x20 ADD PUSH1 0x0 KECCAK256 SLOAD EQ PUSH2 0x1FBC JUMPI PUSH1 0x40 MLOAD PUSH32 0x8C379A000000000000000000000000000000000000000000000000000000000 DUP2 MSTORE PUSH1 0x4 ADD PUSH2 0x1FB3 SWAP1 PUSH2 0x389C JUMP JUMPDEST PUSH1 0x40 MLOAD DUP1 SWAP2 SUB SWAP1 REVERT JUMPDEST PUSH1 0x0 PUSH2 0x1FEA PUSH1 0x64 PUSH2 0x1FDC PUSH1 0x98 SLOAD DUP9 PUSH1 0x6 ADD SLOAD PUSH2 0x24FA SWAP1 SWAP2 SWAP1 PUSH4 0xFFFFFFFF AND JUMP JUMPDEST PUSH2 0x2510 SWAP1 SWAP2 SWAP1 PUSH4 0xFFFFFFFF AND JUMP JUMPDEST SWAP1 POP DUP1 PUSH1 0x9F PUSH1 0x0 DUP9 DUP2 MSTORE PUSH1 0x20 ADD SWAP1 DUP2 MSTORE PUSH1 0x20 ADD PUSH1 0x0 KECCAK256 DUP2 SWAP1 SSTORE POP PUSH1 0x0 DUP6 PUSH1 0x0 ADD PUSH1 0x1 SWAP1 SLOAD SWAP1 PUSH2 0x100 EXP SWAP1 DIV PUSH20 0xFFFFFFFFFFFFFFFFFFFFFFFFFFFFFFFFFFFFFFFF AND SWAP1 POP PUSH2 0x2042 DUP3 PUSH1 0x9D SLOAD PUSH2 0x2341 SWAP1 SWAP2 SWAP1 PUSH4 0xFFFFFFFF AND JUMP JUMPDEST PUSH1 0x9D DUP2 SWAP1 SSTORE POP PUSH2 0x2095 DUP2 DUP4 PUSH1 0x97 PUSH1 0x0 SWAP1 SLOAD SWAP1 PUSH2 0x100 EXP SWAP1 DIV PUSH20 0xFFFFFFFFFFFFFFFFFFFFFFFFFFFFFFFFFFFFFFFF AND PUSH20 0xFFFFFFFFFFFFFFFFFFFFFFFFFFFFFFFFFFFFFFFF AND PUSH2 0x215D SWAP1 SWAP3 SWAP2 SWAP1 PUSH4 0xFFFFFFFF AND JUMP JUMPDEST PUSH32 0xD9215C0345F0D530C5101EDEA49413960423257C62DD4DCC18B5E6C0B63A0227 DUP2 DUP4 PUSH1 0x40 MLOAD PUSH2 0x20C6 SWAP3 SWAP2 SWAP1 PUSH2 0x3911 JUMP JUMPDEST PUSH1 0x40 MLOAD DUP1 SWAP2 SUB SWAP1 LOG1 POP POP POP POP POP POP PUSH1 0x1 PUSH1 0x65 DUP2 SWAP1 SSTORE POP POP JUMP JUMPDEST PUSH2 0x20E7 PUSH2 0x2526 JUMP JUMPDEST PUSH20 0xFFFFFFFFFFFFFFFFFFFFFFFFFFFFFFFFFFFFFFFF AND PUSH2 0x2105 PUSH2 0x15DC JUMP JUMPDEST PUSH20 0xFFFFFFFFFFFFFFFFFFFFFFFFFFFFFFFFFFFFFFFF AND EQ PUSH2 0x215B JUMPI PUSH1 0x40 MLOAD PUSH32 0x8C379A000000000000000000000000000000000000000000000000000000000 DUP2 MSTORE PUSH1 0x4 ADD PUSH2 0x2152 SWAP1 PUSH2 0x3986 JUMP JUMPDEST PUSH1 0x40 MLOAD DUP1 SWAP2 SUB SWAP1 REVERT JUMPDEST JUMP JUMPDEST PUSH2 0x21DE DUP4 PUSH4 0xA9059CBB PUSH1 0xE0 SHL DUP5 DUP5 PUSH1 0x40 MLOAD PUSH1 0x24 ADD PUSH2 0x217C SWAP3 SWAP2 SWAP1 PUSH2 0x39A6 JUMP JUMPDEST PUSH1 0x40 MLOAD PUSH1 0x20 DUP2 DUP4 SUB SUB DUP2 MSTORE SWAP1 PUSH1 0x40 MSTORE SWAP1 PUSH28 0xFFFFFFFFFFFFFFFFFFFFFFFFFFFFFFFFFFFFFFFFFFFFFFFFFFFFFFFF NOT AND PUSH1 0x20 DUP3 ADD DUP1 MLOAD PUSH28 0xFFFFFFFFFFFFFFFFFFFFFFFFFFFFFFFFFFFFFFFFFFFFFFFFFFFFFFFF DUP4 DUP2 DUP4 AND OR DUP4 MSTORE POP POP POP POP PUSH2 0x252E JUMP JUMPDEST POP POP POP JUMP JUMPDEST PUSH1 0x0 DUP1 PUSH2 0x21EE PUSH2 0x659 JUMP JUMPDEST SWAP1 POP PUSH1 0x0 DUP4 PUSH1 0xE0 ADD MLOAD SWAP1 POP DUP4 PUSH2 0x140 ADD MLOAD ISZERO PUSH2 0x224F JUMPI PUSH1 0x0 PUSH2 0x2232 PUSH1 0x64 PUSH2 0x2224 PUSH1 0x98 SLOAD DUP9 PUSH1 0xE0 ADD MLOAD PUSH2 0x24FA SWAP1 SWAP2 SWAP1 PUSH4 0xFFFFFFFF AND JUMP JUMPDEST PUSH2 0x2510 SWAP1 SWAP2 SWAP1 PUSH4 0xFFFFFFFF AND JUMP JUMPDEST SWAP1 POP PUSH2 0x224B DUP2 DUP7 PUSH1 0xE0 ADD MLOAD PUSH2 0x2341 SWAP1 SWAP2 SWAP1 PUSH4 0xFFFFFFFF AND JUMP JUMPDEST SWAP2 POP POP JUMPDEST DUP4 PUSH1 0x40 ADD MLOAD DUP3 LT DUP1 PUSH2 0x226A JUMPI POP PUSH1 0x1 ISZERO ISZERO DUP5 PUSH2 0x120 ADD MLOAD ISZERO ISZERO EQ JUMPDEST ISZERO PUSH2 0x227A JUMPI PUSH1 0x0 SWAP3 POP POP POP PUSH2 0x2326 JUMP JUMPDEST PUSH2 0x2295 DUP5 PUSH1 0x80 ADD MLOAD DUP6 PUSH1 0x60 ADD MLOAD PUSH2 0x232B SWAP1 SWAP2 SWAP1 PUSH4 0xFFFFFFFF AND JUMP JUMPDEST DUP3 LT PUSH2 0x22BC JUMPI PUSH2 0x22B3 DUP5 PUSH2 0x100 ADD MLOAD DUP3 PUSH2 0x2341 SWAP1 SWAP2 SWAP1 PUSH4 0xFFFFFFFF AND JUMP JUMPDEST SWAP3 POP POP POP PUSH2 0x2326 JUMP JUMPDEST PUSH1 0x0 PUSH2 0x22D5 DUP6 PUSH1 0x60 ADD MLOAD DUP5 PUSH2 0x2341 SWAP1 SWAP2 SWAP1 PUSH4 0xFFFFFFFF AND JUMP JUMPDEST SWAP1 POP PUSH1 0x0 PUSH2 0x2302 DUP7 PUSH1 0x80 ADD MLOAD PUSH2 0x22F4 DUP5 DUP7 PUSH2 0x24FA SWAP1 SWAP2 SWAP1 PUSH4 0xFFFFFFFF AND JUMP JUMPDEST PUSH2 0x2510 SWAP1 SWAP2 SWAP1 PUSH4 0xFFFFFFFF AND JUMP JUMPDEST SWAP1 POP PUSH2 0x231C DUP7 PUSH2 0x100 ADD MLOAD DUP3 PUSH2 0x2341 SWAP1 SWAP2 SWAP1 PUSH4 0xFFFFFFFF AND JUMP JUMPDEST SWAP1 POP DUP1 SWAP5 POP POP POP POP POP JUMPDEST SWAP2 SWAP1 POP JUMP JUMPDEST PUSH1 0x0 DUP2 DUP4 PUSH2 0x2339 SWAP2 SWAP1 PUSH2 0x35A9 JUMP JUMPDEST SWAP1 POP SWAP3 SWAP2 POP POP JUMP JUMPDEST PUSH1 0x0 DUP2 DUP4 PUSH2 0x234F SWAP2 SWAP1 PUSH2 0x344E JUMP JUMPDEST SWAP1 POP SWAP3 SWAP2 POP POP JUMP JUMPDEST PUSH1 0x0 PUSH1 0x33 PUSH1 0x0 SWAP1 SLOAD SWAP1 PUSH2 0x100 EXP SWAP1 DIV PUSH20 0xFFFFFFFFFFFFFFFFFFFFFFFFFFFFFFFFFFFFFFFF AND SWAP1 POP DUP2 PUSH1 0x33 PUSH1 0x0 PUSH2 0x100 EXP DUP2 SLOAD DUP2 PUSH20 0xFFFFFFFFFFFFFFFFFFFFFFFFFFFFFFFFFFFFFFFF MUL NOT AND SWAP1 DUP4 PUSH20 0xFFFFFFFFFFFFFFFFFFFFFFFFFFFFFFFFFFFFFFFF AND MUL OR SWAP1 SSTORE POP DUP2 PUSH20 0xFFFFFFFFFFFFFFFFFFFFFFFFFFFFFFFFFFFFFFFF AND DUP2 PUSH20 0xFFFFFFFFFFFFFFFFFFFFFFFFFFFFFFFFFFFFFFFF AND PUSH32 0x8BE0079C531659141344CD1FD0A4F28419497F9722A3DAAFE3B4186F6B6457E0 PUSH1 0x40 MLOAD PUSH1 0x40 MLOAD DUP1 SWAP2 SUB SWAP1 LOG3 POP POP JUMP JUMPDEST PUSH1 0x0 DUP1 DUP3 PUSH20 0xFFFFFFFFFFFFFFFFFFFFFFFFFFFFFFFFFFFFFFFF AND EXTCODESIZE GT SWAP1 POP SWAP2 SWAP1 POP JUMP JUMPDEST PUSH1 0x0 PUSH1 0x1 SWAP1 SLOAD SWAP1 PUSH2 0x100 EXP SWAP1 DIV PUSH1 0xFF AND PUSH2 0x248F JUMPI PUSH1 0x40 MLOAD PUSH32 0x8C379A000000000000000000000000000000000000000000000000000000000 DUP2 MSTORE PUSH1 0x4 ADD PUSH2 0x2486 SWAP1 PUSH2 0x3A41 JUMP JUMPDEST PUSH1 0x40 MLOAD DUP1 SWAP2 SUB SWAP1 REVERT JUMPDEST PUSH2 0x249F PUSH2 0x249A PUSH2 0x2526 JUMP JUMPDEST PUSH2 0x2357 JUMP JUMPDEST JUMP JUMPDEST PUSH1 0x0 PUSH1 0x1 SWAP1 SLOAD SWAP1 PUSH2 0x100 EXP SWAP1 DIV PUSH1 0xFF AND PUSH2 0x24F0 JUMPI PUSH1 0x40 MLOAD PUSH32 0x8C379A000000000000000000000000000000000000000000000000000000000 DUP2 MSTORE PUSH1 0x4 ADD PUSH2 0x24E7 SWAP1 PUSH2 0x3A41 JUMP JUMPDEST PUSH1 0x40 MLOAD DUP1 SWAP2 SUB SWAP1 REVERT JUMPDEST PUSH1 0x1 PUSH1 0x65 DUP2 SWAP1 SSTORE POP JUMP JUMPDEST PUSH1 0x0 DUP2 DUP4 PUSH2 0x2508 SWAP2 SWAP1 PUSH2 0x3A61 JUMP JUMPDEST SWAP1 POP SWAP3 SWAP2 POP POP JUMP JUMPDEST PUSH1 0x0 DUP2 DUP4 PUSH2 0x251E SWAP2 SWAP1 PUSH2 0x3AEA JUMP JUMPDEST SWAP1 POP SWAP3 SWAP2 POP POP JUMP JUMPDEST PUSH1 0x0 CALLER SWAP1 POP SWAP1 JUMP JUMPDEST PUSH1 0x0 PUSH2 0x2590 DUP3 PUSH1 0x40 MLOAD DUP1 PUSH1 0x40 ADD PUSH1 0x40 MSTORE DUP1 PUSH1 0x20 DUP2 MSTORE PUSH1 0x20 ADD PUSH32 0x5361666545524332303A206C6F772D6C6576656C2063616C6C206661696C6564 DUP2 MSTORE POP DUP6 PUSH20 0xFFFFFFFFFFFFFFFFFFFFFFFFFFFFFFFFFFFFFFFF AND PUSH2 0x25F5 SWAP1 SWAP3 SWAP2 SWAP1 PUSH4 0xFFFFFFFF AND JUMP JUMPDEST SWAP1 POP PUSH1 0x0 DUP2 MLOAD GT ISZERO PUSH2 0x25F0 JUMPI DUP1 DUP1 PUSH1 0x20 ADD SWAP1 MLOAD DUP2 ADD SWAP1 PUSH2 0x25B0 SWAP2 SWAP1 PUSH2 0x3B30 JUMP JUMPDEST PUSH2 0x25EF JUMPI PUSH1 0x40 MLOAD PUSH32 0x8C379A000000000000000000000000000000000000000000000000000000000 DUP2 MSTORE PUSH1 0x4 ADD PUSH2 0x25E6 SWAP1 PUSH2 0x3BCF JUMP JUMPDEST PUSH1 0x40 MLOAD DUP1 SWAP2 SUB SWAP1 REVERT JUMPDEST JUMPDEST POP POP POP JUMP JUMPDEST PUSH1 0x60 PUSH2 0x2604 DUP5 DUP5 PUSH1 0x0 DUP6 PUSH2 0x260D JUMP JUMPDEST SWAP1 POP SWAP4 SWAP3 POP POP POP JUMP JUMPDEST PUSH1 0x60 DUP3 SELFBALANCE LT ISZERO PUSH2 0x2652 JUMPI PUSH1 0x40 MLOAD PUSH32 0x8C379A000000000000000000000000000000000000000000000000000000000 DUP2 MSTORE PUSH1 0x4 ADD PUSH2 0x2649 SWAP1 PUSH2 0x3C61 JUMP JUMPDEST PUSH1 0x40 MLOAD DUP1 SWAP2 SUB SWAP1 REVERT JUMPDEST PUSH2 0x265B DUP6 PUSH2 0x241D JUMP JUMPDEST PUSH2 0x269A JUMPI PUSH1 0x40 MLOAD PUSH32 0x8C379A000000000000000000000000000000000000000000000000000000000 DUP2 MSTORE PUSH1 0x4 ADD PUSH2 0x2691 SWAP1 PUSH2 0x3CCD JUMP JUMPDEST PUSH1 0x40 MLOAD DUP1 SWAP2 SUB SWAP1 REVERT JUMPDEST PUSH1 0x0 DUP1 DUP7 PUSH20 0xFFFFFFFFFFFFFFFFFFFFFFFFFFFFFFFFFFFFFFFF AND DUP6 DUP8 PUSH1 0x40 MLOAD PUSH2 0x26C3 SWAP2 SWAP1 PUSH2 0x3D67 JUMP JUMPDEST PUSH1 0x0 PUSH1 0x40 MLOAD DUP1 DUP4 SUB DUP2 DUP6 DUP8 GAS CALL SWAP3 POP POP POP RETURNDATASIZE DUP1 PUSH1 0x0 DUP2 EQ PUSH2 0x2700 JUMPI PUSH1 0x40 MLOAD SWAP2 POP PUSH1 0x1F NOT PUSH1 0x3F RETURNDATASIZE ADD AND DUP3 ADD PUSH1 0x40 MSTORE RETURNDATASIZE DUP3 MSTORE RETURNDATASIZE PUSH1 0x0 PUSH1 0x20 DUP5 ADD RETURNDATACOPY PUSH2 0x2705 JUMP JUMPDEST PUSH1 0x60 SWAP2 POP JUMPDEST POP SWAP2 POP SWAP2 POP PUSH2 0x2715 DUP3 DUP3 DUP7 PUSH2 0x2721 JUMP JUMPDEST SWAP3 POP POP POP SWAP5 SWAP4 POP POP POP POP JUMP JUMPDEST PUSH1 0x60 DUP4 ISZERO PUSH2 0x2731 JUMPI DUP3 SWAP1 POP PUSH2 0x2781 JUMP JUMPDEST PUSH1 0x0 DUP4 MLOAD GT ISZERO PUSH2 0x2744 JUMPI DUP3 MLOAD DUP1 DUP5 PUSH1 0x20 ADD REVERT JUMPDEST DUP2 PUSH1 0x40 MLOAD PUSH32 0x8C379A000000000000000000000000000000000000000000000000000000000 DUP2 MSTORE PUSH1 0x4 ADD PUSH2 0x2778 SWAP2 SWAP1 PUSH2 0x3DD3 JUMP JUMPDEST PUSH1 0x40 MLOAD DUP1 SWAP2 SUB SWAP1 REVERT JUMPDEST SWAP4 SWAP3 POP POP POP JUMP JUMPDEST PUSH1 0x40 MLOAD DUP1 PUSH2 0x160 ADD PUSH1 0x40 MSTORE DUP1 PUSH1 0x0 ISZERO ISZERO DUP2 MSTORE PUSH1 0x20 ADD PUSH1 0x0 PUSH20 0xFFFFFFFFFFFFFFFFFFFFFFFFFFFFFFFFFFFFFFFF AND DUP2 MSTORE PUSH1 0x20 ADD PUSH1 0x0 DUP2 MSTORE PUSH1 0x20 ADD PUSH1 0x0 DUP2 MSTORE PUSH1 0x20 ADD PUSH1 0x0 DUP2 MSTORE PUSH1 0x20 ADD PUSH1 0x0 DUP2 MSTORE PUSH1 0x20 ADD PUSH1 0x0 ISZERO ISZERO DUP2 MSTORE PUSH1 0x20 ADD PUSH1 0x0 DUP2 MSTORE PUSH1 0x20 ADD PUSH1 0x0 DUP2 MSTORE PUSH1 0x20 ADD PUSH1 0x0 ISZERO ISZERO DUP2 MSTORE PUSH1 0x20 ADD PUSH1 0x0 ISZERO ISZERO DUP2 MSTORE POP SWAP1 JUMP JUMPDEST PUSH1 0x0 DUP2 SWAP1 POP SWAP2 SWAP1 POP JUMP JUMPDEST PUSH2 0x2813 DUP2 PUSH2 0x2800 JUMP JUMPDEST DUP3 MSTORE POP POP JUMP JUMPDEST PUSH1 0x0 PUSH1 0x20 DUP3 ADD SWAP1 POP PUSH2 0x282E PUSH1 0x0 DUP4 ADD DUP5 PUSH2 0x280A JUMP JUMPDEST SWAP3 SWAP2 POP POP JUMP JUMPDEST PUSH1 0x0 DUP1 REVERT JUMPDEST PUSH1 0x0 PUSH20 0xFFFFFFFFFFFFFFFFFFFFFFFFFFFFFFFFFFFFFFFF DUP3 AND SWAP1 POP SWAP2 SWAP1 POP JUMP JUMPDEST PUSH1 0x0 PUSH2 0x2864 DUP3 PUSH2 0x2839 JUMP JUMPDEST SWAP1 POP SWAP2 SWAP1 POP JUMP JUMPDEST PUSH2 0x2874 DUP2 PUSH2 0x2859 JUMP JUMPDEST DUP2 EQ PUSH2 0x287F JUMPI PUSH1 0x0 DUP1 REVERT JUMPDEST POP JUMP JUMPDEST PUSH1 0x0 DUP2 CALLDATALOAD SWAP1 POP PUSH2 0x2891 DUP2 PUSH2 0x286B JUMP JUMPDEST SWAP3 SWAP2 POP POP JUMP JUMPDEST PUSH1 0x0 PUSH1 0x20 DUP3 DUP5 SUB SLT ISZERO PUSH2 0x28AD JUMPI PUSH2 0x28AC PUSH2 0x2834 JUMP JUMPDEST JUMPDEST PUSH1 0x0 PUSH2 0x28BB DUP5 DUP3 DUP6 ADD PUSH2 0x2882 JUMP JUMPDEST SWAP2 POP POP SWAP3 SWAP2 POP POP JUMP JUMPDEST PUSH2 0x28CD DUP2 PUSH2 0x2859 JUMP JUMPDEST DUP3 MSTORE POP POP JUMP JUMPDEST PUSH1 0x0 PUSH1 0x20 DUP3 ADD SWAP1 POP PUSH2 0x28E8 PUSH1 0x0 DUP4 ADD DUP5 PUSH2 0x28C4 JUMP JUMPDEST SWAP3 SWAP2 POP POP JUMP JUMPDEST PUSH2 0x28F7 DUP2 PUSH2 0x2800 JUMP JUMPDEST DUP2 EQ PUSH2 0x2902 JUMPI PUSH1 0x0 DUP1 REVERT JUMPDEST POP JUMP JUMPDEST PUSH1 0x0 DUP2 CALLDATALOAD SWAP1 POP PUSH2 0x2914 DUP2 PUSH2 0x28EE JUMP JUMPDEST SWAP3 SWAP2 POP POP JUMP JUMPDEST PUSH1 0x0 PUSH1 0x20 DUP3 DUP5 SUB SLT ISZERO PUSH2 0x2930 JUMPI PUSH2 0x292F PUSH2 0x2834 JUMP JUMPDEST JUMPDEST PUSH1 0x0 PUSH2 0x293E DUP5 DUP3 DUP6 ADD PUSH2 0x2905 JUMP JUMPDEST SWAP2 POP POP SWAP3 SWAP2 POP POP JUMP JUMPDEST PUSH1 0x0 DUP2 SWAP1 POP SWAP2 SWAP1 POP JUMP JUMPDEST PUSH2 0x295A DUP2 PUSH2 0x2947 JUMP JUMPDEST DUP2 EQ PUSH2 0x2965 JUMPI PUSH1 0x0 DUP1 REVERT JUMPDEST POP JUMP JUMPDEST PUSH1 0x0 DUP2 CALLDATALOAD SWAP1 POP PUSH2 0x2977 DUP2 PUSH2 0x2951 JUMP JUMPDEST SWAP3 SWAP2 POP POP JUMP JUMPDEST PUSH1 0x0 DUP1 PUSH1 0x40 DUP4 DUP6 SUB SLT ISZERO PUSH2 0x2994 JUMPI PUSH2 0x2993 PUSH2 0x2834 JUMP JUMPDEST JUMPDEST PUSH1 0x0 PUSH2 0x29A2 DUP6 DUP3 DUP7 ADD PUSH2 0x2968 JUMP JUMPDEST SWAP3 POP POP PUSH1 0x20 PUSH2 0x29B3 DUP6 DUP3 DUP7 ADD PUSH2 0x2905 JUMP JUMPDEST SWAP2 POP POP SWAP3 POP SWAP3 SWAP1 POP JUMP JUMPDEST PUSH1 0x0 PUSH2 0x29C8 DUP3 PUSH2 0x2859 JUMP JUMPDEST SWAP1 POP SWAP2 SWAP1 POP JUMP JUMPDEST PUSH2 0x29D8 DUP2 PUSH2 0x29BD JUMP JUMPDEST DUP2 EQ PUSH2 0x29E3 JUMPI PUSH1 0x0 DUP1 REVERT JUMPDEST POP JUMP JUMPDEST PUSH1 0x0 DUP2 CALLDATALOAD SWAP1 POP PUSH2 0x29F5 DUP2 PUSH2 0x29CF JUMP JUMPDEST SWAP3 SWAP2 POP POP JUMP JUMPDEST PUSH1 0x0 DUP1 PUSH1 0x0 PUSH1 0x60 DUP5 DUP7 SUB SLT ISZERO PUSH2 0x2A14 JUMPI PUSH2 0x2A13 PUSH2 0x2834 JUMP JUMPDEST JUMPDEST PUSH1 0x0 PUSH2 0x2A22 DUP7 DUP3 DUP8 ADD PUSH2 0x29E6 JUMP JUMPDEST SWAP4 POP POP PUSH1 0x20 PUSH2 0x2A33 DUP7 DUP3 DUP8 ADD PUSH2 0x2905 JUMP JUMPDEST SWAP3 POP POP PUSH1 0x40 PUSH2 0x2A44 DUP7 DUP3 DUP8 ADD PUSH2 0x2905 JUMP JUMPDEST SWAP2 POP POP SWAP3 POP SWAP3 POP SWAP3 JUMP JUMPDEST PUSH1 0x0 DUP2 ISZERO ISZERO SWAP1 POP SWAP2 SWAP1 POP JUMP JUMPDEST PUSH2 0x2A63 DUP2 PUSH2 0x2A4E JUMP JUMPDEST DUP2 EQ PUSH2 0x2A6E JUMPI PUSH1 0x0 DUP1 REVERT JUMPDEST POP JUMP JUMPDEST PUSH1 0x0 DUP2 CALLDATALOAD SWAP1 POP PUSH2 0x2A80 DUP2 PUSH2 0x2A5A JUMP JUMPDEST SWAP3 SWAP2 POP POP JUMP JUMPDEST PUSH1 0x0 DUP1 PUSH1 0x0 DUP1 PUSH1 0x0 DUP1 PUSH1 0x0 DUP1 PUSH2 0x100 DUP10 DUP12 SUB SLT ISZERO PUSH2 0x2AA7 JUMPI PUSH2 0x2AA6 PUSH2 0x2834 JUMP JUMPDEST JUMPDEST PUSH1 0x0 PUSH2 0x2AB5 DUP12 DUP3 DUP13 ADD PUSH2 0x2882 JUMP JUMPDEST SWAP9 POP POP PUSH1 0x20 PUSH2 0x2AC6 DUP12 DUP3 DUP13 ADD PUSH2 0x2905 JUMP JUMPDEST SWAP8 POP POP PUSH1 0x40 PUSH2 0x2AD7 DUP12 DUP3 DUP13 ADD PUSH2 0x2905 JUMP JUMPDEST SWAP7 POP POP PUSH1 0x60 PUSH2 0x2AE8 DUP12 DUP3 DUP13 ADD PUSH2 0x2905 JUMP JUMPDEST SWAP6 POP POP PUSH1 0x80 PUSH2 0x2AF9 DUP12 DUP3 DUP13 ADD PUSH2 0x2905 JUMP JUMPDEST SWAP5 POP POP PUSH1 0xA0 PUSH2 0x2B0A DUP12 DUP3 DUP13 ADD PUSH2 0x2A71 JUMP JUMPDEST SWAP4 POP POP PUSH1 0xC0 PUSH2 0x2B1B DUP12 DUP3 DUP13 ADD PUSH2 0x2905 JUMP JUMPDEST SWAP3 POP POP PUSH1 0xE0 PUSH2 0x2B2C DUP12 DUP3 DUP13 ADD PUSH2 0x2A71 JUMP JUMPDEST SWAP2 POP POP SWAP3 SWAP6 SWAP9 POP SWAP3 SWAP6 SWAP9 SWAP1 SWAP4 SWAP7 POP JUMP JUMPDEST PUSH2 0x2B45 DUP2 PUSH2 0x2A4E JUMP JUMPDEST DUP3 MSTORE POP POP JUMP JUMPDEST PUSH2 0x2B54 DUP2 PUSH2 0x2859 JUMP JUMPDEST DUP3 MSTORE POP POP JUMP JUMPDEST PUSH2 0x2B63 DUP2 PUSH2 0x2800 JUMP JUMPDEST DUP3 MSTORE POP POP JUMP JUMPDEST PUSH2 0x160 DUP3 ADD PUSH1 0x0 DUP3 ADD MLOAD PUSH2 0x2B80 PUSH1 0x0 DUP6 ADD DUP3 PUSH2 0x2B3C JUMP JUMPDEST POP PUSH1 0x20 DUP3 ADD MLOAD PUSH2 0x2B93 PUSH1 0x20 DUP6 ADD DUP3 PUSH2 0x2B4B JUMP JUMPDEST POP PUSH1 0x40 DUP3 ADD MLOAD PUSH2 0x2BA6 PUSH1 0x40 DUP6 ADD DUP3 PUSH2 0x2B5A JUMP JUMPDEST POP PUSH1 0x60 DUP3 ADD MLOAD PUSH2 0x2BB9 PUSH1 0x60 DUP6 ADD DUP3 PUSH2 0x2B5A JUMP JUMPDEST POP PUSH1 0x80 DUP3 ADD MLOAD PUSH2 0x2BCC PUSH1 0x80 DUP6 ADD DUP3 PUSH2 0x2B5A JUMP JUMPDEST POP PUSH1 0xA0 DUP3 ADD MLOAD PUSH2 0x2BDF PUSH1 0xA0 DUP6 ADD DUP3 PUSH2 0x2B5A JUMP JUMPDEST POP PUSH1 0xC0 DUP3 ADD MLOAD PUSH2 0x2BF2 PUSH1 0xC0 DUP6 ADD DUP3 PUSH2 0x2B3C JUMP JUMPDEST POP PUSH1 0xE0 DUP3 ADD MLOAD PUSH2 0x2C05 PUSH1 0xE0 DUP6 ADD DUP3 PUSH2 0x2B5A JUMP JUMPDEST POP PUSH2 0x100 DUP3 ADD MLOAD PUSH2 0x2C1A PUSH2 0x100 DUP6 ADD DUP3 PUSH2 0x2B5A JUMP JUMPDEST POP PUSH2 0x120 DUP3 ADD MLOAD PUSH2 0x2C2F PUSH2 0x120 DUP6 ADD DUP3 PUSH2 0x2B3C JUMP JUMPDEST POP PUSH2 0x140 DUP3 ADD MLOAD PUSH2 0x2C44 PUSH2 0x140 DUP6 ADD DUP3 PUSH2 0x2B3C JUMP JUMPDEST POP POP POP POP JUMP JUMPDEST PUSH1 0x0 PUSH2 0x160 DUP3 ADD SWAP1 POP PUSH2 0x2C60 PUSH1 0x0 DUP4 ADD DUP5 PUSH2 0x2B69 JUMP JUMPDEST SWAP3 SWAP2 POP POP JUMP JUMPDEST PUSH1 0x0 DUP1 PUSH1 0x40 DUP4 DUP6 SUB SLT ISZERO PUSH2 0x2C7D JUMPI PUSH2 0x2C7C PUSH2 0x2834 JUMP JUMPDEST JUMPDEST PUSH1 0x0 PUSH2 0x2C8B DUP6 DUP3 DUP7 ADD PUSH2 0x2882 JUMP JUMPDEST SWAP3 POP POP PUSH1 0x20 PUSH2 0x2C9C DUP6 DUP3 DUP7 ADD PUSH2 0x2905 JUMP JUMPDEST SWAP2 POP POP SWAP3 POP SWAP3 SWAP1 POP JUMP JUMPDEST PUSH2 0x2CAF DUP2 PUSH2 0x2947 JUMP JUMPDEST DUP3 MSTORE POP POP JUMP JUMPDEST PUSH1 0x0 PUSH1 0x20 DUP3 ADD SWAP1 POP PUSH2 0x2CCA PUSH1 0x0 DUP4 ADD DUP5 PUSH2 0x2CA6 JUMP JUMPDEST SWAP3 SWAP2 POP POP JUMP JUMPDEST PUSH1 0x0 PUSH1 0x20 DUP3 DUP5 SUB SLT ISZERO PUSH2 0x2CE6 JUMPI PUSH2 0x2CE5 PUSH2 0x2834 JUMP JUMPDEST JUMPDEST PUSH1 0x0 PUSH2 0x2CF4 DUP5 DUP3 DUP6 ADD PUSH2 0x2968 JUMP JUMPDEST SWAP2 POP POP SWAP3 SWAP2 POP POP JUMP JUMPDEST PUSH1 0x0 DUP3 DUP3 MSTORE PUSH1 0x20 DUP3 ADD SWAP1 POP SWAP3 SWAP2 POP POP JUMP JUMPDEST PUSH32 0x5265656E7472616E637947756172643A207265656E7472616E742063616C6C00 PUSH1 0x0 DUP3 ADD MSTORE POP JUMP JUMPDEST PUSH1 0x0 PUSH2 0x2D44 PUSH1 0x1F DUP4 PUSH2 0x2CFD JUMP JUMPDEST SWAP2 POP PUSH2 0x2D4F DUP3 PUSH2 0x2D0E JUMP JUMPDEST PUSH1 0x20 DUP3 ADD SWAP1 POP SWAP2 SWAP1 POP JUMP JUMPDEST PUSH1 0x0 PUSH1 0x20 DUP3 ADD SWAP1 POP DUP2 DUP2 SUB PUSH1 0x0 DUP4 ADD MSTORE PUSH2 0x2D73 DUP2 PUSH2 0x2D37 JUMP JUMPDEST SWAP1 POP SWAP2 SWAP1 POP JUMP JUMPDEST PUSH1 0x0 DUP2 MLOAD SWAP1 POP PUSH2 0x2D89 DUP2 PUSH2 0x28EE JUMP JUMPDEST SWAP3 SWAP2 POP POP JUMP JUMPDEST PUSH1 0x0 PUSH1 0x20 DUP3 DUP5 SUB SLT ISZERO PUSH2 0x2DA5 JUMPI PUSH2 0x2DA4 PUSH2 0x2834 JUMP JUMPDEST JUMPDEST PUSH1 0x0 PUSH2 0x2DB3 DUP5 DUP3 DUP6 ADD PUSH2 0x2D7A JUMP JUMPDEST SWAP2 POP POP SWAP3 SWAP2 POP POP JUMP JUMPDEST PUSH32 0x546F6B656E56657374696E673A206E6F7420656E6F7567682077697468647261 PUSH1 0x0 DUP3 ADD MSTORE PUSH32 0x7761626C652066756E6473000000000000000000000000000000000000000000 PUSH1 0x20 DUP3 ADD MSTORE POP JUMP JUMPDEST PUSH1 0x0 PUSH2 0x2E18 PUSH1 0x2B DUP4 PUSH2 0x2CFD JUMP JUMPDEST SWAP2 POP PUSH2 0x2E23 DUP3 PUSH2 0x2DBC JUMP JUMPDEST PUSH1 0x40 DUP3 ADD SWAP1 POP SWAP2 SWAP1 POP JUMP JUMPDEST PUSH1 0x0 PUSH1 0x20 DUP3 ADD SWAP1 POP DUP2 DUP2 SUB PUSH1 0x0 DUP4 ADD MSTORE PUSH2 0x2E47 DUP2 PUSH2 0x2E0B JUMP JUMPDEST SWAP1 POP SWAP2 SWAP1 POP JUMP JUMPDEST PUSH32 0x546F6B656E56657374696E673A206F6E6C792062656E65666963696172792061 PUSH1 0x0 DUP3 ADD MSTORE PUSH32 0x6E64206F776E65722063616E2072656C656173652076657374656420746F6B65 PUSH1 0x20 DUP3 ADD MSTORE PUSH32 0x6E73000000000000000000000000000000000000000000000000000000000000 PUSH1 0x40 DUP3 ADD MSTORE POP JUMP JUMPDEST PUSH1 0x0 PUSH2 0x2ED0 PUSH1 0x42 DUP4 PUSH2 0x2CFD JUMP JUMPDEST SWAP2 POP PUSH2 0x2EDB DUP3 PUSH2 0x2E4E JUMP JUMPDEST PUSH1 0x60 DUP3 ADD SWAP1 POP SWAP2 SWAP1 POP JUMP JUMPDEST PUSH1 0x0 PUSH1 0x20 DUP3 ADD SWAP1 POP DUP2 DUP2 SUB PUSH1 0x0 DUP4 ADD MSTORE PUSH2 0x2EFF DUP2 PUSH2 0x2EC3 JUMP JUMPDEST SWAP1 POP SWAP2 SWAP1 POP JUMP JUMPDEST PUSH32 0x546F6B656E56657374696E673A2063616E6E6F742072656C6561736520746F6B PUSH1 0x0 DUP3 ADD MSTORE PUSH32 0x656E732C206E6F7420656E6F7567682076657374656420746F6B656E73000000 PUSH1 0x20 DUP3 ADD MSTORE POP JUMP JUMPDEST PUSH1 0x0 PUSH2 0x2F62 PUSH1 0x3D DUP4 PUSH2 0x2CFD JUMP JUMPDEST SWAP2 POP PUSH2 0x2F6D DUP3 PUSH2 0x2F06 JUMP JUMPDEST PUSH1 0x40 DUP3 ADD SWAP1 POP SWAP2 SWAP1 POP JUMP JUMPDEST PUSH1 0x0 PUSH1 0x20 DUP3 ADD SWAP1 POP DUP2 DUP2 SUB PUSH1 0x0 DUP4 ADD MSTORE PUSH2 0x2F91 DUP2 PUSH2 0x2F55 JUMP JUMPDEST SWAP1 POP SWAP2 SWAP1 POP JUMP JUMPDEST PUSH32 0x496E697469616C697A61626C653A20636F6E747261637420697320616C726561 PUSH1 0x0 DUP3 ADD MSTORE PUSH32 0x647920696E697469616C697A6564000000000000000000000000000000000000 PUSH1 0x20 DUP3 ADD MSTORE POP JUMP JUMPDEST PUSH1 0x0 PUSH2 0x2FF4 PUSH1 0x2E DUP4 PUSH2 0x2CFD JUMP JUMPDEST SWAP2 POP PUSH2 0x2FFF DUP3 PUSH2 0x2F98 JUMP JUMPDEST PUSH1 0x40 DUP3 ADD SWAP1 POP SWAP2 SWAP1 POP JUMP JUMPDEST PUSH1 0x0 PUSH1 0x20 DUP3 ADD SWAP1 POP DUP2 DUP2 SUB PUSH1 0x0 DUP4 ADD MSTORE PUSH2 0x3023 DUP2 PUSH2 0x2FE7 JUMP JUMPDEST SWAP1 POP SWAP2 SWAP1 POP JUMP JUMPDEST PUSH32 0x5447452050657263656E74206D7573742062652067726561746572207468616E PUSH1 0x0 DUP3 ADD MSTORE PUSH32 0x203020616E64204C657373207468616E20313030000000000000000000000000 PUSH1 0x20 DUP3 ADD MSTORE POP JUMP JUMPDEST PUSH1 0x0 PUSH2 0x3086 PUSH1 0x34 DUP4 PUSH2 0x2CFD JUMP JUMPDEST SWAP2 POP PUSH2 0x3091 DUP3 PUSH2 0x302A JUMP JUMPDEST PUSH1 0x40 DUP3 ADD SWAP1 POP SWAP2 SWAP1 POP JUMP JUMPDEST PUSH1 0x0 PUSH1 0x20 DUP3 ADD SWAP1 POP DUP2 DUP2 SUB PUSH1 0x0 DUP4 ADD MSTORE PUSH2 0x30B5 DUP2 PUSH2 0x3079 JUMP JUMPDEST SWAP1 POP SWAP2 SWAP1 POP JUMP JUMPDEST PUSH1 0x0 DUP2 SWAP1 POP SWAP2 SWAP1 POP JUMP JUMPDEST PUSH1 0x0 PUSH1 0xFF DUP3 AND SWAP1 POP SWAP2 SWAP1 POP JUMP JUMPDEST PUSH1 0x0 DUP2 SWAP1 POP SWAP2 SWAP1 POP JUMP JUMPDEST PUSH1 0x0 PUSH2 0x30F8 PUSH2 0x30F3 PUSH2 0x30EE DUP5 PUSH2 0x30BC JUMP JUMPDEST PUSH2 0x30D3 JUMP JUMPDEST PUSH2 0x30C6 JUMP JUMPDEST SWAP1 POP SWAP2 SWAP1 POP JUMP JUMPDEST PUSH2 0x3108 DUP2 PUSH2 0x30DD JUMP JUMPDEST DUP3 MSTORE POP POP JUMP JUMPDEST PUSH1 0x0 PUSH1 0x20 DUP3 ADD SWAP1 POP PUSH2 0x3123 PUSH1 0x0 DUP4 ADD DUP5 PUSH2 0x30FF JUMP JUMPDEST SWAP3 SWAP2 POP POP JUMP JUMPDEST PUSH32 0x4E6F204163636573730000000000000000000000000000000000000000000000 PUSH1 0x0 DUP3 ADD MSTORE POP JUMP JUMPDEST PUSH1 0x0 PUSH2 0x315F PUSH1 0x9 DUP4 PUSH2 0x2CFD JUMP JUMPDEST SWAP2 POP PUSH2 0x316A DUP3 PUSH2 0x3129 JUMP JUMPDEST PUSH1 0x20 DUP3 ADD SWAP1 POP SWAP2 SWAP1 POP JUMP JUMPDEST PUSH1 0x0 PUSH1 0x20 DUP3 ADD SWAP1 POP DUP2 DUP2 SUB PUSH1 0x0 DUP4 ADD MSTORE PUSH2 0x318E DUP2 PUSH2 0x3152 JUMP JUMPDEST SWAP1 POP SWAP2 SWAP1 POP JUMP JUMPDEST PUSH32 0x546F6B656E56657374696E673A2063616E6E6F74206372656174652076657374 PUSH1 0x0 DUP3 ADD MSTORE PUSH32 0x696E67207363686564756C652062656361757365206E6F742073756666696369 PUSH1 0x20 DUP3 ADD MSTORE PUSH32 0x656E7420746F6B656E7300000000000000000000000000000000000000000000 PUSH1 0x40 DUP3 ADD MSTORE POP JUMP JUMPDEST PUSH1 0x0 PUSH2 0x3217 PUSH1 0x4A DUP4 PUSH2 0x2CFD JUMP JUMPDEST SWAP2 POP PUSH2 0x3222 DUP3 PUSH2 0x3195 JUMP JUMPDEST PUSH1 0x60 DUP3 ADD SWAP1 POP SWAP2 SWAP1 POP JUMP JUMPDEST PUSH1 0x0 PUSH1 0x20 DUP3 ADD SWAP1 POP DUP2 DUP2 SUB PUSH1 0x0 DUP4 ADD MSTORE PUSH2 0x3246 DUP2 PUSH2 0x320A JUMP JUMPDEST SWAP1 POP SWAP2 SWAP1 POP JUMP JUMPDEST PUSH32 0x546F6B656E56657374696E673A206475726174696F6E206D757374206265203E PUSH1 0x0 DUP3 ADD MSTORE PUSH32 0x2030000000000000000000000000000000000000000000000000000000000000 PUSH1 0x20 DUP3 ADD MSTORE POP JUMP JUMPDEST PUSH1 0x0 PUSH2 0x32A9 PUSH1 0x22 DUP4 PUSH2 0x2CFD JUMP JUMPDEST SWAP2 POP PUSH2 0x32B4 DUP3 PUSH2 0x324D JUMP JUMPDEST PUSH1 0x40 DUP3 ADD SWAP1 POP SWAP2 SWAP1 POP JUMP JUMPDEST PUSH1 0x0 PUSH1 0x20 DUP3 ADD SWAP1 POP DUP2 DUP2 SUB PUSH1 0x0 DUP4 ADD MSTORE PUSH2 0x32D8 DUP2 PUSH2 0x329C JUMP JUMPDEST SWAP1 POP SWAP2 SWAP1 POP JUMP JUMPDEST PUSH32 0x546F6B656E56657374696E673A20616D6F756E74206D757374206265203E2030 PUSH1 0x0 DUP3 ADD MSTORE POP JUMP JUMPDEST PUSH1 0x0 PUSH2 0x3315 PUSH1 0x20 DUP4 PUSH2 0x2CFD JUMP JUMPDEST SWAP2 POP PUSH2 0x3320 DUP3 PUSH2 0x32DF JUMP JUMPDEST PUSH1 0x20 DUP3 ADD SWAP1 POP SWAP2 SWAP1 POP JUMP JUMPDEST PUSH1 0x0 PUSH1 0x20 DUP3 ADD SWAP1 POP DUP2 DUP2 SUB PUSH1 0x0 DUP4 ADD MSTORE PUSH2 0x3344 DUP2 PUSH2 0x3308 JUMP JUMPDEST SWAP1 POP SWAP2 SWAP1 POP JUMP JUMPDEST PUSH32 0x546F6B656E56657374696E673A20736C696365506572696F645365636F6E6473 PUSH1 0x0 DUP3 ADD MSTORE PUSH32 0x206D757374206265203E3D203100000000000000000000000000000000000000 PUSH1 0x20 DUP3 ADD MSTORE POP JUMP JUMPDEST PUSH1 0x0 PUSH2 0x33A7 PUSH1 0x2D DUP4 PUSH2 0x2CFD JUMP JUMPDEST SWAP2 POP PUSH2 0x33B2 DUP3 PUSH2 0x334B JUMP JUMPDEST PUSH1 0x40 DUP3 ADD SWAP1 POP SWAP2 SWAP1 POP JUMP JUMPDEST PUSH1 0x0 PUSH1 0x20 DUP3 ADD SWAP1 POP DUP2 DUP2 SUB PUSH1 0x0 DUP4 ADD MSTORE PUSH2 0x33D6 DUP2 PUSH2 0x339A JUMP JUMPDEST SWAP1 POP SWAP2 SWAP1 POP JUMP JUMPDEST PUSH1 0x0 DUP2 MLOAD SWAP1 POP PUSH2 0x33EC DUP2 PUSH2 0x2951 JUMP JUMPDEST SWAP3 SWAP2 POP POP JUMP JUMPDEST PUSH1 0x0 PUSH1 0x20 DUP3 DUP5 SUB SLT ISZERO PUSH2 0x3408 JUMPI PUSH2 0x3407 PUSH2 0x2834 JUMP JUMPDEST JUMPDEST PUSH1 0x0 PUSH2 0x3416 DUP5 DUP3 DUP6 ADD PUSH2 0x33DD JUMP JUMPDEST SWAP2 POP POP SWAP3 SWAP2 POP POP JUMP JUMPDEST PUSH32 0x4E487B7100000000000000000000000000000000000000000000000000000000 PUSH1 0x0 MSTORE PUSH1 0x11 PUSH1 0x4 MSTORE PUSH1 0x24 PUSH1 0x0 REVERT JUMPDEST PUSH1 0x0 PUSH2 0x3459 DUP3 PUSH2 0x2800 JUMP JUMPDEST SWAP2 POP PUSH2 0x3464 DUP4 PUSH2 0x2800 JUMP JUMPDEST SWAP3 POP DUP3 DUP3 LT ISZERO PUSH2 0x3477 JUMPI PUSH2 0x3476 PUSH2 0x341F JUMP JUMPDEST JUMPDEST DUP3 DUP3 SUB SWAP1 POP SWAP3 SWAP2 POP POP JUMP JUMPDEST PUSH1 0x0 DUP2 PUSH1 0x60 SHL SWAP1 POP SWAP2 SWAP1 POP JUMP JUMPDEST PUSH1 0x0 PUSH2 0x349A DUP3 PUSH2 0x3482 JUMP JUMPDEST SWAP1 POP SWAP2 SWAP1 POP JUMP JUMPDEST PUSH1 0x0 PUSH2 0x34AC DUP3 PUSH2 0x348F JUMP JUMPDEST SWAP1 POP SWAP2 SWAP1 POP JUMP JUMPDEST PUSH2 0x34C4 PUSH2 0x34BF DUP3 PUSH2 0x2859 JUMP JUMPDEST PUSH2 0x34A1 JUMP JUMPDEST DUP3 MSTORE POP POP JUMP JUMPDEST PUSH1 0x0 DUP2 SWAP1 POP SWAP2 SWAP1 POP JUMP JUMPDEST PUSH2 0x34E5 PUSH2 0x34E0 DUP3 PUSH2 0x2800 JUMP JUMPDEST PUSH2 0x34CA JUMP JUMPDEST DUP3 MSTORE POP POP JUMP JUMPDEST PUSH1 0x0 PUSH2 0x34F7 DUP3 DUP6 PUSH2 0x34B3 JUMP JUMPDEST PUSH1 0x14 DUP3 ADD SWAP2 POP PUSH2 0x3507 DUP3 DUP5 PUSH2 0x34D4 JUMP JUMPDEST PUSH1 0x20 DUP3 ADD SWAP2 POP DUP2 SWAP1 POP SWAP4 SWAP3 POP POP POP JUMP JUMPDEST PUSH32 0x546F6B656E56657374696E673A2076657374696E67206973206E6F7420726576 PUSH1 0x0 DUP3 ADD MSTORE PUSH32 0x6F6361626C650000000000000000000000000000000000000000000000000000 PUSH1 0x20 DUP3 ADD MSTORE POP JUMP JUMPDEST PUSH1 0x0 PUSH2 0x3573 PUSH1 0x26 DUP4 PUSH2 0x2CFD JUMP JUMPDEST SWAP2 POP PUSH2 0x357E DUP3 PUSH2 0x3517 JUMP JUMPDEST PUSH1 0x40 DUP3 ADD SWAP1 POP SWAP2 SWAP1 POP JUMP JUMPDEST PUSH1 0x0 PUSH1 0x20 DUP3 ADD SWAP1 POP DUP2 DUP2 SUB PUSH1 0x0 DUP4 ADD MSTORE PUSH2 0x35A2 DUP2 PUSH2 0x3566 JUMP JUMPDEST SWAP1 POP SWAP2 SWAP1 POP JUMP JUMPDEST PUSH1 0x0 PUSH2 0x35B4 DUP3 PUSH2 0x2800 JUMP JUMPDEST SWAP2 POP PUSH2 0x35BF DUP4 PUSH2 0x2800 JUMP JUMPDEST SWAP3 POP DUP3 PUSH32 0xFFFFFFFFFFFFFFFFFFFFFFFFFFFFFFFFFFFFFFFFFFFFFFFFFFFFFFFFFFFFFFFF SUB DUP3 GT ISZERO PUSH2 0x35F4 JUMPI PUSH2 0x35F3 PUSH2 0x341F JUMP JUMPDEST JUMPDEST DUP3 DUP3 ADD SWAP1 POP SWAP3 SWAP2 POP POP JUMP JUMPDEST PUSH32 0x4F776E61626C653A206E6577206F776E657220697320746865207A65726F2061 PUSH1 0x0 DUP3 ADD MSTORE PUSH32 0x6464726573730000000000000000000000000000000000000000000000000000 PUSH1 0x20 DUP3 ADD MSTORE POP JUMP JUMPDEST PUSH1 0x0 PUSH2 0x365B PUSH1 0x26 DUP4 PUSH2 0x2CFD JUMP JUMPDEST SWAP2 POP PUSH2 0x3666 DUP3 PUSH2 0x35FF JUMP JUMPDEST PUSH1 0x40 DUP3 ADD SWAP1 POP SWAP2 SWAP1 POP JUMP JUMPDEST PUSH1 0x0 PUSH1 0x20 DUP3 ADD SWAP1 POP DUP2 DUP2 SUB PUSH1 0x0 DUP4 ADD MSTORE PUSH2 0x368A DUP2 PUSH2 0x364E JUMP JUMPDEST SWAP1 POP SWAP2 SWAP1 POP JUMP JUMPDEST PUSH32 0x546F6B656E56657374696E673A20696E646578206F7574206F6620626F756E64 PUSH1 0x0 DUP3 ADD MSTORE PUSH32 0x7300000000000000000000000000000000000000000000000000000000000000 PUSH1 0x20 DUP3 ADD MSTORE POP JUMP JUMPDEST PUSH1 0x0 PUSH2 0x36ED PUSH1 0x21 DUP4 PUSH2 0x2CFD JUMP JUMPDEST SWAP2 POP PUSH2 0x36F8 DUP3 PUSH2 0x3691 JUMP JUMPDEST PUSH1 0x40 DUP3 ADD SWAP1 POP SWAP2 SWAP1 POP JUMP JUMPDEST PUSH1 0x0 PUSH1 0x20 DUP3 ADD SWAP1 POP DUP2 DUP2 SUB PUSH1 0x0 DUP4 ADD MSTORE PUSH2 0x371C DUP2 PUSH2 0x36E0 JUMP JUMPDEST SWAP1 POP SWAP2 SWAP1 POP JUMP JUMPDEST PUSH32 0x4E487B7100000000000000000000000000000000000000000000000000000000 PUSH1 0x0 MSTORE PUSH1 0x32 PUSH1 0x4 MSTORE PUSH1 0x24 PUSH1 0x0 REVERT JUMPDEST PUSH32 0x52656C65617365546F6B656E41745447453A206F6E6C7920696E766573746F72 PUSH1 0x0 DUP3 ADD MSTORE PUSH32 0x732063616E20636C61696D20746F6B656E206174205447450000000000000000 PUSH1 0x20 DUP3 ADD MSTORE POP JUMP JUMPDEST PUSH1 0x0 PUSH2 0x37AE PUSH1 0x38 DUP4 PUSH2 0x2CFD JUMP JUMPDEST SWAP2 POP PUSH2 0x37B9 DUP3 PUSH2 0x3752 JUMP JUMPDEST PUSH1 0x40 DUP3 ADD SWAP1 POP SWAP2 SWAP1 POP JUMP JUMPDEST PUSH1 0x0 PUSH1 0x20 DUP3 ADD SWAP1 POP DUP2 DUP2 SUB PUSH1 0x0 DUP4 ADD MSTORE PUSH2 0x37DD DUP2 PUSH2 0x37A1 JUMP JUMPDEST SWAP1 POP SWAP2 SWAP1 POP JUMP JUMPDEST PUSH32 0x5447453A2074696D65206E6F7420726561636865642100000000000000000000 PUSH1 0x0 DUP3 ADD MSTORE POP JUMP JUMPDEST PUSH1 0x0 PUSH2 0x381A PUSH1 0x16 DUP4 PUSH2 0x2CFD JUMP JUMPDEST SWAP2 POP PUSH2 0x3825 DUP3 PUSH2 0x37E4 JUMP JUMPDEST PUSH1 0x20 DUP3 ADD SWAP1 POP SWAP2 SWAP1 POP JUMP JUMPDEST PUSH1 0x0 PUSH1 0x20 DUP3 ADD SWAP1 POP DUP2 DUP2 SUB PUSH1 0x0 DUP4 ADD MSTORE PUSH2 0x3849 DUP2 PUSH2 0x380D JUMP JUMPDEST SWAP1 POP SWAP2 SWAP1 POP JUMP JUMPDEST PUSH32 0x5447453A20546F6B656E20416C726561647920636C61696D6564000000000000 PUSH1 0x0 DUP3 ADD MSTORE POP JUMP JUMPDEST PUSH1 0x0 PUSH2 0x3886 PUSH1 0x1A DUP4 PUSH2 0x2CFD JUMP JUMPDEST SWAP2 POP PUSH2 0x3891 DUP3 PUSH2 0x3850 JUMP JUMPDEST PUSH1 0x20 DUP3 ADD SWAP1 POP SWAP2 SWAP1 POP JUMP JUMPDEST PUSH1 0x0 PUSH1 0x20 DUP3 ADD SWAP1 POP DUP2 DUP2 SUB PUSH1 0x0 DUP4 ADD MSTORE PUSH2 0x38B5 DUP2 PUSH2 0x3879 JUMP JUMPDEST SWAP1 POP SWAP2 SWAP1 POP JUMP JUMPDEST PUSH1 0x0 PUSH2 0x38D7 PUSH2 0x38D2 PUSH2 0x38CD DUP5 PUSH2 0x2839 JUMP JUMPDEST PUSH2 0x30D3 JUMP JUMPDEST PUSH2 0x2839 JUMP JUMPDEST SWAP1 POP SWAP2 SWAP1 POP JUMP JUMPDEST PUSH1 0x0 PUSH2 0x38E9 DUP3 PUSH2 0x38BC JUMP JUMPDEST SWAP1 POP SWAP2 SWAP1 POP JUMP JUMPDEST PUSH1 0x0 PUSH2 0x38FB DUP3 PUSH2 0x38DE JUMP JUMPDEST SWAP1 POP SWAP2 SWAP1 POP JUMP JUMPDEST PUSH2 0x390B DUP2 PUSH2 0x38F0 JUMP JUMPDEST DUP3 MSTORE POP POP JUMP JUMPDEST PUSH1 0x0 PUSH1 0x40 DUP3 ADD SWAP1 POP PUSH2 0x3926 PUSH1 0x0 DUP4 ADD DUP6 PUSH2 0x3902 JUMP JUMPDEST PUSH2 0x3933 PUSH1 0x20 DUP4 ADD DUP5 PUSH2 0x280A JUMP JUMPDEST SWAP4 SWAP3 POP POP POP JUMP JUMPDEST PUSH32 0x4F776E61626C653A2063616C6C6572206973206E6F7420746865206F776E6572 PUSH1 0x0 DUP3 ADD MSTORE POP JUMP JUMPDEST PUSH1 0x0 PUSH2 0x3970 PUSH1 0x20 DUP4 PUSH2 0x2CFD JUMP JUMPDEST SWAP2 POP PUSH2 0x397B DUP3 PUSH2 0x393A JUMP JUMPDEST PUSH1 0x20 DUP3 ADD SWAP1 POP SWAP2 SWAP1 POP JUMP JUMPDEST PUSH1 0x0 PUSH1 0x20 DUP3 ADD SWAP1 POP DUP2 DUP2 SUB PUSH1 0x0 DUP4 ADD MSTORE PUSH2 0x399F DUP2 PUSH2 0x3963 JUMP JUMPDEST SWAP1 POP SWAP2 SWAP1 POP JUMP JUMPDEST PUSH1 0x0 PUSH1 0x40 DUP3 ADD SWAP1 POP PUSH2 0x39BB PUSH1 0x0 DUP4 ADD DUP6 PUSH2 0x28C4 JUMP JUMPDEST PUSH2 0x39C8 PUSH1 0x20 DUP4 ADD DUP5 PUSH2 0x280A JUMP JUMPDEST SWAP4 SWAP3 POP POP POP JUMP JUMPDEST PUSH32 0x496E697469616C697A61626C653A20636F6E7472616374206973206E6F742069 PUSH1 0x0 DUP3 ADD MSTORE PUSH32 0x6E697469616C697A696E67000000000000000000000000000000000000000000 PUSH1 0x20 DUP3 ADD MSTORE POP JUMP JUMPDEST PUSH1 0x0 PUSH2 0x3A2B PUSH1 0x2B DUP4 PUSH2 0x2CFD JUMP JUMPDEST SWAP2 POP PUSH2 0x3A36 DUP3 PUSH2 0x39CF JUMP JUMPDEST PUSH1 0x40 DUP3 ADD SWAP1 POP SWAP2 SWAP1 POP JUMP JUMPDEST PUSH1 0x0 PUSH1 0x20 DUP3 ADD SWAP1 POP DUP2 DUP2 SUB PUSH1 0x0 DUP4 ADD MSTORE PUSH2 0x3A5A DUP2 PUSH2 0x3A1E JUMP JUMPDEST SWAP1 POP SWAP2 SWAP1 POP JUMP JUMPDEST PUSH1 0x0 PUSH2 0x3A6C DUP3 PUSH2 0x2800 JUMP JUMPDEST SWAP2 POP PUSH2 0x3A77 DUP4 PUSH2 0x2800 JUMP JUMPDEST SWAP3 POP DUP2 PUSH32 0xFFFFFFFFFFFFFFFFFFFFFFFFFFFFFFFFFFFFFFFFFFFFFFFFFFFFFFFFFFFFFFFF DIV DUP4 GT DUP3 ISZERO ISZERO AND ISZERO PUSH2 0x3AB0 JUMPI PUSH2 0x3AAF PUSH2 0x341F JUMP JUMPDEST JUMPDEST DUP3 DUP3 MUL SWAP1 POP SWAP3 SWAP2 POP POP JUMP JUMPDEST PUSH32 0x4E487B7100000000000000000000000000000000000000000000000000000000 PUSH1 0x0 MSTORE PUSH1 0x12 PUSH1 0x4 MSTORE PUSH1 0x24 PUSH1 0x0 REVERT JUMPDEST PUSH1 0x0 PUSH2 0x3AF5 DUP3 PUSH2 0x2800 JUMP JUMPDEST SWAP2 POP PUSH2 0x3B00 DUP4 PUSH2 0x2800 JUMP JUMPDEST SWAP3 POP DUP3 PUSH2 0x3B10 JUMPI PUSH2 0x3B0F PUSH2 0x3ABB JUMP JUMPDEST JUMPDEST DUP3 DUP3 DIV SWAP1 POP SWAP3 SWAP2 POP POP JUMP JUMPDEST PUSH1 0x0 DUP2 MLOAD SWAP1 POP PUSH2 0x3B2A DUP2 PUSH2 0x2A5A JUMP JUMPDEST SWAP3 SWAP2 POP POP JUMP JUMPDEST PUSH1 0x0 PUSH1 0x20 DUP3 DUP5 SUB SLT ISZERO PUSH2 0x3B46 JUMPI PUSH2 0x3B45 PUSH2 0x2834 JUMP JUMPDEST JUMPDEST PUSH1 0x0 PUSH2 0x3B54 DUP5 DUP3 DUP6 ADD PUSH2 0x3B1B JUMP JUMPDEST SWAP2 POP POP SWAP3 SWAP2 POP POP JUMP JUMPDEST PUSH32 0x5361666545524332303A204552433230206F7065726174696F6E20646964206E PUSH1 0x0 DUP3 ADD MSTORE PUSH32 0x6F74207375636365656400000000000000000000000000000000000000000000 PUSH1 0x20 DUP3 ADD MSTORE POP JUMP JUMPDEST PUSH1 0x0 PUSH2 0x3BB9 PUSH1 0x2A DUP4 PUSH2 0x2CFD JUMP JUMPDEST SWAP2 POP PUSH2 0x3BC4 DUP3 PUSH2 0x3B5D JUMP JUMPDEST PUSH1 0x40 DUP3 ADD SWAP1 POP SWAP2 SWAP1 POP JUMP JUMPDEST PUSH1 0x0 PUSH1 0x20 DUP3 ADD SWAP1 POP DUP2 DUP2 SUB PUSH1 0x0 DUP4 ADD MSTORE PUSH2 0x3BE8 DUP2 PUSH2 0x3BAC JUMP JUMPDEST SWAP1 POP SWAP2 SWAP1 POP JUMP JUMPDEST PUSH32 0x416464726573733A20696E73756666696369656E742062616C616E636520666F PUSH1 0x0 DUP3 ADD MSTORE PUSH32 0x722063616C6C0000000000000000000000000000000000000000000000000000 PUSH1 0x20 DUP3 ADD MSTORE POP JUMP JUMPDEST PUSH1 0x0 PUSH2 0x3C4B PUSH1 0x26 DUP4 PUSH2 0x2CFD JUMP JUMPDEST SWAP2 POP PUSH2 0x3C56 DUP3 PUSH2 0x3BEF JUMP JUMPDEST PUSH1 0x40 DUP3 ADD SWAP1 POP SWAP2 SWAP1 POP JUMP JUMPDEST PUSH1 0x0 PUSH1 0x20 DUP3 ADD SWAP1 POP DUP2 DUP2 SUB PUSH1 0x0 DUP4 ADD MSTORE PUSH2 0x3C7A DUP2 PUSH2 0x3C3E JUMP JUMPDEST SWAP1 POP SWAP2 SWAP1 POP JUMP JUMPDEST PUSH32 0x416464726573733A2063616C6C20746F206E6F6E2D636F6E7472616374000000 PUSH1 0x0 DUP3 ADD MSTORE POP JUMP JUMPDEST PUSH1 0x0 PUSH2 0x3CB7 PUSH1 0x1D DUP4 PUSH2 0x2CFD JUMP JUMPDEST SWAP2 POP PUSH2 0x3CC2 DUP3 PUSH2 0x3C81 JUMP JUMPDEST PUSH1 0x20 DUP3 ADD SWAP1 POP SWAP2 SWAP1 POP JUMP JUMPDEST PUSH1 0x0 PUSH1 0x20 DUP3 ADD SWAP1 POP DUP2 DUP2 SUB PUSH1 0x0 DUP4 ADD MSTORE PUSH2 0x3CE6 DUP2 PUSH2 0x3CAA JUMP JUMPDEST SWAP1 POP SWAP2 SWAP1 POP JUMP JUMPDEST PUSH1 0x0 DUP2 MLOAD SWAP1 POP SWAP2 SWAP1 POP JUMP JUMPDEST PUSH1 0x0 DUP2 SWAP1 POP SWAP3 SWAP2 POP POP JUMP JUMPDEST PUSH1 0x0 JUMPDEST DUP4 DUP2 LT ISZERO PUSH2 0x3D21 JUMPI DUP1 DUP3 ADD MLOAD DUP2 DUP5 ADD MSTORE PUSH1 0x20 DUP2 ADD SWAP1 POP PUSH2 0x3D06 JUMP JUMPDEST DUP4 DUP2 GT ISZERO PUSH2 0x3D30 JUMPI PUSH1 0x0 DUP5 DUP5 ADD MSTORE JUMPDEST POP POP POP POP JUMP JUMPDEST PUSH1 0x0 PUSH2 0x3D41 DUP3 PUSH2 0x3CED JUMP JUMPDEST PUSH2 0x3D4B DUP2 DUP6 PUSH2 0x3CF8 JUMP JUMPDEST SWAP4 POP PUSH2 0x3D5B DUP2 DUP6 PUSH1 0x20 DUP7 ADD PUSH2 0x3D03 JUMP JUMPDEST DUP1 DUP5 ADD SWAP2 POP POP SWAP3 SWAP2 POP POP JUMP JUMPDEST PUSH1 0x0 PUSH2 0x3D73 DUP3 DUP5 PUSH2 0x3D36 JUMP JUMPDEST SWAP2 POP DUP2 SWAP1 POP SWAP3 SWAP2 POP POP JUMP JUMPDEST PUSH1 0x0 DUP2 MLOAD SWAP1 POP SWAP2 SWAP1 POP JUMP JUMPDEST PUSH1 0x0 PUSH1 0x1F NOT PUSH1 0x1F DUP4 ADD AND SWAP1 POP SWAP2 SWAP1 POP JUMP JUMPDEST PUSH1 0x0 PUSH2 0x3DA5 DUP3 PUSH2 0x3D7E JUMP JUMPDEST PUSH2 0x3DAF DUP2 DUP6 PUSH2 0x2CFD JUMP JUMPDEST SWAP4 POP PUSH2 0x3DBF DUP2 DUP6 PUSH1 0x20 DUP7 ADD PUSH2 0x3D03 JUMP JUMPDEST PUSH2 0x3DC8 DUP2 PUSH2 0x3D89 JUMP JUMPDEST DUP5 ADD SWAP2 POP POP SWAP3 SWAP2 POP POP JUMP JUMPDEST PUSH1 0x0 PUSH1 0x20 DUP3 ADD SWAP1 POP DUP2 DUP2 SUB PUSH1 0x0 DUP4 ADD MSTORE PUSH2 0x3DED DUP2 DUP5 PUSH2 0x3D9A JUMP JUMPDEST SWAP1 POP SWAP3 SWAP2 POP POP JUMP INVALID LOG2 PUSH5 0x6970667358 0x22 SLT KECCAK256 0x27 0x26 SUB SWAP10 0xFB SWAP4 0xA5 PUSH14 0x3A4DA5108802E5CF629E92F80386 RETURNDATACOPY 0xDD 0x2C 0xE0 0xF7 0xD1 PUSH17 0x9D0E8B64736F6C63430008090033000000 "
				},
				"gasEstimates": {
					"creation": {
						"codeDepositCost": "3183000",
						"executionCost": "3523",
						"totalCost": "3186523"
					},
					"external": {
						"computeNextVestingScheduleIdForHolder(address)": "infinite",
						"computeReleasableAmount(bytes32)": "infinite",
						"computeVestingScheduleIdForAddressAndIndex(address,uint256)": "infinite",
						"createVestingSchedule(address,uint256,uint256,uint256,uint256,bool,uint256,bool)": "infinite",
						"crowdsalesAddress()": "2560",
						"getCurrentTime()": "404",
						"getLastVestingScheduleForHolder(address)": "infinite",
						"getTgeTotalAmount()": "2482",
						"getToken()": "2613",
						"getTotalInvestmentAmountBalance()": "infinite",
						"getVestingIdAtIndex(uint256)": "7136",
						"getVestingSchedule(bytes32)": "infinite",
						"getVestingScheduleByAddressAndIndex(address,uint256)": "infinite",
						"getVestingSchedulesCount()": "2492",
						"getVestingSchedulesCountByBeneficiary(address)": "2909",
						"getVestingSchedulesTotalAmount()": "2483",
						"getWithdrawableAmount()": "infinite",
						"initialize(address,uint256,uint256)": "infinite",
						"owner()": "2590",
						"release(bytes32,uint256)": "infinite",
						"releaseTokenForTGE(bytes32)": "infinite",
						"renounceOwnership()": "30443",
						"revoke(bytes32)": "infinite",
						"setCrowdsaleAddress(address)": "24791",
						"tgeOpeningTime()": "2541",
						"tgePercent()": "2496",
						"tgeTokenParticipants(bytes32)": "2876",
						"transferOwnership(address)": "30858",
						"withdraw(uint256)": "infinite"
					},
					"internal": {
						"_computeReleasableAmount(struct PaymeTokenVesting.VestingSchedule memory)": "infinite"
					}
				},
				"methodIdentifiers": {
					"computeNextVestingScheduleIdForHolder(address)": "f7c469f0",
					"computeReleasableAmount(bytes32)": "ea1bb3d5",
					"computeVestingScheduleIdForAddressAndIndex(address,uint256)": "8af104da",
					"createVestingSchedule(address,uint256,uint256,uint256,uint256,bool,uint256,bool)": "7df8df92",
					"crowdsalesAddress()": "260a51e5",
					"getCurrentTime()": "29cb924d",
					"getLastVestingScheduleForHolder(address)": "7e913dc6",
					"getTgeTotalAmount()": "c990c2f7",
					"getToken()": "21df0da7",
					"getTotalInvestmentAmountBalance()": "c07aa656",
					"getVestingIdAtIndex(uint256)": "f9079b37",
					"getVestingSchedule(bytes32)": "9ef346b4",
					"getVestingScheduleByAddressAndIndex(address,uint256)": "f51321d7",
					"getVestingSchedulesCount()": "13083617",
					"getVestingSchedulesCountByBeneficiary(address)": "5a7bb69a",
					"getVestingSchedulesTotalAmount()": "48deb471",
					"getWithdrawableAmount()": "90be10cc",
					"initialize(address,uint256,uint256)": "7a1ac61e",
					"owner()": "8da5cb5b",
					"release(bytes32,uint256)": "66afd8ef",
					"releaseTokenForTGE(bytes32)": "f9299dd9",
					"renounceOwnership()": "715018a6",
					"revoke(bytes32)": "b75c7dc6",
					"setCrowdsaleAddress(address)": "1f35bc40",
					"tgeOpeningTime()": "40a9627f",
					"tgePercent()": "e2f0f42d",
					"tgeTokenParticipants(bytes32)": "c8ac75d2",
					"transferOwnership(address)": "f2fde38b",
					"withdraw(uint256)": "2e1a7d4d"
				}
			},
			"storageLayout": {
				"storage": [
					{
						"astId": 138,
						"contract": "contracts/ico/PaymeTokenVesting.sol:PaymeTokenVesting",
						"label": "_initialized",
						"offset": 0,
						"slot": "0",
						"type": "t_uint8"
					},
					{
						"astId": 141,
						"contract": "contracts/ico/PaymeTokenVesting.sol:PaymeTokenVesting",
						"label": "_initializing",
						"offset": 1,
						"slot": "0",
						"type": "t_bool"
					},
					{
						"astId": 1020,
						"contract": "contracts/ico/PaymeTokenVesting.sol:PaymeTokenVesting",
						"label": "__gap",
						"offset": 0,
						"slot": "1",
						"type": "t_array(t_uint256)50_storage"
					},
					{
						"astId": 10,
						"contract": "contracts/ico/PaymeTokenVesting.sol:PaymeTokenVesting",
						"label": "_owner",
						"offset": 0,
						"slot": "51",
						"type": "t_address"
					},
					{
						"astId": 130,
						"contract": "contracts/ico/PaymeTokenVesting.sol:PaymeTokenVesting",
						"label": "__gap",
						"offset": 0,
						"slot": "52",
						"type": "t_array(t_uint256)49_storage"
					},
					{
						"astId": 296,
						"contract": "contracts/ico/PaymeTokenVesting.sol:PaymeTokenVesting",
						"label": "_status",
						"offset": 0,
						"slot": "101",
						"type": "t_uint256"
					},
					{
						"astId": 340,
						"contract": "contracts/ico/PaymeTokenVesting.sol:PaymeTokenVesting",
						"label": "__gap",
						"offset": 0,
						"slot": "102",
						"type": "t_array(t_uint256)49_storage"
					},
					{
						"astId": 1884,
						"contract": "contracts/ico/PaymeTokenVesting.sol:PaymeTokenVesting",
						"label": "_token",
						"offset": 0,
						"slot": "151",
						"type": "t_contract(IERC20Upgradeable)419"
					},
					{
						"astId": 1886,
						"contract": "contracts/ico/PaymeTokenVesting.sol:PaymeTokenVesting",
						"label": "tgePercent",
						"offset": 0,
						"slot": "152",
						"type": "t_uint256"
					},
					{
						"astId": 1888,
						"contract": "contracts/ico/PaymeTokenVesting.sol:PaymeTokenVesting",
						"label": "tgeOpeningTime",
						"offset": 0,
						"slot": "153",
						"type": "t_uint256"
					},
					{
						"astId": 1891,
						"contract": "contracts/ico/PaymeTokenVesting.sol:PaymeTokenVesting",
						"label": "vestingSchedulesIds",
						"offset": 0,
						"slot": "154",
						"type": "t_array(t_bytes32)dyn_storage"
					},
					{
						"astId": 1896,
						"contract": "contracts/ico/PaymeTokenVesting.sol:PaymeTokenVesting",
						"label": "vestingSchedules",
						"offset": 0,
						"slot": "155",
						"type": "t_mapping(t_bytes32,t_struct(VestingSchedule)1881_storage)"
					},
					{
						"astId": 1898,
						"contract": "contracts/ico/PaymeTokenVesting.sol:PaymeTokenVesting",
						"label": "vestingSchedulesTotalAmount",
						"offset": 0,
						"slot": "156",
						"type": "t_uint256"
					},
					{
						"astId": 1900,
						"contract": "contracts/ico/PaymeTokenVesting.sol:PaymeTokenVesting",
						"label": "tgeTotalAmount",
						"offset": 0,
						"slot": "157",
						"type": "t_uint256"
					},
					{
						"astId": 1904,
						"contract": "contracts/ico/PaymeTokenVesting.sol:PaymeTokenVesting",
						"label": "holdersVestingCount",
						"offset": 0,
						"slot": "158",
						"type": "t_mapping(t_address,t_uint256)"
					},
					{
						"astId": 1908,
						"contract": "contracts/ico/PaymeTokenVesting.sol:PaymeTokenVesting",
						"label": "tgeTokenParticipants",
						"offset": 0,
						"slot": "159",
						"type": "t_mapping(t_bytes32,t_uint256)"
					},
					{
						"astId": 1910,
						"contract": "contracts/ico/PaymeTokenVesting.sol:PaymeTokenVesting",
						"label": "crowdsalesAddress",
						"offset": 0,
						"slot": "160",
						"type": "t_address"
					}
				],
				"types": {
					"t_address": {
						"encoding": "inplace",
						"label": "address",
						"numberOfBytes": "20"
					},
					"t_array(t_bytes32)dyn_storage": {
						"base": "t_bytes32",
						"encoding": "dynamic_array",
						"label": "bytes32[]",
						"numberOfBytes": "32"
					},
					"t_array(t_uint256)49_storage": {
						"base": "t_uint256",
						"encoding": "inplace",
						"label": "uint256[49]",
						"numberOfBytes": "1568"
					},
					"t_array(t_uint256)50_storage": {
						"base": "t_uint256",
						"encoding": "inplace",
						"label": "uint256[50]",
						"numberOfBytes": "1600"
					},
					"t_bool": {
						"encoding": "inplace",
						"label": "bool",
						"numberOfBytes": "1"
					},
					"t_bytes32": {
						"encoding": "inplace",
						"label": "bytes32",
						"numberOfBytes": "32"
					},
					"t_contract(IERC20Upgradeable)419": {
						"encoding": "inplace",
						"label": "contract IERC20Upgradeable",
						"numberOfBytes": "20"
					},
					"t_mapping(t_address,t_uint256)": {
						"encoding": "mapping",
						"key": "t_address",
						"label": "mapping(address => uint256)",
						"numberOfBytes": "32",
						"value": "t_uint256"
					},
					"t_mapping(t_bytes32,t_struct(VestingSchedule)1881_storage)": {
						"encoding": "mapping",
						"key": "t_bytes32",
						"label": "mapping(bytes32 => struct PaymeTokenVesting.VestingSchedule)",
						"numberOfBytes": "32",
						"value": "t_struct(VestingSchedule)1881_storage"
					},
					"t_mapping(t_bytes32,t_uint256)": {
						"encoding": "mapping",
						"key": "t_bytes32",
						"label": "mapping(bytes32 => uint256)",
						"numberOfBytes": "32",
						"value": "t_uint256"
					},
					"t_struct(VestingSchedule)1881_storage": {
						"encoding": "inplace",
						"label": "struct PaymeTokenVesting.VestingSchedule",
						"members": [
							{
								"astId": 1860,
								"contract": "contracts/ico/PaymeTokenVesting.sol:PaymeTokenVesting",
								"label": "initialized",
								"offset": 0,
								"slot": "0",
								"type": "t_bool"
							},
							{
								"astId": 1862,
								"contract": "contracts/ico/PaymeTokenVesting.sol:PaymeTokenVesting",
								"label": "beneficiary",
								"offset": 1,
								"slot": "0",
								"type": "t_address"
							},
							{
								"astId": 1864,
								"contract": "contracts/ico/PaymeTokenVesting.sol:PaymeTokenVesting",
								"label": "cliff",
								"offset": 0,
								"slot": "1",
								"type": "t_uint256"
							},
							{
								"astId": 1866,
								"contract": "contracts/ico/PaymeTokenVesting.sol:PaymeTokenVesting",
								"label": "start",
								"offset": 0,
								"slot": "2",
								"type": "t_uint256"
							},
							{
								"astId": 1868,
								"contract": "contracts/ico/PaymeTokenVesting.sol:PaymeTokenVesting",
								"label": "duration",
								"offset": 0,
								"slot": "3",
								"type": "t_uint256"
							},
							{
								"astId": 1870,
								"contract": "contracts/ico/PaymeTokenVesting.sol:PaymeTokenVesting",
								"label": "slicePeriodSeconds",
								"offset": 0,
								"slot": "4",
								"type": "t_uint256"
							},
							{
								"astId": 1872,
								"contract": "contracts/ico/PaymeTokenVesting.sol:PaymeTokenVesting",
								"label": "revocable",
								"offset": 0,
								"slot": "5",
								"type": "t_bool"
							},
							{
								"astId": 1874,
								"contract": "contracts/ico/PaymeTokenVesting.sol:PaymeTokenVesting",
								"label": "amountTotal",
								"offset": 0,
								"slot": "6",
								"type": "t_uint256"
							},
							{
								"astId": 1876,
								"contract": "contracts/ico/PaymeTokenVesting.sol:PaymeTokenVesting",
								"label": "released",
								"offset": 0,
								"slot": "7",
								"type": "t_uint256"
							},
							{
								"astId": 1878,
								"contract": "contracts/ico/PaymeTokenVesting.sol:PaymeTokenVesting",
								"label": "revoked",
								"offset": 0,
								"slot": "8",
								"type": "t_bool"
							},
							{
								"astId": 1880,
								"contract": "contracts/ico/PaymeTokenVesting.sol:PaymeTokenVesting",
								"label": "releaseAtTGE",
								"offset": 1,
								"slot": "8",
								"type": "t_bool"
							}
						],
						"numberOfBytes": "288"
					},
					"t_uint256": {
						"encoding": "inplace",
						"label": "uint256",
						"numberOfBytes": "32"
					},
					"t_uint8": {
						"encoding": "inplace",
						"label": "uint8",
						"numberOfBytes": "1"
					}
				}
			},
			"userdoc": {
				"kind": "user",
				"methods": {
					"computeReleasableAmount(bytes32)": {
						"notice": "Computes the vested amount of tokens for the given vesting schedule identifier."
					},
					"createVestingSchedule(address,uint256,uint256,uint256,uint256,bool,uint256,bool)": {
						"notice": "Creates a new vesting schedule for a beneficiary."
					},
					"getTgeTotalAmount()": {
						"notice": "Returns the total amount of the TGE Amount."
					},
					"getVestingSchedule(bytes32)": {
						"notice": "Returns the vesting schedule information for a given identifier."
					},
					"getVestingScheduleByAddressAndIndex(address,uint256)": {
						"notice": "Returns the vesting schedule information for a given holder and index."
					},
					"getVestingSchedulesTotalAmount()": {
						"notice": "Returns the total amount of vesting schedules."
					},
					"release(bytes32,uint256)": {
						"notice": "Release vested amount of tokens."
					},
					"revoke(bytes32)": {
						"notice": "Revokes the vesting schedule for given identifier."
					},
					"withdraw(uint256)": {
						"notice": "Withdraw the specified amount if possible."
					}
				},
				"version": 1
			}
		}
	}
}