{
  "_format": "hh-sol-artifact-1",
  "contractName": "MockTokenVesting",
  "sourceName": "contracts/mocks/MockTokenVesting.sol",
  "abi": [
    {
      "anonymous": false,
      "inputs": [
        {
          "indexed": false,
          "internalType": "uint8",
          "name": "version",
          "type": "uint8"
        }
      ],
      "name": "Initialized",
      "type": "event"
    },
    {
      "anonymous": false,
      "inputs": [
        {
          "indexed": true,
          "internalType": "address",
          "name": "previousOwner",
          "type": "address"
        },
        {
          "indexed": true,
          "internalType": "address",
          "name": "newOwner",
          "type": "address"
        }
      ],
      "name": "OwnershipTransferred",
      "type": "event"
    },
    {
      "anonymous": false,
      "inputs": [
        {
          "indexed": false,
          "internalType": "uint256",
          "name": "amount",
          "type": "uint256"
        }
      ],
      "name": "Released",
      "type": "event"
    },
    {
      "anonymous": false,
      "inputs": [],
      "name": "Revoked",
      "type": "event"
    },
    {
      "anonymous": false,
      "inputs": [
        {
          "indexed": false,
          "internalType": "address",
          "name": "beneficiary",
          "type": "address"
        },
        {
          "indexed": false,
          "internalType": "uint256",
          "name": "amount",
          "type": "uint256"
        }
      ],
      "name": "TokenReleasedAtTGE",
      "type": "event"
    },
    {
      "anonymous": false,
      "inputs": [
        {
          "indexed": false,
          "internalType": "bytes32",
          "name": "",
          "type": "bytes32"
        }
      ],
      "name": "VestingScheduleCreated",
      "type": "event"
    },
    {
      "inputs": [
        {
          "internalType": "address",
          "name": "holder",
          "type": "address"
        }
      ],
      "name": "computeNextVestingScheduleIdForHolder",
      "outputs": [
        {
          "internalType": "bytes32",
          "name": "",
          "type": "bytes32"
        }
      ],
      "stateMutability": "view",
      "type": "function"
    },
    {
      "inputs": [
        {
          "internalType": "bytes32",
          "name": "vestingScheduleId",
          "type": "bytes32"
        }
      ],
      "name": "computeReleasableAmount",
      "outputs": [
        {
          "internalType": "uint256",
          "name": "",
          "type": "uint256"
        }
      ],
      "stateMutability": "view",
      "type": "function"
    },
    {
      "inputs": [
        {
          "internalType": "address",
          "name": "holder",
          "type": "address"
        },
        {
          "internalType": "uint256",
          "name": "index",
          "type": "uint256"
        }
      ],
      "name": "computeVestingScheduleIdForAddressAndIndex",
      "outputs": [
        {
          "internalType": "bytes32",
          "name": "",
          "type": "bytes32"
        }
      ],
      "stateMutability": "pure",
      "type": "function"
    },
    {
      "inputs": [
        {
          "internalType": "address",
          "name": "iBeneficiary",
          "type": "address"
        },
        {
          "internalType": "uint256",
          "name": "iStart",
          "type": "uint256"
        },
        {
          "internalType": "uint256",
          "name": "iCliff",
          "type": "uint256"
        },
        {
          "internalType": "uint256",
          "name": "iDuration",
          "type": "uint256"
        },
        {
          "internalType": "uint256",
          "name": "iSlicePeriodSeconds",
          "type": "uint256"
        },
        {
          "internalType": "bool",
          "name": "iRevocable",
          "type": "bool"
        },
        {
          "internalType": "uint256",
          "name": "iAmount",
          "type": "uint256"
        },
        {
          "internalType": "bool",
          "name": "iReleaseAtTGE",
          "type": "bool"
        }
      ],
      "name": "createVestingSchedule",
      "outputs": [],
      "stateMutability": "nonpayable",
      "type": "function"
    },
    {
      "inputs": [],
      "name": "crowdsalesAddress",
      "outputs": [
        {
          "internalType": "address",
          "name": "",
          "type": "address"
        }
      ],
      "stateMutability": "view",
      "type": "function"
    },
    {
      "inputs": [],
      "name": "getCurrentTime",
      "outputs": [
        {
          "internalType": "uint256",
          "name": "",
          "type": "uint256"
        }
      ],
      "stateMutability": "view",
      "type": "function"
    },
    {
      "inputs": [
        {
          "internalType": "address",
          "name": "holder",
          "type": "address"
        }
      ],
      "name": "getLastVestingScheduleForHolder",
      "outputs": [
        {
          "components": [
            {
              "internalType": "bool",
              "name": "initialized",
              "type": "bool"
            },
            {
              "internalType": "address",
              "name": "beneficiary",
              "type": "address"
            },
            {
              "internalType": "uint256",
              "name": "cliff",
              "type": "uint256"
            },
            {
              "internalType": "uint256",
              "name": "start",
              "type": "uint256"
            },
            {
              "internalType": "uint256",
              "name": "duration",
              "type": "uint256"
            },
            {
              "internalType": "uint256",
              "name": "slicePeriodSeconds",
              "type": "uint256"
            },
            {
              "internalType": "bool",
              "name": "revocable",
              "type": "bool"
            },
            {
              "internalType": "uint256",
              "name": "amountTotal",
              "type": "uint256"
            },
            {
              "internalType": "uint256",
              "name": "released",
              "type": "uint256"
            },
            {
              "internalType": "bool",
              "name": "revoked",
              "type": "bool"
            },
            {
              "internalType": "bool",
              "name": "releaseAtTGE",
              "type": "bool"
            }
          ],
          "internalType": "struct PaymeTokenVesting.VestingSchedule",
          "name": "",
          "type": "tuple"
        }
      ],
      "stateMutability": "view",
      "type": "function"
    },
    {
      "inputs": [],
      "name": "getTgeTotalAmount",
      "outputs": [
        {
          "internalType": "uint256",
          "name": "",
          "type": "uint256"
        }
      ],
      "stateMutability": "view",
      "type": "function"
    },
    {
      "inputs": [],
      "name": "getToken",
      "outputs": [
        {
          "internalType": "address",
          "name": "",
          "type": "address"
        }
      ],
      "stateMutability": "view",
      "type": "function"
    },
    {
      "inputs": [],
      "name": "getTotalInvestmentAmountBalance",
      "outputs": [
        {
          "internalType": "uint256",
          "name": "",
          "type": "uint256"
        }
      ],
      "stateMutability": "view",
      "type": "function"
    },
    {
      "inputs": [
        {
          "internalType": "uint256",
          "name": "index",
          "type": "uint256"
        }
      ],
      "name": "getVestingIdAtIndex",
      "outputs": [
        {
          "internalType": "bytes32",
          "name": "",
          "type": "bytes32"
        }
      ],
      "stateMutability": "view",
      "type": "function"
    },
    {
      "inputs": [
        {
          "internalType": "bytes32",
          "name": "vestingScheduleId",
          "type": "bytes32"
        }
      ],
      "name": "getVestingSchedule",
      "outputs": [
        {
          "components": [
            {
              "internalType": "bool",
              "name": "initialized",
              "type": "bool"
            },
            {
              "internalType": "address",
              "name": "beneficiary",
              "type": "address"
            },
            {
              "internalType": "uint256",
              "name": "cliff",
              "type": "uint256"
            },
            {
              "internalType": "uint256",
              "name": "start",
              "type": "uint256"
            },
            {
              "internalType": "uint256",
              "name": "duration",
              "type": "uint256"
            },
            {
              "internalType": "uint256",
              "name": "slicePeriodSeconds",
              "type": "uint256"
            },
            {
              "internalType": "bool",
              "name": "revocable",
              "type": "bool"
            },
            {
              "internalType": "uint256",
              "name": "amountTotal",
              "type": "uint256"
            },
            {
              "internalType": "uint256",
              "name": "released",
              "type": "uint256"
            },
            {
              "internalType": "bool",
              "name": "revoked",
              "type": "bool"
            },
            {
              "internalType": "bool",
              "name": "releaseAtTGE",
              "type": "bool"
            }
          ],
          "internalType": "struct PaymeTokenVesting.VestingSchedule",
          "name": "",
          "type": "tuple"
        }
      ],
      "stateMutability": "view",
      "type": "function"
    },
    {
      "inputs": [
        {
          "internalType": "address",
          "name": "holder",
          "type": "address"
        },
        {
          "internalType": "uint256",
          "name": "index",
          "type": "uint256"
        }
      ],
      "name": "getVestingScheduleByAddressAndIndex",
      "outputs": [
        {
          "components": [
            {
              "internalType": "bool",
              "name": "initialized",
              "type": "bool"
            },
            {
              "internalType": "address",
              "name": "beneficiary",
              "type": "address"
            },
            {
              "internalType": "uint256",
              "name": "cliff",
              "type": "uint256"
            },
            {
              "internalType": "uint256",
              "name": "start",
              "type": "uint256"
            },
            {
              "internalType": "uint256",
              "name": "duration",
              "type": "uint256"
            },
            {
              "internalType": "uint256",
              "name": "slicePeriodSeconds",
              "type": "uint256"
            },
            {
              "internalType": "bool",
              "name": "revocable",
              "type": "bool"
            },
            {
              "internalType": "uint256",
              "name": "amountTotal",
              "type": "uint256"
            },
            {
              "internalType": "uint256",
              "name": "released",
              "type": "uint256"
            },
            {
              "internalType": "bool",
              "name": "revoked",
              "type": "bool"
            },
            {
              "internalType": "bool",
              "name": "releaseAtTGE",
              "type": "bool"
            }
          ],
          "internalType": "struct PaymeTokenVesting.VestingSchedule",
          "name": "",
          "type": "tuple"
        }
      ],
      "stateMutability": "view",
      "type": "function"
    },
    {
      "inputs": [],
      "name": "getVestingSchedulesCount",
      "outputs": [
        {
          "internalType": "uint256",
          "name": "",
          "type": "uint256"
        }
      ],
      "stateMutability": "view",
      "type": "function"
    },
    {
      "inputs": [
        {
          "internalType": "address",
          "name": "iBeneficiary",
          "type": "address"
        }
      ],
      "name": "getVestingSchedulesCountByBeneficiary",
      "outputs": [
        {
          "internalType": "uint256",
          "name": "",
          "type": "uint256"
        }
      ],
      "stateMutability": "view",
      "type": "function"
    },
    {
      "inputs": [],
      "name": "getVestingSchedulesTotalAmount",
      "outputs": [
        {
          "internalType": "uint256",
          "name": "",
          "type": "uint256"
        }
      ],
      "stateMutability": "view",
      "type": "function"
    },
    {
      "inputs": [],
      "name": "getWithdrawableAmount",
      "outputs": [
        {
          "internalType": "uint256",
          "name": "",
          "type": "uint256"
        }
      ],
      "stateMutability": "view",
      "type": "function"
    },
    {
      "inputs": [
        {
          "internalType": "contract IERC20Upgradeable",
          "name": "iToken",
          "type": "address"
        },
        {
          "internalType": "uint256",
          "name": "iTGEPercent",
          "type": "uint256"
        },
        {
          "internalType": "uint256",
          "name": "iTGEOpeningTime",
          "type": "uint256"
        }
      ],
      "name": "initialize",
      "outputs": [],
      "stateMutability": "nonpayable",
      "type": "function"
    },
    {
      "inputs": [],
      "name": "owner",
      "outputs": [
        {
          "internalType": "address",
          "name": "",
          "type": "address"
        }
      ],
      "stateMutability": "view",
      "type": "function"
    },
    {
      "inputs": [
        {
          "internalType": "bytes32",
          "name": "vestingScheduleId",
          "type": "bytes32"
        },
        {
          "internalType": "uint256",
          "name": "amount",
          "type": "uint256"
        }
      ],
      "name": "release",
      "outputs": [],
      "stateMutability": "nonpayable",
      "type": "function"
    },
    {
      "inputs": [
        {
          "internalType": "bytes32",
          "name": "vestingScheduleId",
          "type": "bytes32"
        }
      ],
      "name": "releaseForTGE",
      "outputs": [],
      "stateMutability": "nonpayable",
      "type": "function"
    },
    {
      "inputs": [],
      "name": "renounceOwnership",
      "outputs": [],
      "stateMutability": "nonpayable",
      "type": "function"
    },
    {
      "inputs": [
        {
          "internalType": "bytes32",
          "name": "vestingScheduleId",
          "type": "bytes32"
        }
      ],
      "name": "revoke",
      "outputs": [],
      "stateMutability": "nonpayable",
      "type": "function"
    },
    {
      "inputs": [
        {
          "internalType": "address",
          "name": "icrowdsalesAddress",
          "type": "address"
        }
      ],
      "name": "setCrowdsaleAddress",
      "outputs": [],
      "stateMutability": "nonpayable",
      "type": "function"
    },
    {
      "inputs": [
        {
          "internalType": "uint256",
          "name": "_time",
          "type": "uint256"
        }
      ],
      "name": "setCurrentTime",
      "outputs": [],
      "stateMutability": "nonpayable",
      "type": "function"
    },
    {
      "inputs": [],
      "name": "tgeOpeningTime",
      "outputs": [
        {
          "internalType": "uint256",
          "name": "",
          "type": "uint256"
        }
      ],
      "stateMutability": "view",
      "type": "function"
    },
    {
      "inputs": [],
      "name": "tgePercent",
      "outputs": [
        {
          "internalType": "uint256",
          "name": "",
          "type": "uint256"
        }
      ],
      "stateMutability": "view",
      "type": "function"
    },
    {
      "inputs": [
        {
          "internalType": "bytes32",
          "name": "",
          "type": "bytes32"
        }
      ],
      "name": "tgeTokenParticipants",
      "outputs": [
        {
          "internalType": "uint256",
          "name": "",
          "type": "uint256"
        }
      ],
      "stateMutability": "view",
      "type": "function"
    },
    {
      "inputs": [
        {
          "internalType": "address",
          "name": "newOwner",
          "type": "address"
        }
      ],
      "name": "transferOwnership",
      "outputs": [],
      "stateMutability": "nonpayable",
      "type": "function"
    },
    {
      "inputs": [
        {
          "internalType": "uint256",
          "name": "amount",
          "type": "uint256"
        }
      ],
      "name": "withdraw",
      "outputs": [],
      "stateMutability": "nonpayable",
      "type": "function"
    }
  ],
  "bytecode": "0x608060405234801561001057600080fd5b506120e8806100206000396000f3fe608060405234801561001057600080fd5b50600436106101da5760003560e01c80638af104da11610104578063c8ac75d2116100a2578063f2fde38b11610071578063f2fde38b146103da578063f51321d7146103ed578063f7c469f014610400578063f9079b371461041357600080fd5b8063c8ac75d214610396578063c990c2f7146103b6578063e2f0f42d146103be578063ea1bb3d5146103c757600080fd5b806390be10cc116100de57806390be10cc146103605780639ef346b414610368578063b75c7dc61461037b578063c07aa6561461038e57600080fd5b80638af104da146103295780638c81a7d71461033c5780638da5cb5b1461034f57600080fd5b806340a9627f1161017c578063715018a61161014b578063715018a6146102db5780637a1ac61e146102e35780637df8df92146102f65780637e913dc61461030957600080fd5b806340a9627f1461028e57806348deb471146102975780635a7bb69a1461029f57806366afd8ef146102c857600080fd5b806322f8e566116101b857806322f8e5661461024d578063260a51e51461026057806329cb924d146102735780632e1a7d4d1461027b57600080fd5b806313083617146101df5780631f35bc40146101f657806321df0da714610228575b600080fd5b609a545b6040519081526020015b60405180910390f35b610226610204366004611ca0565b60a080546001600160a01b0319166001600160a01b0392909216919091179055565b005b6097546001600160a01b03165b6040516001600160a01b0390911681526020016101ed565b61022661025b366004611cbd565b60a155565b60a054610235906001600160a01b031681565b60a1546101e3565b610226610289366004611cbd565b610426565b6101e360995481565b609c546101e3565b6101e36102ad366004611ca0565b6001600160a01b03166000908152609e602052604090205490565b6102266102d6366004611cd6565b610563565b610226610789565b6102266102f1366004611cf8565b61079d565b610226610304366004611d3b565b61096a565b61031c610317366004611ca0565b610ed6565b6040516101ed9190611db7565b6101e3610337366004611e4f565b610fbc565b61022661034a366004611cbd565b611003565b6033546001600160a01b0316610235565b6101e361126a565b61031c610376366004611cbd565b6112fc565b610226610389366004611cbd565b6113ae565b6101e3611557565b6101e36103a4366004611cbd565b609f6020526000908152604090205481565b609d546101e3565b6101e360985481565b6101e36103d5366004611cbd565b611569565b6102266103e8366004611ca0565b61165e565b61031c6103fb366004611e4f565b6116d7565b6101e361040e366004611ca0565b6116f3565b6101e3610421366004611cbd565b61171d565b600260655414156104525760405162461bcd60e51b815260040161044990611e7b565b60405180910390fd5b600260655561045f6117a5565b80306001600160a01b03166390be10cc6040518163ffffffff1660e01b815260040160206040518083038186803b15801561049957600080fd5b505afa1580156104ad573d6000803e3d6000fd5b505050506040513d601f19601f820116820180604052508101906104d19190611eb2565b10156105335760405162461bcd60e51b815260206004820152602b60248201527f546f6b656e56657374696e673a206e6f7420656e6f756768207769746864726160448201526a7761626c652066756e647360a81b6064820152608401610449565b61055b6105486033546001600160a01b031690565b6097546001600160a01b031690836117ff565b506001606555565b600260655414156105865760405162461bcd60e51b815260040161044990611e7b565b60026065556000828152609b6020526040902054829060ff166105a857600080fd5b6000818152609b602052604090206008015460ff16156105c757600080fd5b6000838152609b602052604090208054603354336001600160a01b0361010090930483168114929091161481806105fb5750805b6106175760405162461bcd60e51b815260040161044990611ecb565b6040805161016081018252845460ff808216151583526001600160a01b03610100928390041660208401526001870154938301939093526002860154606083015260038601546080830152600486015460a083015260058601548316151560c0830152600686015460e0830152600786015481830152600886015480841615156101208401520490911615156101408201526000906106b590611856565b90508581101561072d5760405162461bcd60e51b815260206004820152603d60248201527f546f6b656e56657374696e673a2063616e6e6f742072656c6561736520746f6b60448201527f656e732c206e6f7420656e6f7567682076657374656420746f6b656e730000006064820152608401610449565b600784015461073c908761195a565b60078501558354609c546101009091046001600160a01b0316906107609088611966565b609c5560975461077a906001600160a01b031682896117ff565b50506001606555505050505050565b6107916117a5565b61079b6000611972565b565b600054610100900460ff16158080156107bd5750600054600160ff909116105b806107d75750303b1580156107d7575060005460ff166001145b61083a5760405162461bcd60e51b815260206004820152602e60248201527f496e697469616c697a61626c653a20636f6e747261637420697320616c72656160448201526d191e481a5b9a5d1a585b1a5e995960921b6064820152608401610449565b6000805460ff19166001179055801561085d576000805461ff0019166101001790555b6001600160a01b03841661087057600080fd5b6000831180156108805750606483105b6108e95760405162461bcd60e51b815260206004820152603460248201527f5447452050657263656e74206d7573742062652067726561746572207468616e6044820152730203020616e64204c657373207468616e203130360641b6064820152608401610449565b6108f16119c4565b6108f96119f4565b609780546001600160a01b0319166001600160a01b038616179055609982905560988390558015610964576000805461ff0019169055604051600181527f7f26b83ff96e1f2b6a682f133852f6798a09c465da95921460cefb38474024989060200160405180910390a15b50505050565b60a0546001600160a01b031633148061098d57506033546001600160a01b031633145b6109c55760405162461bcd60e51b81526020600482015260096024820152684e6f2041636365737360b81b6044820152606401610449565b81306001600160a01b03166390be10cc6040518163ffffffff1660e01b815260040160206040518083038186803b1580156109ff57600080fd5b505afa158015610a13573d6000803e3d6000fd5b505050506040513d601f19601f82011682018060405250810190610a379190611eb2565b1015610abe5760405162461bcd60e51b815260206004820152604a60248201527f546f6b656e56657374696e673a2063616e6e6f7420637265617465207665737460448201527f696e67207363686564756c652062656361757365206e6f742073756666696369606482015269656e7420746f6b656e7360b01b608482015260a401610449565b60008511610b195760405162461bcd60e51b815260206004820152602260248201527f546f6b656e56657374696e673a206475726174696f6e206d757374206265203e604482015261020360f41b6064820152608401610449565b60008211610b695760405162461bcd60e51b815260206004820181905260248201527f546f6b656e56657374696e673a20616d6f756e74206d757374206265203e20306044820152606401610449565b6001841015610bd05760405162461bcd60e51b815260206004820152602d60248201527f546f6b656e56657374696e673a20736c696365506572696f645365636f6e647360448201526c206d757374206265203e3d203160981b6064820152608401610449565b604051630f7c469f60e41b81526001600160a01b0389166004820152600090309063f7c469f09060240160206040518083038186803b158015610c1257600080fd5b505afa158015610c26573d6000803e3d6000fd5b505050506040513d601f19601f82011682018060405250810190610c4a9190611eb2565b90506000610c58898961195a565b90506040518061016001604052806001151581526020018b6001600160a01b031681526020018281526020018a8152602001888152602001878152602001861515815260200185815260200160008152602001600015158152602001841515815250609b600084815260200190815260200160002060008201518160000160006101000a81548160ff02191690831515021790555060208201518160000160016101000a8154816001600160a01b0302191690836001600160a01b0316021790555060408201518160010155606082015181600201556080820151816003015560a0820151816004015560c08201518160050160006101000a81548160ff02191690831515021790555060e0820151816006015561010082015181600701556101208201518160080160006101000a81548160ff0219169083151502179055506101408201518160080160016101000a81548160ff021916908315150217905550905050610dd184609c5461195a90919063ffffffff16565b609c558215610e11576000610dfc6064610df660985488611a2290919063ffffffff16565b90611a2e565b609d54909150610e0c908261195a565b609d55505b609a805460018181019092557f44da158ba27f9252712a74ff6a55c5d531f69609f1f6e7f17c4443a8e2089be4018390556001600160a01b038b166000908152609e602052604090205490610e6790829061195a565b6001600160a01b038c166000908152609e6020908152604080832093909355858252609f905281812055517f7deecc243dec36156ece079ae8e71cb3f5b8a86d4ee141e3733216e23614e0c390610ec19085815260200190565b60405180910390a15050505050505050505050565b610ede611c20565b6001600160a01b0382166000908152609e6020526040812054609b9190610f0d90859061033790600190611f49565b81526020808201929092526040908101600020815161016081018352815460ff808216151583526001600160a01b036101009283900416958301959095526001830154938201939093526002820154606082015260038201546080820152600482015460a082015260058201548416151560c0820152600682015460e0820152600782015483820152600890910154808416151561012083015291909104909116151561014082015292915050565b6040516bffffffffffffffffffffffff19606084901b1660208201526034810182905260009060540160405160208183030381529060405280519060200120905092915050565b600260655414156110265760405162461bcd60e51b815260040161044990611e7b565b60026065556000818152609b602052604090208054603354336001600160a01b03610100909304831681149290911614818061105f5750805b61107b5760405162461bcd60e51b815260040161044990611ecb565b6008830154610100900460ff166110fa5760405162461bcd60e51b815260206004820152603860248201527f52656c65617365546f6b656e41745447453a206f6e6c7920696e766573746f7260448201527f732063616e20636c61696d20746f6b656e2061742054474500000000000000006064820152608401610449565b600061110560a15490565b90506099548110156111525760405162461bcd60e51b81526020600482015260166024820152755447453a2074696d65206e6f7420726561636865642160501b6044820152606401610449565b6000858152609f6020526040902054156111ae5760405162461bcd60e51b815260206004820152601a60248201527f5447453a20546f6b656e20416c726561647920636c61696d65640000000000006044820152606401610449565b60006111ce6064610df66098548860060154611a2290919063ffffffff16565b6000878152609f602052604090208190558554609d5491925061010090046001600160a01b0316906112009083611966565b609d5560975461121a906001600160a01b031682846117ff565b604080516001600160a01b0383168152602081018490527fd9215c0345f0d530c5101edea49413960423257c62dd4dcc18b5e6c0b63a0227910160405180910390a1505060016065555050505050565b609c546097546040516370a0823160e01b81523060048201526000926112f79290916001600160a01b03909116906370a082319060240160206040518083038186803b1580156112b957600080fd5b505afa1580156112cd573d6000803e3d6000fd5b505050506040513d601f19601f820116820180604052508101906112f19190611eb2565b90611966565b905090565b611304611c20565b506000908152609b6020908152604091829020825161016081018452815460ff808216151583526001600160a01b036101009283900416948301949094526001830154948201949094526002820154606082015260038201546080820152600482015460a082015260058201548316151560c0820152600682015460e082015260078201548482015260089091015480831615156101208301529290920416151561014082015290565b6113b66117a5565b6000818152609b6020526040902054819060ff166113d357600080fd5b6000818152609b602052604090206008015460ff16156113f257600080fd5b6000828152609b60205260409020600581015460ff166114635760405162461bcd60e51b815260206004820152602660248201527f546f6b656e56657374696e673a2076657374696e67206973206e6f74207265766044820152656f6361626c6560d01b6064820152608401610449565b6040805161016081018252825460ff808216151583526001600160a01b03610100928390041660208401526001850154938301939093526002840154606083015260038401546080830152600484015460a083015260058401548316151560c0830152600684015460e08301526007840154818301526008840154808416151561012084015204909116151561014082015260009061150190611856565b90508015611513576115138482610563565b60006115308360070154846006015461196690919063ffffffff16565b609c549091506115409082611966565b609c555050600801805460ff191660011790555050565b6000609c54609d546112f79190611f60565b6000818152609b6020526040812054829060ff1661158657600080fd5b6000818152609b602052604090206008015460ff16156115a557600080fd5b6000838152609b6020908152604091829020825161016081018452815460ff808216151583526001600160a01b036101009283900416948301949094526001830154948201949094526002820154606082015260038201546080820152600482015460a082015260058201548316151560c0820152600682015460e0820152600782015484820152600882015480841615156101208301529390930490911615156101408301529061165690611856565b949350505050565b6116666117a5565b6001600160a01b0381166116cb5760405162461bcd60e51b815260206004820152602660248201527f4f776e61626c653a206e6577206f776e657220697320746865207a65726f206160448201526564647265737360d01b6064820152608401610449565b6116d481611972565b50565b6116df611c20565b6116ec6103768484610fbc565b9392505050565b6001600160a01b0381166000908152609e6020526040812054611717908390610fbc565b92915050565b6000611728609a5490565b82106117805760405162461bcd60e51b815260206004820152602160248201527f546f6b656e56657374696e673a20696e646578206f7574206f6620626f756e646044820152607360f81b6064820152608401610449565b609a828154811061179357611793611f78565b90600052602060002001549050919050565b6033546001600160a01b0316331461079b5760405162461bcd60e51b815260206004820181905260248201527f4f776e61626c653a2063616c6c6572206973206e6f7420746865206f776e65726044820152606401610449565b604080516001600160a01b038416602482015260448082018490528251808303909101815260649091019091526020810180516001600160e01b031663a9059cbb60e01b179052611851908490611a3a565b505050565b60008061186260a15490565b60e084015161014085015191925090156118ac5760006118966064610df66098548860e00151611a2290919063ffffffff16565b60e08601519091506118a89082611966565b9150505b83604001518210806118c5575061012084015115156001145b156118d4575060009392505050565b608084015160608501516118e79161195a565b82106118fe57610100840151611656908290611966565b600061191785606001518461196690919063ffffffff16565b905060006119368660800151610df68486611a2290919063ffffffff16565b90506119508661010001518261196690919063ffffffff16565b9695505050505050565b60006116ec8284611f60565b60006116ec8284611f49565b603380546001600160a01b038381166001600160a01b0319831681179093556040519116919082907f8be0079c531659141344cd1fd0a4f28419497f9722a3daafe3b4186f6b6457e090600090a35050565b600054610100900460ff166119eb5760405162461bcd60e51b815260040161044990611f8e565b61079b33611972565b600054610100900460ff16611a1b5760405162461bcd60e51b815260040161044990611f8e565b6001606555565b60006116ec8284611fd9565b60006116ec8284611ff8565b6000611a8f826040518060400160405280602081526020017f5361666545524332303a206c6f772d6c6576656c2063616c6c206661696c6564815250856001600160a01b0316611b0c9092919063ffffffff16565b8051909150156118515780806020019051810190611aad919061201a565b6118515760405162461bcd60e51b815260206004820152602a60248201527f5361666545524332303a204552433230206f7065726174696f6e20646964206e6044820152691bdd081cdd58d8d9595960b21b6064820152608401610449565b60606116568484600085856001600160a01b0385163b611b6e5760405162461bcd60e51b815260206004820152601d60248201527f416464726573733a2063616c6c20746f206e6f6e2d636f6e74726163740000006044820152606401610449565b600080866001600160a01b03168587604051611b8a9190612063565b60006040518083038185875af1925050503d8060008114611bc7576040519150601f19603f3d011682016040523d82523d6000602084013e611bcc565b606091505b5091509150611bdc828286611be7565b979650505050505050565b60608315611bf65750816116ec565b825115611c065782518084602001fd5b8160405162461bcd60e51b8152600401610449919061207f565b60405180610160016040528060001515815260200160006001600160a01b031681526020016000815260200160008152602001600081526020016000815260200160001515815260200160008152602001600081526020016000151581526020016000151581525090565b6001600160a01b03811681146116d457600080fd5b600060208284031215611cb257600080fd5b81356116ec81611c8b565b600060208284031215611ccf57600080fd5b5035919050565b60008060408385031215611ce957600080fd5b50508035926020909101359150565b600080600060608486031215611d0d57600080fd5b8335611d1881611c8b565b95602085013595506040909401359392505050565b80151581146116d457600080fd5b600080600080600080600080610100898b031215611d5857600080fd5b8835611d6381611c8b565b97506020890135965060408901359550606089013594506080890135935060a0890135611d8f81611d2d565b925060c0890135915060e0890135611da681611d2d565b809150509295985092959890939650565b81511515815261016081016020830151611ddc60208401826001600160a01b03169052565b5060408301516040830152606083015160608301526080830151608083015260a083015160a083015260c0830151611e1860c084018215159052565b5060e08381015190830152610100808401519083015261012080840151151590830152610140928301511515929091019190915290565b60008060408385031215611e6257600080fd5b8235611e6d81611c8b565b946020939093013593505050565b6020808252601f908201527f5265656e7472616e637947756172643a207265656e7472616e742063616c6c00604082015260600190565b600060208284031215611ec457600080fd5b5051919050565b60208082526042908201527f546f6b656e56657374696e673a206f6e6c792062656e6566696369617279206160408201527f6e64206f776e65722063616e2072656c656173652076657374656420746f6b656060820152616e7360f01b608082015260a00190565b634e487b7160e01b600052601160045260246000fd5b600082821015611f5b57611f5b611f33565b500390565b60008219821115611f7357611f73611f33565b500190565b634e487b7160e01b600052603260045260246000fd5b6020808252602b908201527f496e697469616c697a61626c653a20636f6e7472616374206973206e6f74206960408201526a6e697469616c697a696e6760a81b606082015260800190565b6000816000190483118215151615611ff357611ff3611f33565b500290565b60008261201557634e487b7160e01b600052601260045260246000fd5b500490565b60006020828403121561202c57600080fd5b81516116ec81611d2d565b60005b8381101561205257818101518382015260200161203a565b838111156109645750506000910152565b60008251612075818460208701612037565b9190910192915050565b602081526000825180602084015261209e816040850160208701612037565b601f01601f1916919091016040019291505056fea2646970667358221220aa0159076eea5539194c6d0cf41be242cf42b74e0db09d0e5b9924383143f01364736f6c63430008090033",
  "linkReferences": {},
  "deployedLinkReferences": {}
}