{
  "_format": "hh-sol-artifact-1",
  "contractName": "PaymeTokenCrowdsale",
  "sourceName": "contracts/ico/PaymeTokenCrowdsale.sol",
  "abi": [
    {
      "inputs": [
        {
          "internalType": "contract IERC20",
          "name": "iBUSDT",
          "type": "address"
        },
        {
          "internalType": "address",
          "name": "iVestingAddress",
          "type": "address"
        },
        {
          "internalType": "uint256",
          "name": "iRate",
          "type": "uint256"
        },
        {
          "internalType": "address payable",
          "name": "iWallet",
          "type": "address"
        },
        {
          "internalType": "contract IERC20",
          "name": "iToken",
          "type": "address"
        },
        {
          "internalType": "uint256",
          "name": "iCap",
          "type": "uint256"
        },
        {
          "internalType": "uint256",
          "name": "iOpeningTime",
          "type": "uint256"
        },
        {
          "internalType": "uint256",
          "name": "iClosingTime",
          "type": "uint256"
        },
        {
          "internalType": "uint256",
          "name": "iTGETime",
          "type": "uint256"
        },
        {
          "internalType": "uint256",
          "name": "iDuration",
          "type": "uint256"
        }
      ],
      "stateMutability": "nonpayable",
      "type": "constructor"
    },
    {
      "inputs": [
        {
          "internalType": "uint256",
          "name": "",
          "type": "uint256"
        }
      ],
      "name": "IndividuallyMaximumCappedCrowdsale",
      "type": "error"
    },
    {
      "inputs": [
        {
          "internalType": "uint256",
          "name": "",
          "type": "uint256"
        }
      ],
      "name": "IndividuallyMinimumCappedCrowdsale",
      "type": "error"
    },
    {
      "inputs": [
        {
          "internalType": "uint256",
          "name": "balance",
          "type": "uint256"
        },
        {
          "internalType": "uint256",
          "name": "expected",
          "type": "uint256"
        }
      ],
      "name": "InsufficientBalance",
      "type": "error"
    },
    {
      "inputs": [
        {
          "internalType": "uint256",
          "name": "",
          "type": "uint256"
        }
      ],
      "name": "InsufficientTokenForSales",
      "type": "error"
    },
    {
      "inputs": [
        {
          "internalType": "address",
          "name": "",
          "type": "address"
        }
      ],
      "name": "NotAllowed",
      "type": "error"
    },
    {
      "inputs": [
        {
          "internalType": "uint256",
          "name": "",
          "type": "uint256"
        }
      ],
      "name": "TotalExceedTotalSupply",
      "type": "error"
    },
    {
      "anonymous": false,
      "inputs": [],
      "name": "CrowdsaleFinalized",
      "type": "event"
    },
    {
      "anonymous": false,
      "inputs": [
        {
          "indexed": true,
          "internalType": "address",
          "name": "previousOwner",
          "type": "address"
        },
        {
          "indexed": true,
          "internalType": "address",
          "name": "newOwner",
          "type": "address"
        }
      ],
      "name": "OwnershipTransferred",
      "type": "event"
    },
    {
      "anonymous": false,
      "inputs": [
        {
          "indexed": false,
          "internalType": "address",
          "name": "account",
          "type": "address"
        }
      ],
      "name": "Paused",
      "type": "event"
    },
    {
      "anonymous": false,
      "inputs": [
        {
          "indexed": true,
          "internalType": "bytes32",
          "name": "role",
          "type": "bytes32"
        },
        {
          "indexed": true,
          "internalType": "bytes32",
          "name": "previousAdminRole",
          "type": "bytes32"
        },
        {
          "indexed": true,
          "internalType": "bytes32",
          "name": "newAdminRole",
          "type": "bytes32"
        }
      ],
      "name": "RoleAdminChanged",
      "type": "event"
    },
    {
      "anonymous": false,
      "inputs": [
        {
          "indexed": true,
          "internalType": "bytes32",
          "name": "role",
          "type": "bytes32"
        },
        {
          "indexed": true,
          "internalType": "address",
          "name": "account",
          "type": "address"
        },
        {
          "indexed": true,
          "internalType": "address",
          "name": "sender",
          "type": "address"
        }
      ],
      "name": "RoleGranted",
      "type": "event"
    },
    {
      "anonymous": false,
      "inputs": [
        {
          "indexed": true,
          "internalType": "bytes32",
          "name": "role",
          "type": "bytes32"
        },
        {
          "indexed": true,
          "internalType": "address",
          "name": "account",
          "type": "address"
        },
        {
          "indexed": true,
          "internalType": "address",
          "name": "sender",
          "type": "address"
        }
      ],
      "name": "RoleRevoked",
      "type": "event"
    },
    {
      "anonymous": false,
      "inputs": [
        {
          "indexed": false,
          "internalType": "uint256",
          "name": "prevClosingTime",
          "type": "uint256"
        },
        {
          "indexed": false,
          "internalType": "uint256",
          "name": "newClosingTime",
          "type": "uint256"
        }
      ],
      "name": "TimedCrowdsaleExtended",
      "type": "event"
    },
    {
      "anonymous": false,
      "inputs": [
        {
          "indexed": true,
          "internalType": "address",
          "name": "purchaser",
          "type": "address"
        },
        {
          "indexed": true,
          "internalType": "address",
          "name": "beneficiary",
          "type": "address"
        },
        {
          "indexed": false,
          "internalType": "uint256",
          "name": "value",
          "type": "uint256"
        },
        {
          "indexed": false,
          "internalType": "uint256",
          "name": "amount",
          "type": "uint256"
        }
      ],
      "name": "TokensPurchased",
      "type": "event"
    },
    {
      "anonymous": false,
      "inputs": [
        {
          "indexed": false,
          "internalType": "address",
          "name": "account",
          "type": "address"
        }
      ],
      "name": "Unpaused",
      "type": "event"
    },
    {
      "stateMutability": "payable",
      "type": "fallback"
    },
    {
      "inputs": [],
      "name": "BUSINESS_DEVELOPERS_PERCENTAGE",
      "outputs": [
        {
          "internalType": "uint256",
          "name": "",
          "type": "uint256"
        }
      ],
      "stateMutability": "view",
      "type": "function"
    },
    {
      "inputs": [],
      "name": "DEFAULT_ADMIN_ROLE",
      "outputs": [
        {
          "internalType": "bytes32",
          "name": "",
          "type": "bytes32"
        }
      ],
      "stateMutability": "view",
      "type": "function"
    },
    {
      "inputs": [],
      "name": "PROJECT_TEAM_PERCENTAGE",
      "outputs": [
        {
          "internalType": "uint256",
          "name": "",
          "type": "uint256"
        }
      ],
      "stateMutability": "view",
      "type": "function"
    },
    {
      "inputs": [],
      "name": "TECHINCAL_DEVELOPERS_PERCENTAGE",
      "outputs": [
        {
          "internalType": "uint256",
          "name": "",
          "type": "uint256"
        }
      ],
      "stateMutability": "view",
      "type": "function"
    },
    {
      "inputs": [
        {
          "internalType": "address",
          "name": "account",
          "type": "address"
        }
      ],
      "name": "addWhitelisted",
      "outputs": [],
      "stateMutability": "nonpayable",
      "type": "function"
    },
    {
      "inputs": [],
      "name": "bUSDT",
      "outputs": [
        {
          "internalType": "contract IERC20",
          "name": "",
          "type": "address"
        }
      ],
      "stateMutability": "view",
      "type": "function"
    },
    {
      "inputs": [
        {
          "internalType": "address",
          "name": "beneficiary",
          "type": "address"
        }
      ],
      "name": "buyTokens",
      "outputs": [],
      "stateMutability": "payable",
      "type": "function"
    },
    {
      "inputs": [
        {
          "internalType": "address",
          "name": "beneficiary",
          "type": "address"
        },
        {
          "internalType": "uint256",
          "name": "amount",
          "type": "uint256"
        }
      ],
      "name": "buyTokensInBUSD",
      "outputs": [],
      "stateMutability": "payable",
      "type": "function"
    },
    {
      "inputs": [],
      "name": "cap",
      "outputs": [
        {
          "internalType": "uint256",
          "name": "",
          "type": "uint256"
        }
      ],
      "stateMutability": "view",
      "type": "function"
    },
    {
      "inputs": [],
      "name": "capReached",
      "outputs": [
        {
          "internalType": "bool",
          "name": "",
          "type": "bool"
        }
      ],
      "stateMutability": "view",
      "type": "function"
    },
    {
      "inputs": [],
      "name": "cliff",
      "outputs": [
        {
          "internalType": "uint256",
          "name": "",
          "type": "uint256"
        }
      ],
      "stateMutability": "view",
      "type": "function"
    },
    {
      "inputs": [],
      "name": "closingTime",
      "outputs": [
        {
          "internalType": "uint256",
          "name": "",
          "type": "uint256"
        }
      ],
      "stateMutability": "view",
      "type": "function"
    },
    {
      "inputs": [],
      "name": "createInvestors",
      "outputs": [],
      "stateMutability": "nonpayable",
      "type": "function"
    },
    {
      "inputs": [],
      "name": "duration",
      "outputs": [
        {
          "internalType": "uint256",
          "name": "",
          "type": "uint256"
        }
      ],
      "stateMutability": "view",
      "type": "function"
    },
    {
      "inputs": [],
      "name": "finalize",
      "outputs": [],
      "stateMutability": "nonpayable",
      "type": "function"
    },
    {
      "inputs": [],
      "name": "finalized",
      "outputs": [
        {
          "internalType": "bool",
          "name": "",
          "type": "bool"
        }
      ],
      "stateMutability": "view",
      "type": "function"
    },
    {
      "inputs": [
        {
          "internalType": "bytes32",
          "name": "role",
          "type": "bytes32"
        }
      ],
      "name": "getRoleAdmin",
      "outputs": [
        {
          "internalType": "bytes32",
          "name": "",
          "type": "bytes32"
        }
      ],
      "stateMutability": "view",
      "type": "function"
    },
    {
      "inputs": [
        {
          "internalType": "bytes32",
          "name": "role",
          "type": "bytes32"
        },
        {
          "internalType": "address",
          "name": "account",
          "type": "address"
        }
      ],
      "name": "grantRole",
      "outputs": [],
      "stateMutability": "nonpayable",
      "type": "function"
    },
    {
      "inputs": [],
      "name": "hasClosed",
      "outputs": [
        {
          "internalType": "bool",
          "name": "",
          "type": "bool"
        }
      ],
      "stateMutability": "view",
      "type": "function"
    },
    {
      "inputs": [
        {
          "internalType": "bytes32",
          "name": "role",
          "type": "bytes32"
        },
        {
          "internalType": "address",
          "name": "account",
          "type": "address"
        }
      ],
      "name": "hasRole",
      "outputs": [
        {
          "internalType": "bool",
          "name": "",
          "type": "bool"
        }
      ],
      "stateMutability": "view",
      "type": "function"
    },
    {
      "inputs": [],
      "name": "isOpen",
      "outputs": [
        {
          "internalType": "bool",
          "name": "",
          "type": "bool"
        }
      ],
      "stateMutability": "view",
      "type": "function"
    },
    {
      "inputs": [],
      "name": "maximumSale",
      "outputs": [
        {
          "internalType": "uint256",
          "name": "",
          "type": "uint256"
        }
      ],
      "stateMutability": "view",
      "type": "function"
    },
    {
      "inputs": [],
      "name": "minimumSale",
      "outputs": [
        {
          "internalType": "uint256",
          "name": "",
          "type": "uint256"
        }
      ],
      "stateMutability": "view",
      "type": "function"
    },
    {
      "inputs": [],
      "name": "openingTime",
      "outputs": [
        {
          "internalType": "uint256",
          "name": "",
          "type": "uint256"
        }
      ],
      "stateMutability": "view",
      "type": "function"
    },
    {
      "inputs": [],
      "name": "owner",
      "outputs": [
        {
          "internalType": "address",
          "name": "",
          "type": "address"
        }
      ],
      "stateMutability": "view",
      "type": "function"
    },
    {
      "inputs": [],
      "name": "pause",
      "outputs": [],
      "stateMutability": "nonpayable",
      "type": "function"
    },
    {
      "inputs": [],
      "name": "paused",
      "outputs": [
        {
          "internalType": "bool",
          "name": "",
          "type": "bool"
        }
      ],
      "stateMutability": "view",
      "type": "function"
    },
    {
      "inputs": [],
      "name": "rate",
      "outputs": [
        {
          "internalType": "uint256",
          "name": "",
          "type": "uint256"
        }
      ],
      "stateMutability": "view",
      "type": "function"
    },
    {
      "inputs": [],
      "name": "renounceOwnership",
      "outputs": [],
      "stateMutability": "nonpayable",
      "type": "function"
    },
    {
      "inputs": [
        {
          "internalType": "bytes32",
          "name": "role",
          "type": "bytes32"
        },
        {
          "internalType": "address",
          "name": "account",
          "type": "address"
        }
      ],
      "name": "renounceRole",
      "outputs": [],
      "stateMutability": "nonpayable",
      "type": "function"
    },
    {
      "inputs": [
        {
          "internalType": "bytes32",
          "name": "role",
          "type": "bytes32"
        },
        {
          "internalType": "address",
          "name": "account",
          "type": "address"
        }
      ],
      "name": "revokeRole",
      "outputs": [],
      "stateMutability": "nonpayable",
      "type": "function"
    },
    {
      "inputs": [
        {
          "internalType": "bytes4",
          "name": "interfaceId",
          "type": "bytes4"
        }
      ],
      "name": "supportsInterface",
      "outputs": [
        {
          "internalType": "bool",
          "name": "",
          "type": "bool"
        }
      ],
      "stateMutability": "view",
      "type": "function"
    },
    {
      "inputs": [],
      "name": "token",
      "outputs": [
        {
          "internalType": "contract IERC20",
          "name": "",
          "type": "address"
        }
      ],
      "stateMutability": "view",
      "type": "function"
    },
    {
      "inputs": [],
      "name": "tokenGenerationEventTime",
      "outputs": [
        {
          "internalType": "uint256",
          "name": "",
          "type": "uint256"
        }
      ],
      "stateMutability": "view",
      "type": "function"
    },
    {
      "inputs": [],
      "name": "totalTeamShare",
      "outputs": [
        {
          "internalType": "uint256",
          "name": "",
          "type": "uint256"
        }
      ],
      "stateMutability": "view",
      "type": "function"
    },
    {
      "inputs": [
        {
          "internalType": "address",
          "name": "newOwner",
          "type": "address"
        }
      ],
      "name": "transferOwnership",
      "outputs": [],
      "stateMutability": "nonpayable",
      "type": "function"
    },
    {
      "inputs": [],
      "name": "unpause",
      "outputs": [],
      "stateMutability": "nonpayable",
      "type": "function"
    },
    {
      "inputs": [],
      "name": "vestingAddress",
      "outputs": [
        {
          "internalType": "address",
          "name": "",
          "type": "address"
        }
      ],
      "stateMutability": "view",
      "type": "function"
    },
    {
      "inputs": [],
      "name": "wallet",
      "outputs": [
        {
          "internalType": "address payable",
          "name": "",
          "type": "address"
        }
      ],
      "stateMutability": "view",
      "type": "function"
    },
    {
      "inputs": [],
      "name": "weiRaised",
      "outputs": [
        {
          "internalType": "uint256",
          "name": "",
          "type": "uint256"
        }
      ],
      "stateMutability": "view",
      "type": "function"
    },
    {
      "stateMutability": "payable",
      "type": "receive"
    }
  ],
  "bytecode": "0x60806040523480156200001157600080fd5b506040516200298638038062002986833981016040819052620000349162000863565b60016000558383868a8a8a82620000925760405162461bcd60e51b815260206004820152601460248201527f43726f776473616c653a2072617465206973203000000000000000000000000060448201526064015b60405180910390fd5b6001600160a01b038216620000f85760405162461bcd60e51b815260206004820152602560248201527f43726f776473616c653a2077616c6c657420697320746865207a65726f206164604482015264647265737360d81b606482015260840162000089565b6001600160a01b0381166200015c5760405162461bcd60e51b8152602060048201526024808201527f43726f776473616c653a20746f6b656e20697320746865207a65726f206164646044820152637265737360e01b606482015260840162000089565b6004839055600380546001600160a01b038085166001600160a01b03199283161790925560028054928416929091169190911790556200019e60003362000727565b50506006805460ff1916905550620001b63362000737565b60008111620002085760405162461bcd60e51b815260206004820152601960248201527f43617070656443726f776473616c653a20636170206973203000000000000000604482015260640162000089565b60075542821015620002725760405162461bcd60e51b815260206004820152603360248201526000805160206200296683398151915260448201527f6265666f72652063757272656e742074696d6500000000000000000000000000606482015260840162000089565b818111620002d85760405162461bcd60e51b815260206004820152603760248201526000805160206200296683398151915260448201527f6e6f74206265666f726520636c6f73696e672074696d65000000000000000000606482015260840162000089565b600891909155600955600a805460ff191690556001600160a01b038a16620003435760405162461bcd60e51b815260206004820152601360248201527f56616c6964204255534420726571756972656400000000000000000000000000604482015260640162000089565b6001600160a01b0389166200039b5760405162461bcd60e51b815260206004820152601f60248201527f56616c69642056657374696e6720636f6e747261637420726571756972656400604482015260640162000089565b84620003ea5760405162461bcd60e51b815260206004820152601d60248201527f436170206d7573742062652067726561746572207468616e205a65726f000000604482015260640162000089565b42841015620004485760405162461bcd60e51b815260206004820152602360248201527f6f70656e696e672074696d65206973206265666f72652063757272656e742074604482015262696d6560e81b606482015260840162000089565b838311620004a95760405162461bcd60e51b815260206004820152602760248201527f6f70656e696e672074696d65206973206e6f74206265666f726520636c6f73696044820152666e672074696d6560c81b606482015260840162000089565b838211620005205760405162461bcd60e51b815260206004820152603a60248201527f546f6b656e2047656e65726174696f6e204576656e742074696d65206973206e60448201527f6f74206265666f72652074686520636c6f73696e672074696d65000000000000606482015260840162000089565b62f099c08111620005825760405162461bcd60e51b815260206004820152602560248201527f4475726174696f6e206d7573742062652067726561746572207468616e20366d6044820152646f6e74687360d81b606482015260840162000089565b600b80546001600160a01b0319166001600160a01b038c811691909117909155600c8390556000600d819055600e839055600a8054610100600160a81b0319166101008d8516021790556064600f556103e860105560025490911690506000816001600160a01b03166318160ddd6040518163ffffffff1660e01b815260040160206040518083038186803b1580156200061b57600080fd5b505afa15801562000630573d6000803e3d6000fd5b505050506040513d601f19601f8201168201806040525081019062000656919062000909565b905060006200068f60646200067b600a856200079160201b62000e911790919060201c565b620007a660201b62000ea41790919060201c565b90506000620006b460646200067b6005866200079160201b62000e911790919060201c565b90506000620006d960646200067b6014876200079160201b62000e911790919060201c565b90506200070e81620006fa8486620007b460201b62000eb01790919060201c565b620007b460201b62000eb01790919060201c565b60115550620009999d5050505050505050505050505050565b620007338282620007c2565b5050565b600680546001600160a01b03838116610100818102610100600160a81b031985161790945560405193909204169182907f8be0079c531659141344cd1fd0a4f28419497f9722a3daafe3b4186f6b6457e090600090a35050565b60006200079f828462000939565b9392505050565b60006200079f82846200095b565b60006200079f82846200097e565b60008281526001602090815260408083206001600160a01b038516845290915290205460ff16620007335760008281526001602081815260408084206001600160a01b0386168086529252808420805460ff19169093179092559051339285917f2f8788117e7eff1d82e926ec794901d17c78024a50270940304540a733656f0d9190a45050565b6001600160a01b03811681146200086057600080fd5b50565b6000806000806000806000806000806101408b8d0312156200088457600080fd5b8a5162000891816200084a565b60208c0151909a50620008a4816200084a565b60408c015160608d0151919a509850620008be816200084a565b60808c0151909750620008d1816200084a565b8096505060a08b0151945060c08b0151935060e08b015192506101008b015191506101208b015190509295989b9194979a5092959850565b6000602082840312156200091c57600080fd5b5051919050565b634e487b7160e01b600052601160045260246000fd5b600081600019048311821515161562000956576200095662000923565b500290565b6000826200097957634e487b7160e01b600052601260045260246000fd5b500490565b6000821982111562000994576200099462000923565b500190565b611fbd80620009a96000396000f3fe60806040526004361061023f5760003560e01c806372fc03521161012e578063b5af1b2f116100ab578063e994e4751161006f578063e994e4751461060e578063ec8ac4d814610623578063f2d5879014610631578063f2fde38b14610647578063fc0c546a1461066757610254565b8063b5af1b2f1461057f578063b7a8807c1461059f578063c77c7387146105b4578063d547741f146105d9578063e5a2be8e146105f957610254565b806391d14854116100f257806391d148541461050a57806393fc645a1461052a57806395e7a6a31461053f578063a217fddf14610552578063b3f05b971461056757610254565b806372fc035214610490578063762e9376146104a6578063804b60a3146104bc5780638456cb59146104d25780638da5cb5b146104e757610254565b80633f4ba83a116101bc5780634bb278f3116101805780634bb278f3146104075780634f9359451461041c578063521eb273146104315780635c975abb14610463578063715018a61461047b57610254565b80633f4ba83a1461039e5780634042b66f146103b357806347535d7b146103c85780634b20ab1a146103dd5780634b6753bc146103f257610254565b8063248a9ca311610203578063248a9ca3146103035780632c4e722e146103345780632f2ff15d14610349578063355274ea1461036957806336568abe1461037e57610254565b806301ffc9a71461025d5780630fb5a6b41461029257806310154bad146102b657806313d033c0146102d65780631515bc2b146102ec57610254565b366102545761025233610685565b610685565b005b61025233610685565b34801561026957600080fd5b5061027d610278366004611ca8565b610706565b60405190151581526020015b60405180910390f35b34801561029e57600080fd5b506102a8600e5481565b604051908152602001610289565b3480156102c257600080fd5b506102526102d1366004611cee565b61073d565b3480156102e257600080fd5b506102a8600d5481565b3480156102f857600080fd5b50600954421161027d565b34801561030f57600080fd5b506102a861031e366004611d09565b6000908152600160208190526040909120015490565b34801561034057600080fd5b506004546102a8565b34801561035557600080fd5b50610252610364366004611d22565b6107bf565b34801561037557600080fd5b506007546102a8565b34801561038a57600080fd5b50610252610399366004611d22565b6107ea565b3480156103aa57600080fd5b50610252610864565b3480156103bf57600080fd5b506005546102a8565b3480156103d457600080fd5b5061027d61087e565b3480156103e957600080fd5b506102a8600581565b3480156103fe57600080fd5b506009546102a8565b34801561041357600080fd5b50610252610899565b34801561042857600080fd5b5061027d6108a9565b34801561043d57600080fd5b506003546001600160a01b03165b6040516001600160a01b039091168152602001610289565b34801561046f57600080fd5b5060065460ff1661027d565b34801561048757600080fd5b506102526108be565b34801561049c57600080fd5b506102a8600c5481565b3480156104b257600080fd5b506102a860105481565b3480156104c857600080fd5b506102a860115481565b3480156104de57600080fd5b506102526108d0565b3480156104f357600080fd5b5060065461010090046001600160a01b031661044b565b34801561051657600080fd5b5061027d610525366004611d22565b6108e8565b34801561053657600080fd5b506102a8601481565b61025261054d366004611d4e565b610913565b34801561055e57600080fd5b506102a8600081565b34801561057357600080fd5b50600a5460ff1661027d565b34801561058b57600080fd5b50600b5461044b906001600160a01b031681565b3480156105ab57600080fd5b506008546102a8565b3480156105c057600080fd5b50600a5461044b9061010090046001600160a01b031681565b3480156105e557600080fd5b506102526105f4366004611d22565b610c5c565b34801561060557600080fd5b506102a8600a81565b34801561061a57600080fd5b50610252610c82565b61025261024d366004611cee565b34801561063d57600080fd5b506102a8600f5481565b34801561065357600080fd5b50610252610662366004611cee565b610e18565b34801561067357600080fd5b506002546001600160a01b031661044b565b600260005414156106dd5760405162461bcd60e51b815260206004820152601f60248201527f5265656e7472616e637947756172643a207265656e7472616e742063616c6c0060448201526064015b60405180910390fd5b600260005560405163fa5cd00f60e01b81526001600160a01b03821660048201526024016106d4565b60006001600160e01b03198216637965db0b60e01b148061073757506301ffc9a760e01b6001600160e01b03198316145b92915050565b7ff5ddd805fa96b7c3d4f3ea55114f966ab9aad1de73aff48d008717b66678bb3660005260016020527f306af4f9eb55d9b14ffdc8b547a07f1a27f9250a93efb5a15310de49ac427dbd5461079181610ebc565b6107bb7ff5ddd805fa96b7c3d4f3ea55114f966ab9aad1de73aff48d008717b66678bb36836107bf565b5050565b600082815260016020819052604090912001546107db81610ebc565b6107e58383610ec6565b505050565b6001600160a01b038116331461085a5760405162461bcd60e51b815260206004820152602f60248201527f416363657373436f6e74726f6c3a2063616e206f6e6c792072656e6f756e636560448201526e103937b632b9903337b91039b2b63360891b60648201526084016106d4565b6107bb8282610f31565b61086c610f98565b610874610ff8565b61087c611041565b565b6000600854421015801561089457506009544211155b905090565b6108a1610f98565b61087c611093565b60006007546108b760055490565b1015905090565b6108c6610f98565b61087c6000611187565b6108d8610f98565b6108e06111e1565b61087c611227565b60009182526001602090815260408084206001600160a01b0393909316845291905290205460ff1690565b600260005414156109665760405162461bcd60e51b815260206004820152601f60248201527f5265656e7472616e637947756172643a207265656e7472616e742063616c6c0060448201526064016106d4565b60026000556001600160a01b0382166109cf5760405162461bcd60e51b815260206004820152602560248201527f56616c69642042656e65666963696172792061646472657373206973207265716044820152641d5a5c995960da1b60648201526084016106d4565b60008111610a2b5760405162461bcd60e51b815260206004820152602360248201527f416d6f756e74206d7573742062652067726561746572207468616e207a65726f60448201526228302960e81b60648201526084016106d4565b80610a368382611264565b6000610a41826113aa565b90506000610a576002546001600160a01b031690565b90506000610a6460055490565b90506000610a7d82601154610eb090919063ffffffff16565b9050610a898185610eb0565b6040516370a0823160e01b81523060048201526001600160a01b038516906370a082319060240160206040518083038186803b158015610ac857600080fd5b505afa158015610adc573d6000803e3d6000fd5b505050506040513d601f19601f82011682018060405250810190610b009190611d78565b1015610b2257604051630c75b7b760e31b8152600481018590526024016106d4565b610bf58785604080516060810182526001600160a01b03808516825260208201848152600093830184815260128054600181018255955292517fbb8a6a4669ba250d26cd7a459eca9d215f8307e33aebe50379bc5a3617ec3444600390950294850180546001600160a01b0319169190931617909155517fbb8a6a4669ba250d26cd7a459eca9d215f8307e33aebe50379bc5a3617ec3445830155517fbb8a6a4669ba250d26cd7a459eca9d215f8307e33aebe50379bc5a3617ec3446909101805460ff19169115159190911790555050565b60408051868152602081018690526001600160a01b0389169133917f6faf93231a456e552dbc9961f58d9713ee4f2e69d15f1975b050ef0911053a7b910160405180910390a3610c4587866113c1565b610c4e8561140e565b505060016000555050505050565b60008281526001602081905260409091200154610c7881610ebc565b6107e58383610f31565b6009544211610cd35760405162461bcd60e51b815260206004820181905260248201527f46696e616c697a61626c6543726f776473616c653a206e6f7420636c6f73656460448201526064016106d4565b600a5461010090046001600160a01b031660005b6012548110156107bb57600060128281548110610d0657610d06611d91565b600091825260209182902060408051606081018252600390930290910180546001600160a01b0316835260018101549383019390935260029092015460ff16158015928201929092529150610d5b5750610e06565b8051600c54600d54600e546020850151604051633efc6fc960e11b81526001600160a01b039586166004820152602481019490945260448401929092526064830152600160848301819052600060a484015260c483019190915260e482015290841690637df8df929061010401600060405180830381600087803b158015610de257600080fd5b505af1158015610df6573d6000803e3d6000fd5b5050600160409093019290925250505b80610e1081611dbd565b915050610ce7565b610e20610f98565b6001600160a01b038116610e855760405162461bcd60e51b815260206004820152602660248201527f4f776e61626c653a206e6577206f776e657220697320746865207a65726f206160448201526564647265737360d01b60648201526084016106d4565b610e8e81611187565b50565b6000610e9d8284611dd8565b9392505050565b6000610e9d8284611df7565b6000610e9d8284611e19565b610e8e8133611438565b610ed082826108e8565b6107bb5760008281526001602081815260408084206001600160a01b0386168086529252808420805460ff19169093179092559051339285917f2f8788117e7eff1d82e926ec794901d17c78024a50270940304540a733656f0d9190a45050565b610f3b82826108e8565b156107bb5760008281526001602090815260408083206001600160a01b0385168085529252808320805460ff1916905551339285917ff6391f5c32d9c69d2a47ea670b442974b53935d1edc7fd64eb21e047a839171b9190a45050565b6006546001600160a01b0361010090910416331461087c5760405162461bcd60e51b815260206004820181905260248201527f4f776e61626c653a2063616c6c6572206973206e6f7420746865206f776e657260448201526064016106d4565b60065460ff1661087c5760405162461bcd60e51b815260206004820152601460248201527314185d5cd8589b194e881b9bdd081c185d5cd95960621b60448201526064016106d4565b611049610ff8565b6006805460ff191690557f5db9ee0a495bf2e6ff9c91a7834c1ba4fdd244a5e8aa4e537bd38aeae4b073aa335b6040516001600160a01b03909116815260200160405180910390a1565b600a5460ff16156110f65760405162461bcd60e51b815260206004820152602760248201527f46696e616c697a61626c6543726f776473616c653a20616c72656164792066696044820152661b985b1a5e995960ca1b60648201526084016106d4565b60095442116111475760405162461bcd60e51b815260206004820181905260248201527f46696e616c697a61626c6543726f776473616c653a206e6f7420636c6f73656460448201526064016106d4565b600a805460ff1916600117905561115c61149c565b6040517f9270cc390c096600a1c17c44345a1ba689fafd99d97487b10cfccf86cf73183690600090a1565b600680546001600160a01b03838116610100818102610100600160a81b031985161790945560405193909204169182907f8be0079c531659141344cd1fd0a4f28419497f9722a3daafe3b4186f6b6457e090600090a35050565b60065460ff161561087c5760405162461bcd60e51b815260206004820152601060248201526f14185d5cd8589b194e881c185d5cd95960821b60448201526064016106d4565b61122f6111e1565b6006805460ff191660011790557f62e78cea01bee320cd4e420270b5ea74000d11b0c9f74754ebdbfc544b05a2586110763390565b600b546040516370a0823160e01b81523360048201526000916001600160a01b0316906370a082319060240160206040518083038186803b1580156112a857600080fd5b505afa1580156112bc573d6000803e3d6000fd5b505050506040513d601f19601f820116820180604052508101906112e09190611d78565b90508082111561130d5760405163cf47918160e01b815260048101829052602481018390526044016106d4565b600f54821015611333576040516314e6bbf160e21b8152600481018390526024016106d4565b6010546001600160a01b0384166000908152601360205260409020546113599084610eb0565b11156113a0576001600160a01b038316600090815260136020526040902054601054611384916115bb565b6040516398c1d8ab60e01b81526004016106d491815260200190565b6107e583836115c7565b600061073760045483610e9190919063ffffffff16565b6113cb82826115d9565b6001600160a01b0382166000908152601360205260409020546113ee9082610eb0565b6001600160a01b0390921660009081526013602052604090209190915550565b610e8e336114246003546001600160a01b031690565b600b546001600160a01b03169190846115e6565b61144282826108e8565b6107bb5761145a816001600160a01b03166014611657565b611465836020611657565b604051602001611476929190611e5d565b60408051601f198184030181529082905262461bcd60e51b82526106d491600401611ed2565b60006114b06002546001600160a01b031690565b905060006114bd60055490565b905060006114ca60045490565b90506000836001600160a01b03166318160ddd6040518163ffffffff1660e01b815260040160206040518083038186803b15801561150757600080fd5b505afa15801561151b573d6000803e3d6000fd5b505050506040513d601f19601f8201168201806040525081019061153f9190611d78565b9050600061154d8484610e91565b9050600061156682601154610eb090919063ffffffff16565b90508281111561158c57604051639446517d60e01b8152600481018290526024016106d4565b600a546115ab906001600160a01b0388811691610100900416836117f3565b6115b3610c82565b505050505050565b6000610e9d8284611f05565b6115cf6111e1565b6107bb8282611823565b6005546107e59082610eb0565b6040516001600160a01b03808516602483015283166044820152606481018290526116519085906323b872dd60e01b906084015b60408051601f198184030181529190526020810180516001600160e01b03166001600160e01b0319909316929092179091526118d3565b50505050565b60606000611666836002611dd8565b611671906002611e19565b67ffffffffffffffff81111561168957611689611f1c565b6040519080825280601f01601f1916602001820160405280156116b3576020820181803683370190505b509050600360fc1b816000815181106116ce576116ce611d91565b60200101906001600160f81b031916908160001a905350600f60fb1b816001815181106116fd576116fd611d91565b60200101906001600160f81b031916908160001a9053506000611721846002611dd8565b61172c906001611e19565b90505b60018111156117a4576f181899199a1a9b1b9c1cb0b131b232b360811b85600f166010811061176057611760611d91565b1a60f81b82828151811061177657611776611d91565b60200101906001600160f81b031916908160001a90535060049490941c9361179d81611f32565b905061172f565b508315610e9d5760405162461bcd60e51b815260206004820181905260248201527f537472696e67733a20686578206c656e67746820696e73756666696369656e7460448201526064016106d4565b6040516001600160a01b0383166024820152604481018290526107e590849063a9059cbb60e01b9060640161161a565b61184d7ff5ddd805fa96b7c3d4f3ea55114f966ab9aad1de73aff48d008717b66678bb36836108e8565b6118c95760405162461bcd60e51b815260206004820152604160248201527f57686974656c69737443726f776473616c653a2062656e65666963696172792060448201527f646f65736e27742068617665207468652057686974656c697374656420726f6c6064820152606560f81b608482015260a4016106d4565b6107bb82826119a5565b6000611928826040518060400160405280602081526020017f5361666545524332303a206c6f772d6c6576656c2063616c6c206661696c6564815250856001600160a01b0316611a039092919063ffffffff16565b8051909150156107e557808060200190518101906119469190611f49565b6107e55760405162461bcd60e51b815260206004820152602a60248201527f5361666545524332303a204552433230206f7065726174696f6e20646964206e6044820152691bdd081cdd58d8d9595960b21b60648201526084016106d4565b6119ad61087e565b6119f95760405162461bcd60e51b815260206004820152601860248201527f54696d656443726f776473616c653a206e6f74206f70656e000000000000000060448201526064016106d4565b6107bb8282611a1a565b6060611a128484600085611a88565b949350505050565b611a248282611bb9565b600754611a3a82611a3460055490565b90610eb0565b11156107bb5760405162461bcd60e51b815260206004820152601d60248201527f43617070656443726f776473616c653a2063617020657863656564656400000060448201526064016106d4565b606082471015611ae95760405162461bcd60e51b815260206004820152602660248201527f416464726573733a20696e73756666696369656e742062616c616e636520666f6044820152651c8818d85b1b60d21b60648201526084016106d4565b6001600160a01b0385163b611b405760405162461bcd60e51b815260206004820152601d60248201527f416464726573733a2063616c6c20746f206e6f6e2d636f6e747261637400000060448201526064016106d4565b600080866001600160a01b03168587604051611b5c9190611f6b565b60006040518083038185875af1925050503d8060008114611b99576040519150601f19603f3d011682016040523d82523d6000602084013e611b9e565b606091505b5091509150611bae828286611c6f565b979650505050505050565b6001600160a01b038216611c225760405162461bcd60e51b815260206004820152602a60248201527f43726f776473616c653a2062656e656669636961727920697320746865207a65604482015269726f206164647265737360b01b60648201526084016106d4565b806107bb5760405162461bcd60e51b815260206004820152601960248201527f43726f776473616c653a20776569416d6f756e7420697320300000000000000060448201526064016106d4565b60608315611c7e575081610e9d565b825115611c8e5782518084602001fd5b8160405162461bcd60e51b81526004016106d49190611ed2565b600060208284031215611cba57600080fd5b81356001600160e01b031981168114610e9d57600080fd5b80356001600160a01b0381168114611ce957600080fd5b919050565b600060208284031215611d0057600080fd5b610e9d82611cd2565b600060208284031215611d1b57600080fd5b5035919050565b60008060408385031215611d3557600080fd5b82359150611d4560208401611cd2565b90509250929050565b60008060408385031215611d6157600080fd5b611d6a83611cd2565b946020939093013593505050565b600060208284031215611d8a57600080fd5b5051919050565b634e487b7160e01b600052603260045260246000fd5b634e487b7160e01b600052601160045260246000fd5b6000600019821415611dd157611dd1611da7565b5060010190565b6000816000190483118215151615611df257611df2611da7565b500290565b600082611e1457634e487b7160e01b600052601260045260246000fd5b500490565b60008219821115611e2c57611e2c611da7565b500190565b60005b83811015611e4c578181015183820152602001611e34565b838111156116515750506000910152565b7f416363657373436f6e74726f6c3a206163636f756e7420000000000000000000815260008351611e95816017850160208801611e31565b7001034b99036b4b9b9b4b733903937b6329607d1b6017918401918201528351611ec6816028840160208801611e31565b01602801949350505050565b6020815260008251806020840152611ef1816040850160208701611e31565b601f01601f19169190910160400192915050565b600082821015611f1757611f17611da7565b500390565b634e487b7160e01b600052604160045260246000fd5b600081611f4157611f41611da7565b506000190190565b600060208284031215611f5b57600080fd5b81518015158114610e9d57600080fd5b60008251611f7d818460208701611e31565b919091019291505056fea2646970667358221220bd0f9c5135aec1c8e6da282f195e9876c0f2d1720dbeac61e086dd27ede7273064736f6c6343000809003354696d656443726f776473616c653a206f70656e696e672074696d6520697320",
  "linkReferences": {},
  "deployedLinkReferences": {}
}