{
	"data": {
		"bytecode": {
			"linkReferences": {},
			"object": "608060405234801561001057600080fd5b50613db6806100206000396000f3fe608060405234801561001057600080fd5b50600436106101a95760003560e01c80637e913dc6116100f9578063e2f0f42d11610097578063f51321d711610071578063f51321d7146104a8578063f7c469f0146104d8578063f9079b3714610508578063f9299dd914610538576101a9565b8063e2f0f42d1461043e578063ea1bb3d51461045c578063f2fde38b1461048c576101a9565b806390be10cc116100d357806390be10cc146103a45780639ef346b4146103c2578063b75c7dc6146103f2578063c8ac75d21461040e576101a9565b80637e913dc6146103265780638af104da146103565780638da5cb5b14610386576101a9565b806340a9627f1161016657806366afd8ef1161014057806366afd8ef146102c8578063715018a6146102e45780637a1ac61e146102ee5780637df8df921461030a576101a9565b806340a9627f1461025c57806348deb4711461027a5780635a7bb69a14610298576101a9565b806313083617146101ae5780631f35bc40146101cc57806321df0da7146101e857806322f8e56614610206578063260a51e5146102225780632e1a7d4d14610240575b600080fd5b6101b6610554565b6040516101c391906127a4565b60405180910390f35b6101e660048036038101906101e19190612822565b610561565b005b6101f06105a5565b6040516101fd919061285e565b60405180910390f35b610220600480360381019061021b91906128a5565b6105cf565b005b61022a6105d9565b604051610237919061285e565b60405180910390f35b61025a600480360381019061025591906128a5565b6105ff565b005b610264610774565b60405161027191906127a4565b60405180910390f35b61028261077a565b60405161028f91906127a4565b60405180910390f35b6102b260048036038101906102ad9190612822565b610784565b6040516102bf91906127a4565b60405180910390f35b6102e260048036038101906102dd9190612908565b6107cd565b005b6102ec610b84565b005b61030860048036038101906103039190612986565b610b98565b005b610324600480360381019061031f9190612a11565b610db9565b005b610340600480360381019061033b9190612822565b611379565b60405161034d9190612bd5565b60405180910390f35b610370600480360381019061036b9190612bf1565b6114f9565b60405161037d9190612c40565b60405180910390f35b61038e61152c565b60405161039b919061285e565b60405180910390f35b6103ac611556565b6040516103b991906127a4565b60405180910390f35b6103dc60048036038101906103d79190612c5b565b61161c565b6040516103e99190612bd5565b60405180910390f35b61040c60048036038101906104079190612c5b565b611748565b005b61042860048036038101906104239190612c5b565b61199e565b60405161043591906127a4565b60405180910390f35b6104466119b6565b60405161045391906127a4565b60405180910390f35b61047660048036038101906104719190612c5b565b6119bc565b60405161048391906127a4565b60405180910390f35b6104a660048036038101906104a19190612822565b611b4e565b005b6104c260048036038101906104bd9190612bf1565b611bd2565b6040516104cf9190612bd5565b60405180910390f35b6104f260048036038101906104ed9190612822565b611bf4565b6040516104ff9190612c40565b60405180910390f35b610522600480360381019061051d91906128a5565b611c46565b60405161052f9190612c40565b60405180910390f35b610552600480360381019061054d9190612c5b565b611cb7565b005b6000609a80549050905090565b80609f60006101000a81548173ffffffffffffffffffffffffffffffffffffffff021916908373ffffffffffffffffffffffffffffffffffffffff16021790555050565b6000609760009054906101000a900473ffffffffffffffffffffffffffffffffffffffff16905090565b8060a08190555050565b609f60009054906101000a900473ffffffffffffffffffffffffffffffffffffffff1681565b60026065541415610645576040517f08c379a000000000000000000000000000000000000000000000000000000000815260040161063c90612ce5565b60405180910390fd5b600260658190555061065561202f565b803073ffffffffffffffffffffffffffffffffffffffff166390be10cc6040518163ffffffff1660e01b815260040160206040518083038186803b15801561069c57600080fd5b505afa1580156106b0573d6000803e3d6000fd5b505050506040513d601f19601f820116820180604052508101906106d49190612d1a565b1015610715576040517f08c379a000000000000000000000000000000000000000000000000000000000815260040161070c90612db9565b60405180910390fd5b61076961072061152c565b82609760009054906101000a900473ffffffffffffffffffffffffffffffffffffffff1673ffffffffffffffffffffffffffffffffffffffff166120ad9092919063ffffffff16565b600160658190555050565b60995481565b6000609c54905090565b6000609d60008373ffffffffffffffffffffffffffffffffffffffff1673ffffffffffffffffffffffffffffffffffffffff168152602001908152602001600020549050919050565b60026065541415610813576040517f08c379a000000000000000000000000000000000000000000000000000000000815260040161080a90612ce5565b60405180910390fd5b600260658190555081609b600082815260200190815260200160002060000160009054906101000a900460ff1661084957600080fd5b609b600082815260200190815260200160002060080160009054906101000a900460ff161561087757600080fd5b6000609b6000858152602001908152602001600020905060008160000160019054906101000a900473ffffffffffffffffffffffffffffffffffffffff1673ffffffffffffffffffffffffffffffffffffffff163373ffffffffffffffffffffffffffffffffffffffff1614905060006108ef61152c565b73ffffffffffffffffffffffffffffffffffffffff163373ffffffffffffffffffffffffffffffffffffffff1614905081806109285750805b610967576040517f08c379a000000000000000000000000000000000000000000000000000000000815260040161095e90612e71565b60405180910390fd5b6000610a7d8785604051806101600160405290816000820160009054906101000a900460ff161515151581526020016000820160019054906101000a900473ffffffffffffffffffffffffffffffffffffffff1673ffffffffffffffffffffffffffffffffffffffff1673ffffffffffffffffffffffffffffffffffffffff168152602001600182015481526020016002820154815260200160038201548152602001600482015481526020016005820160009054906101000a900460ff1615151515815260200160068201548152602001600782015481526020016008820160009054906101000a900460ff161515151581526020016008820160019054906101000a900460ff161515151581525050612133565b905085811015610ac2576040517f08c379a0000000000000000000000000000000000000000000000000000000008152600401610ab990612f03565b60405180910390fd5b610ad98685600701546122ac90919063ffffffff16565b846007018190555060008460000160019054906101000a900473ffffffffffffffffffffffffffffffffffffffff169050610b1f87609c546122c290919063ffffffff16565b609c81905550610b728188609760009054906101000a900473ffffffffffffffffffffffffffffffffffffffff1673ffffffffffffffffffffffffffffffffffffffff166120ad9092919063ffffffff16565b50505050505060016065819055505050565b610b8c61202f565b610b9660006122d8565b565b60008060019054906101000a900460ff16159050808015610bc95750600160008054906101000a900460ff1660ff16105b80610bf65750610bd83061239e565b158015610bf55750600160008054906101000a900460ff1660ff16145b5b610c35576040517f08c379a0000000000000000000000000000000000000000000000000000000008152600401610c2c90612f95565b60405180910390fd5b60016000806101000a81548160ff021916908360ff1602179055508015610c72576001600060016101000a81548160ff0219169083151502179055505b600073ffffffffffffffffffffffffffffffffffffffff168473ffffffffffffffffffffffffffffffffffffffff161415610cac57600080fd5b600083118015610cbc5750606483105b610cfb576040517f08c379a0000000000000000000000000000000000000000000000000000000008152600401610cf290613027565b60405180910390fd5b610d036123c1565b610d0b612422565b83609760006101000a81548173ffffffffffffffffffffffffffffffffffffffff021916908373ffffffffffffffffffffffffffffffffffffffff16021790555081609981905550826098819055508015610db35760008060016101000a81548160ff0219169083151502179055507f7f26b83ff96e1f2b6a682f133852f6798a09c465da95921460cefb38474024986001604051610daa9190613099565b60405180910390a15b50505050565b609f60009054906101000a900473ffffffffffffffffffffffffffffffffffffffff1673ffffffffffffffffffffffffffffffffffffffff163373ffffffffffffffffffffffffffffffffffffffff161480610e475750610e1861152c565b73ffffffffffffffffffffffffffffffffffffffff163373ffffffffffffffffffffffffffffffffffffffff16145b610e86576040517f08c379a0000000000000000000000000000000000000000000000000000000008152600401610e7d90613100565b60405180910390fd5b813073ffffffffffffffffffffffffffffffffffffffff166390be10cc6040518163ffffffff1660e01b815260040160206040518083038186803b158015610ecd57600080fd5b505afa158015610ee1573d6000803e3d6000fd5b505050506040513d601f19601f82011682018060405250810190610f059190612d1a565b1015610f46576040517f08c379a0000000000000000000000000000000000000000000000000000000008152600401610f3d906131b8565b60405180910390fd5b60008511610f89576040517f08c379a0000000000000000000000000000000000000000000000000000000008152600401610f809061324a565b60405180910390fd5b60008211610fcc576040517f08c379a0000000000000000000000000000000000000000000000000000000008152600401610fc3906132b6565b60405180910390fd5b6001841015611010576040517f08c379a000000000000000000000000000000000000000000000000000000000815260040161100790613348565b60405180910390fd5b60003073ffffffffffffffffffffffffffffffffffffffff1663f7c469f08a6040518263ffffffff1660e01b815260040161104b919061285e565b60206040518083038186803b15801561106357600080fd5b505afa158015611077573d6000803e3d6000fd5b505050506040513d601f19601f8201168201806040525081019061109b919061337d565b905060006110b2888a6122ac90919063ffffffff16565b90506040518061016001604052806001151581526020018b73ffffffffffffffffffffffffffffffffffffffff1681526020018281526020018a8152602001888152602001878152602001861515815260200185815260200160008152602001600015158152602001841515815250609b600084815260200190815260200160002060008201518160000160006101000a81548160ff02191690831515021790555060208201518160000160016101000a81548173ffffffffffffffffffffffffffffffffffffffff021916908373ffffffffffffffffffffffffffffffffffffffff16021790555060408201518160010155606082015181600201556080820151816003015560a0820151816004015560c08201518160050160006101000a81548160ff02191690831515021790555060e0820151816006015561010082015181600701556101208201518160080160006101000a81548160ff0219169083151502179055506101408201518160080160016101000a81548160ff02191690831515021790555090505061125284609c546122ac90919063ffffffff16565b609c81905550609a8290806001815401808255809150506001900390600052602060002001600090919091909150556000609d60008c73ffffffffffffffffffffffffffffffffffffffff1673ffffffffffffffffffffffffffffffffffffffff1681526020019081526020016000205490506112d96001826122ac90919063ffffffff16565b609d60008d73ffffffffffffffffffffffffffffffffffffffff1673ffffffffffffffffffffffffffffffffffffffff168152602001908152602001600020819055506000609e6000858152602001908152602001600020819055507f7deecc243dec36156ece079ae8e71cb3f5b8a86d4ee141e3733216e23614e0c3836040516113649190612c40565b60405180910390a15050505050505050505050565b611381612713565b609b60006113da846001609d60008873ffffffffffffffffffffffffffffffffffffffff1673ffffffffffffffffffffffffffffffffffffffff168152602001908152602001600020546113d591906133d9565b6114f9565b8152602001908152602001600020604051806101600160405290816000820160009054906101000a900460ff161515151581526020016000820160019054906101000a900473ffffffffffffffffffffffffffffffffffffffff1673ffffffffffffffffffffffffffffffffffffffff1673ffffffffffffffffffffffffffffffffffffffff168152602001600182015481526020016002820154815260200160038201548152602001600482015481526020016005820160009054906101000a900460ff1615151515815260200160068201548152602001600782015481526020016008820160009054906101000a900460ff161515151581526020016008820160019054906101000a900460ff1615151515815250509050919050565b6000828260405160200161150e929190613476565b60405160208183030381529060405280519060200120905092915050565b6000603360009054906101000a900473ffffffffffffffffffffffffffffffffffffffff16905090565b6000611617609c54609760009054906101000a900473ffffffffffffffffffffffffffffffffffffffff1673ffffffffffffffffffffffffffffffffffffffff166370a08231306040518263ffffffff1660e01b81526004016115b9919061285e565b60206040518083038186803b1580156115d157600080fd5b505afa1580156115e5573d6000803e3d6000fd5b505050506040513d601f19601f820116820180604052508101906116099190612d1a565b6122c290919063ffffffff16565b905090565b611624612713565b609b6000838152602001908152602001600020604051806101600160405290816000820160009054906101000a900460ff161515151581526020016000820160019054906101000a900473ffffffffffffffffffffffffffffffffffffffff1673ffffffffffffffffffffffffffffffffffffffff1673ffffffffffffffffffffffffffffffffffffffff168152602001600182015481526020016002820154815260200160038201548152602001600482015481526020016005820160009054906101000a900460ff1615151515815260200160068201548152602001600782015481526020016008820160009054906101000a900460ff161515151581526020016008820160019054906101000a900460ff1615151515815250509050919050565b61175061202f565b80609b600082815260200190815260200160002060000160009054906101000a900460ff1661177e57600080fd5b609b600082815260200190815260200160002060080160009054906101000a900460ff16156117ac57600080fd5b6000609b600084815260200190815260200160002090508060050160009054906101000a900460ff16611814576040517f08c379a000000000000000000000000000000000000000000000000000000000815260040161180b90613514565b60405180910390fd5b600061192a8483604051806101600160405290816000820160009054906101000a900460ff161515151581526020016000820160019054906101000a900473ffffffffffffffffffffffffffffffffffffffff1673ffffffffffffffffffffffffffffffffffffffff1673ffffffffffffffffffffffffffffffffffffffff168152602001600182015481526020016002820154815260200160038201548152602001600482015481526020016005820160009054906101000a900460ff1615151515815260200160068201548152602001600782015481526020016008820160009054906101000a900460ff161515151581526020016008820160019054906101000a900460ff161515151581525050612133565b905060008111156119405761193f84826107cd565b5b600061195d836007015484600601546122c290919063ffffffff16565b905061197481609c546122c290919063ffffffff16565b609c8190555060018360080160006101000a81548160ff0219169083151502179055505050505050565b609e6020528060005260406000206000915090505481565b60985481565b600081609b600082815260200190815260200160002060000160009054906101000a900460ff166119ec57600080fd5b609b600082815260200190815260200160002060080160009054906101000a900460ff1615611a1a57600080fd5b6000609b60008581526020019081526020016000209050611b458482604051806101600160405290816000820160009054906101000a900460ff161515151581526020016000820160019054906101000a900473ffffffffffffffffffffffffffffffffffffffff1673ffffffffffffffffffffffffffffffffffffffff1673ffffffffffffffffffffffffffffffffffffffff168152602001600182015481526020016002820154815260200160038201548152602001600482015481526020016005820160009054906101000a900460ff1615151515815260200160068201548152602001600782015481526020016008820160009054906101000a900460ff161515151581526020016008820160019054906101000a900460ff161515151581525050612133565b92505050919050565b611b5661202f565b600073ffffffffffffffffffffffffffffffffffffffff168173ffffffffffffffffffffffffffffffffffffffff161415611bc6576040517f08c379a0000000000000000000000000000000000000000000000000000000008152600401611bbd906135a6565b60405180910390fd5b611bcf816122d8565b50565b611bda612713565b611bec611be784846114f9565b61161c565b905092915050565b6000611c3f82609d60008573ffffffffffffffffffffffffffffffffffffffff1673ffffffffffffffffffffffffffffffffffffffff168152602001908152602001600020546114f9565b9050919050565b6000611c50610554565b8210611c91576040517f08c379a0000000000000000000000000000000000000000000000000000000008152600401611c8890613638565b60405180910390fd5b609a8281548110611ca557611ca4613658565b5b90600052602060002001549050919050565b60026065541415611cfd576040517f08c379a0000000000000000000000000000000000000000000000000000000008152600401611cf490612ce5565b60405180910390fd5b60026065819055506000609b6000838152602001908152602001600020905060008160000160019054906101000a900473ffffffffffffffffffffffffffffffffffffffff1673ffffffffffffffffffffffffffffffffffffffff163373ffffffffffffffffffffffffffffffffffffffff161490506000611d7d61152c565b73ffffffffffffffffffffffffffffffffffffffff163373ffffffffffffffffffffffffffffffffffffffff161490508180611db65750805b611df5576040517f08c379a0000000000000000000000000000000000000000000000000000000008152600401611dec90612e71565b60405180910390fd5b8260080160019054906101000a900460ff16611e46576040517f08c379a0000000000000000000000000000000000000000000000000000000008152600401611e3d906136f9565b60405180910390fd5b6000611e5061247b565b9050609954811015611e97576040517f08c379a0000000000000000000000000000000000000000000000000000000008152600401611e8e90613765565b60405180910390fd5b6000609e60008781526020019081526020016000205414611eed576040517f08c379a0000000000000000000000000000000000000000000000000000000008152600401611ee4906137d1565b60405180910390fd5b6000611f1b6064611f0d609854886006015461248590919063ffffffff16565b61249b90919063ffffffff16565b9050611f348186600701546122ac90919063ffffffff16565b856007018190555080609e60008881526020019081526020016000208190555060008560000160019054906101000a900473ffffffffffffffffffffffffffffffffffffffff169050611f9282609c546122c290919063ffffffff16565b609c81905550611fe58183609760009054906101000a900473ffffffffffffffffffffffffffffffffffffffff1673ffffffffffffffffffffffffffffffffffffffff166120ad9092919063ffffffff16565b7fd9215c0345f0d530c5101edea49413960423257c62dd4dcc18b5e6c0b63a02278183604051612016929190613846565b60405180910390a1505050505050600160658190555050565b6120376124b1565b73ffffffffffffffffffffffffffffffffffffffff1661205561152c565b73ffffffffffffffffffffffffffffffffffffffff16146120ab576040517f08c379a00000000000000000000000000000000000000000000000000000000081526004016120a2906138bb565b60405180910390fd5b565b61212e8363a9059cbb60e01b84846040516024016120cc9291906138db565b604051602081830303815290604052907bffffffffffffffffffffffffffffffffffffffffffffffffffffffff19166020820180517bffffffffffffffffffffffffffffffffffffffffffffffffffffffff83818316178352505050506124b9565b505050565b60008061213e61247b565b90506099548110156121545760009150506122a6565b600080609e60008781526020019081526020016000205414801561217a57508361014001515b80156121895750836101200151155b156121bd576121ba60646121ac6098548760e0015161248590919063ffffffff16565b61249b90919063ffffffff16565b90505b83604001518210806121d157508361012001515b156121e05780925050506122a6565b6121fb846080015185606001516122ac90919063ffffffff16565b82106122265761221d8461010001518560e001516122c290919063ffffffff16565b925050506122a6565b600061223f8560600151846122c290919063ffffffff16565b905060006122708660800151612262848960e0015161248590919063ffffffff16565b61249b90919063ffffffff16565b905061229c86610100015161228e85846122ac90919063ffffffff16565b6122c290919063ffffffff16565b9050809450505050505b92915050565b600081836122ba9190613904565b905092915050565b600081836122d091906133d9565b905092915050565b6000603360009054906101000a900473ffffffffffffffffffffffffffffffffffffffff16905081603360006101000a81548173ffffffffffffffffffffffffffffffffffffffff021916908373ffffffffffffffffffffffffffffffffffffffff1602179055508173ffffffffffffffffffffffffffffffffffffffff168173ffffffffffffffffffffffffffffffffffffffff167f8be0079c531659141344cd1fd0a4f28419497f9722a3daafe3b4186f6b6457e060405160405180910390a35050565b6000808273ffffffffffffffffffffffffffffffffffffffff163b119050919050565b600060019054906101000a900460ff16612410576040517f08c379a0000000000000000000000000000000000000000000000000000000008152600401612407906139cc565b60405180910390fd5b61242061241b6124b1565b6122d8565b565b600060019054906101000a900460ff16612471576040517f08c379a0000000000000000000000000000000000000000000000000000000008152600401612468906139cc565b60405180910390fd5b6001606581905550565b600060a054905090565b6000818361249391906139ec565b905092915050565b600081836124a99190613a75565b905092915050565b600033905090565b600061251b826040518060400160405280602081526020017f5361666545524332303a206c6f772d6c6576656c2063616c6c206661696c65648152508573ffffffffffffffffffffffffffffffffffffffff166125809092919063ffffffff16565b905060008151111561257b578080602001905181019061253b9190613abb565b61257a576040517f08c379a000000000000000000000000000000000000000000000000000000000815260040161257190613b5a565b60405180910390fd5b5b505050565b606061258f8484600085612598565b90509392505050565b6060824710156125dd576040517f08c379a00000000000000000000000000000000000000000000000000000000081526004016125d490613bec565b60405180910390fd5b6125e68561239e565b612625576040517f08c379a000000000000000000000000000000000000000000000000000000000815260040161261c90613c58565b60405180910390fd5b6000808673ffffffffffffffffffffffffffffffffffffffff16858760405161264e9190613cf2565b60006040518083038185875af1925050503d806000811461268b576040519150601f19603f3d011682016040523d82523d6000602084013e612690565b606091505b50915091506126a08282866126ac565b92505050949350505050565b606083156126bc5782905061270c565b6000835111156126cf5782518084602001fd5b816040517f08c379a00000000000000000000000000000000000000000000000000000000081526004016127039190613d5e565b60405180910390fd5b9392505050565b604051806101600160405280600015158152602001600073ffffffffffffffffffffffffffffffffffffffff1681526020016000815260200160008152602001600081526020016000815260200160001515815260200160008152602001600081526020016000151581526020016000151581525090565b6000819050919050565b61279e8161278b565b82525050565b60006020820190506127b96000830184612795565b92915050565b600080fd5b600073ffffffffffffffffffffffffffffffffffffffff82169050919050565b60006127ef826127c4565b9050919050565b6127ff816127e4565b811461280a57600080fd5b50565b60008135905061281c816127f6565b92915050565b600060208284031215612838576128376127bf565b5b60006128468482850161280d565b91505092915050565b612858816127e4565b82525050565b6000602082019050612873600083018461284f565b92915050565b6128828161278b565b811461288d57600080fd5b50565b60008135905061289f81612879565b92915050565b6000602082840312156128bb576128ba6127bf565b5b60006128c984828501612890565b91505092915050565b6000819050919050565b6128e5816128d2565b81146128f057600080fd5b50565b600081359050612902816128dc565b92915050565b6000806040838503121561291f5761291e6127bf565b5b600061292d858286016128f3565b925050602061293e85828601612890565b9150509250929050565b6000612953826127e4565b9050919050565b61296381612948565b811461296e57600080fd5b50565b6000813590506129808161295a565b92915050565b60008060006060848603121561299f5761299e6127bf565b5b60006129ad86828701612971565b93505060206129be86828701612890565b92505060406129cf86828701612890565b9150509250925092565b60008115159050919050565b6129ee816129d9565b81146129f957600080fd5b50565b600081359050612a0b816129e5565b92915050565b600080600080600080600080610100898b031215612a3257612a316127bf565b5b6000612a408b828c0161280d565b9850506020612a518b828c01612890565b9750506040612a628b828c01612890565b9650506060612a738b828c01612890565b9550506080612a848b828c01612890565b94505060a0612a958b828c016129fc565b93505060c0612aa68b828c01612890565b92505060e0612ab78b828c016129fc565b9150509295985092959890939650565b612ad0816129d9565b82525050565b612adf816127e4565b82525050565b612aee8161278b565b82525050565b61016082016000820151612b0b6000850182612ac7565b506020820151612b1e6020850182612ad6565b506040820151612b316040850182612ae5565b506060820151612b446060850182612ae5565b506080820151612b576080850182612ae5565b5060a0820151612b6a60a0850182612ae5565b5060c0820151612b7d60c0850182612ac7565b5060e0820151612b9060e0850182612ae5565b50610100820151612ba5610100850182612ae5565b50610120820151612bba610120850182612ac7565b50610140820151612bcf610140850182612ac7565b50505050565b600061016082019050612beb6000830184612af4565b92915050565b60008060408385031215612c0857612c076127bf565b5b6000612c168582860161280d565b9250506020612c2785828601612890565b9150509250929050565b612c3a816128d2565b82525050565b6000602082019050612c556000830184612c31565b92915050565b600060208284031215612c7157612c706127bf565b5b6000612c7f848285016128f3565b91505092915050565b600082825260208201905092915050565b7f5265656e7472616e637947756172643a207265656e7472616e742063616c6c00600082015250565b6000612ccf601f83612c88565b9150612cda82612c99565b602082019050919050565b60006020820190508181036000830152612cfe81612cc2565b9050919050565b600081519050612d1481612879565b92915050565b600060208284031215612d3057612d2f6127bf565b5b6000612d3e84828501612d05565b91505092915050565b7f546f6b656e56657374696e673a206e6f7420656e6f756768207769746864726160008201527f7761626c652066756e6473000000000000000000000000000000000000000000602082015250565b6000612da3602b83612c88565b9150612dae82612d47565b604082019050919050565b60006020820190508181036000830152612dd281612d96565b9050919050565b7f546f6b656e56657374696e673a206f6e6c792062656e6566696369617279206160008201527f6e64206f776e65722063616e2072656c656173652076657374656420746f6b6560208201527f6e73000000000000000000000000000000000000000000000000000000000000604082015250565b6000612e5b604283612c88565b9150612e6682612dd9565b606082019050919050565b60006020820190508181036000830152612e8a81612e4e565b9050919050565b7f546f6b656e56657374696e673a2063616e6e6f742072656c6561736520746f6b60008201527f656e732c206e6f7420656e6f7567682076657374656420746f6b656e73000000602082015250565b6000612eed603d83612c88565b9150612ef882612e91565b604082019050919050565b60006020820190508181036000830152612f1c81612ee0565b9050919050565b7f496e697469616c697a61626c653a20636f6e747261637420697320616c72656160008201527f647920696e697469616c697a6564000000000000000000000000000000000000602082015250565b6000612f7f602e83612c88565b9150612f8a82612f23565b604082019050919050565b60006020820190508181036000830152612fae81612f72565b9050919050565b7f5447452050657263656e74206d7573742062652067726561746572207468616e60008201527f203020616e64204c657373207468616e20313030000000000000000000000000602082015250565b6000613011603483612c88565b915061301c82612fb5565b604082019050919050565b6000602082019050818103600083015261304081613004565b9050919050565b6000819050919050565b600060ff82169050919050565b6000819050919050565b600061308361307e61307984613047565b61305e565b613051565b9050919050565b61309381613068565b82525050565b60006020820190506130ae600083018461308a565b92915050565b7f4e6f204163636573730000000000000000000000000000000000000000000000600082015250565b60006130ea600983612c88565b91506130f5826130b4565b602082019050919050565b60006020820190508181036000830152613119816130dd565b9050919050565b7f546f6b656e56657374696e673a2063616e6e6f7420637265617465207665737460008201527f696e67207363686564756c652062656361757365206e6f74207375666669636960208201527f656e7420746f6b656e7300000000000000000000000000000000000000000000604082015250565b60006131a2604a83612c88565b91506131ad82613120565b606082019050919050565b600060208201905081810360008301526131d181613195565b9050919050565b7f546f6b656e56657374696e673a206475726174696f6e206d757374206265203e60008201527f2030000000000000000000000000000000000000000000000000000000000000602082015250565b6000613234602283612c88565b915061323f826131d8565b604082019050919050565b6000602082019050818103600083015261326381613227565b9050919050565b7f546f6b656e56657374696e673a20616d6f756e74206d757374206265203e2030600082015250565b60006132a0602083612c88565b91506132ab8261326a565b602082019050919050565b600060208201905081810360008301526132cf81613293565b9050919050565b7f546f6b656e56657374696e673a20736c696365506572696f645365636f6e647360008201527f206d757374206265203e3d203100000000000000000000000000000000000000602082015250565b6000613332602d83612c88565b915061333d826132d6565b604082019050919050565b6000602082019050818103600083015261336181613325565b9050919050565b600081519050613377816128dc565b92915050565b600060208284031215613393576133926127bf565b5b60006133a184828501613368565b91505092915050565b7f4e487b7100000000000000000000000000000000000000000000000000000000600052601160045260246000fd5b60006133e48261278b565b91506133ef8361278b565b925082821015613402576134016133aa565b5b828203905092915050565b60008160601b9050919050565b60006134258261340d565b9050919050565b60006134378261341a565b9050919050565b61344f61344a826127e4565b61342c565b82525050565b6000819050919050565b61347061346b8261278b565b613455565b82525050565b6000613482828561343e565b601482019150613492828461345f565b6020820191508190509392505050565b7f546f6b656e56657374696e673a2076657374696e67206973206e6f742072657660008201527f6f6361626c650000000000000000000000000000000000000000000000000000602082015250565b60006134fe602683612c88565b9150613509826134a2565b604082019050919050565b6000602082019050818103600083015261352d816134f1565b9050919050565b7f4f776e61626c653a206e6577206f776e657220697320746865207a65726f206160008201527f6464726573730000000000000000000000000000000000000000000000000000602082015250565b6000613590602683612c88565b915061359b82613534565b604082019050919050565b600060208201905081810360008301526135bf81613583565b9050919050565b7f546f6b656e56657374696e673a20696e646578206f7574206f6620626f756e6460008201527f7300000000000000000000000000000000000000000000000000000000000000602082015250565b6000613622602183612c88565b915061362d826135c6565b604082019050919050565b6000602082019050818103600083015261365181613615565b9050919050565b7f4e487b7100000000000000000000000000000000000000000000000000000000600052603260045260246000fd5b7f52656c65617365546f6b656e41745447453a206f6e6c7920696e766573746f7260008201527f732063616e20636c61696d20746f6b656e206174205447450000000000000000602082015250565b60006136e3603883612c88565b91506136ee82613687565b604082019050919050565b60006020820190508181036000830152613712816136d6565b9050919050565b7f5447453a2074696d65206e6f7420726561636865642100000000000000000000600082015250565b600061374f601683612c88565b915061375a82613719565b602082019050919050565b6000602082019050818103600083015261377e81613742565b9050919050565b7f5447453a20546f6b656e20416c726561647920636c61696d6564000000000000600082015250565b60006137bb601a83612c88565b91506137c682613785565b602082019050919050565b600060208201905081810360008301526137ea816137ae565b9050919050565b600061380c613807613802846127c4565b61305e565b6127c4565b9050919050565b600061381e826137f1565b9050919050565b600061383082613813565b9050919050565b61384081613825565b82525050565b600060408201905061385b6000830185613837565b6138686020830184612795565b9392505050565b7f4f776e61626c653a2063616c6c6572206973206e6f7420746865206f776e6572600082015250565b60006138a5602083612c88565b91506138b08261386f565b602082019050919050565b600060208201905081810360008301526138d481613898565b9050919050565b60006040820190506138f0600083018561284f565b6138fd6020830184612795565b9392505050565b600061390f8261278b565b915061391a8361278b565b9250827fffffffffffffffffffffffffffffffffffffffffffffffffffffffffffffffff0382111561394f5761394e6133aa565b5b828201905092915050565b7f496e697469616c697a61626c653a20636f6e7472616374206973206e6f74206960008201527f6e697469616c697a696e67000000000000000000000000000000000000000000602082015250565b60006139b6602b83612c88565b91506139c18261395a565b604082019050919050565b600060208201905081810360008301526139e5816139a9565b9050919050565b60006139f78261278b565b9150613a028361278b565b9250817fffffffffffffffffffffffffffffffffffffffffffffffffffffffffffffffff0483118215151615613a3b57613a3a6133aa565b5b828202905092915050565b7f4e487b7100000000000000000000000000000000000000000000000000000000600052601260045260246000fd5b6000613a808261278b565b9150613a8b8361278b565b925082613a9b57613a9a613a46565b5b828204905092915050565b600081519050613ab5816129e5565b92915050565b600060208284031215613ad157613ad06127bf565b5b6000613adf84828501613aa6565b91505092915050565b7f5361666545524332303a204552433230206f7065726174696f6e20646964206e60008201527f6f74207375636365656400000000000000000000000000000000000000000000602082015250565b6000613b44602a83612c88565b9150613b4f82613ae8565b604082019050919050565b60006020820190508181036000830152613b7381613b37565b9050919050565b7f416464726573733a20696e73756666696369656e742062616c616e636520666f60008201527f722063616c6c0000000000000000000000000000000000000000000000000000602082015250565b6000613bd6602683612c88565b9150613be182613b7a565b604082019050919050565b60006020820190508181036000830152613c0581613bc9565b9050919050565b7f416464726573733a2063616c6c20746f206e6f6e2d636f6e7472616374000000600082015250565b6000613c42601d83612c88565b9150613c4d82613c0c565b602082019050919050565b60006020820190508181036000830152613c7181613c35565b9050919050565b600081519050919050565b600081905092915050565b60005b83811015613cac578082015181840152602081019050613c91565b83811115613cbb576000848401525b50505050565b6000613ccc82613c78565b613cd68185613c83565b9350613ce6818560208601613c8e565b80840191505092915050565b6000613cfe8284613cc1565b915081905092915050565b600081519050919050565b6000601f19601f8301169050919050565b6000613d3082613d09565b613d3a8185612c88565b9350613d4a818560208601613c8e565b613d5381613d14565b840191505092915050565b60006020820190508181036000830152613d788184613d25565b90509291505056fea2646970667358221220cca2d02d0e1e61d88a6bddf3b6084b192ca15ca837d74e74c7ee00566a99f29164736f6c63430008090033",
			"opcodes": "PUSH1 0x80 PUSH1 0x40 MSTORE CALLVALUE DUP1 ISZERO PUSH2 0x10 JUMPI PUSH1 0x0 DUP1 REVERT JUMPDEST POP PUSH2 0x3DB6 DUP1 PUSH2 0x20 PUSH1 0x0 CODECOPY PUSH1 0x0 RETURN INVALID PUSH1 0x80 PUSH1 0x40 MSTORE CALLVALUE DUP1 ISZERO PUSH2 0x10 JUMPI PUSH1 0x0 DUP1 REVERT JUMPDEST POP PUSH1 0x4 CALLDATASIZE LT PUSH2 0x1A9 JUMPI PUSH1 0x0 CALLDATALOAD PUSH1 0xE0 SHR DUP1 PUSH4 0x7E913DC6 GT PUSH2 0xF9 JUMPI DUP1 PUSH4 0xE2F0F42D GT PUSH2 0x97 JUMPI DUP1 PUSH4 0xF51321D7 GT PUSH2 0x71 JUMPI DUP1 PUSH4 0xF51321D7 EQ PUSH2 0x4A8 JUMPI DUP1 PUSH4 0xF7C469F0 EQ PUSH2 0x4D8 JUMPI DUP1 PUSH4 0xF9079B37 EQ PUSH2 0x508 JUMPI DUP1 PUSH4 0xF9299DD9 EQ PUSH2 0x538 JUMPI PUSH2 0x1A9 JUMP JUMPDEST DUP1 PUSH4 0xE2F0F42D EQ PUSH2 0x43E JUMPI DUP1 PUSH4 0xEA1BB3D5 EQ PUSH2 0x45C JUMPI DUP1 PUSH4 0xF2FDE38B EQ PUSH2 0x48C JUMPI PUSH2 0x1A9 JUMP JUMPDEST DUP1 PUSH4 0x90BE10CC GT PUSH2 0xD3 JUMPI DUP1 PUSH4 0x90BE10CC EQ PUSH2 0x3A4 JUMPI DUP1 PUSH4 0x9EF346B4 EQ PUSH2 0x3C2 JUMPI DUP1 PUSH4 0xB75C7DC6 EQ PUSH2 0x3F2 JUMPI DUP1 PUSH4 0xC8AC75D2 EQ PUSH2 0x40E JUMPI PUSH2 0x1A9 JUMP JUMPDEST DUP1 PUSH4 0x7E913DC6 EQ PUSH2 0x326 JUMPI DUP1 PUSH4 0x8AF104DA EQ PUSH2 0x356 JUMPI DUP1 PUSH4 0x8DA5CB5B EQ PUSH2 0x386 JUMPI PUSH2 0x1A9 JUMP JUMPDEST DUP1 PUSH4 0x40A9627F GT PUSH2 0x166 JUMPI DUP1 PUSH4 0x66AFD8EF GT PUSH2 0x140 JUMPI DUP1 PUSH4 0x66AFD8EF EQ PUSH2 0x2C8 JUMPI DUP1 PUSH4 0x715018A6 EQ PUSH2 0x2E4 JUMPI DUP1 PUSH4 0x7A1AC61E EQ PUSH2 0x2EE JUMPI DUP1 PUSH4 0x7DF8DF92 EQ PUSH2 0x30A JUMPI PUSH2 0x1A9 JUMP JUMPDEST DUP1 PUSH4 0x40A9627F EQ PUSH2 0x25C JUMPI DUP1 PUSH4 0x48DEB471 EQ PUSH2 0x27A JUMPI DUP1 PUSH4 0x5A7BB69A EQ PUSH2 0x298 JUMPI PUSH2 0x1A9 JUMP JUMPDEST DUP1 PUSH4 0x13083617 EQ PUSH2 0x1AE JUMPI DUP1 PUSH4 0x1F35BC40 EQ PUSH2 0x1CC JUMPI DUP1 PUSH4 0x21DF0DA7 EQ PUSH2 0x1E8 JUMPI DUP1 PUSH4 0x22F8E566 EQ PUSH2 0x206 JUMPI DUP1 PUSH4 0x260A51E5 EQ PUSH2 0x222 JUMPI DUP1 PUSH4 0x2E1A7D4D EQ PUSH2 0x240 JUMPI JUMPDEST PUSH1 0x0 DUP1 REVERT JUMPDEST PUSH2 0x1B6 PUSH2 0x554 JUMP JUMPDEST PUSH1 0x40 MLOAD PUSH2 0x1C3 SWAP2 SWAP1 PUSH2 0x27A4 JUMP JUMPDEST PUSH1 0x40 MLOAD DUP1 SWAP2 SUB SWAP1 RETURN JUMPDEST PUSH2 0x1E6 PUSH1 0x4 DUP1 CALLDATASIZE SUB DUP2 ADD SWAP1 PUSH2 0x1E1 SWAP2 SWAP1 PUSH2 0x2822 JUMP JUMPDEST PUSH2 0x561 JUMP JUMPDEST STOP JUMPDEST PUSH2 0x1F0 PUSH2 0x5A5 JUMP JUMPDEST PUSH1 0x40 MLOAD PUSH2 0x1FD SWAP2 SWAP1 PUSH2 0x285E JUMP JUMPDEST PUSH1 0x40 MLOAD DUP1 SWAP2 SUB SWAP1 RETURN JUMPDEST PUSH2 0x220 PUSH1 0x4 DUP1 CALLDATASIZE SUB DUP2 ADD SWAP1 PUSH2 0x21B SWAP2 SWAP1 PUSH2 0x28A5 JUMP JUMPDEST PUSH2 0x5CF JUMP JUMPDEST STOP JUMPDEST PUSH2 0x22A PUSH2 0x5D9 JUMP JUMPDEST PUSH1 0x40 MLOAD PUSH2 0x237 SWAP2 SWAP1 PUSH2 0x285E JUMP JUMPDEST PUSH1 0x40 MLOAD DUP1 SWAP2 SUB SWAP1 RETURN JUMPDEST PUSH2 0x25A PUSH1 0x4 DUP1 CALLDATASIZE SUB DUP2 ADD SWAP1 PUSH2 0x255 SWAP2 SWAP1 PUSH2 0x28A5 JUMP JUMPDEST PUSH2 0x5FF JUMP JUMPDEST STOP JUMPDEST PUSH2 0x264 PUSH2 0x774 JUMP JUMPDEST PUSH1 0x40 MLOAD PUSH2 0x271 SWAP2 SWAP1 PUSH2 0x27A4 JUMP JUMPDEST PUSH1 0x40 MLOAD DUP1 SWAP2 SUB SWAP1 RETURN JUMPDEST PUSH2 0x282 PUSH2 0x77A JUMP JUMPDEST PUSH1 0x40 MLOAD PUSH2 0x28F SWAP2 SWAP1 PUSH2 0x27A4 JUMP JUMPDEST PUSH1 0x40 MLOAD DUP1 SWAP2 SUB SWAP1 RETURN JUMPDEST PUSH2 0x2B2 PUSH1 0x4 DUP1 CALLDATASIZE SUB DUP2 ADD SWAP1 PUSH2 0x2AD SWAP2 SWAP1 PUSH2 0x2822 JUMP JUMPDEST PUSH2 0x784 JUMP JUMPDEST PUSH1 0x40 MLOAD PUSH2 0x2BF SWAP2 SWAP1 PUSH2 0x27A4 JUMP JUMPDEST PUSH1 0x40 MLOAD DUP1 SWAP2 SUB SWAP1 RETURN JUMPDEST PUSH2 0x2E2 PUSH1 0x4 DUP1 CALLDATASIZE SUB DUP2 ADD SWAP1 PUSH2 0x2DD SWAP2 SWAP1 PUSH2 0x2908 JUMP JUMPDEST PUSH2 0x7CD JUMP JUMPDEST STOP JUMPDEST PUSH2 0x2EC PUSH2 0xB84 JUMP JUMPDEST STOP JUMPDEST PUSH2 0x308 PUSH1 0x4 DUP1 CALLDATASIZE SUB DUP2 ADD SWAP1 PUSH2 0x303 SWAP2 SWAP1 PUSH2 0x2986 JUMP JUMPDEST PUSH2 0xB98 JUMP JUMPDEST STOP JUMPDEST PUSH2 0x324 PUSH1 0x4 DUP1 CALLDATASIZE SUB DUP2 ADD SWAP1 PUSH2 0x31F SWAP2 SWAP1 PUSH2 0x2A11 JUMP JUMPDEST PUSH2 0xDB9 JUMP JUMPDEST STOP JUMPDEST PUSH2 0x340 PUSH1 0x4 DUP1 CALLDATASIZE SUB DUP2 ADD SWAP1 PUSH2 0x33B SWAP2 SWAP1 PUSH2 0x2822 JUMP JUMPDEST PUSH2 0x1379 JUMP JUMPDEST PUSH1 0x40 MLOAD PUSH2 0x34D SWAP2 SWAP1 PUSH2 0x2BD5 JUMP JUMPDEST PUSH1 0x40 MLOAD DUP1 SWAP2 SUB SWAP1 RETURN JUMPDEST PUSH2 0x370 PUSH1 0x4 DUP1 CALLDATASIZE SUB DUP2 ADD SWAP1 PUSH2 0x36B SWAP2 SWAP1 PUSH2 0x2BF1 JUMP JUMPDEST PUSH2 0x14F9 JUMP JUMPDEST PUSH1 0x40 MLOAD PUSH2 0x37D SWAP2 SWAP1 PUSH2 0x2C40 JUMP JUMPDEST PUSH1 0x40 MLOAD DUP1 SWAP2 SUB SWAP1 RETURN JUMPDEST PUSH2 0x38E PUSH2 0x152C JUMP JUMPDEST PUSH1 0x40 MLOAD PUSH2 0x39B SWAP2 SWAP1 PUSH2 0x285E JUMP JUMPDEST PUSH1 0x40 MLOAD DUP1 SWAP2 SUB SWAP1 RETURN JUMPDEST PUSH2 0x3AC PUSH2 0x1556 JUMP JUMPDEST PUSH1 0x40 MLOAD PUSH2 0x3B9 SWAP2 SWAP1 PUSH2 0x27A4 JUMP JUMPDEST PUSH1 0x40 MLOAD DUP1 SWAP2 SUB SWAP1 RETURN JUMPDEST PUSH2 0x3DC PUSH1 0x4 DUP1 CALLDATASIZE SUB DUP2 ADD SWAP1 PUSH2 0x3D7 SWAP2 SWAP1 PUSH2 0x2C5B JUMP JUMPDEST PUSH2 0x161C JUMP JUMPDEST PUSH1 0x40 MLOAD PUSH2 0x3E9 SWAP2 SWAP1 PUSH2 0x2BD5 JUMP JUMPDEST PUSH1 0x40 MLOAD DUP1 SWAP2 SUB SWAP1 RETURN JUMPDEST PUSH2 0x40C PUSH1 0x4 DUP1 CALLDATASIZE SUB DUP2 ADD SWAP1 PUSH2 0x407 SWAP2 SWAP1 PUSH2 0x2C5B JUMP JUMPDEST PUSH2 0x1748 JUMP JUMPDEST STOP JUMPDEST PUSH2 0x428 PUSH1 0x4 DUP1 CALLDATASIZE SUB DUP2 ADD SWAP1 PUSH2 0x423 SWAP2 SWAP1 PUSH2 0x2C5B JUMP JUMPDEST PUSH2 0x199E JUMP JUMPDEST PUSH1 0x40 MLOAD PUSH2 0x435 SWAP2 SWAP1 PUSH2 0x27A4 JUMP JUMPDEST PUSH1 0x40 MLOAD DUP1 SWAP2 SUB SWAP1 RETURN JUMPDEST PUSH2 0x446 PUSH2 0x19B6 JUMP JUMPDEST PUSH1 0x40 MLOAD PUSH2 0x453 SWAP2 SWAP1 PUSH2 0x27A4 JUMP JUMPDEST PUSH1 0x40 MLOAD DUP1 SWAP2 SUB SWAP1 RETURN JUMPDEST PUSH2 0x476 PUSH1 0x4 DUP1 CALLDATASIZE SUB DUP2 ADD SWAP1 PUSH2 0x471 SWAP2 SWAP1 PUSH2 0x2C5B JUMP JUMPDEST PUSH2 0x19BC JUMP JUMPDEST PUSH1 0x40 MLOAD PUSH2 0x483 SWAP2 SWAP1 PUSH2 0x27A4 JUMP JUMPDEST PUSH1 0x40 MLOAD DUP1 SWAP2 SUB SWAP1 RETURN JUMPDEST PUSH2 0x4A6 PUSH1 0x4 DUP1 CALLDATASIZE SUB DUP2 ADD SWAP1 PUSH2 0x4A1 SWAP2 SWAP1 PUSH2 0x2822 JUMP JUMPDEST PUSH2 0x1B4E JUMP JUMPDEST STOP JUMPDEST PUSH2 0x4C2 PUSH1 0x4 DUP1 CALLDATASIZE SUB DUP2 ADD SWAP1 PUSH2 0x4BD SWAP2 SWAP1 PUSH2 0x2BF1 JUMP JUMPDEST PUSH2 0x1BD2 JUMP JUMPDEST PUSH1 0x40 MLOAD PUSH2 0x4CF SWAP2 SWAP1 PUSH2 0x2BD5 JUMP JUMPDEST PUSH1 0x40 MLOAD DUP1 SWAP2 SUB SWAP1 RETURN JUMPDEST PUSH2 0x4F2 PUSH1 0x4 DUP1 CALLDATASIZE SUB DUP2 ADD SWAP1 PUSH2 0x4ED SWAP2 SWAP1 PUSH2 0x2822 JUMP JUMPDEST PUSH2 0x1BF4 JUMP JUMPDEST PUSH1 0x40 MLOAD PUSH2 0x4FF SWAP2 SWAP1 PUSH2 0x2C40 JUMP JUMPDEST PUSH1 0x40 MLOAD DUP1 SWAP2 SUB SWAP1 RETURN JUMPDEST PUSH2 0x522 PUSH1 0x4 DUP1 CALLDATASIZE SUB DUP2 ADD SWAP1 PUSH2 0x51D SWAP2 SWAP1 PUSH2 0x28A5 JUMP JUMPDEST PUSH2 0x1C46 JUMP JUMPDEST PUSH1 0x40 MLOAD PUSH2 0x52F SWAP2 SWAP1 PUSH2 0x2C40 JUMP JUMPDEST PUSH1 0x40 MLOAD DUP1 SWAP2 SUB SWAP1 RETURN JUMPDEST PUSH2 0x552 PUSH1 0x4 DUP1 CALLDATASIZE SUB DUP2 ADD SWAP1 PUSH2 0x54D SWAP2 SWAP1 PUSH2 0x2C5B JUMP JUMPDEST PUSH2 0x1CB7 JUMP JUMPDEST STOP JUMPDEST PUSH1 0x0 PUSH1 0x9A DUP1 SLOAD SWAP1 POP SWAP1 POP SWAP1 JUMP JUMPDEST DUP1 PUSH1 0x9F PUSH1 0x0 PUSH2 0x100 EXP DUP2 SLOAD DUP2 PUSH20 0xFFFFFFFFFFFFFFFFFFFFFFFFFFFFFFFFFFFFFFFF MUL NOT AND SWAP1 DUP4 PUSH20 0xFFFFFFFFFFFFFFFFFFFFFFFFFFFFFFFFFFFFFFFF AND MUL OR SWAP1 SSTORE POP POP JUMP JUMPDEST PUSH1 0x0 PUSH1 0x97 PUSH1 0x0 SWAP1 SLOAD SWAP1 PUSH2 0x100 EXP SWAP1 DIV PUSH20 0xFFFFFFFFFFFFFFFFFFFFFFFFFFFFFFFFFFFFFFFF AND SWAP1 POP SWAP1 JUMP JUMPDEST DUP1 PUSH1 0xA0 DUP2 SWAP1 SSTORE POP POP JUMP JUMPDEST PUSH1 0x9F PUSH1 0x0 SWAP1 SLOAD SWAP1 PUSH2 0x100 EXP SWAP1 DIV PUSH20 0xFFFFFFFFFFFFFFFFFFFFFFFFFFFFFFFFFFFFFFFF AND DUP2 JUMP JUMPDEST PUSH1 0x2 PUSH1 0x65 SLOAD EQ ISZERO PUSH2 0x645 JUMPI PUSH1 0x40 MLOAD PUSH32 0x8C379A000000000000000000000000000000000000000000000000000000000 DUP2 MSTORE PUSH1 0x4 ADD PUSH2 0x63C SWAP1 PUSH2 0x2CE5 JUMP JUMPDEST PUSH1 0x40 MLOAD DUP1 SWAP2 SUB SWAP1 REVERT JUMPDEST PUSH1 0x2 PUSH1 0x65 DUP2 SWAP1 SSTORE POP PUSH2 0x655 PUSH2 0x202F JUMP JUMPDEST DUP1 ADDRESS PUSH20 0xFFFFFFFFFFFFFFFFFFFFFFFFFFFFFFFFFFFFFFFF AND PUSH4 0x90BE10CC PUSH1 0x40 MLOAD DUP2 PUSH4 0xFFFFFFFF AND PUSH1 0xE0 SHL DUP2 MSTORE PUSH1 0x4 ADD PUSH1 0x20 PUSH1 0x40 MLOAD DUP1 DUP4 SUB DUP2 DUP7 DUP1 EXTCODESIZE ISZERO DUP1 ISZERO PUSH2 0x69C JUMPI PUSH1 0x0 DUP1 REVERT JUMPDEST POP GAS STATICCALL ISZERO DUP1 ISZERO PUSH2 0x6B0 JUMPI RETURNDATASIZE PUSH1 0x0 DUP1 RETURNDATACOPY RETURNDATASIZE PUSH1 0x0 REVERT JUMPDEST POP POP POP POP PUSH1 0x40 MLOAD RETURNDATASIZE PUSH1 0x1F NOT PUSH1 0x1F DUP3 ADD AND DUP3 ADD DUP1 PUSH1 0x40 MSTORE POP DUP2 ADD SWAP1 PUSH2 0x6D4 SWAP2 SWAP1 PUSH2 0x2D1A JUMP JUMPDEST LT ISZERO PUSH2 0x715 JUMPI PUSH1 0x40 MLOAD PUSH32 0x8C379A000000000000000000000000000000000000000000000000000000000 DUP2 MSTORE PUSH1 0x4 ADD PUSH2 0x70C SWAP1 PUSH2 0x2DB9 JUMP JUMPDEST PUSH1 0x40 MLOAD DUP1 SWAP2 SUB SWAP1 REVERT JUMPDEST PUSH2 0x769 PUSH2 0x720 PUSH2 0x152C JUMP JUMPDEST DUP3 PUSH1 0x97 PUSH1 0x0 SWAP1 SLOAD SWAP1 PUSH2 0x100 EXP SWAP1 DIV PUSH20 0xFFFFFFFFFFFFFFFFFFFFFFFFFFFFFFFFFFFFFFFF AND PUSH20 0xFFFFFFFFFFFFFFFFFFFFFFFFFFFFFFFFFFFFFFFF AND PUSH2 0x20AD SWAP1 SWAP3 SWAP2 SWAP1 PUSH4 0xFFFFFFFF AND JUMP JUMPDEST PUSH1 0x1 PUSH1 0x65 DUP2 SWAP1 SSTORE POP POP JUMP JUMPDEST PUSH1 0x99 SLOAD DUP2 JUMP JUMPDEST PUSH1 0x0 PUSH1 0x9C SLOAD SWAP1 POP SWAP1 JUMP JUMPDEST PUSH1 0x0 PUSH1 0x9D PUSH1 0x0 DUP4 PUSH20 0xFFFFFFFFFFFFFFFFFFFFFFFFFFFFFFFFFFFFFFFF AND PUSH20 0xFFFFFFFFFFFFFFFFFFFFFFFFFFFFFFFFFFFFFFFF AND DUP2 MSTORE PUSH1 0x20 ADD SWAP1 DUP2 MSTORE PUSH1 0x20 ADD PUSH1 0x0 KECCAK256 SLOAD SWAP1 POP SWAP2 SWAP1 POP JUMP JUMPDEST PUSH1 0x2 PUSH1 0x65 SLOAD EQ ISZERO PUSH2 0x813 JUMPI PUSH1 0x40 MLOAD PUSH32 0x8C379A000000000000000000000000000000000000000000000000000000000 DUP2 MSTORE PUSH1 0x4 ADD PUSH2 0x80A SWAP1 PUSH2 0x2CE5 JUMP JUMPDEST PUSH1 0x40 MLOAD DUP1 SWAP2 SUB SWAP1 REVERT JUMPDEST PUSH1 0x2 PUSH1 0x65 DUP2 SWAP1 SSTORE POP DUP2 PUSH1 0x9B PUSH1 0x0 DUP3 DUP2 MSTORE PUSH1 0x20 ADD SWAP1 DUP2 MSTORE PUSH1 0x20 ADD PUSH1 0x0 KECCAK256 PUSH1 0x0 ADD PUSH1 0x0 SWAP1 SLOAD SWAP1 PUSH2 0x100 EXP SWAP1 DIV PUSH1 0xFF AND PUSH2 0x849 JUMPI PUSH1 0x0 DUP1 REVERT JUMPDEST PUSH1 0x9B PUSH1 0x0 DUP3 DUP2 MSTORE PUSH1 0x20 ADD SWAP1 DUP2 MSTORE PUSH1 0x20 ADD PUSH1 0x0 KECCAK256 PUSH1 0x8 ADD PUSH1 0x0 SWAP1 SLOAD SWAP1 PUSH2 0x100 EXP SWAP1 DIV PUSH1 0xFF AND ISZERO PUSH2 0x877 JUMPI PUSH1 0x0 DUP1 REVERT JUMPDEST PUSH1 0x0 PUSH1 0x9B PUSH1 0x0 DUP6 DUP2 MSTORE PUSH1 0x20 ADD SWAP1 DUP2 MSTORE PUSH1 0x20 ADD PUSH1 0x0 KECCAK256 SWAP1 POP PUSH1 0x0 DUP2 PUSH1 0x0 ADD PUSH1 0x1 SWAP1 SLOAD SWAP1 PUSH2 0x100 EXP SWAP1 DIV PUSH20 0xFFFFFFFFFFFFFFFFFFFFFFFFFFFFFFFFFFFFFFFF AND PUSH20 0xFFFFFFFFFFFFFFFFFFFFFFFFFFFFFFFFFFFFFFFF AND CALLER PUSH20 0xFFFFFFFFFFFFFFFFFFFFFFFFFFFFFFFFFFFFFFFF AND EQ SWAP1 POP PUSH1 0x0 PUSH2 0x8EF PUSH2 0x152C JUMP JUMPDEST PUSH20 0xFFFFFFFFFFFFFFFFFFFFFFFFFFFFFFFFFFFFFFFF AND CALLER PUSH20 0xFFFFFFFFFFFFFFFFFFFFFFFFFFFFFFFFFFFFFFFF AND EQ SWAP1 POP DUP2 DUP1 PUSH2 0x928 JUMPI POP DUP1 JUMPDEST PUSH2 0x967 JUMPI PUSH1 0x40 MLOAD PUSH32 0x8C379A000000000000000000000000000000000000000000000000000000000 DUP2 MSTORE PUSH1 0x4 ADD PUSH2 0x95E SWAP1 PUSH2 0x2E71 JUMP JUMPDEST PUSH1 0x40 MLOAD DUP1 SWAP2 SUB SWAP1 REVERT JUMPDEST PUSH1 0x0 PUSH2 0xA7D DUP8 DUP6 PUSH1 0x40 MLOAD DUP1 PUSH2 0x160 ADD PUSH1 0x40 MSTORE SWAP1 DUP2 PUSH1 0x0 DUP3 ADD PUSH1 0x0 SWAP1 SLOAD SWAP1 PUSH2 0x100 EXP SWAP1 DIV PUSH1 0xFF AND ISZERO ISZERO ISZERO ISZERO DUP2 MSTORE PUSH1 0x20 ADD PUSH1 0x0 DUP3 ADD PUSH1 0x1 SWAP1 SLOAD SWAP1 PUSH2 0x100 EXP SWAP1 DIV PUSH20 0xFFFFFFFFFFFFFFFFFFFFFFFFFFFFFFFFFFFFFFFF AND PUSH20 0xFFFFFFFFFFFFFFFFFFFFFFFFFFFFFFFFFFFFFFFF AND PUSH20 0xFFFFFFFFFFFFFFFFFFFFFFFFFFFFFFFFFFFFFFFF AND DUP2 MSTORE PUSH1 0x20 ADD PUSH1 0x1 DUP3 ADD SLOAD DUP2 MSTORE PUSH1 0x20 ADD PUSH1 0x2 DUP3 ADD SLOAD DUP2 MSTORE PUSH1 0x20 ADD PUSH1 0x3 DUP3 ADD SLOAD DUP2 MSTORE PUSH1 0x20 ADD PUSH1 0x4 DUP3 ADD SLOAD DUP2 MSTORE PUSH1 0x20 ADD PUSH1 0x5 DUP3 ADD PUSH1 0x0 SWAP1 SLOAD SWAP1 PUSH2 0x100 EXP SWAP1 DIV PUSH1 0xFF AND ISZERO ISZERO ISZERO ISZERO DUP2 MSTORE PUSH1 0x20 ADD PUSH1 0x6 DUP3 ADD SLOAD DUP2 MSTORE PUSH1 0x20 ADD PUSH1 0x7 DUP3 ADD SLOAD DUP2 MSTORE PUSH1 0x20 ADD PUSH1 0x8 DUP3 ADD PUSH1 0x0 SWAP1 SLOAD SWAP1 PUSH2 0x100 EXP SWAP1 DIV PUSH1 0xFF AND ISZERO ISZERO ISZERO ISZERO DUP2 MSTORE PUSH1 0x20 ADD PUSH1 0x8 DUP3 ADD PUSH1 0x1 SWAP1 SLOAD SWAP1 PUSH2 0x100 EXP SWAP1 DIV PUSH1 0xFF AND ISZERO ISZERO ISZERO ISZERO DUP2 MSTORE POP POP PUSH2 0x2133 JUMP JUMPDEST SWAP1 POP DUP6 DUP2 LT ISZERO PUSH2 0xAC2 JUMPI PUSH1 0x40 MLOAD PUSH32 0x8C379A000000000000000000000000000000000000000000000000000000000 DUP2 MSTORE PUSH1 0x4 ADD PUSH2 0xAB9 SWAP1 PUSH2 0x2F03 JUMP JUMPDEST PUSH1 0x40 MLOAD DUP1 SWAP2 SUB SWAP1 REVERT JUMPDEST PUSH2 0xAD9 DUP7 DUP6 PUSH1 0x7 ADD SLOAD PUSH2 0x22AC SWAP1 SWAP2 SWAP1 PUSH4 0xFFFFFFFF AND JUMP JUMPDEST DUP5 PUSH1 0x7 ADD DUP2 SWAP1 SSTORE POP PUSH1 0x0 DUP5 PUSH1 0x0 ADD PUSH1 0x1 SWAP1 SLOAD SWAP1 PUSH2 0x100 EXP SWAP1 DIV PUSH20 0xFFFFFFFFFFFFFFFFFFFFFFFFFFFFFFFFFFFFFFFF AND SWAP1 POP PUSH2 0xB1F DUP8 PUSH1 0x9C SLOAD PUSH2 0x22C2 SWAP1 SWAP2 SWAP1 PUSH4 0xFFFFFFFF AND JUMP JUMPDEST PUSH1 0x9C DUP2 SWAP1 SSTORE POP PUSH2 0xB72 DUP2 DUP9 PUSH1 0x97 PUSH1 0x0 SWAP1 SLOAD SWAP1 PUSH2 0x100 EXP SWAP1 DIV PUSH20 0xFFFFFFFFFFFFFFFFFFFFFFFFFFFFFFFFFFFFFFFF AND PUSH20 0xFFFFFFFFFFFFFFFFFFFFFFFFFFFFFFFFFFFFFFFF AND PUSH2 0x20AD SWAP1 SWAP3 SWAP2 SWAP1 PUSH4 0xFFFFFFFF AND JUMP JUMPDEST POP POP POP POP POP POP PUSH1 0x1 PUSH1 0x65 DUP2 SWAP1 SSTORE POP POP POP JUMP JUMPDEST PUSH2 0xB8C PUSH2 0x202F JUMP JUMPDEST PUSH2 0xB96 PUSH1 0x0 PUSH2 0x22D8 JUMP JUMPDEST JUMP JUMPDEST PUSH1 0x0 DUP1 PUSH1 0x1 SWAP1 SLOAD SWAP1 PUSH2 0x100 EXP SWAP1 DIV PUSH1 0xFF AND ISZERO SWAP1 POP DUP1 DUP1 ISZERO PUSH2 0xBC9 JUMPI POP PUSH1 0x1 PUSH1 0x0 DUP1 SLOAD SWAP1 PUSH2 0x100 EXP SWAP1 DIV PUSH1 0xFF AND PUSH1 0xFF AND LT JUMPDEST DUP1 PUSH2 0xBF6 JUMPI POP PUSH2 0xBD8 ADDRESS PUSH2 0x239E JUMP JUMPDEST ISZERO DUP1 ISZERO PUSH2 0xBF5 JUMPI POP PUSH1 0x1 PUSH1 0x0 DUP1 SLOAD SWAP1 PUSH2 0x100 EXP SWAP1 DIV PUSH1 0xFF AND PUSH1 0xFF AND EQ JUMPDEST JUMPDEST PUSH2 0xC35 JUMPI PUSH1 0x40 MLOAD PUSH32 0x8C379A000000000000000000000000000000000000000000000000000000000 DUP2 MSTORE PUSH1 0x4 ADD PUSH2 0xC2C SWAP1 PUSH2 0x2F95 JUMP JUMPDEST PUSH1 0x40 MLOAD DUP1 SWAP2 SUB SWAP1 REVERT JUMPDEST PUSH1 0x1 PUSH1 0x0 DUP1 PUSH2 0x100 EXP DUP2 SLOAD DUP2 PUSH1 0xFF MUL NOT AND SWAP1 DUP4 PUSH1 0xFF AND MUL OR SWAP1 SSTORE POP DUP1 ISZERO PUSH2 0xC72 JUMPI PUSH1 0x1 PUSH1 0x0 PUSH1 0x1 PUSH2 0x100 EXP DUP2 SLOAD DUP2 PUSH1 0xFF MUL NOT AND SWAP1 DUP4 ISZERO ISZERO MUL OR SWAP1 SSTORE POP JUMPDEST PUSH1 0x0 PUSH20 0xFFFFFFFFFFFFFFFFFFFFFFFFFFFFFFFFFFFFFFFF AND DUP5 PUSH20 0xFFFFFFFFFFFFFFFFFFFFFFFFFFFFFFFFFFFFFFFF AND EQ ISZERO PUSH2 0xCAC JUMPI PUSH1 0x0 DUP1 REVERT JUMPDEST PUSH1 0x0 DUP4 GT DUP1 ISZERO PUSH2 0xCBC JUMPI POP PUSH1 0x64 DUP4 LT JUMPDEST PUSH2 0xCFB JUMPI PUSH1 0x40 MLOAD PUSH32 0x8C379A000000000000000000000000000000000000000000000000000000000 DUP2 MSTORE PUSH1 0x4 ADD PUSH2 0xCF2 SWAP1 PUSH2 0x3027 JUMP JUMPDEST PUSH1 0x40 MLOAD DUP1 SWAP2 SUB SWAP1 REVERT JUMPDEST PUSH2 0xD03 PUSH2 0x23C1 JUMP JUMPDEST PUSH2 0xD0B PUSH2 0x2422 JUMP JUMPDEST DUP4 PUSH1 0x97 PUSH1 0x0 PUSH2 0x100 EXP DUP2 SLOAD DUP2 PUSH20 0xFFFFFFFFFFFFFFFFFFFFFFFFFFFFFFFFFFFFFFFF MUL NOT AND SWAP1 DUP4 PUSH20 0xFFFFFFFFFFFFFFFFFFFFFFFFFFFFFFFFFFFFFFFF AND MUL OR SWAP1 SSTORE POP DUP2 PUSH1 0x99 DUP2 SWAP1 SSTORE POP DUP3 PUSH1 0x98 DUP2 SWAP1 SSTORE POP DUP1 ISZERO PUSH2 0xDB3 JUMPI PUSH1 0x0 DUP1 PUSH1 0x1 PUSH2 0x100 EXP DUP2 SLOAD DUP2 PUSH1 0xFF MUL NOT AND SWAP1 DUP4 ISZERO ISZERO MUL OR SWAP1 SSTORE POP PUSH32 0x7F26B83FF96E1F2B6A682F133852F6798A09C465DA95921460CEFB3847402498 PUSH1 0x1 PUSH1 0x40 MLOAD PUSH2 0xDAA SWAP2 SWAP1 PUSH2 0x3099 JUMP JUMPDEST PUSH1 0x40 MLOAD DUP1 SWAP2 SUB SWAP1 LOG1 JUMPDEST POP POP POP POP JUMP JUMPDEST PUSH1 0x9F PUSH1 0x0 SWAP1 SLOAD SWAP1 PUSH2 0x100 EXP SWAP1 DIV PUSH20 0xFFFFFFFFFFFFFFFFFFFFFFFFFFFFFFFFFFFFFFFF AND PUSH20 0xFFFFFFFFFFFFFFFFFFFFFFFFFFFFFFFFFFFFFFFF AND CALLER PUSH20 0xFFFFFFFFFFFFFFFFFFFFFFFFFFFFFFFFFFFFFFFF AND EQ DUP1 PUSH2 0xE47 JUMPI POP PUSH2 0xE18 PUSH2 0x152C JUMP JUMPDEST PUSH20 0xFFFFFFFFFFFFFFFFFFFFFFFFFFFFFFFFFFFFFFFF AND CALLER PUSH20 0xFFFFFFFFFFFFFFFFFFFFFFFFFFFFFFFFFFFFFFFF AND EQ JUMPDEST PUSH2 0xE86 JUMPI PUSH1 0x40 MLOAD PUSH32 0x8C379A000000000000000000000000000000000000000000000000000000000 DUP2 MSTORE PUSH1 0x4 ADD PUSH2 0xE7D SWAP1 PUSH2 0x3100 JUMP JUMPDEST PUSH1 0x40 MLOAD DUP1 SWAP2 SUB SWAP1 REVERT JUMPDEST DUP2 ADDRESS PUSH20 0xFFFFFFFFFFFFFFFFFFFFFFFFFFFFFFFFFFFFFFFF AND PUSH4 0x90BE10CC PUSH1 0x40 MLOAD DUP2 PUSH4 0xFFFFFFFF AND PUSH1 0xE0 SHL DUP2 MSTORE PUSH1 0x4 ADD PUSH1 0x20 PUSH1 0x40 MLOAD DUP1 DUP4 SUB DUP2 DUP7 DUP1 EXTCODESIZE ISZERO DUP1 ISZERO PUSH2 0xECD JUMPI PUSH1 0x0 DUP1 REVERT JUMPDEST POP GAS STATICCALL ISZERO DUP1 ISZERO PUSH2 0xEE1 JUMPI RETURNDATASIZE PUSH1 0x0 DUP1 RETURNDATACOPY RETURNDATASIZE PUSH1 0x0 REVERT JUMPDEST POP POP POP POP PUSH1 0x40 MLOAD RETURNDATASIZE PUSH1 0x1F NOT PUSH1 0x1F DUP3 ADD AND DUP3 ADD DUP1 PUSH1 0x40 MSTORE POP DUP2 ADD SWAP1 PUSH2 0xF05 SWAP2 SWAP1 PUSH2 0x2D1A JUMP JUMPDEST LT ISZERO PUSH2 0xF46 JUMPI PUSH1 0x40 MLOAD PUSH32 0x8C379A000000000000000000000000000000000000000000000000000000000 DUP2 MSTORE PUSH1 0x4 ADD PUSH2 0xF3D SWAP1 PUSH2 0x31B8 JUMP JUMPDEST PUSH1 0x40 MLOAD DUP1 SWAP2 SUB SWAP1 REVERT JUMPDEST PUSH1 0x0 DUP6 GT PUSH2 0xF89 JUMPI PUSH1 0x40 MLOAD PUSH32 0x8C379A000000000000000000000000000000000000000000000000000000000 DUP2 MSTORE PUSH1 0x4 ADD PUSH2 0xF80 SWAP1 PUSH2 0x324A JUMP JUMPDEST PUSH1 0x40 MLOAD DUP1 SWAP2 SUB SWAP1 REVERT JUMPDEST PUSH1 0x0 DUP3 GT PUSH2 0xFCC JUMPI PUSH1 0x40 MLOAD PUSH32 0x8C379A000000000000000000000000000000000000000000000000000000000 DUP2 MSTORE PUSH1 0x4 ADD PUSH2 0xFC3 SWAP1 PUSH2 0x32B6 JUMP JUMPDEST PUSH1 0x40 MLOAD DUP1 SWAP2 SUB SWAP1 REVERT JUMPDEST PUSH1 0x1 DUP5 LT ISZERO PUSH2 0x1010 JUMPI PUSH1 0x40 MLOAD PUSH32 0x8C379A000000000000000000000000000000000000000000000000000000000 DUP2 MSTORE PUSH1 0x4 ADD PUSH2 0x1007 SWAP1 PUSH2 0x3348 JUMP JUMPDEST PUSH1 0x40 MLOAD DUP1 SWAP2 SUB SWAP1 REVERT JUMPDEST PUSH1 0x0 ADDRESS PUSH20 0xFFFFFFFFFFFFFFFFFFFFFFFFFFFFFFFFFFFFFFFF AND PUSH4 0xF7C469F0 DUP11 PUSH1 0x40 MLOAD DUP3 PUSH4 0xFFFFFFFF AND PUSH1 0xE0 SHL DUP2 MSTORE PUSH1 0x4 ADD PUSH2 0x104B SWAP2 SWAP1 PUSH2 0x285E JUMP JUMPDEST PUSH1 0x20 PUSH1 0x40 MLOAD DUP1 DUP4 SUB DUP2 DUP7 DUP1 EXTCODESIZE ISZERO DUP1 ISZERO PUSH2 0x1063 JUMPI PUSH1 0x0 DUP1 REVERT JUMPDEST POP GAS STATICCALL ISZERO DUP1 ISZERO PUSH2 0x1077 JUMPI RETURNDATASIZE PUSH1 0x0 DUP1 RETURNDATACOPY RETURNDATASIZE PUSH1 0x0 REVERT JUMPDEST POP POP POP POP PUSH1 0x40 MLOAD RETURNDATASIZE PUSH1 0x1F NOT PUSH1 0x1F DUP3 ADD AND DUP3 ADD DUP1 PUSH1 0x40 MSTORE POP DUP2 ADD SWAP1 PUSH2 0x109B SWAP2 SWAP1 PUSH2 0x337D JUMP JUMPDEST SWAP1 POP PUSH1 0x0 PUSH2 0x10B2 DUP9 DUP11 PUSH2 0x22AC SWAP1 SWAP2 SWAP1 PUSH4 0xFFFFFFFF AND JUMP JUMPDEST SWAP1 POP PUSH1 0x40 MLOAD DUP1 PUSH2 0x160 ADD PUSH1 0x40 MSTORE DUP1 PUSH1 0x1 ISZERO ISZERO DUP2 MSTORE PUSH1 0x20 ADD DUP12 PUSH20 0xFFFFFFFFFFFFFFFFFFFFFFFFFFFFFFFFFFFFFFFF AND DUP2 MSTORE PUSH1 0x20 ADD DUP3 DUP2 MSTORE PUSH1 0x20 ADD DUP11 DUP2 MSTORE PUSH1 0x20 ADD DUP9 DUP2 MSTORE PUSH1 0x20 ADD DUP8 DUP2 MSTORE PUSH1 0x20 ADD DUP7 ISZERO ISZERO DUP2 MSTORE PUSH1 0x20 ADD DUP6 DUP2 MSTORE PUSH1 0x20 ADD PUSH1 0x0 DUP2 MSTORE PUSH1 0x20 ADD PUSH1 0x0 ISZERO ISZERO DUP2 MSTORE PUSH1 0x20 ADD DUP5 ISZERO ISZERO DUP2 MSTORE POP PUSH1 0x9B PUSH1 0x0 DUP5 DUP2 MSTORE PUSH1 0x20 ADD SWAP1 DUP2 MSTORE PUSH1 0x20 ADD PUSH1 0x0 KECCAK256 PUSH1 0x0 DUP3 ADD MLOAD DUP2 PUSH1 0x0 ADD PUSH1 0x0 PUSH2 0x100 EXP DUP2 SLOAD DUP2 PUSH1 0xFF MUL NOT AND SWAP1 DUP4 ISZERO ISZERO MUL OR SWAP1 SSTORE POP PUSH1 0x20 DUP3 ADD MLOAD DUP2 PUSH1 0x0 ADD PUSH1 0x1 PUSH2 0x100 EXP DUP2 SLOAD DUP2 PUSH20 0xFFFFFFFFFFFFFFFFFFFFFFFFFFFFFFFFFFFFFFFF MUL NOT AND SWAP1 DUP4 PUSH20 0xFFFFFFFFFFFFFFFFFFFFFFFFFFFFFFFFFFFFFFFF AND MUL OR SWAP1 SSTORE POP PUSH1 0x40 DUP3 ADD MLOAD DUP2 PUSH1 0x1 ADD SSTORE PUSH1 0x60 DUP3 ADD MLOAD DUP2 PUSH1 0x2 ADD SSTORE PUSH1 0x80 DUP3 ADD MLOAD DUP2 PUSH1 0x3 ADD SSTORE PUSH1 0xA0 DUP3 ADD MLOAD DUP2 PUSH1 0x4 ADD SSTORE PUSH1 0xC0 DUP3 ADD MLOAD DUP2 PUSH1 0x5 ADD PUSH1 0x0 PUSH2 0x100 EXP DUP2 SLOAD DUP2 PUSH1 0xFF MUL NOT AND SWAP1 DUP4 ISZERO ISZERO MUL OR SWAP1 SSTORE POP PUSH1 0xE0 DUP3 ADD MLOAD DUP2 PUSH1 0x6 ADD SSTORE PUSH2 0x100 DUP3 ADD MLOAD DUP2 PUSH1 0x7 ADD SSTORE PUSH2 0x120 DUP3 ADD MLOAD DUP2 PUSH1 0x8 ADD PUSH1 0x0 PUSH2 0x100 EXP DUP2 SLOAD DUP2 PUSH1 0xFF MUL NOT AND SWAP1 DUP4 ISZERO ISZERO MUL OR SWAP1 SSTORE POP PUSH2 0x140 DUP3 ADD MLOAD DUP2 PUSH1 0x8 ADD PUSH1 0x1 PUSH2 0x100 EXP DUP2 SLOAD DUP2 PUSH1 0xFF MUL NOT AND SWAP1 DUP4 ISZERO ISZERO MUL OR SWAP1 SSTORE POP SWAP1 POP POP PUSH2 0x1252 DUP5 PUSH1 0x9C SLOAD PUSH2 0x22AC SWAP1 SWAP2 SWAP1 PUSH4 0xFFFFFFFF AND JUMP JUMPDEST PUSH1 0x9C DUP2 SWAP1 SSTORE POP PUSH1 0x9A DUP3 SWAP1 DUP1 PUSH1 0x1 DUP2 SLOAD ADD DUP1 DUP3 SSTORE DUP1 SWAP2 POP POP PUSH1 0x1 SWAP1 SUB SWAP1 PUSH1 0x0 MSTORE PUSH1 0x20 PUSH1 0x0 KECCAK256 ADD PUSH1 0x0 SWAP1 SWAP2 SWAP1 SWAP2 SWAP1 SWAP2 POP SSTORE PUSH1 0x0 PUSH1 0x9D PUSH1 0x0 DUP13 PUSH20 0xFFFFFFFFFFFFFFFFFFFFFFFFFFFFFFFFFFFFFFFF AND PUSH20 0xFFFFFFFFFFFFFFFFFFFFFFFFFFFFFFFFFFFFFFFF AND DUP2 MSTORE PUSH1 0x20 ADD SWAP1 DUP2 MSTORE PUSH1 0x20 ADD PUSH1 0x0 KECCAK256 SLOAD SWAP1 POP PUSH2 0x12D9 PUSH1 0x1 DUP3 PUSH2 0x22AC SWAP1 SWAP2 SWAP1 PUSH4 0xFFFFFFFF AND JUMP JUMPDEST PUSH1 0x9D PUSH1 0x0 DUP14 PUSH20 0xFFFFFFFFFFFFFFFFFFFFFFFFFFFFFFFFFFFFFFFF AND PUSH20 0xFFFFFFFFFFFFFFFFFFFFFFFFFFFFFFFFFFFFFFFF AND DUP2 MSTORE PUSH1 0x20 ADD SWAP1 DUP2 MSTORE PUSH1 0x20 ADD PUSH1 0x0 KECCAK256 DUP2 SWAP1 SSTORE POP PUSH1 0x0 PUSH1 0x9E PUSH1 0x0 DUP6 DUP2 MSTORE PUSH1 0x20 ADD SWAP1 DUP2 MSTORE PUSH1 0x20 ADD PUSH1 0x0 KECCAK256 DUP2 SWAP1 SSTORE POP PUSH32 0x7DEECC243DEC36156ECE079AE8E71CB3F5B8A86D4EE141E3733216E23614E0C3 DUP4 PUSH1 0x40 MLOAD PUSH2 0x1364 SWAP2 SWAP1 PUSH2 0x2C40 JUMP JUMPDEST PUSH1 0x40 MLOAD DUP1 SWAP2 SUB SWAP1 LOG1 POP POP POP POP POP POP POP POP POP POP POP JUMP JUMPDEST PUSH2 0x1381 PUSH2 0x2713 JUMP JUMPDEST PUSH1 0x9B PUSH1 0x0 PUSH2 0x13DA DUP5 PUSH1 0x1 PUSH1 0x9D PUSH1 0x0 DUP9 PUSH20 0xFFFFFFFFFFFFFFFFFFFFFFFFFFFFFFFFFFFFFFFF AND PUSH20 0xFFFFFFFFFFFFFFFFFFFFFFFFFFFFFFFFFFFFFFFF AND DUP2 MSTORE PUSH1 0x20 ADD SWAP1 DUP2 MSTORE PUSH1 0x20 ADD PUSH1 0x0 KECCAK256 SLOAD PUSH2 0x13D5 SWAP2 SWAP1 PUSH2 0x33D9 JUMP JUMPDEST PUSH2 0x14F9 JUMP JUMPDEST DUP2 MSTORE PUSH1 0x20 ADD SWAP1 DUP2 MSTORE PUSH1 0x20 ADD PUSH1 0x0 KECCAK256 PUSH1 0x40 MLOAD DUP1 PUSH2 0x160 ADD PUSH1 0x40 MSTORE SWAP1 DUP2 PUSH1 0x0 DUP3 ADD PUSH1 0x0 SWAP1 SLOAD SWAP1 PUSH2 0x100 EXP SWAP1 DIV PUSH1 0xFF AND ISZERO ISZERO ISZERO ISZERO DUP2 MSTORE PUSH1 0x20 ADD PUSH1 0x0 DUP3 ADD PUSH1 0x1 SWAP1 SLOAD SWAP1 PUSH2 0x100 EXP SWAP1 DIV PUSH20 0xFFFFFFFFFFFFFFFFFFFFFFFFFFFFFFFFFFFFFFFF AND PUSH20 0xFFFFFFFFFFFFFFFFFFFFFFFFFFFFFFFFFFFFFFFF AND PUSH20 0xFFFFFFFFFFFFFFFFFFFFFFFFFFFFFFFFFFFFFFFF AND DUP2 MSTORE PUSH1 0x20 ADD PUSH1 0x1 DUP3 ADD SLOAD DUP2 MSTORE PUSH1 0x20 ADD PUSH1 0x2 DUP3 ADD SLOAD DUP2 MSTORE PUSH1 0x20 ADD PUSH1 0x3 DUP3 ADD SLOAD DUP2 MSTORE PUSH1 0x20 ADD PUSH1 0x4 DUP3 ADD SLOAD DUP2 MSTORE PUSH1 0x20 ADD PUSH1 0x5 DUP3 ADD PUSH1 0x0 SWAP1 SLOAD SWAP1 PUSH2 0x100 EXP SWAP1 DIV PUSH1 0xFF AND ISZERO ISZERO ISZERO ISZERO DUP2 MSTORE PUSH1 0x20 ADD PUSH1 0x6 DUP3 ADD SLOAD DUP2 MSTORE PUSH1 0x20 ADD PUSH1 0x7 DUP3 ADD SLOAD DUP2 MSTORE PUSH1 0x20 ADD PUSH1 0x8 DUP3 ADD PUSH1 0x0 SWAP1 SLOAD SWAP1 PUSH2 0x100 EXP SWAP1 DIV PUSH1 0xFF AND ISZERO ISZERO ISZERO ISZERO DUP2 MSTORE PUSH1 0x20 ADD PUSH1 0x8 DUP3 ADD PUSH1 0x1 SWAP1 SLOAD SWAP1 PUSH2 0x100 EXP SWAP1 DIV PUSH1 0xFF AND ISZERO ISZERO ISZERO ISZERO DUP2 MSTORE POP POP SWAP1 POP SWAP2 SWAP1 POP JUMP JUMPDEST PUSH1 0x0 DUP3 DUP3 PUSH1 0x40 MLOAD PUSH1 0x20 ADD PUSH2 0x150E SWAP3 SWAP2 SWAP1 PUSH2 0x3476 JUMP JUMPDEST PUSH1 0x40 MLOAD PUSH1 0x20 DUP2 DUP4 SUB SUB DUP2 MSTORE SWAP1 PUSH1 0x40 MSTORE DUP1 MLOAD SWAP1 PUSH1 0x20 ADD KECCAK256 SWAP1 POP SWAP3 SWAP2 POP POP JUMP JUMPDEST PUSH1 0x0 PUSH1 0x33 PUSH1 0x0 SWAP1 SLOAD SWAP1 PUSH2 0x100 EXP SWAP1 DIV PUSH20 0xFFFFFFFFFFFFFFFFFFFFFFFFFFFFFFFFFFFFFFFF AND SWAP1 POP SWAP1 JUMP JUMPDEST PUSH1 0x0 PUSH2 0x1617 PUSH1 0x9C SLOAD PUSH1 0x97 PUSH1 0x0 SWAP1 SLOAD SWAP1 PUSH2 0x100 EXP SWAP1 DIV PUSH20 0xFFFFFFFFFFFFFFFFFFFFFFFFFFFFFFFFFFFFFFFF AND PUSH20 0xFFFFFFFFFFFFFFFFFFFFFFFFFFFFFFFFFFFFFFFF AND PUSH4 0x70A08231 ADDRESS PUSH1 0x40 MLOAD DUP3 PUSH4 0xFFFFFFFF AND PUSH1 0xE0 SHL DUP2 MSTORE PUSH1 0x4 ADD PUSH2 0x15B9 SWAP2 SWAP1 PUSH2 0x285E JUMP JUMPDEST PUSH1 0x20 PUSH1 0x40 MLOAD DUP1 DUP4 SUB DUP2 DUP7 DUP1 EXTCODESIZE ISZERO DUP1 ISZERO PUSH2 0x15D1 JUMPI PUSH1 0x0 DUP1 REVERT JUMPDEST POP GAS STATICCALL ISZERO DUP1 ISZERO PUSH2 0x15E5 JUMPI RETURNDATASIZE PUSH1 0x0 DUP1 RETURNDATACOPY RETURNDATASIZE PUSH1 0x0 REVERT JUMPDEST POP POP POP POP PUSH1 0x40 MLOAD RETURNDATASIZE PUSH1 0x1F NOT PUSH1 0x1F DUP3 ADD AND DUP3 ADD DUP1 PUSH1 0x40 MSTORE POP DUP2 ADD SWAP1 PUSH2 0x1609 SWAP2 SWAP1 PUSH2 0x2D1A JUMP JUMPDEST PUSH2 0x22C2 SWAP1 SWAP2 SWAP1 PUSH4 0xFFFFFFFF AND JUMP JUMPDEST SWAP1 POP SWAP1 JUMP JUMPDEST PUSH2 0x1624 PUSH2 0x2713 JUMP JUMPDEST PUSH1 0x9B PUSH1 0x0 DUP4 DUP2 MSTORE PUSH1 0x20 ADD SWAP1 DUP2 MSTORE PUSH1 0x20 ADD PUSH1 0x0 KECCAK256 PUSH1 0x40 MLOAD DUP1 PUSH2 0x160 ADD PUSH1 0x40 MSTORE SWAP1 DUP2 PUSH1 0x0 DUP3 ADD PUSH1 0x0 SWAP1 SLOAD SWAP1 PUSH2 0x100 EXP SWAP1 DIV PUSH1 0xFF AND ISZERO ISZERO ISZERO ISZERO DUP2 MSTORE PUSH1 0x20 ADD PUSH1 0x0 DUP3 ADD PUSH1 0x1 SWAP1 SLOAD SWAP1 PUSH2 0x100 EXP SWAP1 DIV PUSH20 0xFFFFFFFFFFFFFFFFFFFFFFFFFFFFFFFFFFFFFFFF AND PUSH20 0xFFFFFFFFFFFFFFFFFFFFFFFFFFFFFFFFFFFFFFFF AND PUSH20 0xFFFFFFFFFFFFFFFFFFFFFFFFFFFFFFFFFFFFFFFF AND DUP2 MSTORE PUSH1 0x20 ADD PUSH1 0x1 DUP3 ADD SLOAD DUP2 MSTORE PUSH1 0x20 ADD PUSH1 0x2 DUP3 ADD SLOAD DUP2 MSTORE PUSH1 0x20 ADD PUSH1 0x3 DUP3 ADD SLOAD DUP2 MSTORE PUSH1 0x20 ADD PUSH1 0x4 DUP3 ADD SLOAD DUP2 MSTORE PUSH1 0x20 ADD PUSH1 0x5 DUP3 ADD PUSH1 0x0 SWAP1 SLOAD SWAP1 PUSH2 0x100 EXP SWAP1 DIV PUSH1 0xFF AND ISZERO ISZERO ISZERO ISZERO DUP2 MSTORE PUSH1 0x20 ADD PUSH1 0x6 DUP3 ADD SLOAD DUP2 MSTORE PUSH1 0x20 ADD PUSH1 0x7 DUP3 ADD SLOAD DUP2 MSTORE PUSH1 0x20 ADD PUSH1 0x8 DUP3 ADD PUSH1 0x0 SWAP1 SLOAD SWAP1 PUSH2 0x100 EXP SWAP1 DIV PUSH1 0xFF AND ISZERO ISZERO ISZERO ISZERO DUP2 MSTORE PUSH1 0x20 ADD PUSH1 0x8 DUP3 ADD PUSH1 0x1 SWAP1 SLOAD SWAP1 PUSH2 0x100 EXP SWAP1 DIV PUSH1 0xFF AND ISZERO ISZERO ISZERO ISZERO DUP2 MSTORE POP POP SWAP1 POP SWAP2 SWAP1 POP JUMP JUMPDEST PUSH2 0x1750 PUSH2 0x202F JUMP JUMPDEST DUP1 PUSH1 0x9B PUSH1 0x0 DUP3 DUP2 MSTORE PUSH1 0x20 ADD SWAP1 DUP2 MSTORE PUSH1 0x20 ADD PUSH1 0x0 KECCAK256 PUSH1 0x0 ADD PUSH1 0x0 SWAP1 SLOAD SWAP1 PUSH2 0x100 EXP SWAP1 DIV PUSH1 0xFF AND PUSH2 0x177E JUMPI PUSH1 0x0 DUP1 REVERT JUMPDEST PUSH1 0x9B PUSH1 0x0 DUP3 DUP2 MSTORE PUSH1 0x20 ADD SWAP1 DUP2 MSTORE PUSH1 0x20 ADD PUSH1 0x0 KECCAK256 PUSH1 0x8 ADD PUSH1 0x0 SWAP1 SLOAD SWAP1 PUSH2 0x100 EXP SWAP1 DIV PUSH1 0xFF AND ISZERO PUSH2 0x17AC JUMPI PUSH1 0x0 DUP1 REVERT JUMPDEST PUSH1 0x0 PUSH1 0x9B PUSH1 0x0 DUP5 DUP2 MSTORE PUSH1 0x20 ADD SWAP1 DUP2 MSTORE PUSH1 0x20 ADD PUSH1 0x0 KECCAK256 SWAP1 POP DUP1 PUSH1 0x5 ADD PUSH1 0x0 SWAP1 SLOAD SWAP1 PUSH2 0x100 EXP SWAP1 DIV PUSH1 0xFF AND PUSH2 0x1814 JUMPI PUSH1 0x40 MLOAD PUSH32 0x8C379A000000000000000000000000000000000000000000000000000000000 DUP2 MSTORE PUSH1 0x4 ADD PUSH2 0x180B SWAP1 PUSH2 0x3514 JUMP JUMPDEST PUSH1 0x40 MLOAD DUP1 SWAP2 SUB SWAP1 REVERT JUMPDEST PUSH1 0x0 PUSH2 0x192A DUP5 DUP4 PUSH1 0x40 MLOAD DUP1 PUSH2 0x160 ADD PUSH1 0x40 MSTORE SWAP1 DUP2 PUSH1 0x0 DUP3 ADD PUSH1 0x0 SWAP1 SLOAD SWAP1 PUSH2 0x100 EXP SWAP1 DIV PUSH1 0xFF AND ISZERO ISZERO ISZERO ISZERO DUP2 MSTORE PUSH1 0x20 ADD PUSH1 0x0 DUP3 ADD PUSH1 0x1 SWAP1 SLOAD SWAP1 PUSH2 0x100 EXP SWAP1 DIV PUSH20 0xFFFFFFFFFFFFFFFFFFFFFFFFFFFFFFFFFFFFFFFF AND PUSH20 0xFFFFFFFFFFFFFFFFFFFFFFFFFFFFFFFFFFFFFFFF AND PUSH20 0xFFFFFFFFFFFFFFFFFFFFFFFFFFFFFFFFFFFFFFFF AND DUP2 MSTORE PUSH1 0x20 ADD PUSH1 0x1 DUP3 ADD SLOAD DUP2 MSTORE PUSH1 0x20 ADD PUSH1 0x2 DUP3 ADD SLOAD DUP2 MSTORE PUSH1 0x20 ADD PUSH1 0x3 DUP3 ADD SLOAD DUP2 MSTORE PUSH1 0x20 ADD PUSH1 0x4 DUP3 ADD SLOAD DUP2 MSTORE PUSH1 0x20 ADD PUSH1 0x5 DUP3 ADD PUSH1 0x0 SWAP1 SLOAD SWAP1 PUSH2 0x100 EXP SWAP1 DIV PUSH1 0xFF AND ISZERO ISZERO ISZERO ISZERO DUP2 MSTORE PUSH1 0x20 ADD PUSH1 0x6 DUP3 ADD SLOAD DUP2 MSTORE PUSH1 0x20 ADD PUSH1 0x7 DUP3 ADD SLOAD DUP2 MSTORE PUSH1 0x20 ADD PUSH1 0x8 DUP3 ADD PUSH1 0x0 SWAP1 SLOAD SWAP1 PUSH2 0x100 EXP SWAP1 DIV PUSH1 0xFF AND ISZERO ISZERO ISZERO ISZERO DUP2 MSTORE PUSH1 0x20 ADD PUSH1 0x8 DUP3 ADD PUSH1 0x1 SWAP1 SLOAD SWAP1 PUSH2 0x100 EXP SWAP1 DIV PUSH1 0xFF AND ISZERO ISZERO ISZERO ISZERO DUP2 MSTORE POP POP PUSH2 0x2133 JUMP JUMPDEST SWAP1 POP PUSH1 0x0 DUP2 GT ISZERO PUSH2 0x1940 JUMPI PUSH2 0x193F DUP5 DUP3 PUSH2 0x7CD JUMP JUMPDEST JUMPDEST PUSH1 0x0 PUSH2 0x195D DUP4 PUSH1 0x7 ADD SLOAD DUP5 PUSH1 0x6 ADD SLOAD PUSH2 0x22C2 SWAP1 SWAP2 SWAP1 PUSH4 0xFFFFFFFF AND JUMP JUMPDEST SWAP1 POP PUSH2 0x1974 DUP2 PUSH1 0x9C SLOAD PUSH2 0x22C2 SWAP1 SWAP2 SWAP1 PUSH4 0xFFFFFFFF AND JUMP JUMPDEST PUSH1 0x9C DUP2 SWAP1 SSTORE POP PUSH1 0x1 DUP4 PUSH1 0x8 ADD PUSH1 0x0 PUSH2 0x100 EXP DUP2 SLOAD DUP2 PUSH1 0xFF MUL NOT AND SWAP1 DUP4 ISZERO ISZERO MUL OR SWAP1 SSTORE POP POP POP POP POP POP JUMP JUMPDEST PUSH1 0x9E PUSH1 0x20 MSTORE DUP1 PUSH1 0x0 MSTORE PUSH1 0x40 PUSH1 0x0 KECCAK256 PUSH1 0x0 SWAP2 POP SWAP1 POP SLOAD DUP2 JUMP JUMPDEST PUSH1 0x98 SLOAD DUP2 JUMP JUMPDEST PUSH1 0x0 DUP2 PUSH1 0x9B PUSH1 0x0 DUP3 DUP2 MSTORE PUSH1 0x20 ADD SWAP1 DUP2 MSTORE PUSH1 0x20 ADD PUSH1 0x0 KECCAK256 PUSH1 0x0 ADD PUSH1 0x0 SWAP1 SLOAD SWAP1 PUSH2 0x100 EXP SWAP1 DIV PUSH1 0xFF AND PUSH2 0x19EC JUMPI PUSH1 0x0 DUP1 REVERT JUMPDEST PUSH1 0x9B PUSH1 0x0 DUP3 DUP2 MSTORE PUSH1 0x20 ADD SWAP1 DUP2 MSTORE PUSH1 0x20 ADD PUSH1 0x0 KECCAK256 PUSH1 0x8 ADD PUSH1 0x0 SWAP1 SLOAD SWAP1 PUSH2 0x100 EXP SWAP1 DIV PUSH1 0xFF AND ISZERO PUSH2 0x1A1A JUMPI PUSH1 0x0 DUP1 REVERT JUMPDEST PUSH1 0x0 PUSH1 0x9B PUSH1 0x0 DUP6 DUP2 MSTORE PUSH1 0x20 ADD SWAP1 DUP2 MSTORE PUSH1 0x20 ADD PUSH1 0x0 KECCAK256 SWAP1 POP PUSH2 0x1B45 DUP5 DUP3 PUSH1 0x40 MLOAD DUP1 PUSH2 0x160 ADD PUSH1 0x40 MSTORE SWAP1 DUP2 PUSH1 0x0 DUP3 ADD PUSH1 0x0 SWAP1 SLOAD SWAP1 PUSH2 0x100 EXP SWAP1 DIV PUSH1 0xFF AND ISZERO ISZERO ISZERO ISZERO DUP2 MSTORE PUSH1 0x20 ADD PUSH1 0x0 DUP3 ADD PUSH1 0x1 SWAP1 SLOAD SWAP1 PUSH2 0x100 EXP SWAP1 DIV PUSH20 0xFFFFFFFFFFFFFFFFFFFFFFFFFFFFFFFFFFFFFFFF AND PUSH20 0xFFFFFFFFFFFFFFFFFFFFFFFFFFFFFFFFFFFFFFFF AND PUSH20 0xFFFFFFFFFFFFFFFFFFFFFFFFFFFFFFFFFFFFFFFF AND DUP2 MSTORE PUSH1 0x20 ADD PUSH1 0x1 DUP3 ADD SLOAD DUP2 MSTORE PUSH1 0x20 ADD PUSH1 0x2 DUP3 ADD SLOAD DUP2 MSTORE PUSH1 0x20 ADD PUSH1 0x3 DUP3 ADD SLOAD DUP2 MSTORE PUSH1 0x20 ADD PUSH1 0x4 DUP3 ADD SLOAD DUP2 MSTORE PUSH1 0x20 ADD PUSH1 0x5 DUP3 ADD PUSH1 0x0 SWAP1 SLOAD SWAP1 PUSH2 0x100 EXP SWAP1 DIV PUSH1 0xFF AND ISZERO ISZERO ISZERO ISZERO DUP2 MSTORE PUSH1 0x20 ADD PUSH1 0x6 DUP3 ADD SLOAD DUP2 MSTORE PUSH1 0x20 ADD PUSH1 0x7 DUP3 ADD SLOAD DUP2 MSTORE PUSH1 0x20 ADD PUSH1 0x8 DUP3 ADD PUSH1 0x0 SWAP1 SLOAD SWAP1 PUSH2 0x100 EXP SWAP1 DIV PUSH1 0xFF AND ISZERO ISZERO ISZERO ISZERO DUP2 MSTORE PUSH1 0x20 ADD PUSH1 0x8 DUP3 ADD PUSH1 0x1 SWAP1 SLOAD SWAP1 PUSH2 0x100 EXP SWAP1 DIV PUSH1 0xFF AND ISZERO ISZERO ISZERO ISZERO DUP2 MSTORE POP POP PUSH2 0x2133 JUMP JUMPDEST SWAP3 POP POP POP SWAP2 SWAP1 POP JUMP JUMPDEST PUSH2 0x1B56 PUSH2 0x202F JUMP JUMPDEST PUSH1 0x0 PUSH20 0xFFFFFFFFFFFFFFFFFFFFFFFFFFFFFFFFFFFFFFFF AND DUP2 PUSH20 0xFFFFFFFFFFFFFFFFFFFFFFFFFFFFFFFFFFFFFFFF AND EQ ISZERO PUSH2 0x1BC6 JUMPI PUSH1 0x40 MLOAD PUSH32 0x8C379A000000000000000000000000000000000000000000000000000000000 DUP2 MSTORE PUSH1 0x4 ADD PUSH2 0x1BBD SWAP1 PUSH2 0x35A6 JUMP JUMPDEST PUSH1 0x40 MLOAD DUP1 SWAP2 SUB SWAP1 REVERT JUMPDEST PUSH2 0x1BCF DUP2 PUSH2 0x22D8 JUMP JUMPDEST POP JUMP JUMPDEST PUSH2 0x1BDA PUSH2 0x2713 JUMP JUMPDEST PUSH2 0x1BEC PUSH2 0x1BE7 DUP5 DUP5 PUSH2 0x14F9 JUMP JUMPDEST PUSH2 0x161C JUMP JUMPDEST SWAP1 POP SWAP3 SWAP2 POP POP JUMP JUMPDEST PUSH1 0x0 PUSH2 0x1C3F DUP3 PUSH1 0x9D PUSH1 0x0 DUP6 PUSH20 0xFFFFFFFFFFFFFFFFFFFFFFFFFFFFFFFFFFFFFFFF AND PUSH20 0xFFFFFFFFFFFFFFFFFFFFFFFFFFFFFFFFFFFFFFFF AND DUP2 MSTORE PUSH1 0x20 ADD SWAP1 DUP2 MSTORE PUSH1 0x20 ADD PUSH1 0x0 KECCAK256 SLOAD PUSH2 0x14F9 JUMP JUMPDEST SWAP1 POP SWAP2 SWAP1 POP JUMP JUMPDEST PUSH1 0x0 PUSH2 0x1C50 PUSH2 0x554 JUMP JUMPDEST DUP3 LT PUSH2 0x1C91 JUMPI PUSH1 0x40 MLOAD PUSH32 0x8C379A000000000000000000000000000000000000000000000000000000000 DUP2 MSTORE PUSH1 0x4 ADD PUSH2 0x1C88 SWAP1 PUSH2 0x3638 JUMP JUMPDEST PUSH1 0x40 MLOAD DUP1 SWAP2 SUB SWAP1 REVERT JUMPDEST PUSH1 0x9A DUP3 DUP2 SLOAD DUP2 LT PUSH2 0x1CA5 JUMPI PUSH2 0x1CA4 PUSH2 0x3658 JUMP JUMPDEST JUMPDEST SWAP1 PUSH1 0x0 MSTORE PUSH1 0x20 PUSH1 0x0 KECCAK256 ADD SLOAD SWAP1 POP SWAP2 SWAP1 POP JUMP JUMPDEST PUSH1 0x2 PUSH1 0x65 SLOAD EQ ISZERO PUSH2 0x1CFD JUMPI PUSH1 0x40 MLOAD PUSH32 0x8C379A000000000000000000000000000000000000000000000000000000000 DUP2 MSTORE PUSH1 0x4 ADD PUSH2 0x1CF4 SWAP1 PUSH2 0x2CE5 JUMP JUMPDEST PUSH1 0x40 MLOAD DUP1 SWAP2 SUB SWAP1 REVERT JUMPDEST PUSH1 0x2 PUSH1 0x65 DUP2 SWAP1 SSTORE POP PUSH1 0x0 PUSH1 0x9B PUSH1 0x0 DUP4 DUP2 MSTORE PUSH1 0x20 ADD SWAP1 DUP2 MSTORE PUSH1 0x20 ADD PUSH1 0x0 KECCAK256 SWAP1 POP PUSH1 0x0 DUP2 PUSH1 0x0 ADD PUSH1 0x1 SWAP1 SLOAD SWAP1 PUSH2 0x100 EXP SWAP1 DIV PUSH20 0xFFFFFFFFFFFFFFFFFFFFFFFFFFFFFFFFFFFFFFFF AND PUSH20 0xFFFFFFFFFFFFFFFFFFFFFFFFFFFFFFFFFFFFFFFF AND CALLER PUSH20 0xFFFFFFFFFFFFFFFFFFFFFFFFFFFFFFFFFFFFFFFF AND EQ SWAP1 POP PUSH1 0x0 PUSH2 0x1D7D PUSH2 0x152C JUMP JUMPDEST PUSH20 0xFFFFFFFFFFFFFFFFFFFFFFFFFFFFFFFFFFFFFFFF AND CALLER PUSH20 0xFFFFFFFFFFFFFFFFFFFFFFFFFFFFFFFFFFFFFFFF AND EQ SWAP1 POP DUP2 DUP1 PUSH2 0x1DB6 JUMPI POP DUP1 JUMPDEST PUSH2 0x1DF5 JUMPI PUSH1 0x40 MLOAD PUSH32 0x8C379A000000000000000000000000000000000000000000000000000000000 DUP2 MSTORE PUSH1 0x4 ADD PUSH2 0x1DEC SWAP1 PUSH2 0x2E71 JUMP JUMPDEST PUSH1 0x40 MLOAD DUP1 SWAP2 SUB SWAP1 REVERT JUMPDEST DUP3 PUSH1 0x8 ADD PUSH1 0x1 SWAP1 SLOAD SWAP1 PUSH2 0x100 EXP SWAP1 DIV PUSH1 0xFF AND PUSH2 0x1E46 JUMPI PUSH1 0x40 MLOAD PUSH32 0x8C379A000000000000000000000000000000000000000000000000000000000 DUP2 MSTORE PUSH1 0x4 ADD PUSH2 0x1E3D SWAP1 PUSH2 0x36F9 JUMP JUMPDEST PUSH1 0x40 MLOAD DUP1 SWAP2 SUB SWAP1 REVERT JUMPDEST PUSH1 0x0 PUSH2 0x1E50 PUSH2 0x247B JUMP JUMPDEST SWAP1 POP PUSH1 0x99 SLOAD DUP2 LT ISZERO PUSH2 0x1E97 JUMPI PUSH1 0x40 MLOAD PUSH32 0x8C379A000000000000000000000000000000000000000000000000000000000 DUP2 MSTORE PUSH1 0x4 ADD PUSH2 0x1E8E SWAP1 PUSH2 0x3765 JUMP JUMPDEST PUSH1 0x40 MLOAD DUP1 SWAP2 SUB SWAP1 REVERT JUMPDEST PUSH1 0x0 PUSH1 0x9E PUSH1 0x0 DUP8 DUP2 MSTORE PUSH1 0x20 ADD SWAP1 DUP2 MSTORE PUSH1 0x20 ADD PUSH1 0x0 KECCAK256 SLOAD EQ PUSH2 0x1EED JUMPI PUSH1 0x40 MLOAD PUSH32 0x8C379A000000000000000000000000000000000000000000000000000000000 DUP2 MSTORE PUSH1 0x4 ADD PUSH2 0x1EE4 SWAP1 PUSH2 0x37D1 JUMP JUMPDEST PUSH1 0x40 MLOAD DUP1 SWAP2 SUB SWAP1 REVERT JUMPDEST PUSH1 0x0 PUSH2 0x1F1B PUSH1 0x64 PUSH2 0x1F0D PUSH1 0x98 SLOAD DUP9 PUSH1 0x6 ADD SLOAD PUSH2 0x2485 SWAP1 SWAP2 SWAP1 PUSH4 0xFFFFFFFF AND JUMP JUMPDEST PUSH2 0x249B SWAP1 SWAP2 SWAP1 PUSH4 0xFFFFFFFF AND JUMP JUMPDEST SWAP1 POP PUSH2 0x1F34 DUP2 DUP7 PUSH1 0x7 ADD SLOAD PUSH2 0x22AC SWAP1 SWAP2 SWAP1 PUSH4 0xFFFFFFFF AND JUMP JUMPDEST DUP6 PUSH1 0x7 ADD DUP2 SWAP1 SSTORE POP DUP1 PUSH1 0x9E PUSH1 0x0 DUP9 DUP2 MSTORE PUSH1 0x20 ADD SWAP1 DUP2 MSTORE PUSH1 0x20 ADD PUSH1 0x0 KECCAK256 DUP2 SWAP1 SSTORE POP PUSH1 0x0 DUP6 PUSH1 0x0 ADD PUSH1 0x1 SWAP1 SLOAD SWAP1 PUSH2 0x100 EXP SWAP1 DIV PUSH20 0xFFFFFFFFFFFFFFFFFFFFFFFFFFFFFFFFFFFFFFFF AND SWAP1 POP PUSH2 0x1F92 DUP3 PUSH1 0x9C SLOAD PUSH2 0x22C2 SWAP1 SWAP2 SWAP1 PUSH4 0xFFFFFFFF AND JUMP JUMPDEST PUSH1 0x9C DUP2 SWAP1 SSTORE POP PUSH2 0x1FE5 DUP2 DUP4 PUSH1 0x97 PUSH1 0x0 SWAP1 SLOAD SWAP1 PUSH2 0x100 EXP SWAP1 DIV PUSH20 0xFFFFFFFFFFFFFFFFFFFFFFFFFFFFFFFFFFFFFFFF AND PUSH20 0xFFFFFFFFFFFFFFFFFFFFFFFFFFFFFFFFFFFFFFFF AND PUSH2 0x20AD SWAP1 SWAP3 SWAP2 SWAP1 PUSH4 0xFFFFFFFF AND JUMP JUMPDEST PUSH32 0xD9215C0345F0D530C5101EDEA49413960423257C62DD4DCC18B5E6C0B63A0227 DUP2 DUP4 PUSH1 0x40 MLOAD PUSH2 0x2016 SWAP3 SWAP2 SWAP1 PUSH2 0x3846 JUMP JUMPDEST PUSH1 0x40 MLOAD DUP1 SWAP2 SUB SWAP1 LOG1 POP POP POP POP POP POP PUSH1 0x1 PUSH1 0x65 DUP2 SWAP1 SSTORE POP POP JUMP JUMPDEST PUSH2 0x2037 PUSH2 0x24B1 JUMP JUMPDEST PUSH20 0xFFFFFFFFFFFFFFFFFFFFFFFFFFFFFFFFFFFFFFFF AND PUSH2 0x2055 PUSH2 0x152C JUMP JUMPDEST PUSH20 0xFFFFFFFFFFFFFFFFFFFFFFFFFFFFFFFFFFFFFFFF AND EQ PUSH2 0x20AB JUMPI PUSH1 0x40 MLOAD PUSH32 0x8C379A000000000000000000000000000000000000000000000000000000000 DUP2 MSTORE PUSH1 0x4 ADD PUSH2 0x20A2 SWAP1 PUSH2 0x38BB JUMP JUMPDEST PUSH1 0x40 MLOAD DUP1 SWAP2 SUB SWAP1 REVERT JUMPDEST JUMP JUMPDEST PUSH2 0x212E DUP4 PUSH4 0xA9059CBB PUSH1 0xE0 SHL DUP5 DUP5 PUSH1 0x40 MLOAD PUSH1 0x24 ADD PUSH2 0x20CC SWAP3 SWAP2 SWAP1 PUSH2 0x38DB JUMP JUMPDEST PUSH1 0x40 MLOAD PUSH1 0x20 DUP2 DUP4 SUB SUB DUP2 MSTORE SWAP1 PUSH1 0x40 MSTORE SWAP1 PUSH28 0xFFFFFFFFFFFFFFFFFFFFFFFFFFFFFFFFFFFFFFFFFFFFFFFFFFFFFFFF NOT AND PUSH1 0x20 DUP3 ADD DUP1 MLOAD PUSH28 0xFFFFFFFFFFFFFFFFFFFFFFFFFFFFFFFFFFFFFFFFFFFFFFFFFFFFFFFF DUP4 DUP2 DUP4 AND OR DUP4 MSTORE POP POP POP POP PUSH2 0x24B9 JUMP JUMPDEST POP POP POP JUMP JUMPDEST PUSH1 0x0 DUP1 PUSH2 0x213E PUSH2 0x247B JUMP JUMPDEST SWAP1 POP PUSH1 0x99 SLOAD DUP2 LT ISZERO PUSH2 0x2154 JUMPI PUSH1 0x0 SWAP2 POP POP PUSH2 0x22A6 JUMP JUMPDEST PUSH1 0x0 DUP1 PUSH1 0x9E PUSH1 0x0 DUP8 DUP2 MSTORE PUSH1 0x20 ADD SWAP1 DUP2 MSTORE PUSH1 0x20 ADD PUSH1 0x0 KECCAK256 SLOAD EQ DUP1 ISZERO PUSH2 0x217A JUMPI POP DUP4 PUSH2 0x140 ADD MLOAD JUMPDEST DUP1 ISZERO PUSH2 0x2189 JUMPI POP DUP4 PUSH2 0x120 ADD MLOAD ISZERO JUMPDEST ISZERO PUSH2 0x21BD JUMPI PUSH2 0x21BA PUSH1 0x64 PUSH2 0x21AC PUSH1 0x98 SLOAD DUP8 PUSH1 0xE0 ADD MLOAD PUSH2 0x2485 SWAP1 SWAP2 SWAP1 PUSH4 0xFFFFFFFF AND JUMP JUMPDEST PUSH2 0x249B SWAP1 SWAP2 SWAP1 PUSH4 0xFFFFFFFF AND JUMP JUMPDEST SWAP1 POP JUMPDEST DUP4 PUSH1 0x40 ADD MLOAD DUP3 LT DUP1 PUSH2 0x21D1 JUMPI POP DUP4 PUSH2 0x120 ADD MLOAD JUMPDEST ISZERO PUSH2 0x21E0 JUMPI DUP1 SWAP3 POP POP POP PUSH2 0x22A6 JUMP JUMPDEST PUSH2 0x21FB DUP5 PUSH1 0x80 ADD MLOAD DUP6 PUSH1 0x60 ADD MLOAD PUSH2 0x22AC SWAP1 SWAP2 SWAP1 PUSH4 0xFFFFFFFF AND JUMP JUMPDEST DUP3 LT PUSH2 0x2226 JUMPI PUSH2 0x221D DUP5 PUSH2 0x100 ADD MLOAD DUP6 PUSH1 0xE0 ADD MLOAD PUSH2 0x22C2 SWAP1 SWAP2 SWAP1 PUSH4 0xFFFFFFFF AND JUMP JUMPDEST SWAP3 POP POP POP PUSH2 0x22A6 JUMP JUMPDEST PUSH1 0x0 PUSH2 0x223F DUP6 PUSH1 0x60 ADD MLOAD DUP5 PUSH2 0x22C2 SWAP1 SWAP2 SWAP1 PUSH4 0xFFFFFFFF AND JUMP JUMPDEST SWAP1 POP PUSH1 0x0 PUSH2 0x2270 DUP7 PUSH1 0x80 ADD MLOAD PUSH2 0x2262 DUP5 DUP10 PUSH1 0xE0 ADD MLOAD PUSH2 0x2485 SWAP1 SWAP2 SWAP1 PUSH4 0xFFFFFFFF AND JUMP JUMPDEST PUSH2 0x249B SWAP1 SWAP2 SWAP1 PUSH4 0xFFFFFFFF AND JUMP JUMPDEST SWAP1 POP PUSH2 0x229C DUP7 PUSH2 0x100 ADD MLOAD PUSH2 0x228E DUP6 DUP5 PUSH2 0x22AC SWAP1 SWAP2 SWAP1 PUSH4 0xFFFFFFFF AND JUMP JUMPDEST PUSH2 0x22C2 SWAP1 SWAP2 SWAP1 PUSH4 0xFFFFFFFF AND JUMP JUMPDEST SWAP1 POP DUP1 SWAP5 POP POP POP POP POP JUMPDEST SWAP3 SWAP2 POP POP JUMP JUMPDEST PUSH1 0x0 DUP2 DUP4 PUSH2 0x22BA SWAP2 SWAP1 PUSH2 0x3904 JUMP JUMPDEST SWAP1 POP SWAP3 SWAP2 POP POP JUMP JUMPDEST PUSH1 0x0 DUP2 DUP4 PUSH2 0x22D0 SWAP2 SWAP1 PUSH2 0x33D9 JUMP JUMPDEST SWAP1 POP SWAP3 SWAP2 POP POP JUMP JUMPDEST PUSH1 0x0 PUSH1 0x33 PUSH1 0x0 SWAP1 SLOAD SWAP1 PUSH2 0x100 EXP SWAP1 DIV PUSH20 0xFFFFFFFFFFFFFFFFFFFFFFFFFFFFFFFFFFFFFFFF AND SWAP1 POP DUP2 PUSH1 0x33 PUSH1 0x0 PUSH2 0x100 EXP DUP2 SLOAD DUP2 PUSH20 0xFFFFFFFFFFFFFFFFFFFFFFFFFFFFFFFFFFFFFFFF MUL NOT AND SWAP1 DUP4 PUSH20 0xFFFFFFFFFFFFFFFFFFFFFFFFFFFFFFFFFFFFFFFF AND MUL OR SWAP1 SSTORE POP DUP2 PUSH20 0xFFFFFFFFFFFFFFFFFFFFFFFFFFFFFFFFFFFFFFFF AND DUP2 PUSH20 0xFFFFFFFFFFFFFFFFFFFFFFFFFFFFFFFFFFFFFFFF AND PUSH32 0x8BE0079C531659141344CD1FD0A4F28419497F9722A3DAAFE3B4186F6B6457E0 PUSH1 0x40 MLOAD PUSH1 0x40 MLOAD DUP1 SWAP2 SUB SWAP1 LOG3 POP POP JUMP JUMPDEST PUSH1 0x0 DUP1 DUP3 PUSH20 0xFFFFFFFFFFFFFFFFFFFFFFFFFFFFFFFFFFFFFFFF AND EXTCODESIZE GT SWAP1 POP SWAP2 SWAP1 POP JUMP JUMPDEST PUSH1 0x0 PUSH1 0x1 SWAP1 SLOAD SWAP1 PUSH2 0x100 EXP SWAP1 DIV PUSH1 0xFF AND PUSH2 0x2410 JUMPI PUSH1 0x40 MLOAD PUSH32 0x8C379A000000000000000000000000000000000000000000000000000000000 DUP2 MSTORE PUSH1 0x4 ADD PUSH2 0x2407 SWAP1 PUSH2 0x39CC JUMP JUMPDEST PUSH1 0x40 MLOAD DUP1 SWAP2 SUB SWAP1 REVERT JUMPDEST PUSH2 0x2420 PUSH2 0x241B PUSH2 0x24B1 JUMP JUMPDEST PUSH2 0x22D8 JUMP JUMPDEST JUMP JUMPDEST PUSH1 0x0 PUSH1 0x1 SWAP1 SLOAD SWAP1 PUSH2 0x100 EXP SWAP1 DIV PUSH1 0xFF AND PUSH2 0x2471 JUMPI PUSH1 0x40 MLOAD PUSH32 0x8C379A000000000000000000000000000000000000000000000000000000000 DUP2 MSTORE PUSH1 0x4 ADD PUSH2 0x2468 SWAP1 PUSH2 0x39CC JUMP JUMPDEST PUSH1 0x40 MLOAD DUP1 SWAP2 SUB SWAP1 REVERT JUMPDEST PUSH1 0x1 PUSH1 0x65 DUP2 SWAP1 SSTORE POP JUMP JUMPDEST PUSH1 0x0 PUSH1 0xA0 SLOAD SWAP1 POP SWAP1 JUMP JUMPDEST PUSH1 0x0 DUP2 DUP4 PUSH2 0x2493 SWAP2 SWAP1 PUSH2 0x39EC JUMP JUMPDEST SWAP1 POP SWAP3 SWAP2 POP POP JUMP JUMPDEST PUSH1 0x0 DUP2 DUP4 PUSH2 0x24A9 SWAP2 SWAP1 PUSH2 0x3A75 JUMP JUMPDEST SWAP1 POP SWAP3 SWAP2 POP POP JUMP JUMPDEST PUSH1 0x0 CALLER SWAP1 POP SWAP1 JUMP JUMPDEST PUSH1 0x0 PUSH2 0x251B DUP3 PUSH1 0x40 MLOAD DUP1 PUSH1 0x40 ADD PUSH1 0x40 MSTORE DUP1 PUSH1 0x20 DUP2 MSTORE PUSH1 0x20 ADD PUSH32 0x5361666545524332303A206C6F772D6C6576656C2063616C6C206661696C6564 DUP2 MSTORE POP DUP6 PUSH20 0xFFFFFFFFFFFFFFFFFFFFFFFFFFFFFFFFFFFFFFFF AND PUSH2 0x2580 SWAP1 SWAP3 SWAP2 SWAP1 PUSH4 0xFFFFFFFF AND JUMP JUMPDEST SWAP1 POP PUSH1 0x0 DUP2 MLOAD GT ISZERO PUSH2 0x257B JUMPI DUP1 DUP1 PUSH1 0x20 ADD SWAP1 MLOAD DUP2 ADD SWAP1 PUSH2 0x253B SWAP2 SWAP1 PUSH2 0x3ABB JUMP JUMPDEST PUSH2 0x257A JUMPI PUSH1 0x40 MLOAD PUSH32 0x8C379A000000000000000000000000000000000000000000000000000000000 DUP2 MSTORE PUSH1 0x4 ADD PUSH2 0x2571 SWAP1 PUSH2 0x3B5A JUMP JUMPDEST PUSH1 0x40 MLOAD DUP1 SWAP2 SUB SWAP1 REVERT JUMPDEST JUMPDEST POP POP POP JUMP JUMPDEST PUSH1 0x60 PUSH2 0x258F DUP5 DUP5 PUSH1 0x0 DUP6 PUSH2 0x2598 JUMP JUMPDEST SWAP1 POP SWAP4 SWAP3 POP POP POP JUMP JUMPDEST PUSH1 0x60 DUP3 SELFBALANCE LT ISZERO PUSH2 0x25DD JUMPI PUSH1 0x40 MLOAD PUSH32 0x8C379A000000000000000000000000000000000000000000000000000000000 DUP2 MSTORE PUSH1 0x4 ADD PUSH2 0x25D4 SWAP1 PUSH2 0x3BEC JUMP JUMPDEST PUSH1 0x40 MLOAD DUP1 SWAP2 SUB SWAP1 REVERT JUMPDEST PUSH2 0x25E6 DUP6 PUSH2 0x239E JUMP JUMPDEST PUSH2 0x2625 JUMPI PUSH1 0x40 MLOAD PUSH32 0x8C379A000000000000000000000000000000000000000000000000000000000 DUP2 MSTORE PUSH1 0x4 ADD PUSH2 0x261C SWAP1 PUSH2 0x3C58 JUMP JUMPDEST PUSH1 0x40 MLOAD DUP1 SWAP2 SUB SWAP1 REVERT JUMPDEST PUSH1 0x0 DUP1 DUP7 PUSH20 0xFFFFFFFFFFFFFFFFFFFFFFFFFFFFFFFFFFFFFFFF AND DUP6 DUP8 PUSH1 0x40 MLOAD PUSH2 0x264E SWAP2 SWAP1 PUSH2 0x3CF2 JUMP JUMPDEST PUSH1 0x0 PUSH1 0x40 MLOAD DUP1 DUP4 SUB DUP2 DUP6 DUP8 GAS CALL SWAP3 POP POP POP RETURNDATASIZE DUP1 PUSH1 0x0 DUP2 EQ PUSH2 0x268B JUMPI PUSH1 0x40 MLOAD SWAP2 POP PUSH1 0x1F NOT PUSH1 0x3F RETURNDATASIZE ADD AND DUP3 ADD PUSH1 0x40 MSTORE RETURNDATASIZE DUP3 MSTORE RETURNDATASIZE PUSH1 0x0 PUSH1 0x20 DUP5 ADD RETURNDATACOPY PUSH2 0x2690 JUMP JUMPDEST PUSH1 0x60 SWAP2 POP JUMPDEST POP SWAP2 POP SWAP2 POP PUSH2 0x26A0 DUP3 DUP3 DUP7 PUSH2 0x26AC JUMP JUMPDEST SWAP3 POP POP POP SWAP5 SWAP4 POP POP POP POP JUMP JUMPDEST PUSH1 0x60 DUP4 ISZERO PUSH2 0x26BC JUMPI DUP3 SWAP1 POP PUSH2 0x270C JUMP JUMPDEST PUSH1 0x0 DUP4 MLOAD GT ISZERO PUSH2 0x26CF JUMPI DUP3 MLOAD DUP1 DUP5 PUSH1 0x20 ADD REVERT JUMPDEST DUP2 PUSH1 0x40 MLOAD PUSH32 0x8C379A000000000000000000000000000000000000000000000000000000000 DUP2 MSTORE PUSH1 0x4 ADD PUSH2 0x2703 SWAP2 SWAP1 PUSH2 0x3D5E JUMP JUMPDEST PUSH1 0x40 MLOAD DUP1 SWAP2 SUB SWAP1 REVERT JUMPDEST SWAP4 SWAP3 POP POP POP JUMP JUMPDEST PUSH1 0x40 MLOAD DUP1 PUSH2 0x160 ADD PUSH1 0x40 MSTORE DUP1 PUSH1 0x0 ISZERO ISZERO DUP2 MSTORE PUSH1 0x20 ADD PUSH1 0x0 PUSH20 0xFFFFFFFFFFFFFFFFFFFFFFFFFFFFFFFFFFFFFFFF AND DUP2 MSTORE PUSH1 0x20 ADD PUSH1 0x0 DUP2 MSTORE PUSH1 0x20 ADD PUSH1 0x0 DUP2 MSTORE PUSH1 0x20 ADD PUSH1 0x0 DUP2 MSTORE PUSH1 0x20 ADD PUSH1 0x0 DUP2 MSTORE PUSH1 0x20 ADD PUSH1 0x0 ISZERO ISZERO DUP2 MSTORE PUSH1 0x20 ADD PUSH1 0x0 DUP2 MSTORE PUSH1 0x20 ADD PUSH1 0x0 DUP2 MSTORE PUSH1 0x20 ADD PUSH1 0x0 ISZERO ISZERO DUP2 MSTORE PUSH1 0x20 ADD PUSH1 0x0 ISZERO ISZERO DUP2 MSTORE POP SWAP1 JUMP JUMPDEST PUSH1 0x0 DUP2 SWAP1 POP SWAP2 SWAP1 POP JUMP JUMPDEST PUSH2 0x279E DUP2 PUSH2 0x278B JUMP JUMPDEST DUP3 MSTORE POP POP JUMP JUMPDEST PUSH1 0x0 PUSH1 0x20 DUP3 ADD SWAP1 POP PUSH2 0x27B9 PUSH1 0x0 DUP4 ADD DUP5 PUSH2 0x2795 JUMP JUMPDEST SWAP3 SWAP2 POP POP JUMP JUMPDEST PUSH1 0x0 DUP1 REVERT JUMPDEST PUSH1 0x0 PUSH20 0xFFFFFFFFFFFFFFFFFFFFFFFFFFFFFFFFFFFFFFFF DUP3 AND SWAP1 POP SWAP2 SWAP1 POP JUMP JUMPDEST PUSH1 0x0 PUSH2 0x27EF DUP3 PUSH2 0x27C4 JUMP JUMPDEST SWAP1 POP SWAP2 SWAP1 POP JUMP JUMPDEST PUSH2 0x27FF DUP2 PUSH2 0x27E4 JUMP JUMPDEST DUP2 EQ PUSH2 0x280A JUMPI PUSH1 0x0 DUP1 REVERT JUMPDEST POP JUMP JUMPDEST PUSH1 0x0 DUP2 CALLDATALOAD SWAP1 POP PUSH2 0x281C DUP2 PUSH2 0x27F6 JUMP JUMPDEST SWAP3 SWAP2 POP POP JUMP JUMPDEST PUSH1 0x0 PUSH1 0x20 DUP3 DUP5 SUB SLT ISZERO PUSH2 0x2838 JUMPI PUSH2 0x2837 PUSH2 0x27BF JUMP JUMPDEST JUMPDEST PUSH1 0x0 PUSH2 0x2846 DUP5 DUP3 DUP6 ADD PUSH2 0x280D JUMP JUMPDEST SWAP2 POP POP SWAP3 SWAP2 POP POP JUMP JUMPDEST PUSH2 0x2858 DUP2 PUSH2 0x27E4 JUMP JUMPDEST DUP3 MSTORE POP POP JUMP JUMPDEST PUSH1 0x0 PUSH1 0x20 DUP3 ADD SWAP1 POP PUSH2 0x2873 PUSH1 0x0 DUP4 ADD DUP5 PUSH2 0x284F JUMP JUMPDEST SWAP3 SWAP2 POP POP JUMP JUMPDEST PUSH2 0x2882 DUP2 PUSH2 0x278B JUMP JUMPDEST DUP2 EQ PUSH2 0x288D JUMPI PUSH1 0x0 DUP1 REVERT JUMPDEST POP JUMP JUMPDEST PUSH1 0x0 DUP2 CALLDATALOAD SWAP1 POP PUSH2 0x289F DUP2 PUSH2 0x2879 JUMP JUMPDEST SWAP3 SWAP2 POP POP JUMP JUMPDEST PUSH1 0x0 PUSH1 0x20 DUP3 DUP5 SUB SLT ISZERO PUSH2 0x28BB JUMPI PUSH2 0x28BA PUSH2 0x27BF JUMP JUMPDEST JUMPDEST PUSH1 0x0 PUSH2 0x28C9 DUP5 DUP3 DUP6 ADD PUSH2 0x2890 JUMP JUMPDEST SWAP2 POP POP SWAP3 SWAP2 POP POP JUMP JUMPDEST PUSH1 0x0 DUP2 SWAP1 POP SWAP2 SWAP1 POP JUMP JUMPDEST PUSH2 0x28E5 DUP2 PUSH2 0x28D2 JUMP JUMPDEST DUP2 EQ PUSH2 0x28F0 JUMPI PUSH1 0x0 DUP1 REVERT JUMPDEST POP JUMP JUMPDEST PUSH1 0x0 DUP2 CALLDATALOAD SWAP1 POP PUSH2 0x2902 DUP2 PUSH2 0x28DC JUMP JUMPDEST SWAP3 SWAP2 POP POP JUMP JUMPDEST PUSH1 0x0 DUP1 PUSH1 0x40 DUP4 DUP6 SUB SLT ISZERO PUSH2 0x291F JUMPI PUSH2 0x291E PUSH2 0x27BF JUMP JUMPDEST JUMPDEST PUSH1 0x0 PUSH2 0x292D DUP6 DUP3 DUP7 ADD PUSH2 0x28F3 JUMP JUMPDEST SWAP3 POP POP PUSH1 0x20 PUSH2 0x293E DUP6 DUP3 DUP7 ADD PUSH2 0x2890 JUMP JUMPDEST SWAP2 POP POP SWAP3 POP SWAP3 SWAP1 POP JUMP JUMPDEST PUSH1 0x0 PUSH2 0x2953 DUP3 PUSH2 0x27E4 JUMP JUMPDEST SWAP1 POP SWAP2 SWAP1 POP JUMP JUMPDEST PUSH2 0x2963 DUP2 PUSH2 0x2948 JUMP JUMPDEST DUP2 EQ PUSH2 0x296E JUMPI PUSH1 0x0 DUP1 REVERT JUMPDEST POP JUMP JUMPDEST PUSH1 0x0 DUP2 CALLDATALOAD SWAP1 POP PUSH2 0x2980 DUP2 PUSH2 0x295A JUMP JUMPDEST SWAP3 SWAP2 POP POP JUMP JUMPDEST PUSH1 0x0 DUP1 PUSH1 0x0 PUSH1 0x60 DUP5 DUP7 SUB SLT ISZERO PUSH2 0x299F JUMPI PUSH2 0x299E PUSH2 0x27BF JUMP JUMPDEST JUMPDEST PUSH1 0x0 PUSH2 0x29AD DUP7 DUP3 DUP8 ADD PUSH2 0x2971 JUMP JUMPDEST SWAP4 POP POP PUSH1 0x20 PUSH2 0x29BE DUP7 DUP3 DUP8 ADD PUSH2 0x2890 JUMP JUMPDEST SWAP3 POP POP PUSH1 0x40 PUSH2 0x29CF DUP7 DUP3 DUP8 ADD PUSH2 0x2890 JUMP JUMPDEST SWAP2 POP POP SWAP3 POP SWAP3 POP SWAP3 JUMP JUMPDEST PUSH1 0x0 DUP2 ISZERO ISZERO SWAP1 POP SWAP2 SWAP1 POP JUMP JUMPDEST PUSH2 0x29EE DUP2 PUSH2 0x29D9 JUMP JUMPDEST DUP2 EQ PUSH2 0x29F9 JUMPI PUSH1 0x0 DUP1 REVERT JUMPDEST POP JUMP JUMPDEST PUSH1 0x0 DUP2 CALLDATALOAD SWAP1 POP PUSH2 0x2A0B DUP2 PUSH2 0x29E5 JUMP JUMPDEST SWAP3 SWAP2 POP POP JUMP JUMPDEST PUSH1 0x0 DUP1 PUSH1 0x0 DUP1 PUSH1 0x0 DUP1 PUSH1 0x0 DUP1 PUSH2 0x100 DUP10 DUP12 SUB SLT ISZERO PUSH2 0x2A32 JUMPI PUSH2 0x2A31 PUSH2 0x27BF JUMP JUMPDEST JUMPDEST PUSH1 0x0 PUSH2 0x2A40 DUP12 DUP3 DUP13 ADD PUSH2 0x280D JUMP JUMPDEST SWAP9 POP POP PUSH1 0x20 PUSH2 0x2A51 DUP12 DUP3 DUP13 ADD PUSH2 0x2890 JUMP JUMPDEST SWAP8 POP POP PUSH1 0x40 PUSH2 0x2A62 DUP12 DUP3 DUP13 ADD PUSH2 0x2890 JUMP JUMPDEST SWAP7 POP POP PUSH1 0x60 PUSH2 0x2A73 DUP12 DUP3 DUP13 ADD PUSH2 0x2890 JUMP JUMPDEST SWAP6 POP POP PUSH1 0x80 PUSH2 0x2A84 DUP12 DUP3 DUP13 ADD PUSH2 0x2890 JUMP JUMPDEST SWAP5 POP POP PUSH1 0xA0 PUSH2 0x2A95 DUP12 DUP3 DUP13 ADD PUSH2 0x29FC JUMP JUMPDEST SWAP4 POP POP PUSH1 0xC0 PUSH2 0x2AA6 DUP12 DUP3 DUP13 ADD PUSH2 0x2890 JUMP JUMPDEST SWAP3 POP POP PUSH1 0xE0 PUSH2 0x2AB7 DUP12 DUP3 DUP13 ADD PUSH2 0x29FC JUMP JUMPDEST SWAP2 POP POP SWAP3 SWAP6 SWAP9 POP SWAP3 SWAP6 SWAP9 SWAP1 SWAP4 SWAP7 POP JUMP JUMPDEST PUSH2 0x2AD0 DUP2 PUSH2 0x29D9 JUMP JUMPDEST DUP3 MSTORE POP POP JUMP JUMPDEST PUSH2 0x2ADF DUP2 PUSH2 0x27E4 JUMP JUMPDEST DUP3 MSTORE POP POP JUMP JUMPDEST PUSH2 0x2AEE DUP2 PUSH2 0x278B JUMP JUMPDEST DUP3 MSTORE POP POP JUMP JUMPDEST PUSH2 0x160 DUP3 ADD PUSH1 0x0 DUP3 ADD MLOAD PUSH2 0x2B0B PUSH1 0x0 DUP6 ADD DUP3 PUSH2 0x2AC7 JUMP JUMPDEST POP PUSH1 0x20 DUP3 ADD MLOAD PUSH2 0x2B1E PUSH1 0x20 DUP6 ADD DUP3 PUSH2 0x2AD6 JUMP JUMPDEST POP PUSH1 0x40 DUP3 ADD MLOAD PUSH2 0x2B31 PUSH1 0x40 DUP6 ADD DUP3 PUSH2 0x2AE5 JUMP JUMPDEST POP PUSH1 0x60 DUP3 ADD MLOAD PUSH2 0x2B44 PUSH1 0x60 DUP6 ADD DUP3 PUSH2 0x2AE5 JUMP JUMPDEST POP PUSH1 0x80 DUP3 ADD MLOAD PUSH2 0x2B57 PUSH1 0x80 DUP6 ADD DUP3 PUSH2 0x2AE5 JUMP JUMPDEST POP PUSH1 0xA0 DUP3 ADD MLOAD PUSH2 0x2B6A PUSH1 0xA0 DUP6 ADD DUP3 PUSH2 0x2AE5 JUMP JUMPDEST POP PUSH1 0xC0 DUP3 ADD MLOAD PUSH2 0x2B7D PUSH1 0xC0 DUP6 ADD DUP3 PUSH2 0x2AC7 JUMP JUMPDEST POP PUSH1 0xE0 DUP3 ADD MLOAD PUSH2 0x2B90 PUSH1 0xE0 DUP6 ADD DUP3 PUSH2 0x2AE5 JUMP JUMPDEST POP PUSH2 0x100 DUP3 ADD MLOAD PUSH2 0x2BA5 PUSH2 0x100 DUP6 ADD DUP3 PUSH2 0x2AE5 JUMP JUMPDEST POP PUSH2 0x120 DUP3 ADD MLOAD PUSH2 0x2BBA PUSH2 0x120 DUP6 ADD DUP3 PUSH2 0x2AC7 JUMP JUMPDEST POP PUSH2 0x140 DUP3 ADD MLOAD PUSH2 0x2BCF PUSH2 0x140 DUP6 ADD DUP3 PUSH2 0x2AC7 JUMP JUMPDEST POP POP POP POP JUMP JUMPDEST PUSH1 0x0 PUSH2 0x160 DUP3 ADD SWAP1 POP PUSH2 0x2BEB PUSH1 0x0 DUP4 ADD DUP5 PUSH2 0x2AF4 JUMP JUMPDEST SWAP3 SWAP2 POP POP JUMP JUMPDEST PUSH1 0x0 DUP1 PUSH1 0x40 DUP4 DUP6 SUB SLT ISZERO PUSH2 0x2C08 JUMPI PUSH2 0x2C07 PUSH2 0x27BF JUMP JUMPDEST JUMPDEST PUSH1 0x0 PUSH2 0x2C16 DUP6 DUP3 DUP7 ADD PUSH2 0x280D JUMP JUMPDEST SWAP3 POP POP PUSH1 0x20 PUSH2 0x2C27 DUP6 DUP3 DUP7 ADD PUSH2 0x2890 JUMP JUMPDEST SWAP2 POP POP SWAP3 POP SWAP3 SWAP1 POP JUMP JUMPDEST PUSH2 0x2C3A DUP2 PUSH2 0x28D2 JUMP JUMPDEST DUP3 MSTORE POP POP JUMP JUMPDEST PUSH1 0x0 PUSH1 0x20 DUP3 ADD SWAP1 POP PUSH2 0x2C55 PUSH1 0x0 DUP4 ADD DUP5 PUSH2 0x2C31 JUMP JUMPDEST SWAP3 SWAP2 POP POP JUMP JUMPDEST PUSH1 0x0 PUSH1 0x20 DUP3 DUP5 SUB SLT ISZERO PUSH2 0x2C71 JUMPI PUSH2 0x2C70 PUSH2 0x27BF JUMP JUMPDEST JUMPDEST PUSH1 0x0 PUSH2 0x2C7F DUP5 DUP3 DUP6 ADD PUSH2 0x28F3 JUMP JUMPDEST SWAP2 POP POP SWAP3 SWAP2 POP POP JUMP JUMPDEST PUSH1 0x0 DUP3 DUP3 MSTORE PUSH1 0x20 DUP3 ADD SWAP1 POP SWAP3 SWAP2 POP POP JUMP JUMPDEST PUSH32 0x5265656E7472616E637947756172643A207265656E7472616E742063616C6C00 PUSH1 0x0 DUP3 ADD MSTORE POP JUMP JUMPDEST PUSH1 0x0 PUSH2 0x2CCF PUSH1 0x1F DUP4 PUSH2 0x2C88 JUMP JUMPDEST SWAP2 POP PUSH2 0x2CDA DUP3 PUSH2 0x2C99 JUMP JUMPDEST PUSH1 0x20 DUP3 ADD SWAP1 POP SWAP2 SWAP1 POP JUMP JUMPDEST PUSH1 0x0 PUSH1 0x20 DUP3 ADD SWAP1 POP DUP2 DUP2 SUB PUSH1 0x0 DUP4 ADD MSTORE PUSH2 0x2CFE DUP2 PUSH2 0x2CC2 JUMP JUMPDEST SWAP1 POP SWAP2 SWAP1 POP JUMP JUMPDEST PUSH1 0x0 DUP2 MLOAD SWAP1 POP PUSH2 0x2D14 DUP2 PUSH2 0x2879 JUMP JUMPDEST SWAP3 SWAP2 POP POP JUMP JUMPDEST PUSH1 0x0 PUSH1 0x20 DUP3 DUP5 SUB SLT ISZERO PUSH2 0x2D30 JUMPI PUSH2 0x2D2F PUSH2 0x27BF JUMP JUMPDEST JUMPDEST PUSH1 0x0 PUSH2 0x2D3E DUP5 DUP3 DUP6 ADD PUSH2 0x2D05 JUMP JUMPDEST SWAP2 POP POP SWAP3 SWAP2 POP POP JUMP JUMPDEST PUSH32 0x546F6B656E56657374696E673A206E6F7420656E6F7567682077697468647261 PUSH1 0x0 DUP3 ADD MSTORE PUSH32 0x7761626C652066756E6473000000000000000000000000000000000000000000 PUSH1 0x20 DUP3 ADD MSTORE POP JUMP JUMPDEST PUSH1 0x0 PUSH2 0x2DA3 PUSH1 0x2B DUP4 PUSH2 0x2C88 JUMP JUMPDEST SWAP2 POP PUSH2 0x2DAE DUP3 PUSH2 0x2D47 JUMP JUMPDEST PUSH1 0x40 DUP3 ADD SWAP1 POP SWAP2 SWAP1 POP JUMP JUMPDEST PUSH1 0x0 PUSH1 0x20 DUP3 ADD SWAP1 POP DUP2 DUP2 SUB PUSH1 0x0 DUP4 ADD MSTORE PUSH2 0x2DD2 DUP2 PUSH2 0x2D96 JUMP JUMPDEST SWAP1 POP SWAP2 SWAP1 POP JUMP JUMPDEST PUSH32 0x546F6B656E56657374696E673A206F6E6C792062656E65666963696172792061 PUSH1 0x0 DUP3 ADD MSTORE PUSH32 0x6E64206F776E65722063616E2072656C656173652076657374656420746F6B65 PUSH1 0x20 DUP3 ADD MSTORE PUSH32 0x6E73000000000000000000000000000000000000000000000000000000000000 PUSH1 0x40 DUP3 ADD MSTORE POP JUMP JUMPDEST PUSH1 0x0 PUSH2 0x2E5B PUSH1 0x42 DUP4 PUSH2 0x2C88 JUMP JUMPDEST SWAP2 POP PUSH2 0x2E66 DUP3 PUSH2 0x2DD9 JUMP JUMPDEST PUSH1 0x60 DUP3 ADD SWAP1 POP SWAP2 SWAP1 POP JUMP JUMPDEST PUSH1 0x0 PUSH1 0x20 DUP3 ADD SWAP1 POP DUP2 DUP2 SUB PUSH1 0x0 DUP4 ADD MSTORE PUSH2 0x2E8A DUP2 PUSH2 0x2E4E JUMP JUMPDEST SWAP1 POP SWAP2 SWAP1 POP JUMP JUMPDEST PUSH32 0x546F6B656E56657374696E673A2063616E6E6F742072656C6561736520746F6B PUSH1 0x0 DUP3 ADD MSTORE PUSH32 0x656E732C206E6F7420656E6F7567682076657374656420746F6B656E73000000 PUSH1 0x20 DUP3 ADD MSTORE POP JUMP JUMPDEST PUSH1 0x0 PUSH2 0x2EED PUSH1 0x3D DUP4 PUSH2 0x2C88 JUMP JUMPDEST SWAP2 POP PUSH2 0x2EF8 DUP3 PUSH2 0x2E91 JUMP JUMPDEST PUSH1 0x40 DUP3 ADD SWAP1 POP SWAP2 SWAP1 POP JUMP JUMPDEST PUSH1 0x0 PUSH1 0x20 DUP3 ADD SWAP1 POP DUP2 DUP2 SUB PUSH1 0x0 DUP4 ADD MSTORE PUSH2 0x2F1C DUP2 PUSH2 0x2EE0 JUMP JUMPDEST SWAP1 POP SWAP2 SWAP1 POP JUMP JUMPDEST PUSH32 0x496E697469616C697A61626C653A20636F6E747261637420697320616C726561 PUSH1 0x0 DUP3 ADD MSTORE PUSH32 0x647920696E697469616C697A6564000000000000000000000000000000000000 PUSH1 0x20 DUP3 ADD MSTORE POP JUMP JUMPDEST PUSH1 0x0 PUSH2 0x2F7F PUSH1 0x2E DUP4 PUSH2 0x2C88 JUMP JUMPDEST SWAP2 POP PUSH2 0x2F8A DUP3 PUSH2 0x2F23 JUMP JUMPDEST PUSH1 0x40 DUP3 ADD SWAP1 POP SWAP2 SWAP1 POP JUMP JUMPDEST PUSH1 0x0 PUSH1 0x20 DUP3 ADD SWAP1 POP DUP2 DUP2 SUB PUSH1 0x0 DUP4 ADD MSTORE PUSH2 0x2FAE DUP2 PUSH2 0x2F72 JUMP JUMPDEST SWAP1 POP SWAP2 SWAP1 POP JUMP JUMPDEST PUSH32 0x5447452050657263656E74206D7573742062652067726561746572207468616E PUSH1 0x0 DUP3 ADD MSTORE PUSH32 0x203020616E64204C657373207468616E20313030000000000000000000000000 PUSH1 0x20 DUP3 ADD MSTORE POP JUMP JUMPDEST PUSH1 0x0 PUSH2 0x3011 PUSH1 0x34 DUP4 PUSH2 0x2C88 JUMP JUMPDEST SWAP2 POP PUSH2 0x301C DUP3 PUSH2 0x2FB5 JUMP JUMPDEST PUSH1 0x40 DUP3 ADD SWAP1 POP SWAP2 SWAP1 POP JUMP JUMPDEST PUSH1 0x0 PUSH1 0x20 DUP3 ADD SWAP1 POP DUP2 DUP2 SUB PUSH1 0x0 DUP4 ADD MSTORE PUSH2 0x3040 DUP2 PUSH2 0x3004 JUMP JUMPDEST SWAP1 POP SWAP2 SWAP1 POP JUMP JUMPDEST PUSH1 0x0 DUP2 SWAP1 POP SWAP2 SWAP1 POP JUMP JUMPDEST PUSH1 0x0 PUSH1 0xFF DUP3 AND SWAP1 POP SWAP2 SWAP1 POP JUMP JUMPDEST PUSH1 0x0 DUP2 SWAP1 POP SWAP2 SWAP1 POP JUMP JUMPDEST PUSH1 0x0 PUSH2 0x3083 PUSH2 0x307E PUSH2 0x3079 DUP5 PUSH2 0x3047 JUMP JUMPDEST PUSH2 0x305E JUMP JUMPDEST PUSH2 0x3051 JUMP JUMPDEST SWAP1 POP SWAP2 SWAP1 POP JUMP JUMPDEST PUSH2 0x3093 DUP2 PUSH2 0x3068 JUMP JUMPDEST DUP3 MSTORE POP POP JUMP JUMPDEST PUSH1 0x0 PUSH1 0x20 DUP3 ADD SWAP1 POP PUSH2 0x30AE PUSH1 0x0 DUP4 ADD DUP5 PUSH2 0x308A JUMP JUMPDEST SWAP3 SWAP2 POP POP JUMP JUMPDEST PUSH32 0x4E6F204163636573730000000000000000000000000000000000000000000000 PUSH1 0x0 DUP3 ADD MSTORE POP JUMP JUMPDEST PUSH1 0x0 PUSH2 0x30EA PUSH1 0x9 DUP4 PUSH2 0x2C88 JUMP JUMPDEST SWAP2 POP PUSH2 0x30F5 DUP3 PUSH2 0x30B4 JUMP JUMPDEST PUSH1 0x20 DUP3 ADD SWAP1 POP SWAP2 SWAP1 POP JUMP JUMPDEST PUSH1 0x0 PUSH1 0x20 DUP3 ADD SWAP1 POP DUP2 DUP2 SUB PUSH1 0x0 DUP4 ADD MSTORE PUSH2 0x3119 DUP2 PUSH2 0x30DD JUMP JUMPDEST SWAP1 POP SWAP2 SWAP1 POP JUMP JUMPDEST PUSH32 0x546F6B656E56657374696E673A2063616E6E6F74206372656174652076657374 PUSH1 0x0 DUP3 ADD MSTORE PUSH32 0x696E67207363686564756C652062656361757365206E6F742073756666696369 PUSH1 0x20 DUP3 ADD MSTORE PUSH32 0x656E7420746F6B656E7300000000000000000000000000000000000000000000 PUSH1 0x40 DUP3 ADD MSTORE POP JUMP JUMPDEST PUSH1 0x0 PUSH2 0x31A2 PUSH1 0x4A DUP4 PUSH2 0x2C88 JUMP JUMPDEST SWAP2 POP PUSH2 0x31AD DUP3 PUSH2 0x3120 JUMP JUMPDEST PUSH1 0x60 DUP3 ADD SWAP1 POP SWAP2 SWAP1 POP JUMP JUMPDEST PUSH1 0x0 PUSH1 0x20 DUP3 ADD SWAP1 POP DUP2 DUP2 SUB PUSH1 0x0 DUP4 ADD MSTORE PUSH2 0x31D1 DUP2 PUSH2 0x3195 JUMP JUMPDEST SWAP1 POP SWAP2 SWAP1 POP JUMP JUMPDEST PUSH32 0x546F6B656E56657374696E673A206475726174696F6E206D757374206265203E PUSH1 0x0 DUP3 ADD MSTORE PUSH32 0x2030000000000000000000000000000000000000000000000000000000000000 PUSH1 0x20 DUP3 ADD MSTORE POP JUMP JUMPDEST PUSH1 0x0 PUSH2 0x3234 PUSH1 0x22 DUP4 PUSH2 0x2C88 JUMP JUMPDEST SWAP2 POP PUSH2 0x323F DUP3 PUSH2 0x31D8 JUMP JUMPDEST PUSH1 0x40 DUP3 ADD SWAP1 POP SWAP2 SWAP1 POP JUMP JUMPDEST PUSH1 0x0 PUSH1 0x20 DUP3 ADD SWAP1 POP DUP2 DUP2 SUB PUSH1 0x0 DUP4 ADD MSTORE PUSH2 0x3263 DUP2 PUSH2 0x3227 JUMP JUMPDEST SWAP1 POP SWAP2 SWAP1 POP JUMP JUMPDEST PUSH32 0x546F6B656E56657374696E673A20616D6F756E74206D757374206265203E2030 PUSH1 0x0 DUP3 ADD MSTORE POP JUMP JUMPDEST PUSH1 0x0 PUSH2 0x32A0 PUSH1 0x20 DUP4 PUSH2 0x2C88 JUMP JUMPDEST SWAP2 POP PUSH2 0x32AB DUP3 PUSH2 0x326A JUMP JUMPDEST PUSH1 0x20 DUP3 ADD SWAP1 POP SWAP2 SWAP1 POP JUMP JUMPDEST PUSH1 0x0 PUSH1 0x20 DUP3 ADD SWAP1 POP DUP2 DUP2 SUB PUSH1 0x0 DUP4 ADD MSTORE PUSH2 0x32CF DUP2 PUSH2 0x3293 JUMP JUMPDEST SWAP1 POP SWAP2 SWAP1 POP JUMP JUMPDEST PUSH32 0x546F6B656E56657374696E673A20736C696365506572696F645365636F6E6473 PUSH1 0x0 DUP3 ADD MSTORE PUSH32 0x206D757374206265203E3D203100000000000000000000000000000000000000 PUSH1 0x20 DUP3 ADD MSTORE POP JUMP JUMPDEST PUSH1 0x0 PUSH2 0x3332 PUSH1 0x2D DUP4 PUSH2 0x2C88 JUMP JUMPDEST SWAP2 POP PUSH2 0x333D DUP3 PUSH2 0x32D6 JUMP JUMPDEST PUSH1 0x40 DUP3 ADD SWAP1 POP SWAP2 SWAP1 POP JUMP JUMPDEST PUSH1 0x0 PUSH1 0x20 DUP3 ADD SWAP1 POP DUP2 DUP2 SUB PUSH1 0x0 DUP4 ADD MSTORE PUSH2 0x3361 DUP2 PUSH2 0x3325 JUMP JUMPDEST SWAP1 POP SWAP2 SWAP1 POP JUMP JUMPDEST PUSH1 0x0 DUP2 MLOAD SWAP1 POP PUSH2 0x3377 DUP2 PUSH2 0x28DC JUMP JUMPDEST SWAP3 SWAP2 POP POP JUMP JUMPDEST PUSH1 0x0 PUSH1 0x20 DUP3 DUP5 SUB SLT ISZERO PUSH2 0x3393 JUMPI PUSH2 0x3392 PUSH2 0x27BF JUMP JUMPDEST JUMPDEST PUSH1 0x0 PUSH2 0x33A1 DUP5 DUP3 DUP6 ADD PUSH2 0x3368 JUMP JUMPDEST SWAP2 POP POP SWAP3 SWAP2 POP POP JUMP JUMPDEST PUSH32 0x4E487B7100000000000000000000000000000000000000000000000000000000 PUSH1 0x0 MSTORE PUSH1 0x11 PUSH1 0x4 MSTORE PUSH1 0x24 PUSH1 0x0 REVERT JUMPDEST PUSH1 0x0 PUSH2 0x33E4 DUP3 PUSH2 0x278B JUMP JUMPDEST SWAP2 POP PUSH2 0x33EF DUP4 PUSH2 0x278B JUMP JUMPDEST SWAP3 POP DUP3 DUP3 LT ISZERO PUSH2 0x3402 JUMPI PUSH2 0x3401 PUSH2 0x33AA JUMP JUMPDEST JUMPDEST DUP3 DUP3 SUB SWAP1 POP SWAP3 SWAP2 POP POP JUMP JUMPDEST PUSH1 0x0 DUP2 PUSH1 0x60 SHL SWAP1 POP SWAP2 SWAP1 POP JUMP JUMPDEST PUSH1 0x0 PUSH2 0x3425 DUP3 PUSH2 0x340D JUMP JUMPDEST SWAP1 POP SWAP2 SWAP1 POP JUMP JUMPDEST PUSH1 0x0 PUSH2 0x3437 DUP3 PUSH2 0x341A JUMP JUMPDEST SWAP1 POP SWAP2 SWAP1 POP JUMP JUMPDEST PUSH2 0x344F PUSH2 0x344A DUP3 PUSH2 0x27E4 JUMP JUMPDEST PUSH2 0x342C JUMP JUMPDEST DUP3 MSTORE POP POP JUMP JUMPDEST PUSH1 0x0 DUP2 SWAP1 POP SWAP2 SWAP1 POP JUMP JUMPDEST PUSH2 0x3470 PUSH2 0x346B DUP3 PUSH2 0x278B JUMP JUMPDEST PUSH2 0x3455 JUMP JUMPDEST DUP3 MSTORE POP POP JUMP JUMPDEST PUSH1 0x0 PUSH2 0x3482 DUP3 DUP6 PUSH2 0x343E JUMP JUMPDEST PUSH1 0x14 DUP3 ADD SWAP2 POP PUSH2 0x3492 DUP3 DUP5 PUSH2 0x345F JUMP JUMPDEST PUSH1 0x20 DUP3 ADD SWAP2 POP DUP2 SWAP1 POP SWAP4 SWAP3 POP POP POP JUMP JUMPDEST PUSH32 0x546F6B656E56657374696E673A2076657374696E67206973206E6F7420726576 PUSH1 0x0 DUP3 ADD MSTORE PUSH32 0x6F6361626C650000000000000000000000000000000000000000000000000000 PUSH1 0x20 DUP3 ADD MSTORE POP JUMP JUMPDEST PUSH1 0x0 PUSH2 0x34FE PUSH1 0x26 DUP4 PUSH2 0x2C88 JUMP JUMPDEST SWAP2 POP PUSH2 0x3509 DUP3 PUSH2 0x34A2 JUMP JUMPDEST PUSH1 0x40 DUP3 ADD SWAP1 POP SWAP2 SWAP1 POP JUMP JUMPDEST PUSH1 0x0 PUSH1 0x20 DUP3 ADD SWAP1 POP DUP2 DUP2 SUB PUSH1 0x0 DUP4 ADD MSTORE PUSH2 0x352D DUP2 PUSH2 0x34F1 JUMP JUMPDEST SWAP1 POP SWAP2 SWAP1 POP JUMP JUMPDEST PUSH32 0x4F776E61626C653A206E6577206F776E657220697320746865207A65726F2061 PUSH1 0x0 DUP3 ADD MSTORE PUSH32 0x6464726573730000000000000000000000000000000000000000000000000000 PUSH1 0x20 DUP3 ADD MSTORE POP JUMP JUMPDEST PUSH1 0x0 PUSH2 0x3590 PUSH1 0x26 DUP4 PUSH2 0x2C88 JUMP JUMPDEST SWAP2 POP PUSH2 0x359B DUP3 PUSH2 0x3534 JUMP JUMPDEST PUSH1 0x40 DUP3 ADD SWAP1 POP SWAP2 SWAP1 POP JUMP JUMPDEST PUSH1 0x0 PUSH1 0x20 DUP3 ADD SWAP1 POP DUP2 DUP2 SUB PUSH1 0x0 DUP4 ADD MSTORE PUSH2 0x35BF DUP2 PUSH2 0x3583 JUMP JUMPDEST SWAP1 POP SWAP2 SWAP1 POP JUMP JUMPDEST PUSH32 0x546F6B656E56657374696E673A20696E646578206F7574206F6620626F756E64 PUSH1 0x0 DUP3 ADD MSTORE PUSH32 0x7300000000000000000000000000000000000000000000000000000000000000 PUSH1 0x20 DUP3 ADD MSTORE POP JUMP JUMPDEST PUSH1 0x0 PUSH2 0x3622 PUSH1 0x21 DUP4 PUSH2 0x2C88 JUMP JUMPDEST SWAP2 POP PUSH2 0x362D DUP3 PUSH2 0x35C6 JUMP JUMPDEST PUSH1 0x40 DUP3 ADD SWAP1 POP SWAP2 SWAP1 POP JUMP JUMPDEST PUSH1 0x0 PUSH1 0x20 DUP3 ADD SWAP1 POP DUP2 DUP2 SUB PUSH1 0x0 DUP4 ADD MSTORE PUSH2 0x3651 DUP2 PUSH2 0x3615 JUMP JUMPDEST SWAP1 POP SWAP2 SWAP1 POP JUMP JUMPDEST PUSH32 0x4E487B7100000000000000000000000000000000000000000000000000000000 PUSH1 0x0 MSTORE PUSH1 0x32 PUSH1 0x4 MSTORE PUSH1 0x24 PUSH1 0x0 REVERT JUMPDEST PUSH32 0x52656C65617365546F6B656E41745447453A206F6E6C7920696E766573746F72 PUSH1 0x0 DUP3 ADD MSTORE PUSH32 0x732063616E20636C61696D20746F6B656E206174205447450000000000000000 PUSH1 0x20 DUP3 ADD MSTORE POP JUMP JUMPDEST PUSH1 0x0 PUSH2 0x36E3 PUSH1 0x38 DUP4 PUSH2 0x2C88 JUMP JUMPDEST SWAP2 POP PUSH2 0x36EE DUP3 PUSH2 0x3687 JUMP JUMPDEST PUSH1 0x40 DUP3 ADD SWAP1 POP SWAP2 SWAP1 POP JUMP JUMPDEST PUSH1 0x0 PUSH1 0x20 DUP3 ADD SWAP1 POP DUP2 DUP2 SUB PUSH1 0x0 DUP4 ADD MSTORE PUSH2 0x3712 DUP2 PUSH2 0x36D6 JUMP JUMPDEST SWAP1 POP SWAP2 SWAP1 POP JUMP JUMPDEST PUSH32 0x5447453A2074696D65206E6F7420726561636865642100000000000000000000 PUSH1 0x0 DUP3 ADD MSTORE POP JUMP JUMPDEST PUSH1 0x0 PUSH2 0x374F PUSH1 0x16 DUP4 PUSH2 0x2C88 JUMP JUMPDEST SWAP2 POP PUSH2 0x375A DUP3 PUSH2 0x3719 JUMP JUMPDEST PUSH1 0x20 DUP3 ADD SWAP1 POP SWAP2 SWAP1 POP JUMP JUMPDEST PUSH1 0x0 PUSH1 0x20 DUP3 ADD SWAP1 POP DUP2 DUP2 SUB PUSH1 0x0 DUP4 ADD MSTORE PUSH2 0x377E DUP2 PUSH2 0x3742 JUMP JUMPDEST SWAP1 POP SWAP2 SWAP1 POP JUMP JUMPDEST PUSH32 0x5447453A20546F6B656E20416C726561647920636C61696D6564000000000000 PUSH1 0x0 DUP3 ADD MSTORE POP JUMP JUMPDEST PUSH1 0x0 PUSH2 0x37BB PUSH1 0x1A DUP4 PUSH2 0x2C88 JUMP JUMPDEST SWAP2 POP PUSH2 0x37C6 DUP3 PUSH2 0x3785 JUMP JUMPDEST PUSH1 0x20 DUP3 ADD SWAP1 POP SWAP2 SWAP1 POP JUMP JUMPDEST PUSH1 0x0 PUSH1 0x20 DUP3 ADD SWAP1 POP DUP2 DUP2 SUB PUSH1 0x0 DUP4 ADD MSTORE PUSH2 0x37EA DUP2 PUSH2 0x37AE JUMP JUMPDEST SWAP1 POP SWAP2 SWAP1 POP JUMP JUMPDEST PUSH1 0x0 PUSH2 0x380C PUSH2 0x3807 PUSH2 0x3802 DUP5 PUSH2 0x27C4 JUMP JUMPDEST PUSH2 0x305E JUMP JUMPDEST PUSH2 0x27C4 JUMP JUMPDEST SWAP1 POP SWAP2 SWAP1 POP JUMP JUMPDEST PUSH1 0x0 PUSH2 0x381E DUP3 PUSH2 0x37F1 JUMP JUMPDEST SWAP1 POP SWAP2 SWAP1 POP JUMP JUMPDEST PUSH1 0x0 PUSH2 0x3830 DUP3 PUSH2 0x3813 JUMP JUMPDEST SWAP1 POP SWAP2 SWAP1 POP JUMP JUMPDEST PUSH2 0x3840 DUP2 PUSH2 0x3825 JUMP JUMPDEST DUP3 MSTORE POP POP JUMP JUMPDEST PUSH1 0x0 PUSH1 0x40 DUP3 ADD SWAP1 POP PUSH2 0x385B PUSH1 0x0 DUP4 ADD DUP6 PUSH2 0x3837 JUMP JUMPDEST PUSH2 0x3868 PUSH1 0x20 DUP4 ADD DUP5 PUSH2 0x2795 JUMP JUMPDEST SWAP4 SWAP3 POP POP POP JUMP JUMPDEST PUSH32 0x4F776E61626C653A2063616C6C6572206973206E6F7420746865206F776E6572 PUSH1 0x0 DUP3 ADD MSTORE POP JUMP JUMPDEST PUSH1 0x0 PUSH2 0x38A5 PUSH1 0x20 DUP4 PUSH2 0x2C88 JUMP JUMPDEST SWAP2 POP PUSH2 0x38B0 DUP3 PUSH2 0x386F JUMP JUMPDEST PUSH1 0x20 DUP3 ADD SWAP1 POP SWAP2 SWAP1 POP JUMP JUMPDEST PUSH1 0x0 PUSH1 0x20 DUP3 ADD SWAP1 POP DUP2 DUP2 SUB PUSH1 0x0 DUP4 ADD MSTORE PUSH2 0x38D4 DUP2 PUSH2 0x3898 JUMP JUMPDEST SWAP1 POP SWAP2 SWAP1 POP JUMP JUMPDEST PUSH1 0x0 PUSH1 0x40 DUP3 ADD SWAP1 POP PUSH2 0x38F0 PUSH1 0x0 DUP4 ADD DUP6 PUSH2 0x284F JUMP JUMPDEST PUSH2 0x38FD PUSH1 0x20 DUP4 ADD DUP5 PUSH2 0x2795 JUMP JUMPDEST SWAP4 SWAP3 POP POP POP JUMP JUMPDEST PUSH1 0x0 PUSH2 0x390F DUP3 PUSH2 0x278B JUMP JUMPDEST SWAP2 POP PUSH2 0x391A DUP4 PUSH2 0x278B JUMP JUMPDEST SWAP3 POP DUP3 PUSH32 0xFFFFFFFFFFFFFFFFFFFFFFFFFFFFFFFFFFFFFFFFFFFFFFFFFFFFFFFFFFFFFFFF SUB DUP3 GT ISZERO PUSH2 0x394F JUMPI PUSH2 0x394E PUSH2 0x33AA JUMP JUMPDEST JUMPDEST DUP3 DUP3 ADD SWAP1 POP SWAP3 SWAP2 POP POP JUMP JUMPDEST PUSH32 0x496E697469616C697A61626C653A20636F6E7472616374206973206E6F742069 PUSH1 0x0 DUP3 ADD MSTORE PUSH32 0x6E697469616C697A696E67000000000000000000000000000000000000000000 PUSH1 0x20 DUP3 ADD MSTORE POP JUMP JUMPDEST PUSH1 0x0 PUSH2 0x39B6 PUSH1 0x2B DUP4 PUSH2 0x2C88 JUMP JUMPDEST SWAP2 POP PUSH2 0x39C1 DUP3 PUSH2 0x395A JUMP JUMPDEST PUSH1 0x40 DUP3 ADD SWAP1 POP SWAP2 SWAP1 POP JUMP JUMPDEST PUSH1 0x0 PUSH1 0x20 DUP3 ADD SWAP1 POP DUP2 DUP2 SUB PUSH1 0x0 DUP4 ADD MSTORE PUSH2 0x39E5 DUP2 PUSH2 0x39A9 JUMP JUMPDEST SWAP1 POP SWAP2 SWAP1 POP JUMP JUMPDEST PUSH1 0x0 PUSH2 0x39F7 DUP3 PUSH2 0x278B JUMP JUMPDEST SWAP2 POP PUSH2 0x3A02 DUP4 PUSH2 0x278B JUMP JUMPDEST SWAP3 POP DUP2 PUSH32 0xFFFFFFFFFFFFFFFFFFFFFFFFFFFFFFFFFFFFFFFFFFFFFFFFFFFFFFFFFFFFFFFF DIV DUP4 GT DUP3 ISZERO ISZERO AND ISZERO PUSH2 0x3A3B JUMPI PUSH2 0x3A3A PUSH2 0x33AA JUMP JUMPDEST JUMPDEST DUP3 DUP3 MUL SWAP1 POP SWAP3 SWAP2 POP POP JUMP JUMPDEST PUSH32 0x4E487B7100000000000000000000000000000000000000000000000000000000 PUSH1 0x0 MSTORE PUSH1 0x12 PUSH1 0x4 MSTORE PUSH1 0x24 PUSH1 0x0 REVERT JUMPDEST PUSH1 0x0 PUSH2 0x3A80 DUP3 PUSH2 0x278B JUMP JUMPDEST SWAP2 POP PUSH2 0x3A8B DUP4 PUSH2 0x278B JUMP JUMPDEST SWAP3 POP DUP3 PUSH2 0x3A9B JUMPI PUSH2 0x3A9A PUSH2 0x3A46 JUMP JUMPDEST JUMPDEST DUP3 DUP3 DIV SWAP1 POP SWAP3 SWAP2 POP POP JUMP JUMPDEST PUSH1 0x0 DUP2 MLOAD SWAP1 POP PUSH2 0x3AB5 DUP2 PUSH2 0x29E5 JUMP JUMPDEST SWAP3 SWAP2 POP POP JUMP JUMPDEST PUSH1 0x0 PUSH1 0x20 DUP3 DUP5 SUB SLT ISZERO PUSH2 0x3AD1 JUMPI PUSH2 0x3AD0 PUSH2 0x27BF JUMP JUMPDEST JUMPDEST PUSH1 0x0 PUSH2 0x3ADF DUP5 DUP3 DUP6 ADD PUSH2 0x3AA6 JUMP JUMPDEST SWAP2 POP POP SWAP3 SWAP2 POP POP JUMP JUMPDEST PUSH32 0x5361666545524332303A204552433230206F7065726174696F6E20646964206E PUSH1 0x0 DUP3 ADD MSTORE PUSH32 0x6F74207375636365656400000000000000000000000000000000000000000000 PUSH1 0x20 DUP3 ADD MSTORE POP JUMP JUMPDEST PUSH1 0x0 PUSH2 0x3B44 PUSH1 0x2A DUP4 PUSH2 0x2C88 JUMP JUMPDEST SWAP2 POP PUSH2 0x3B4F DUP3 PUSH2 0x3AE8 JUMP JUMPDEST PUSH1 0x40 DUP3 ADD SWAP1 POP SWAP2 SWAP1 POP JUMP JUMPDEST PUSH1 0x0 PUSH1 0x20 DUP3 ADD SWAP1 POP DUP2 DUP2 SUB PUSH1 0x0 DUP4 ADD MSTORE PUSH2 0x3B73 DUP2 PUSH2 0x3B37 JUMP JUMPDEST SWAP1 POP SWAP2 SWAP1 POP JUMP JUMPDEST PUSH32 0x416464726573733A20696E73756666696369656E742062616C616E636520666F PUSH1 0x0 DUP3 ADD MSTORE PUSH32 0x722063616C6C0000000000000000000000000000000000000000000000000000 PUSH1 0x20 DUP3 ADD MSTORE POP JUMP JUMPDEST PUSH1 0x0 PUSH2 0x3BD6 PUSH1 0x26 DUP4 PUSH2 0x2C88 JUMP JUMPDEST SWAP2 POP PUSH2 0x3BE1 DUP3 PUSH2 0x3B7A JUMP JUMPDEST PUSH1 0x40 DUP3 ADD SWAP1 POP SWAP2 SWAP1 POP JUMP JUMPDEST PUSH1 0x0 PUSH1 0x20 DUP3 ADD SWAP1 POP DUP2 DUP2 SUB PUSH1 0x0 DUP4 ADD MSTORE PUSH2 0x3C05 DUP2 PUSH2 0x3BC9 JUMP JUMPDEST SWAP1 POP SWAP2 SWAP1 POP JUMP JUMPDEST PUSH32 0x416464726573733A2063616C6C20746F206E6F6E2D636F6E7472616374000000 PUSH1 0x0 DUP3 ADD MSTORE POP JUMP JUMPDEST PUSH1 0x0 PUSH2 0x3C42 PUSH1 0x1D DUP4 PUSH2 0x2C88 JUMP JUMPDEST SWAP2 POP PUSH2 0x3C4D DUP3 PUSH2 0x3C0C JUMP JUMPDEST PUSH1 0x20 DUP3 ADD SWAP1 POP SWAP2 SWAP1 POP JUMP JUMPDEST PUSH1 0x0 PUSH1 0x20 DUP3 ADD SWAP1 POP DUP2 DUP2 SUB PUSH1 0x0 DUP4 ADD MSTORE PUSH2 0x3C71 DUP2 PUSH2 0x3C35 JUMP JUMPDEST SWAP1 POP SWAP2 SWAP1 POP JUMP JUMPDEST PUSH1 0x0 DUP2 MLOAD SWAP1 POP SWAP2 SWAP1 POP JUMP JUMPDEST PUSH1 0x0 DUP2 SWAP1 POP SWAP3 SWAP2 POP POP JUMP JUMPDEST PUSH1 0x0 JUMPDEST DUP4 DUP2 LT ISZERO PUSH2 0x3CAC JUMPI DUP1 DUP3 ADD MLOAD DUP2 DUP5 ADD MSTORE PUSH1 0x20 DUP2 ADD SWAP1 POP PUSH2 0x3C91 JUMP JUMPDEST DUP4 DUP2 GT ISZERO PUSH2 0x3CBB JUMPI PUSH1 0x0 DUP5 DUP5 ADD MSTORE JUMPDEST POP POP POP POP JUMP JUMPDEST PUSH1 0x0 PUSH2 0x3CCC DUP3 PUSH2 0x3C78 JUMP JUMPDEST PUSH2 0x3CD6 DUP2 DUP6 PUSH2 0x3C83 JUMP JUMPDEST SWAP4 POP PUSH2 0x3CE6 DUP2 DUP6 PUSH1 0x20 DUP7 ADD PUSH2 0x3C8E JUMP JUMPDEST DUP1 DUP5 ADD SWAP2 POP POP SWAP3 SWAP2 POP POP JUMP JUMPDEST PUSH1 0x0 PUSH2 0x3CFE DUP3 DUP5 PUSH2 0x3CC1 JUMP JUMPDEST SWAP2 POP DUP2 SWAP1 POP SWAP3 SWAP2 POP POP JUMP JUMPDEST PUSH1 0x0 DUP2 MLOAD SWAP1 POP SWAP2 SWAP1 POP JUMP JUMPDEST PUSH1 0x0 PUSH1 0x1F NOT PUSH1 0x1F DUP4 ADD AND SWAP1 POP SWAP2 SWAP1 POP JUMP JUMPDEST PUSH1 0x0 PUSH2 0x3D30 DUP3 PUSH2 0x3D09 JUMP JUMPDEST PUSH2 0x3D3A DUP2 DUP6 PUSH2 0x2C88 JUMP JUMPDEST SWAP4 POP PUSH2 0x3D4A DUP2 DUP6 PUSH1 0x20 DUP7 ADD PUSH2 0x3C8E JUMP JUMPDEST PUSH2 0x3D53 DUP2 PUSH2 0x3D14 JUMP JUMPDEST DUP5 ADD SWAP2 POP POP SWAP3 SWAP2 POP POP JUMP JUMPDEST PUSH1 0x0 PUSH1 0x20 DUP3 ADD SWAP1 POP DUP2 DUP2 SUB PUSH1 0x0 DUP4 ADD MSTORE PUSH2 0x3D78 DUP2 DUP5 PUSH2 0x3D25 JUMP JUMPDEST SWAP1 POP SWAP3 SWAP2 POP POP JUMP INVALID LOG2 PUSH5 0x6970667358 0x22 SLT KECCAK256 0xCC LOG2 0xD0 0x2D 0xE 0x1E PUSH2 0xD88A PUSH12 0xDDF3B6084B192CA15CA837D7 0x4E PUSH21 0xC7EE00566A99F29164736F6C634300080900330000 "
		},
		"gasEstimates": {
			"creation": {
				"codeDepositCost": "3159600",
				"executionCost": "3491",
				"totalCost": "3163091"
			},
			"external": {
				"computeNextVestingScheduleIdForHolder(address)": "infinite",
				"computeReleasableAmount(bytes32)": "infinite",
				"computeVestingScheduleIdForAddressAndIndex(address,uint256)": "infinite",
				"createVestingSchedule(address,uint256,uint256,uint256,uint256,bool,uint256,bool)": "infinite",
				"crowdsalesAddress()": "2626",
				"getLastVestingScheduleForHolder(address)": "infinite",
				"getToken()": "2590",
				"getVestingIdAtIndex(uint256)": "7136",
				"getVestingSchedule(bytes32)": "infinite",
				"getVestingScheduleByAddressAndIndex(address,uint256)": "infinite",
				"getVestingSchedulesCount()": "2469",
				"getVestingSchedulesCountByBeneficiary(address)": "2931",
				"getVestingSchedulesTotalAmount()": "2505",
				"getWithdrawableAmount()": "infinite",
				"initialize(address,uint256,uint256)": "infinite",
				"owner()": "2612",
				"release(bytes32,uint256)": "infinite",
				"releaseTokenForTGE(bytes32)": "infinite",
				"renounceOwnership()": "30465",
				"revoke(bytes32)": "infinite",
				"setCrowdsaleAddress(address)": "24768",
				"setCurrentTime(uint256)": "22610",
				"tgeOpeningTime()": "2475",
				"tgePercent()": "2474",
				"tgeTokenParticipants(bytes32)": "2876",
				"transferOwnership(address)": "30836",
				"withdraw(uint256)": "infinite"
			},
			"internal": {
				"getCurrentTime()": "2123"
			}
		},
		"methodIdentifiers": {
			"computeNextVestingScheduleIdForHolder(address)": "f7c469f0",
			"computeReleasableAmount(bytes32)": "ea1bb3d5",
			"computeVestingScheduleIdForAddressAndIndex(address,uint256)": "8af104da",
			"createVestingSchedule(address,uint256,uint256,uint256,uint256,bool,uint256,bool)": "7df8df92",
			"crowdsalesAddress()": "260a51e5",
			"getLastVestingScheduleForHolder(address)": "7e913dc6",
			"getToken()": "21df0da7",
			"getVestingIdAtIndex(uint256)": "f9079b37",
			"getVestingSchedule(bytes32)": "9ef346b4",
			"getVestingScheduleByAddressAndIndex(address,uint256)": "f51321d7",
			"getVestingSchedulesCount()": "13083617",
			"getVestingSchedulesCountByBeneficiary(address)": "5a7bb69a",
			"getVestingSchedulesTotalAmount()": "48deb471",
			"getWithdrawableAmount()": "90be10cc",
			"initialize(address,uint256,uint256)": "7a1ac61e",
			"owner()": "8da5cb5b",
			"release(bytes32,uint256)": "66afd8ef",
			"releaseTokenForTGE(bytes32)": "f9299dd9",
			"renounceOwnership()": "715018a6",
			"revoke(bytes32)": "b75c7dc6",
			"setCrowdsaleAddress(address)": "1f35bc40",
			"setCurrentTime(uint256)": "22f8e566",
			"tgeOpeningTime()": "40a9627f",
			"tgePercent()": "e2f0f42d",
			"tgeTokenParticipants(bytes32)": "c8ac75d2",
			"transferOwnership(address)": "f2fde38b",
			"withdraw(uint256)": "2e1a7d4d"
		}
	},
	"abi": [
		{
			"anonymous": false,
			"inputs": [
				{
					"indexed": false,
					"internalType": "uint8",
					"name": "version",
					"type": "uint8"
				}
			],
			"name": "Initialized",
			"type": "event"
		},
		{
			"anonymous": false,
			"inputs": [
				{
					"indexed": true,
					"internalType": "address",
					"name": "previousOwner",
					"type": "address"
				},
				{
					"indexed": true,
					"internalType": "address",
					"name": "newOwner",
					"type": "address"
				}
			],
			"name": "OwnershipTransferred",
			"type": "event"
		},
		{
			"anonymous": false,
			"inputs": [
				{
					"indexed": false,
					"internalType": "uint256",
					"name": "amount",
					"type": "uint256"
				}
			],
			"name": "Released",
			"type": "event"
		},
		{
			"anonymous": false,
			"inputs": [],
			"name": "Revoked",
			"type": "event"
		},
		{
			"anonymous": false,
			"inputs": [
				{
					"indexed": false,
					"internalType": "address",
					"name": "beneficiary",
					"type": "address"
				},
				{
					"indexed": false,
					"internalType": "uint256",
					"name": "amount",
					"type": "uint256"
				}
			],
			"name": "TokenReleasedAtTGE",
			"type": "event"
		},
		{
			"anonymous": false,
			"inputs": [
				{
					"indexed": false,
					"internalType": "bytes32",
					"name": "",
					"type": "bytes32"
				}
			],
			"name": "VestingScheduleCreated",
			"type": "event"
		},
		{
			"inputs": [
				{
					"internalType": "address",
					"name": "holder",
					"type": "address"
				}
			],
			"name": "computeNextVestingScheduleIdForHolder",
			"outputs": [
				{
					"internalType": "bytes32",
					"name": "",
					"type": "bytes32"
				}
			],
			"stateMutability": "view",
			"type": "function"
		},
		{
			"inputs": [
				{
					"internalType": "bytes32",
					"name": "vestingScheduleId",
					"type": "bytes32"
				}
			],
			"name": "computeReleasableAmount",
			"outputs": [
				{
					"internalType": "uint256",
					"name": "",
					"type": "uint256"
				}
			],
			"stateMutability": "view",
			"type": "function"
		},
		{
			"inputs": [
				{
					"internalType": "address",
					"name": "holder",
					"type": "address"
				},
				{
					"internalType": "uint256",
					"name": "index",
					"type": "uint256"
				}
			],
			"name": "computeVestingScheduleIdForAddressAndIndex",
			"outputs": [
				{
					"internalType": "bytes32",
					"name": "",
					"type": "bytes32"
				}
			],
			"stateMutability": "pure",
			"type": "function"
		},
		{
			"inputs": [
				{
					"internalType": "address",
					"name": "iBeneficiary",
					"type": "address"
				},
				{
					"internalType": "uint256",
					"name": "iStart",
					"type": "uint256"
				},
				{
					"internalType": "uint256",
					"name": "iCliff",
					"type": "uint256"
				},
				{
					"internalType": "uint256",
					"name": "iDuration",
					"type": "uint256"
				},
				{
					"internalType": "uint256",
					"name": "iSlicePeriodSeconds",
					"type": "uint256"
				},
				{
					"internalType": "bool",
					"name": "iRevocable",
					"type": "bool"
				},
				{
					"internalType": "uint256",
					"name": "iAmount",
					"type": "uint256"
				},
				{
					"internalType": "bool",
					"name": "iReleaseAtTGE",
					"type": "bool"
				}
			],
			"name": "createVestingSchedule",
			"outputs": [],
			"stateMutability": "nonpayable",
			"type": "function"
		},
		{
			"inputs": [],
			"name": "crowdsalesAddress",
			"outputs": [
				{
					"internalType": "address",
					"name": "",
					"type": "address"
				}
			],
			"stateMutability": "view",
			"type": "function"
		},
		{
			"inputs": [
				{
					"internalType": "address",
					"name": "holder",
					"type": "address"
				}
			],
			"name": "getLastVestingScheduleForHolder",
			"outputs": [
				{
					"components": [
						{
							"internalType": "bool",
							"name": "initialized",
							"type": "bool"
						},
						{
							"internalType": "address",
							"name": "beneficiary",
							"type": "address"
						},
						{
							"internalType": "uint256",
							"name": "cliff",
							"type": "uint256"
						},
						{
							"internalType": "uint256",
							"name": "start",
							"type": "uint256"
						},
						{
							"internalType": "uint256",
							"name": "duration",
							"type": "uint256"
						},
						{
							"internalType": "uint256",
							"name": "slicePeriodSeconds",
							"type": "uint256"
						},
						{
							"internalType": "bool",
							"name": "revocable",
							"type": "bool"
						},
						{
							"internalType": "uint256",
							"name": "amountTotal",
							"type": "uint256"
						},
						{
							"internalType": "uint256",
							"name": "released",
							"type": "uint256"
						},
						{
							"internalType": "bool",
							"name": "revoked",
							"type": "bool"
						},
						{
							"internalType": "bool",
							"name": "releaseAtTGE",
							"type": "bool"
						}
					],
					"internalType": "struct PaymeTokenVesting.VestingSchedule",
					"name": "",
					"type": "tuple"
				}
			],
			"stateMutability": "view",
			"type": "function"
		},
		{
			"inputs": [],
			"name": "getToken",
			"outputs": [
				{
					"internalType": "address",
					"name": "",
					"type": "address"
				}
			],
			"stateMutability": "view",
			"type": "function"
		},
		{
			"inputs": [
				{
					"internalType": "uint256",
					"name": "index",
					"type": "uint256"
				}
			],
			"name": "getVestingIdAtIndex",
			"outputs": [
				{
					"internalType": "bytes32",
					"name": "",
					"type": "bytes32"
				}
			],
			"stateMutability": "view",
			"type": "function"
		},
		{
			"inputs": [
				{
					"internalType": "bytes32",
					"name": "vestingScheduleId",
					"type": "bytes32"
				}
			],
			"name": "getVestingSchedule",
			"outputs": [
				{
					"components": [
						{
							"internalType": "bool",
							"name": "initialized",
							"type": "bool"
						},
						{
							"internalType": "address",
							"name": "beneficiary",
							"type": "address"
						},
						{
							"internalType": "uint256",
							"name": "cliff",
							"type": "uint256"
						},
						{
							"internalType": "uint256",
							"name": "start",
							"type": "uint256"
						},
						{
							"internalType": "uint256",
							"name": "duration",
							"type": "uint256"
						},
						{
							"internalType": "uint256",
							"name": "slicePeriodSeconds",
							"type": "uint256"
						},
						{
							"internalType": "bool",
							"name": "revocable",
							"type": "bool"
						},
						{
							"internalType": "uint256",
							"name": "amountTotal",
							"type": "uint256"
						},
						{
							"internalType": "uint256",
							"name": "released",
							"type": "uint256"
						},
						{
							"internalType": "bool",
							"name": "revoked",
							"type": "bool"
						},
						{
							"internalType": "bool",
							"name": "releaseAtTGE",
							"type": "bool"
						}
					],
					"internalType": "struct PaymeTokenVesting.VestingSchedule",
					"name": "",
					"type": "tuple"
				}
			],
			"stateMutability": "view",
			"type": "function"
		},
		{
			"inputs": [
				{
					"internalType": "address",
					"name": "holder",
					"type": "address"
				},
				{
					"internalType": "uint256",
					"name": "index",
					"type": "uint256"
				}
			],
			"name": "getVestingScheduleByAddressAndIndex",
			"outputs": [
				{
					"components": [
						{
							"internalType": "bool",
							"name": "initialized",
							"type": "bool"
						},
						{
							"internalType": "address",
							"name": "beneficiary",
							"type": "address"
						},
						{
							"internalType": "uint256",
							"name": "cliff",
							"type": "uint256"
						},
						{
							"internalType": "uint256",
							"name": "start",
							"type": "uint256"
						},
						{
							"internalType": "uint256",
							"name": "duration",
							"type": "uint256"
						},
						{
							"internalType": "uint256",
							"name": "slicePeriodSeconds",
							"type": "uint256"
						},
						{
							"internalType": "bool",
							"name": "revocable",
							"type": "bool"
						},
						{
							"internalType": "uint256",
							"name": "amountTotal",
							"type": "uint256"
						},
						{
							"internalType": "uint256",
							"name": "released",
							"type": "uint256"
						},
						{
							"internalType": "bool",
							"name": "revoked",
							"type": "bool"
						},
						{
							"internalType": "bool",
							"name": "releaseAtTGE",
							"type": "bool"
						}
					],
					"internalType": "struct PaymeTokenVesting.VestingSchedule",
					"name": "",
					"type": "tuple"
				}
			],
			"stateMutability": "view",
			"type": "function"
		},
		{
			"inputs": [],
			"name": "getVestingSchedulesCount",
			"outputs": [
				{
					"internalType": "uint256",
					"name": "",
					"type": "uint256"
				}
			],
			"stateMutability": "view",
			"type": "function"
		},
		{
			"inputs": [
				{
					"internalType": "address",
					"name": "iBeneficiary",
					"type": "address"
				}
			],
			"name": "getVestingSchedulesCountByBeneficiary",
			"outputs": [
				{
					"internalType": "uint256",
					"name": "",
					"type": "uint256"
				}
			],
			"stateMutability": "view",
			"type": "function"
		},
		{
			"inputs": [],
			"name": "getVestingSchedulesTotalAmount",
			"outputs": [
				{
					"internalType": "uint256",
					"name": "",
					"type": "uint256"
				}
			],
			"stateMutability": "view",
			"type": "function"
		},
		{
			"inputs": [],
			"name": "getWithdrawableAmount",
			"outputs": [
				{
					"internalType": "uint256",
					"name": "",
					"type": "uint256"
				}
			],
			"stateMutability": "view",
			"type": "function"
		},
		{
			"inputs": [
				{
					"internalType": "contract IERC20Upgradeable",
					"name": "iToken",
					"type": "address"
				},
				{
					"internalType": "uint256",
					"name": "iTGEPercent",
					"type": "uint256"
				},
				{
					"internalType": "uint256",
					"name": "iTGEOpeningTime",
					"type": "uint256"
				}
			],
			"name": "initialize",
			"outputs": [],
			"stateMutability": "nonpayable",
			"type": "function"
		},
		{
			"inputs": [],
			"name": "owner",
			"outputs": [
				{
					"internalType": "address",
					"name": "",
					"type": "address"
				}
			],
			"stateMutability": "view",
			"type": "function"
		},
		{
			"inputs": [
				{
					"internalType": "bytes32",
					"name": "vestingScheduleId",
					"type": "bytes32"
				},
				{
					"internalType": "uint256",
					"name": "amount",
					"type": "uint256"
				}
			],
			"name": "release",
			"outputs": [],
			"stateMutability": "nonpayable",
			"type": "function"
		},
		{
			"inputs": [
				{
					"internalType": "bytes32",
					"name": "vestingScheduleId",
					"type": "bytes32"
				}
			],
			"name": "releaseTokenForTGE",
			"outputs": [],
			"stateMutability": "nonpayable",
			"type": "function"
		},
		{
			"inputs": [],
			"name": "renounceOwnership",
			"outputs": [],
			"stateMutability": "nonpayable",
			"type": "function"
		},
		{
			"inputs": [
				{
					"internalType": "bytes32",
					"name": "vestingScheduleId",
					"type": "bytes32"
				}
			],
			"name": "revoke",
			"outputs": [],
			"stateMutability": "nonpayable",
			"type": "function"
		},
		{
			"inputs": [
				{
					"internalType": "address",
					"name": "icrowdsalesAddress",
					"type": "address"
				}
			],
			"name": "setCrowdsaleAddress",
			"outputs": [],
			"stateMutability": "nonpayable",
			"type": "function"
		},
		{
			"inputs": [
				{
					"internalType": "uint256",
					"name": "_time",
					"type": "uint256"
				}
			],
			"name": "setCurrentTime",
			"outputs": [],
			"stateMutability": "nonpayable",
			"type": "function"
		},
		{
			"inputs": [],
			"name": "tgeOpeningTime",
			"outputs": [
				{
					"internalType": "uint256",
					"name": "",
					"type": "uint256"
				}
			],
			"stateMutability": "view",
			"type": "function"
		},
		{
			"inputs": [],
			"name": "tgePercent",
			"outputs": [
				{
					"internalType": "uint256",
					"name": "",
					"type": "uint256"
				}
			],
			"stateMutability": "view",
			"type": "function"
		},
		{
			"inputs": [
				{
					"internalType": "bytes32",
					"name": "",
					"type": "bytes32"
				}
			],
			"name": "tgeTokenParticipants",
			"outputs": [
				{
					"internalType": "uint256",
					"name": "",
					"type": "uint256"
				}
			],
			"stateMutability": "view",
			"type": "function"
		},
		{
			"inputs": [
				{
					"internalType": "address",
					"name": "newOwner",
					"type": "address"
				}
			],
			"name": "transferOwnership",
			"outputs": [],
			"stateMutability": "nonpayable",
			"type": "function"
		},
		{
			"inputs": [
				{
					"internalType": "uint256",
					"name": "amount",
					"type": "uint256"
				}
			],
			"name": "withdraw",
			"outputs": [],
			"stateMutability": "nonpayable",
			"type": "function"
		}
	]
}